{
  "_format": "hh-sol-artifact-1",
  "contractName": "CandidateDatabase",
  "sourceName": "contracts/CandidateDatabase.sol",
  "abi": [
    {
      "inputs": [],
      "name": "AdminManagement__AdminNotFound",
      "type": "error"
    },
    {
      "inputs": [],
      "name": "AdminManagement__AlreadyAdmin",
      "type": "error"
    },
    {
      "inputs": [],
      "name": "AdminManagement__InvalidAddress",
      "type": "error"
    },
    {
      "inputs": [],
      "name": "AdminManagement__NotAdmin",
      "type": "error"
    },
    {
      "inputs": [],
      "name": "AdminManagement__NotOwner",
      "type": "error"
    },
    {
      "inputs": [],
      "name": "CandidateDatabase__AlreadyRegistered",
      "type": "error"
    },
    {
      "inputs": [],
      "name": "CandidateDatabase__ImportFailed",
      "type": "error"
    },
    {
      "inputs": [],
      "name": "CandidateDatabase__InvalidAddress",
      "type": "error"
    },
    {
      "inputs": [],
      "name": "CandidateDatabase__NotEligible",
      "type": "error"
    },
    {
      "inputs": [],
      "name": "CandidateDatabase__NotRegistered",
      "type": "error"
    },
    {
      "anonymous": false,
      "inputs": [
        {
          "indexed": true,
          "internalType": "address",
          "name": "admin",
          "type": "address"
        },
        {
          "indexed": true,
          "internalType": "address",
          "name": "owner",
          "type": "address"
        }
      ],
      "name": "AdminAdded",
      "type": "event"
    },
    {
      "anonymous": false,
      "inputs": [
        {
          "indexed": true,
          "internalType": "address",
          "name": "candidate",
          "type": "address"
        },
        {
          "indexed": true,
          "internalType": "address",
          "name": "admin",
          "type": "address"
        }
      ],
      "name": "AdminAddedCandidate",
      "type": "event"
    },
    {
      "anonymous": false,
      "inputs": [
        {
          "indexed": true,
          "internalType": "address",
          "name": "admin",
          "type": "address"
        },
        {
          "indexed": true,
          "internalType": "address",
          "name": "owner",
          "type": "address"
        }
      ],
      "name": "AdminRemoved",
      "type": "event"
    },
    {
      "anonymous": false,
      "inputs": [
        {
          "indexed": true,
          "internalType": "address",
          "name": "candidate",
          "type": "address"
        },
        {
          "indexed": true,
          "internalType": "address",
          "name": "admin",
          "type": "address"
        }
      ],
      "name": "AdminRemovedCandidate",
      "type": "event"
    },
    {
      "anonymous": false,
      "inputs": [
        {
          "indexed": true,
          "internalType": "address",
          "name": "candidate",
          "type": "address"
        },
        {
          "indexed": true,
          "internalType": "address",
          "name": "admin",
          "type": "address"
        }
      ],
      "name": "AdminUpdatedCandidate",
      "type": "event"
    },
    {
      "anonymous": false,
      "inputs": [
        {
          "indexed": true,
          "internalType": "address",
          "name": "candidate",
          "type": "address"
        }
      ],
      "name": "CandidateDeleted",
      "type": "event"
    },
    {
      "anonymous": false,
      "inputs": [
        {
          "indexed": true,
          "internalType": "address",
          "name": "candidate",
          "type": "address"
        }
      ],
      "name": "CandidateRegistered",
      "type": "event"
    },
    {
      "anonymous": false,
      "inputs": [
        {
          "indexed": true,
          "internalType": "address",
          "name": "candidate",
          "type": "address"
        }
      ],
      "name": "CandidateUpdated",
      "type": "event"
    },
    {
      "anonymous": false,
      "inputs": [
        {
          "indexed": true,
          "internalType": "address",
          "name": "sourceContract",
          "type": "address"
        },
        {
          "indexed": false,
          "internalType": "uint256",
          "name": "candidatesImported",
          "type": "uint256"
        }
      ],
      "name": "CandidatesImported",
      "type": "event"
    },
    {
      "inputs": [
        {
          "internalType": "address",
          "name": "_adminAddress",
          "type": "address"
        }
      ],
      "name": "addAdmin",
      "outputs": [],
      "stateMutability": "nonpayable",
      "type": "function"
    },
    {
      "inputs": [
        {
          "internalType": "string",
          "name": "_name",
          "type": "string"
        },
        {
          "internalType": "uint256",
          "name": "_dateOfBirthEpoch",
          "type": "uint256"
        },
        {
          "internalType": "enum ICandidateDatabase.Gender",
          "name": "_gender",
          "type": "uint8"
        },
        {
          "internalType": "string",
          "name": "_presentAddress",
          "type": "string"
        },
        {
          "internalType": "string",
          "name": "_email",
          "type": "string"
        },
        {
          "internalType": "string",
          "name": "_qualifications",
          "type": "string"
        },
        {
          "internalType": "string",
          "name": "_manifesto",
          "type": "string"
        }
      ],
      "name": "addCandidate",
      "outputs": [],
      "stateMutability": "nonpayable",
      "type": "function"
    },
    {
      "inputs": [
        {
          "internalType": "address",
          "name": "_candidateAddress",
          "type": "address"
        },
        {
          "internalType": "string",
          "name": "_name",
          "type": "string"
        },
        {
          "internalType": "uint256",
          "name": "_dateOfBirthEpoch",
          "type": "uint256"
        },
        {
          "internalType": "enum ICandidateDatabase.Gender",
          "name": "_gender",
          "type": "uint8"
        },
        {
          "internalType": "string",
          "name": "_presentAddress",
          "type": "string"
        },
        {
          "internalType": "string",
          "name": "_email",
          "type": "string"
        },
        {
          "internalType": "string",
          "name": "_qualifications",
          "type": "string"
        },
        {
          "internalType": "string",
          "name": "_manifesto",
          "type": "string"
        }
      ],
      "name": "adminAddCandidate",
      "outputs": [],
      "stateMutability": "nonpayable",
      "type": "function"
    },
    {
      "inputs": [
        {
          "internalType": "address",
          "name": "_sourceContract",
          "type": "address"
        },
        {
          "internalType": "address[]",
          "name": "_candidateAddresses",
          "type": "address[]"
        }
      ],
      "name": "adminBatchImportCandidates",
      "outputs": [],
      "stateMutability": "nonpayable",
      "type": "function"
    },
    {
      "inputs": [
        {
          "internalType": "address",
          "name": "_sourceContract",
          "type": "address"
        }
      ],
      "name": "adminImportAllCandidates",
      "outputs": [],
      "stateMutability": "nonpayable",
      "type": "function"
    },
    {
      "inputs": [
        {
          "internalType": "address",
          "name": "_sourceContract",
          "type": "address"
        },
        {
          "internalType": "address",
          "name": "_candidateAddress",
          "type": "address"
        }
      ],
      "name": "adminImportCandidate",
      "outputs": [],
      "stateMutability": "nonpayable",
      "type": "function"
    },
    {
      "inputs": [
        {
          "internalType": "address",
          "name": "_candidateAddress",
          "type": "address"
        }
      ],
      "name": "adminRemoveCandidate",
      "outputs": [],
      "stateMutability": "nonpayable",
      "type": "function"
    },
    {
      "inputs": [
        {
          "internalType": "address",
          "name": "_candidateAddress",
          "type": "address"
        },
        {
          "internalType": "string",
          "name": "_name",
          "type": "string"
        },
        {
          "internalType": "uint256",
          "name": "_dateOfBirthEpoch",
          "type": "uint256"
        },
        {
          "internalType": "enum ICandidateDatabase.Gender",
          "name": "_gender",
          "type": "uint8"
        },
        {
          "internalType": "string",
          "name": "_presentAddress",
          "type": "string"
        },
        {
          "internalType": "string",
          "name": "_email",
          "type": "string"
        },
        {
          "internalType": "string",
          "name": "_qualifications",
          "type": "string"
        },
        {
          "internalType": "string",
          "name": "_manifesto",
          "type": "string"
        }
      ],
      "name": "adminUpdateCandidate",
      "outputs": [],
      "stateMutability": "nonpayable",
      "type": "function"
    },
    {
      "inputs": [],
      "name": "amIAdmin",
      "outputs": [
        {
          "internalType": "bool",
          "name": "",
          "type": "bool"
        }
      ],
      "stateMutability": "view",
      "type": "function"
    },
    {
      "inputs": [
        {
          "internalType": "uint256",
          "name": "_dateOfBirthEpoch",
          "type": "uint256"
        }
      ],
      "name": "calculateAge",
      "outputs": [
        {
          "internalType": "uint256",
          "name": "",
          "type": "uint256"
        }
      ],
      "stateMutability": "view",
      "type": "function"
    },
    {
      "inputs": [],
      "name": "deleteCandidate",
      "outputs": [],
      "stateMutability": "nonpayable",
      "type": "function"
    },
    {
      "inputs": [],
      "name": "getAdminCount",
      "outputs": [
        {
          "internalType": "uint256",
          "name": "",
          "type": "uint256"
        }
      ],
      "stateMutability": "view",
      "type": "function"
    },
    {
      "inputs": [],
      "name": "getAllAdmins",
      "outputs": [
        {
          "internalType": "address[]",
          "name": "",
          "type": "address[]"
        }
      ],
      "stateMutability": "view",
      "type": "function"
    },
    {
      "inputs": [],
      "name": "getAllCandidates",
      "outputs": [
        {
          "internalType": "address[]",
          "name": "",
          "type": "address[]"
        }
      ],
      "stateMutability": "view",
      "type": "function"
    },
    {
      "inputs": [],
      "name": "getCandidateCount",
      "outputs": [
        {
          "internalType": "uint256",
          "name": "count",
          "type": "uint256"
        }
      ],
      "stateMutability": "view",
      "type": "function"
    },
    {
      "inputs": [
        {
          "internalType": "address",
          "name": "_candidateAddress",
          "type": "address"
        }
      ],
      "name": "getCandidateDetails",
      "outputs": [
        {
          "internalType": "string",
          "name": "name",
          "type": "string"
        },
        {
          "internalType": "uint256",
          "name": "dateOfBirthEpoch",
          "type": "uint256"
        },
        {
          "internalType": "enum ICandidateDatabase.Gender",
          "name": "gender",
          "type": "uint8"
        },
        {
          "internalType": "string",
          "name": "presentAddress",
          "type": "string"
        },
        {
          "internalType": "string",
          "name": "email",
          "type": "string"
        },
        {
          "internalType": "string",
          "name": "qualifications",
          "type": "string"
        },
        {
          "internalType": "string",
          "name": "manifesto",
          "type": "string"
        },
        {
          "internalType": "uint256",
          "name": "timeWhenRegisteredEpoch",
          "type": "uint256"
        }
      ],
      "stateMutability": "view",
      "type": "function"
    },
    {
      "inputs": [
        {
          "internalType": "address",
          "name": "_candidateAddress",
          "type": "address"
        }
      ],
      "name": "getCandidateRegistrationStatus",
      "outputs": [
        {
          "internalType": "bool",
          "name": "isRegistered",
          "type": "bool"
        }
      ],
      "stateMutability": "view",
      "type": "function"
    },
    {
      "inputs": [],
      "name": "getMyAge",
      "outputs": [
        {
          "internalType": "uint256",
          "name": "",
          "type": "uint256"
        }
      ],
      "stateMutability": "view",
      "type": "function"
    },
    {
      "inputs": [],
      "name": "getMyCandidateDetails",
      "outputs": [
        {
          "internalType": "string",
          "name": "name",
          "type": "string"
        },
        {
          "internalType": "uint256",
          "name": "dateOfBirthEpoch",
          "type": "uint256"
        },
        {
          "internalType": "enum ICandidateDatabase.Gender",
          "name": "gender",
          "type": "uint8"
        },
        {
          "internalType": "string",
          "name": "presentAddress",
          "type": "string"
        },
        {
          "internalType": "string",
          "name": "email",
          "type": "string"
        },
        {
          "internalType": "string",
          "name": "qualifications",
          "type": "string"
        },
        {
          "internalType": "string",
          "name": "manifesto",
          "type": "string"
        },
        {
          "internalType": "uint256",
          "name": "timeWhenRegisteredEpoch",
          "type": "uint256"
        }
      ],
      "stateMutability": "view",
      "type": "function"
    },
    {
      "inputs": [],
      "name": "getMyRegistrationStatus",
      "outputs": [
        {
          "internalType": "bool",
          "name": "isRegistered",
          "type": "bool"
        }
      ],
      "stateMutability": "view",
      "type": "function"
    },
    {
      "inputs": [],
      "name": "getOwner",
      "outputs": [
        {
          "internalType": "address",
          "name": "",
          "type": "address"
        }
      ],
      "stateMutability": "view",
      "type": "function"
    },
    {
      "inputs": [
        {
          "internalType": "address",
          "name": "_address",
          "type": "address"
        }
      ],
      "name": "isAdmin",
      "outputs": [
        {
          "internalType": "bool",
          "name": "",
          "type": "bool"
        }
      ],
      "stateMutability": "view",
      "type": "function"
    },
    {
      "inputs": [
        {
          "internalType": "address",
          "name": "_adminAddress",
          "type": "address"
        }
      ],
      "name": "removeAdmin",
      "outputs": [],
      "stateMutability": "nonpayable",
      "type": "function"
    },
    {
      "inputs": [
        {
          "internalType": "string",
          "name": "_name",
          "type": "string"
        },
        {
          "internalType": "uint256",
          "name": "_dateOfBirthEpoch",
          "type": "uint256"
        },
        {
          "internalType": "enum ICandidateDatabase.Gender",
          "name": "_gender",
          "type": "uint8"
        },
        {
          "internalType": "string",
          "name": "_presentAddress",
          "type": "string"
        },
        {
          "internalType": "string",
          "name": "_email",
          "type": "string"
        },
        {
          "internalType": "string",
          "name": "_qualifications",
          "type": "string"
        },
        {
          "internalType": "string",
          "name": "_manifesto",
          "type": "string"
        }
      ],
      "name": "updateCandidate",
      "outputs": [],
      "stateMutability": "nonpayable",
      "type": "function"
    }
  ],
  "bytecode": "0x60a060405234801561001057600080fd5b503373ffffffffffffffffffffffffffffffffffffffff1660808173ffffffffffffffffffffffffffffffffffffffff16815250506080516149f061009f6000396000818161045d015281816107960152818161093301528181610e9601528181611a3401528181611cb9015281816120c801528181612690015281816126d30152612e4901526149f06000f3fe608060405234801561001057600080fd5b50600436106101585760003560e01c80637effaef1116100c357806399e476e71161007c57806399e476e7146103ba578063a417c52c146103d6578063cdd0e1a7146103e0578063e9523c97146103fc578063f6c094a61461041a578063fd270ed61461043f57610158565b80637effaef1146102f657806384699ad91461031257806385cc8bfb14610330578063893d20e8146103605780638b7bf3eb1461037e578063934f1cca1461039c57610158565b80634eddfa8a116101155780634eddfa8a1461023157806353ac5dc31461024d5780635b409d091461028457806366d4c506146102a257806370480275146102be57806372bd364e146102da57610158565b80631785f53c1461015d57806324d7806c146101795780632e6997fe146101a95780632f0acbe1146101c757806330a56347146101f757806346b7cd6314610215575b600080fd5b610177600480360381019061017291906139fc565b61045b565b005b610193600480360381019061018e91906139fc565b610792565b6040516101a09190613a44565b60405180910390f35b6101b161083d565b6040516101be9190613b1d565b60405180910390f35b6101e160048036038101906101dc91906139fc565b6108cb565b6040516101ee9190613a44565b60405180910390f35b6101ff610924565b60405161020c9190613b58565b60405180910390f35b61022f600480360381019061022a91906139fc565b610931565b005b61024b60048036038101906102469190613b73565b610e94565b005b610267600480360381019061026291906139fc565b611371565b60405161027b989796959493929190613cba565b60405180910390f35b61028c6117db565b6040516102999190613a44565b60405180910390f35b6102bc60048036038101906102b79190613ee1565b611832565b005b6102d860048036038101906102d391906139fc565b611a32565b005b6102f460048036038101906102ef91906139fc565b611cb7565b005b610310600480360381019061030b919061406f565b6120c6565b005b61031a612590565b6040516103279190613b58565b60405180910390f35b61034a600480360381019061034591906140cf565b612668565b6040516103579190613b58565b60405180910390f35b61036861268c565b604051610375919061410b565b60405180910390f35b6103866126b4565b6040516103939190613b58565b60405180910390f35b6103a46126c1565b6040516103b19190613a44565b60405180910390f35b6103d460048036038101906103cf9190614126565b6126d1565b005b6103de612b26565b005b6103fa60048036038101906103f59190614126565b612e47565b005b61040461313b565b6040516104119190613b1d565b60405180910390f35b6104226131c9565b604051610436989796959493929190613cba565b60405180910390f35b61045960048036038101906104549190613ee1565b613632565b005b7f000000000000000000000000000000000000000000000000000000000000000073ffffffffffffffffffffffffffffffffffffffff163373ffffffffffffffffffffffffffffffffffffffff16146104e0576040517fbe2ac67400000000000000000000000000000000000000000000000000000000815260040160405180910390fd5b6000808273ffffffffffffffffffffffffffffffffffffffff1673ffffffffffffffffffffffffffffffffffffffff16815260200190815260200160002060009054906101000a900460ff16610562576040517f256d404300000000000000000000000000000000000000000000000000000000815260040160405180910390fd5b6000808273ffffffffffffffffffffffffffffffffffffffff1673ffffffffffffffffffffffffffffffffffffffff16815260200190815260200160002060006101000a81549060ff02191690556000600180549050905060005b81811015610733578273ffffffffffffffffffffffffffffffffffffffff16600182815481106105f0576105ef614268565b5b9060005260206000200160009054906101000a900473ffffffffffffffffffffffffffffffffffffffff1673ffffffffffffffffffffffffffffffffffffffff1603610728576001808361064491906142c6565b8154811061065557610654614268565b5b9060005260206000200160009054906101000a900473ffffffffffffffffffffffffffffffffffffffff166001828154811061069457610693614268565b5b9060005260206000200160006101000a81548173ffffffffffffffffffffffffffffffffffffffff021916908373ffffffffffffffffffffffffffffffffffffffff16021790555060018054806106ee576106ed6142fa565b5b6001900381819060005260206000200160006101000a81549073ffffffffffffffffffffffffffffffffffffffff02191690559055610733565b8060010190506105bd565b503373ffffffffffffffffffffffffffffffffffffffff168273ffffffffffffffffffffffffffffffffffffffff167fdb9d5d31320daf5bc7181d565b6da4d12e30f0f4d5aa324a992426c14a1d19ce60405160405180910390a35050565b60007f000000000000000000000000000000000000000000000000000000000000000073ffffffffffffffffffffffffffffffffffffffff168273ffffffffffffffffffffffffffffffffffffffff16148061083657506000808373ffffffffffffffffffffffffffffffffffffffff1673ffffffffffffffffffffffffffffffffffffffff16815260200190815260200160002060009054906101000a900460ff165b9050919050565b606060038054806020026020016040519081016040528092919081815260200182805480156108c157602002820191906000526020600020905b8160009054906101000a900473ffffffffffffffffffffffffffffffffffffffff1673ffffffffffffffffffffffffffffffffffffffff1681526020019060010190808311610877575b5050505050905090565b6000600260008373ffffffffffffffffffffffffffffffffffffffff1673ffffffffffffffffffffffffffffffffffffffff16815260200190815260200160002060080160009054906101000a900460ff169050919050565b6000600380549050905090565b7f000000000000000000000000000000000000000000000000000000000000000073ffffffffffffffffffffffffffffffffffffffff163373ffffffffffffffffffffffffffffffffffffffff16141580156109d657506000803373ffffffffffffffffffffffffffffffffffffffff1673ffffffffffffffffffffffffffffffffffffffff16815260200190815260200160002060009054906101000a900460ff16155b15610a0d576040517f87a8a82e00000000000000000000000000000000000000000000000000000000815260040160405180910390fd5b600081905060608173ffffffffffffffffffffffffffffffffffffffff16632e6997fe6040518163ffffffff1660e01b8152600401600060405180830381865afa925050508015610a8157506040513d6000823e3d601f19601f82011682018060405250810190610a7e9190614401565b60015b610ab7576040517fb9c861f000000000000000000000000000000000000000000000000000000000815260040160405180910390fd5b809150506000808251905060005b81811015610e3e576000848281518110610ae257610ae1614268565b5b60200260200101519050600260008273ffffffffffffffffffffffffffffffffffffffff1673ffffffffffffffffffffffffffffffffffffffff16815260200190815260200160002060080160009054906101000a900460ff1615610b4d5781600101915050610e39565b8573ffffffffffffffffffffffffffffffffffffffff166353ac5dc3826040518263ffffffff1660e01b8152600401610b86919061410b565b600060405180830381865afa925050508015610bc557506040513d6000823e3d601f19601f82011682018060405250810190610bc291906144e4565b60015b610bd55781600101915050610e39565b60006301e133808842610be891906142c6565b610bf29190614655565b90506012811015610c12578a6001019a5050505050505050505050610e39565b6040518061012001604052808a8152602001898152602001886001811115610c3d57610c3c613c43565b5b815260200187815260200186815260200185815260200184815260200183815260200160011515815250600260008c73ffffffffffffffffffffffffffffffffffffffff1673ffffffffffffffffffffffffffffffffffffffff1681526020019081526020016000206000820151816000019081610cbb9190614892565b506020820151816001015560408201518160020160006101000a81548160ff02191690836001811115610cf157610cf0613c43565b5b02179055506060820151816003019081610d0b9190614892565b506080820151816004019081610d219190614892565b5060a0820151816005019081610d379190614892565b5060c0820151816006019081610d4d9190614892565b5060e082015181600701556101008201518160080160006101000a81548160ff02191690831515021790555090505060038a9080600181540180825580915050600190039060005260206000200160009091909190916101000a81548173ffffffffffffffffffffffffffffffffffffffff021916908373ffffffffffffffffffffffffffffffffffffffff1602179055508973ffffffffffffffffffffffffffffffffffffffff167fa0ac4f59dabb0ddc4b8b883adda9e055e02c796b2cde2ed80fdb11a38f77e5c960405160405180910390a28c6001019c508a6001019a50505050505050505050505b610ac5565b508473ffffffffffffffffffffffffffffffffffffffff167f7b11f9707fd616002d9c0f0983f21e0021088827cc3a7fc4f36175ecb4782d5183604051610e859190613b58565b60405180910390a25050505050565b7f000000000000000000000000000000000000000000000000000000000000000073ffffffffffffffffffffffffffffffffffffffff163373ffffffffffffffffffffffffffffffffffffffff1614158015610f3957506000803373ffffffffffffffffffffffffffffffffffffffff1673ffffffffffffffffffffffffffffffffffffffff16815260200190815260200160002060009054906101000a900460ff16155b15610f70576040517f87a8a82e00000000000000000000000000000000000000000000000000000000815260040160405180910390fd5b600260008273ffffffffffffffffffffffffffffffffffffffff1673ffffffffffffffffffffffffffffffffffffffff16815260200190815260200160002060080160009054906101000a900460ff1615610ff7576040517fba6a3fb800000000000000000000000000000000000000000000000000000000815260040160405180910390fd5b60008290508073ffffffffffffffffffffffffffffffffffffffff166353ac5dc3836040518263ffffffff1660e01b8152600401611035919061410b565b600060405180830381865afa92505050801561107457506040513d6000823e3d601f19601f8201168201806040525081019061107191906144e4565b60015b6110aa576040517fb9c861f000000000000000000000000000000000000000000000000000000000815260040160405180910390fd5b60006301e1338088426110bd91906142c6565b6110c79190614655565b90506012811015611104576040517fc84eb1fe00000000000000000000000000000000000000000000000000000000815260040160405180910390fd5b6040518061012001604052808a815260200189815260200188600181111561112f5761112e613c43565b5b815260200187815260200186815260200185815260200184815260200183815260200160011515815250600260008d73ffffffffffffffffffffffffffffffffffffffff1673ffffffffffffffffffffffffffffffffffffffff16815260200190815260200160002060008201518160000190816111ad9190614892565b506020820151816001015560408201518160020160006101000a81548160ff021916908360018111156111e3576111e2613c43565b5b021790555060608201518160030190816111fd9190614892565b5060808201518160040190816112139190614892565b5060a08201518160050190816112299190614892565b5060c082015181600601908161123f9190614892565b5060e082015181600701556101008201518160080160006101000a81548160ff02191690831515021790555090505060038b9080600181540180825580915050600190039060005260206000200160009091909190916101000a81548173ffffffffffffffffffffffffffffffffffffffff021916908373ffffffffffffffffffffffffffffffffffffffff1602179055508a73ffffffffffffffffffffffffffffffffffffffff167fa0ac4f59dabb0ddc4b8b883adda9e055e02c796b2cde2ed80fdb11a38f77e5c960405160405180910390a28b73ffffffffffffffffffffffffffffffffffffffff167f7b11f9707fd616002d9c0f0983f21e0021088827cc3a7fc4f36175ecb4782d51600160405161135b919061499f565b60405180910390a2505050505050505050505050565b60606000806060806060806000600260008a73ffffffffffffffffffffffffffffffffffffffff1673ffffffffffffffffffffffffffffffffffffffff16815260200190815260200160002060080160009054906101000a900460ff16611404576040517fc26f0ffd00000000000000000000000000000000000000000000000000000000815260040160405180910390fd5b6000600260008b73ffffffffffffffffffffffffffffffffffffffff1673ffffffffffffffffffffffffffffffffffffffff16815260200190815260200160002060405180610120016040529081600082018054611461906146b5565b80601f016020809104026020016040519081016040528092919081815260200182805461148d906146b5565b80156114da5780601f106114af576101008083540402835291602001916114da565b820191906000526020600020905b8154815290600101906020018083116114bd57829003601f168201915b50505050508152602001600182015481526020016002820160009054906101000a900460ff16600181111561151257611511613c43565b5b600181111561152457611523613c43565b5b8152602001600382018054611538906146b5565b80601f0160208091040260200160405190810160405280929190818152602001828054611564906146b5565b80156115b15780601f10611586576101008083540402835291602001916115b1565b820191906000526020600020905b81548152906001019060200180831161159457829003601f168201915b505050505081526020016004820180546115ca906146b5565b80601f01602080910402602001604051908101604052809291908181526020018280546115f6906146b5565b80156116435780601f1061161857610100808354040283529160200191611643565b820191906000526020600020905b81548152906001019060200180831161162657829003601f168201915b5050505050815260200160058201805461165c906146b5565b80601f0160208091040260200160405190810160405280929190818152602001828054611688906146b5565b80156116d55780601f106116aa576101008083540402835291602001916116d5565b820191906000526020600020905b8154815290600101906020018083116116b857829003601f168201915b505050505081526020016006820180546116ee906146b5565b80601f016020809104026020016040519081016040528092919081815260200182805461171a906146b5565b80156117675780601f1061173c57610100808354040283529160200191611767565b820191906000526020600020905b81548152906001019060200180831161174a57829003601f168201915b50505050508152602001600782015481526020016008820160009054906101000a900460ff1615151515815250509050806000015181602001518260400151836060015184608001518560a001518660c001518760e001519850985098509850985098509850985050919395975091939597565b6000600260003373ffffffffffffffffffffffffffffffffffffffff1673ffffffffffffffffffffffffffffffffffffffff16815260200190815260200160002060080160009054906101000a900460ff16905090565b600260003373ffffffffffffffffffffffffffffffffffffffff1673ffffffffffffffffffffffffffffffffffffffff16815260200190815260200160002060080160009054906101000a900460ff166118b8576040517fc26f0ffd00000000000000000000000000000000000000000000000000000000815260040160405180910390fd5b60006301e1338087426118cb91906142c6565b6118d59190614655565b90506012811015611912576040517fc84eb1fe00000000000000000000000000000000000000000000000000000000815260040160405180910390fd5b6000600260003373ffffffffffffffffffffffffffffffffffffffff1673ffffffffffffffffffffffffffffffffffffffff1681526020019081526020016000209050888160000190816119669190614892565b50878160010181905550868160020160006101000a81548160ff0219169083600181111561199757611996613c43565b5b0217905550858160030190816119ad9190614892565b50848160040190816119bf9190614892565b50838160050190816119d19190614892565b50828160060190816119e39190614892565b503373ffffffffffffffffffffffffffffffffffffffff167f5c1cd16d0c55845505cf06834fc8d64b03a2fb0c2ffea81be006fd3fe764ede460405160405180910390a2505050505050505050565b7f000000000000000000000000000000000000000000000000000000000000000073ffffffffffffffffffffffffffffffffffffffff163373ffffffffffffffffffffffffffffffffffffffff1614611ab7576040517fbe2ac67400000000000000000000000000000000000000000000000000000000815260040160405180910390fd5b600073ffffffffffffffffffffffffffffffffffffffff168173ffffffffffffffffffffffffffffffffffffffff1603611b1d576040517fd9fa4b4700000000000000000000000000000000000000000000000000000000815260040160405180910390fd5b6000808273ffffffffffffffffffffffffffffffffffffffff1673ffffffffffffffffffffffffffffffffffffffff16815260200190815260200160002060009054906101000a900460ff1615611ba0576040517f4e16b38200000000000000000000000000000000000000000000000000000000815260040160405180910390fd5b60016000808373ffffffffffffffffffffffffffffffffffffffff1673ffffffffffffffffffffffffffffffffffffffff16815260200190815260200160002060006101000a81548160ff0219169083151502179055506001819080600181540180825580915050600190039060005260206000200160009091909190916101000a81548173ffffffffffffffffffffffffffffffffffffffff021916908373ffffffffffffffffffffffffffffffffffffffff1602179055503373ffffffffffffffffffffffffffffffffffffffff168173ffffffffffffffffffffffffffffffffffffffff167fbf3f493c772c8c283fd124432c2d0f539ab343faa04258fe88e52912d36b102b60405160405180910390a350565b7f000000000000000000000000000000000000000000000000000000000000000073ffffffffffffffffffffffffffffffffffffffff163373ffffffffffffffffffffffffffffffffffffffff1614158015611d5c57506000803373ffffffffffffffffffffffffffffffffffffffff1673ffffffffffffffffffffffffffffffffffffffff16815260200190815260200160002060009054906101000a900460ff16155b15611d93576040517f87a8a82e00000000000000000000000000000000000000000000000000000000815260040160405180910390fd5b600260008273ffffffffffffffffffffffffffffffffffffffff1673ffffffffffffffffffffffffffffffffffffffff16815260200190815260200160002060080160009054906101000a900460ff16611e19576040517fc26f0ffd00000000000000000000000000000000000000000000000000000000815260040160405180910390fd5b600260008273ffffffffffffffffffffffffffffffffffffffff1673ffffffffffffffffffffffffffffffffffffffff16815260200190815260200160002060008082016000611e69919061392d565b60018201600090556002820160006101000a81549060ff0219169055600382016000611e95919061392d565b600482016000611ea5919061392d565b600582016000611eb5919061392d565b600682016000611ec5919061392d565b60078201600090556008820160006101000a81549060ff021916905550506000600380549050905060005b81811015612067578273ffffffffffffffffffffffffffffffffffffffff1660038281548110611f2357611f22614268565b5b9060005260206000200160009054906101000a900473ffffffffffffffffffffffffffffffffffffffff1673ffffffffffffffffffffffffffffffffffffffff160361205c576003600183611f7891906142c6565b81548110611f8957611f88614268565b5b9060005260206000200160009054906101000a900473ffffffffffffffffffffffffffffffffffffffff1660038281548110611fc857611fc7614268565b5b9060005260206000200160006101000a81548173ffffffffffffffffffffffffffffffffffffffff021916908373ffffffffffffffffffffffffffffffffffffffff1602179055506003805480612022576120216142fa565b5b6001900381819060005260206000200160006101000a81549073ffffffffffffffffffffffffffffffffffffffff02191690559055612067565b806001019050611ef0565b503373ffffffffffffffffffffffffffffffffffffffff168273ffffffffffffffffffffffffffffffffffffffff167f43204b0e5a9d6247fc2ce4f9b08b3aa78f102cbda5bdd93a132a18a676f1134060405160405180910390a35050565b7f000000000000000000000000000000000000000000000000000000000000000073ffffffffffffffffffffffffffffffffffffffff163373ffffffffffffffffffffffffffffffffffffffff161415801561216b57506000803373ffffffffffffffffffffffffffffffffffffffff1673ffffffffffffffffffffffffffffffffffffffff16815260200190815260200160002060009054906101000a900460ff16155b156121a2576040517f87a8a82e00000000000000000000000000000000000000000000000000000000815260040160405180910390fd5b600083905060008084849050905060005b818110156125395760008686838181106121d0576121cf614268565b5b90506020020160208101906121e591906139fc565b9050600260008273ffffffffffffffffffffffffffffffffffffffff1673ffffffffffffffffffffffffffffffffffffffff16815260200190815260200160002060080160009054906101000a900460ff16156122485781600101915050612534565b8473ffffffffffffffffffffffffffffffffffffffff166353ac5dc3826040518263ffffffff1660e01b8152600401612281919061410b565b600060405180830381865afa9250505080156122c057506040513d6000823e3d601f19601f820116820180604052508101906122bd91906144e4565b60015b6122d05781600101915050612534565b60006301e1338088426122e391906142c6565b6122ed9190614655565b9050601281101561230d578a6001019a5050505050505050505050612534565b6040518061012001604052808a815260200189815260200188600181111561233857612337613c43565b5b815260200187815260200186815260200185815260200184815260200183815260200160011515815250600260008c73ffffffffffffffffffffffffffffffffffffffff1673ffffffffffffffffffffffffffffffffffffffff16815260200190815260200160002060008201518160000190816123b69190614892565b506020820151816001015560408201518160020160006101000a81548160ff021916908360018111156123ec576123eb613c43565b5b021790555060608201518160030190816124069190614892565b50608082015181600401908161241c9190614892565b5060a08201518160050190816124329190614892565b5060c08201518160060190816124489190614892565b5060e082015181600701556101008201518160080160006101000a81548160ff02191690831515021790555090505060038a9080600181540180825580915050600190039060005260206000200160009091909190916101000a81548173ffffffffffffffffffffffffffffffffffffffff021916908373ffffffffffffffffffffffffffffffffffffffff1602179055508973ffffffffffffffffffffffffffffffffffffffff167fa0ac4f59dabb0ddc4b8b883adda9e055e02c796b2cde2ed80fdb11a38f77e5c960405160405180910390a28c6001019c508a6001019a50505050505050505050505b6121b3565b508573ffffffffffffffffffffffffffffffffffffffff167f7b11f9707fd616002d9c0f0983f21e0021088827cc3a7fc4f36175ecb4782d51836040516125809190613b58565b60405180910390a2505050505050565b6000600260003373ffffffffffffffffffffffffffffffffffffffff1673ffffffffffffffffffffffffffffffffffffffff16815260200190815260200160002060080160009054906101000a900460ff16612618576040517fc26f0ffd00000000000000000000000000000000000000000000000000000000815260040160405180910390fd5b612663600260003373ffffffffffffffffffffffffffffffffffffffff1673ffffffffffffffffffffffffffffffffffffffff16815260200190815260200160002060010154612668565b905090565b60006301e13380824261267b91906142c6565b6126859190614655565b9050919050565b60007f0000000000000000000000000000000000000000000000000000000000000000905090565b6000600180549050905090565b60006126cc33610792565b905090565b7f000000000000000000000000000000000000000000000000000000000000000073ffffffffffffffffffffffffffffffffffffffff163373ffffffffffffffffffffffffffffffffffffffff161415801561277657506000803373ffffffffffffffffffffffffffffffffffffffff1673ffffffffffffffffffffffffffffffffffffffff16815260200190815260200160002060009054906101000a900460ff16155b156127ad576040517f87a8a82e00000000000000000000000000000000000000000000000000000000815260040160405180910390fd5b600073ffffffffffffffffffffffffffffffffffffffff168873ffffffffffffffffffffffffffffffffffffffff1603612813576040517fab820aca00000000000000000000000000000000000000000000000000000000815260040160405180910390fd5b60006301e13380874261282691906142c6565b6128309190614655565b9050601281101561286d576040517fc84eb1fe00000000000000000000000000000000000000000000000000000000815260040160405180910390fd5b600260008a73ffffffffffffffffffffffffffffffffffffffff1673ffffffffffffffffffffffffffffffffffffffff16815260200190815260200160002060080160009054906101000a900460ff16156128f4576040517fba6a3fb800000000000000000000000000000000000000000000000000000000815260040160405180910390fd5b60405180610120016040528089815260200188815260200187600181111561291f5761291e613c43565b5b815260200186815260200185815260200184815260200183815260200142815260200160011515815250600260008b73ffffffffffffffffffffffffffffffffffffffff1673ffffffffffffffffffffffffffffffffffffffff168152602001908152602001600020600082015181600001908161299d9190614892565b506020820151816001015560408201518160020160006101000a81548160ff021916908360018111156129d3576129d2613c43565b5b021790555060608201518160030190816129ed9190614892565b506080820151816004019081612a039190614892565b5060a0820151816005019081612a199190614892565b5060c0820151816006019081612a2f9190614892565b5060e082015181600701556101008201518160080160006101000a81548160ff0219169083151502179055509050506003899080600181540180825580915050600190039060005260206000200160009091909190916101000a81548173ffffffffffffffffffffffffffffffffffffffff021916908373ffffffffffffffffffffffffffffffffffffffff1602179055503373ffffffffffffffffffffffffffffffffffffffff168973ffffffffffffffffffffffffffffffffffffffff167fbae38c103fcb399c54b7f4938cbeb7260b54380334fd0f5365f5eecde90d759a60405160405180910390a3505050505050505050565b600260003373ffffffffffffffffffffffffffffffffffffffff1673ffffffffffffffffffffffffffffffffffffffff16815260200190815260200160002060080160009054906101000a900460ff16612bac576040517fc26f0ffd00000000000000000000000000000000000000000000000000000000815260040160405180910390fd5b6000339050600260008273ffffffffffffffffffffffffffffffffffffffff1673ffffffffffffffffffffffffffffffffffffffff16815260200190815260200160002060008082016000612c01919061392d565b60018201600090556002820160006101000a81549060ff0219169055600382016000612c2d919061392d565b600482016000612c3d919061392d565b600582016000612c4d919061392d565b600682016000612c5d919061392d565b60078201600090556008820160006101000a81549060ff021916905550506000600380549050905060005b81811015612dff578273ffffffffffffffffffffffffffffffffffffffff1660038281548110612cbb57612cba614268565b5b9060005260206000200160009054906101000a900473ffffffffffffffffffffffffffffffffffffffff1673ffffffffffffffffffffffffffffffffffffffff1603612df4576003600183612d1091906142c6565b81548110612d2157612d20614268565b5b9060005260206000200160009054906101000a900473ffffffffffffffffffffffffffffffffffffffff1660038281548110612d6057612d5f614268565b5b9060005260206000200160006101000a81548173ffffffffffffffffffffffffffffffffffffffff021916908373ffffffffffffffffffffffffffffffffffffffff1602179055506003805480612dba57612db96142fa565b5b6001900381819060005260206000200160006101000a81549073ffffffffffffffffffffffffffffffffffffffff02191690559055612dff565b806001019050612c88565b508173ffffffffffffffffffffffffffffffffffffffff167f6fe1c8a36bbf04217ace8c02e2469521bb21107f6f54ae5213ab312b8ae1bb6f60405160405180910390a25050565b7f000000000000000000000000000000000000000000000000000000000000000073ffffffffffffffffffffffffffffffffffffffff163373ffffffffffffffffffffffffffffffffffffffff1614158015612eec57506000803373ffffffffffffffffffffffffffffffffffffffff1673ffffffffffffffffffffffffffffffffffffffff16815260200190815260200160002060009054906101000a900460ff16155b15612f23576040517f87a8a82e00000000000000000000000000000000000000000000000000000000815260040160405180910390fd5b600260008973ffffffffffffffffffffffffffffffffffffffff1673ffffffffffffffffffffffffffffffffffffffff16815260200190815260200160002060080160009054906101000a900460ff16612fa9576040517fc26f0ffd00000000000000000000000000000000000000000000000000000000815260040160405180910390fd5b60006301e133808742612fbc91906142c6565b612fc69190614655565b90506012811015613003576040517fc84eb1fe00000000000000000000000000000000000000000000000000000000815260040160405180910390fd5b6000600260008b73ffffffffffffffffffffffffffffffffffffffff1673ffffffffffffffffffffffffffffffffffffffff1681526020019081526020016000209050888160000190816130579190614892565b50878160010181905550868160020160006101000a81548160ff0219169083600181111561308857613087613c43565b5b02179055508581600301908161309e9190614892565b50848160040190816130b09190614892565b50838160050190816130c29190614892565b50828160060190816130d49190614892565b503373ffffffffffffffffffffffffffffffffffffffff168a73ffffffffffffffffffffffffffffffffffffffff167f9a558f778a9c36163180e5c4b2d6f3e7b43f255a529c2606e3ec5ac5b5214e5060405160405180910390a350505050505050505050565b606060018054806020026020016040519081016040528092919081815260200182805480156131bf57602002820191906000526020600020905b8160009054906101000a900473ffffffffffffffffffffffffffffffffffffffff1673ffffffffffffffffffffffffffffffffffffffff1681526020019060010190808311613175575b5050505050905090565b60606000806060806060806000600260003373ffffffffffffffffffffffffffffffffffffffff1673ffffffffffffffffffffffffffffffffffffffff16815260200190815260200160002060080160009054906101000a900460ff1661325c576040517fc26f0ffd00000000000000000000000000000000000000000000000000000000815260040160405180910390fd5b6000600260003373ffffffffffffffffffffffffffffffffffffffff1673ffffffffffffffffffffffffffffffffffffffff168152602001908152602001600020604051806101200160405290816000820180546132b9906146b5565b80601f01602080910402602001604051908101604052809291908181526020018280546132e5906146b5565b80156133325780601f1061330757610100808354040283529160200191613332565b820191906000526020600020905b81548152906001019060200180831161331557829003601f168201915b50505050508152602001600182015481526020016002820160009054906101000a900460ff16600181111561336a57613369613c43565b5b600181111561337c5761337b613c43565b5b8152602001600382018054613390906146b5565b80601f01602080910402602001604051908101604052809291908181526020018280546133bc906146b5565b80156134095780601f106133de57610100808354040283529160200191613409565b820191906000526020600020905b8154815290600101906020018083116133ec57829003601f168201915b50505050508152602001600482018054613422906146b5565b80601f016020809104026020016040519081016040528092919081815260200182805461344e906146b5565b801561349b5780601f106134705761010080835404028352916020019161349b565b820191906000526020600020905b81548152906001019060200180831161347e57829003601f168201915b505050505081526020016005820180546134b4906146b5565b80601f01602080910402602001604051908101604052809291908181526020018280546134e0906146b5565b801561352d5780601f106135025761010080835404028352916020019161352d565b820191906000526020600020905b81548152906001019060200180831161351057829003601f168201915b50505050508152602001600682018054613546906146b5565b80601f0160208091040260200160405190810160405280929190818152602001828054613572906146b5565b80156135bf5780601f10613594576101008083540402835291602001916135bf565b820191906000526020600020905b8154815290600101906020018083116135a257829003601f168201915b50505050508152602001600782015481526020016008820160009054906101000a900460ff1615151515815250509050806000015181602001518260400151836060015184608001518560a001518660c001518760e0015198509850985098509850985098509850509091929394959697565b60006301e13380874261364591906142c6565b61364f9190614655565b9050601281101561368c576040517fc84eb1fe00000000000000000000000000000000000000000000000000000000815260040160405180910390fd5b600260003373ffffffffffffffffffffffffffffffffffffffff1673ffffffffffffffffffffffffffffffffffffffff16815260200190815260200160002060080160009054906101000a900460ff1615613713576040517fba6a3fb800000000000000000000000000000000000000000000000000000000815260040160405180910390fd5b60405180610120016040528089815260200188815260200187600181111561373e5761373d613c43565b5b815260200186815260200185815260200184815260200183815260200142815260200160011515815250600260003373ffffffffffffffffffffffffffffffffffffffff1673ffffffffffffffffffffffffffffffffffffffff16815260200190815260200160002060008201518160000190816137bc9190614892565b506020820151816001015560408201518160020160006101000a81548160ff021916908360018111156137f2576137f1613c43565b5b0217905550606082015181600301908161380c9190614892565b5060808201518160040190816138229190614892565b5060a08201518160050190816138389190614892565b5060c082015181600601908161384e9190614892565b5060e082015181600701556101008201518160080160006101000a81548160ff0219169083151502179055509050506003339080600181540180825580915050600190039060005260206000200160009091909190916101000a81548173ffffffffffffffffffffffffffffffffffffffff021916908373ffffffffffffffffffffffffffffffffffffffff1602179055503373ffffffffffffffffffffffffffffffffffffffff167fa0ac4f59dabb0ddc4b8b883adda9e055e02c796b2cde2ed80fdb11a38f77e5c960405160405180910390a25050505050505050565b508054613939906146b5565b6000825580601f1061394b575061396a565b601f016020900490600052602060002090810190613969919061396d565b5b50565b5b8082111561398657600081600090555060010161396e565b5090565b6000604051905090565b600080fd5b600080fd5b600073ffffffffffffffffffffffffffffffffffffffff82169050919050565b60006139c98261399e565b9050919050565b6139d9816139be565b81146139e457600080fd5b50565b6000813590506139f6816139d0565b92915050565b600060208284031215613a1257613a11613994565b5b6000613a20848285016139e7565b91505092915050565b60008115159050919050565b613a3e81613a29565b82525050565b6000602082019050613a596000830184613a35565b92915050565b600081519050919050565b600082825260208201905092915050565b6000819050602082019050919050565b613a94816139be565b82525050565b6000613aa68383613a8b565b60208301905092915050565b6000602082019050919050565b6000613aca82613a5f565b613ad48185613a6a565b9350613adf83613a7b565b8060005b83811015613b10578151613af78882613a9a565b9750613b0283613ab2565b925050600181019050613ae3565b5085935050505092915050565b60006020820190508181036000830152613b378184613abf565b905092915050565b6000819050919050565b613b5281613b3f565b82525050565b6000602082019050613b6d6000830184613b49565b92915050565b60008060408385031215613b8a57613b89613994565b5b6000613b98858286016139e7565b9250506020613ba9858286016139e7565b9150509250929050565b600081519050919050565b600082825260208201905092915050565b60005b83811015613bed578082015181840152602081019050613bd2565b60008484015250505050565b6000601f19601f8301169050919050565b6000613c1582613bb3565b613c1f8185613bbe565b9350613c2f818560208601613bcf565b613c3881613bf9565b840191505092915050565b7f4e487b7100000000000000000000000000000000000000000000000000000000600052602160045260246000fd5b60028110613c8357613c82613c43565b5b50565b6000819050613c9482613c72565b919050565b6000613ca482613c86565b9050919050565b613cb481613c99565b82525050565b6000610100820190508181036000830152613cd5818b613c0a565b9050613ce4602083018a613b49565b613cf16040830189613cab565b8181036060830152613d038188613c0a565b90508181036080830152613d178187613c0a565b905081810360a0830152613d2b8186613c0a565b905081810360c0830152613d3f8185613c0a565b9050613d4e60e0830184613b49565b9998505050505050505050565b600080fd5b600080fd5b7f4e487b7100000000000000000000000000000000000000000000000000000000600052604160045260246000fd5b613d9d82613bf9565b810181811067ffffffffffffffff82111715613dbc57613dbb613d65565b5b80604052505050565b6000613dcf61398a565b9050613ddb8282613d94565b919050565b600067ffffffffffffffff821115613dfb57613dfa613d65565b5b613e0482613bf9565b9050602081019050919050565b82818337600083830152505050565b6000613e33613e2e84613de0565b613dc5565b905082815260208101848484011115613e4f57613e4e613d60565b5b613e5a848285613e11565b509392505050565b600082601f830112613e7757613e76613d5b565b5b8135613e87848260208601613e20565b91505092915050565b613e9981613b3f565b8114613ea457600080fd5b50565b600081359050613eb681613e90565b92915050565b60028110613ec957600080fd5b50565b600081359050613edb81613ebc565b92915050565b600080600080600080600060e0888a031215613f0057613eff613994565b5b600088013567ffffffffffffffff811115613f1e57613f1d613999565b5b613f2a8a828b01613e62565b9750506020613f3b8a828b01613ea7565b9650506040613f4c8a828b01613ecc565b955050606088013567ffffffffffffffff811115613f6d57613f6c613999565b5b613f798a828b01613e62565b945050608088013567ffffffffffffffff811115613f9a57613f99613999565b5b613fa68a828b01613e62565b93505060a088013567ffffffffffffffff811115613fc757613fc6613999565b5b613fd38a828b01613e62565b92505060c088013567ffffffffffffffff811115613ff457613ff3613999565b5b6140008a828b01613e62565b91505092959891949750929550565b600080fd5b600080fd5b60008083601f84011261402f5761402e613d5b565b5b8235905067ffffffffffffffff81111561404c5761404b61400f565b5b60208301915083602082028301111561406857614067614014565b5b9250929050565b60008060006040848603121561408857614087613994565b5b6000614096868287016139e7565b935050602084013567ffffffffffffffff8111156140b7576140b6613999565b5b6140c386828701614019565b92509250509250925092565b6000602082840312156140e5576140e4613994565b5b60006140f384828501613ea7565b91505092915050565b614105816139be565b82525050565b600060208201905061412060008301846140fc565b92915050565b600080600080600080600080610100898b03121561414757614146613994565b5b60006141558b828c016139e7565b985050602089013567ffffffffffffffff81111561417657614175613999565b5b6141828b828c01613e62565b97505060406141938b828c01613ea7565b96505060606141a48b828c01613ecc565b955050608089013567ffffffffffffffff8111156141c5576141c4613999565b5b6141d18b828c01613e62565b94505060a089013567ffffffffffffffff8111156141f2576141f1613999565b5b6141fe8b828c01613e62565b93505060c089013567ffffffffffffffff81111561421f5761421e613999565b5b61422b8b828c01613e62565b92505060e089013567ffffffffffffffff81111561424c5761424b613999565b5b6142588b828c01613e62565b9150509295985092959890939650565b7f4e487b7100000000000000000000000000000000000000000000000000000000600052603260045260246000fd5b7f4e487b7100000000000000000000000000000000000000000000000000000000600052601160045260246000fd5b60006142d182613b3f565b91506142dc83613b3f565b92508282039050818111156142f4576142f3614297565b5b92915050565b7f4e487b7100000000000000000000000000000000000000000000000000000000600052603160045260246000fd5b600067ffffffffffffffff82111561434457614343613d65565b5b602082029050602081019050919050565b600081519050614364816139d0565b92915050565b600061437d61437884614329565b613dc5565b905080838252602082019050602084028301858111156143a05761439f614014565b5b835b818110156143c957806143b58882614355565b8452602084019350506020810190506143a2565b5050509392505050565b600082601f8301126143e8576143e7613d5b565b5b81516143f884826020860161436a565b91505092915050565b60006020828403121561441757614416613994565b5b600082015167ffffffffffffffff81111561443557614434613999565b5b614441848285016143d3565b91505092915050565b600061445d61445884613de0565b613dc5565b90508281526020810184848401111561447957614478613d60565b5b614484848285613bcf565b509392505050565b600082601f8301126144a1576144a0613d5b565b5b81516144b184826020860161444a565b91505092915050565b6000815190506144c981613e90565b92915050565b6000815190506144de81613ebc565b92915050565b600080600080600080600080610100898b03121561450557614504613994565b5b600089015167ffffffffffffffff81111561452357614522613999565b5b61452f8b828c0161448c565b98505060206145408b828c016144ba565b97505060406145518b828c016144cf565b965050606089015167ffffffffffffffff81111561457257614571613999565b5b61457e8b828c0161448c565b955050608089015167ffffffffffffffff81111561459f5761459e613999565b5b6145ab8b828c0161448c565b94505060a089015167ffffffffffffffff8111156145cc576145cb613999565b5b6145d88b828c0161448c565b93505060c089015167ffffffffffffffff8111156145f9576145f8613999565b5b6146058b828c0161448c565b92505060e06146168b828c016144ba565b9150509295985092959890939650565b7f4e487b7100000000000000000000000000000000000000000000000000000000600052601260045260246000fd5b600061466082613b3f565b915061466b83613b3f565b92508261467b5761467a614626565b5b828204905092915050565b7f4e487b7100000000000000000000000000000000000000000000000000000000600052602260045260246000fd5b600060028204905060018216806146cd57607f821691505b6020821081036146e0576146df614686565b5b50919050565b60008190508160005260206000209050919050565b60006020601f8301049050919050565b600082821b905092915050565b6000600883026147487fffffffffffffffffffffffffffffffffffffffffffffffffffffffffffffffff8261470b565b614752868361470b565b95508019841693508086168417925050509392505050565b6000819050919050565b600061478f61478a61478584613b3f565b61476a565b613b3f565b9050919050565b6000819050919050565b6147a983614774565b6147bd6147b582614796565b848454614718565b825550505050565b600090565b6147d26147c5565b6147dd8184846147a0565b505050565b5b81811015614801576147f66000826147ca565b6001810190506147e3565b5050565b601f82111561484657614817816146e6565b614820846146fb565b8101602085101561482f578190505b61484361483b856146fb565b8301826147e2565b50505b505050565b600082821c905092915050565b60006148696000198460080261484b565b1980831691505092915050565b60006148828383614858565b9150826002028217905092915050565b61489b82613bb3565b67ffffffffffffffff8111156148b4576148b3613d65565b5b6148be82546146b5565b6148c9828285614805565b600060209050601f8311600181146148fc57600084156148ea578287015190505b6148f48582614876565b86555061495c565b601f19841661490a866146e6565b60005b828110156149325784890151825560018201915060208501945060208101905061490d565b8683101561494f578489015161494b601f891682614858565b8355505b6001600288020188555050505b505050505050565b6000819050919050565b600061498961498461497f84614964565b61476a565b613b3f565b9050919050565b6149998161496e565b82525050565b60006020820190506149b46000830184614990565b9291505056fea2646970667358221220de94fa416a06cf76d00a3eae41d0905b411ea36ddd2b1826fecde1e4207218f364736f6c634300081c0033",
  "linkReferences": {},
  "deployedLinkReferences": {}
}