{
  "_format": "hh-sol-artifact-1",
  "contractName": "CandidateDatabase",
  "sourceName": "contracts/CandidateDatabase.sol",
  "abi": [
    {
      "inputs": [],
      "stateMutability": "nonpayable",
      "type": "constructor"
    },
    {
      "inputs": [],
      "name": "CandidateDatabase__AdminNotFound",
      "type": "error"
    },
    {
      "inputs": [],
      "name": "CandidateDatabase__AlreadyAdmin",
      "type": "error"
    },
    {
      "inputs": [],
      "name": "CandidateDatabase__AlreadyRegistered",
      "type": "error"
    },
    {
      "inputs": [],
      "name": "CandidateDatabase__ImportFailed",
      "type": "error"
    },
    {
      "inputs": [],
      "name": "CandidateDatabase__InvalidAddress",
      "type": "error"
    },
    {
      "inputs": [],
      "name": "CandidateDatabase__NotAdmin",
      "type": "error"
    },
    {
      "inputs": [],
      "name": "CandidateDatabase__NotEligible",
      "type": "error"
    },
    {
      "inputs": [],
      "name": "CandidateDatabase__NotOwner",
      "type": "error"
    },
    {
      "inputs": [],
      "name": "CandidateDatabase__NotRegistered",
      "type": "error"
    },
    {
      "anonymous": false,
      "inputs": [
        {
          "indexed": true,
          "internalType": "address",
          "name": "admin",
          "type": "address"
        },
        {
          "indexed": true,
          "internalType": "address",
          "name": "owner",
          "type": "address"
        }
      ],
      "name": "AdminAdded",
      "type": "event"
    },
    {
      "anonymous": false,
      "inputs": [
        {
          "indexed": true,
          "internalType": "address",
          "name": "candidate",
          "type": "address"
        },
        {
          "indexed": true,
          "internalType": "address",
          "name": "admin",
          "type": "address"
        }
      ],
      "name": "AdminAddedCandidate",
      "type": "event"
    },
    {
      "anonymous": false,
      "inputs": [
        {
          "indexed": true,
          "internalType": "address",
          "name": "admin",
          "type": "address"
        },
        {
          "indexed": true,
          "internalType": "address",
          "name": "owner",
          "type": "address"
        }
      ],
      "name": "AdminRemoved",
      "type": "event"
    },
    {
      "anonymous": false,
      "inputs": [
        {
          "indexed": true,
          "internalType": "address",
          "name": "candidate",
          "type": "address"
        },
        {
          "indexed": true,
          "internalType": "address",
          "name": "admin",
          "type": "address"
        }
      ],
      "name": "AdminUpdatedCandidate",
      "type": "event"
    },
    {
      "anonymous": false,
      "inputs": [
        {
          "indexed": true,
          "internalType": "address",
          "name": "candidate",
          "type": "address"
        }
      ],
      "name": "CandidateDeleted",
      "type": "event"
    },
    {
      "anonymous": false,
      "inputs": [
        {
          "indexed": true,
          "internalType": "address",
          "name": "candidate",
          "type": "address"
        }
      ],
      "name": "CandidateRegistered",
      "type": "event"
    },
    {
      "anonymous": false,
      "inputs": [
        {
          "indexed": true,
          "internalType": "address",
          "name": "candidate",
          "type": "address"
        }
      ],
      "name": "CandidateUpdated",
      "type": "event"
    },
    {
      "anonymous": false,
      "inputs": [
        {
          "indexed": true,
          "internalType": "address",
          "name": "sourceContract",
          "type": "address"
        },
        {
          "indexed": false,
          "internalType": "uint256",
          "name": "candidatesImported",
          "type": "uint256"
        }
      ],
      "name": "CandidatesImported",
      "type": "event"
    },
    {
      "inputs": [
        {
          "internalType": "address",
          "name": "_adminAddress",
          "type": "address"
        }
      ],
      "name": "addAdmin",
      "outputs": [],
      "stateMutability": "nonpayable",
      "type": "function"
    },
    {
      "inputs": [
        {
          "internalType": "string",
          "name": "_name",
          "type": "string"
        },
        {
          "internalType": "uint256",
          "name": "_age",
          "type": "uint256"
        },
        {
          "internalType": "enum ICandidateDatabase.Gender",
          "name": "_gender",
          "type": "uint8"
        },
        {
          "internalType": "string",
          "name": "_presentAddress",
          "type": "string"
        },
        {
          "internalType": "string",
          "name": "_email",
          "type": "string"
        },
        {
          "internalType": "string",
          "name": "_qualifications",
          "type": "string"
        },
        {
          "internalType": "string",
          "name": "_manifesto",
          "type": "string"
        }
      ],
      "name": "addCandidate",
      "outputs": [],
      "stateMutability": "nonpayable",
      "type": "function"
    },
    {
      "inputs": [
        {
          "internalType": "address",
          "name": "_candidateAddress",
          "type": "address"
        },
        {
          "internalType": "string",
          "name": "_name",
          "type": "string"
        },
        {
          "internalType": "uint256",
          "name": "_age",
          "type": "uint256"
        },
        {
          "internalType": "enum ICandidateDatabase.Gender",
          "name": "_gender",
          "type": "uint8"
        },
        {
          "internalType": "string",
          "name": "_presentAddress",
          "type": "string"
        },
        {
          "internalType": "string",
          "name": "_email",
          "type": "string"
        },
        {
          "internalType": "string",
          "name": "_qualifications",
          "type": "string"
        },
        {
          "internalType": "string",
          "name": "_manifesto",
          "type": "string"
        }
      ],
      "name": "adminAddCandidate",
      "outputs": [],
      "stateMutability": "nonpayable",
      "type": "function"
    },
    {
      "inputs": [
        {
          "internalType": "address",
          "name": "_sourceContract",
          "type": "address"
        },
        {
          "internalType": "address[]",
          "name": "_candidateAddresses",
          "type": "address[]"
        }
      ],
      "name": "adminBatchImportCandidates",
      "outputs": [],
      "stateMutability": "nonpayable",
      "type": "function"
    },
    {
      "inputs": [
        {
          "internalType": "address",
          "name": "_sourceContract",
          "type": "address"
        }
      ],
      "name": "adminImportAllCandidates",
      "outputs": [],
      "stateMutability": "nonpayable",
      "type": "function"
    },
    {
      "inputs": [
        {
          "internalType": "address",
          "name": "_sourceContract",
          "type": "address"
        },
        {
          "internalType": "address",
          "name": "_candidateAddress",
          "type": "address"
        }
      ],
      "name": "adminImportCandidate",
      "outputs": [],
      "stateMutability": "nonpayable",
      "type": "function"
    },
    {
      "inputs": [
        {
          "internalType": "address",
          "name": "_candidateAddress",
          "type": "address"
        },
        {
          "internalType": "string",
          "name": "_name",
          "type": "string"
        },
        {
          "internalType": "uint256",
          "name": "_age",
          "type": "uint256"
        },
        {
          "internalType": "enum ICandidateDatabase.Gender",
          "name": "_gender",
          "type": "uint8"
        },
        {
          "internalType": "string",
          "name": "_presentAddress",
          "type": "string"
        },
        {
          "internalType": "string",
          "name": "_email",
          "type": "string"
        },
        {
          "internalType": "string",
          "name": "_qualifications",
          "type": "string"
        },
        {
          "internalType": "string",
          "name": "_manifesto",
          "type": "string"
        }
      ],
      "name": "adminUpdateCandidate",
      "outputs": [],
      "stateMutability": "nonpayable",
      "type": "function"
    },
    {
      "inputs": [],
      "name": "amIAdmin",
      "outputs": [
        {
          "internalType": "bool",
          "name": "",
          "type": "bool"
        }
      ],
      "stateMutability": "view",
      "type": "function"
    },
    {
      "inputs": [
        {
          "internalType": "address",
          "name": "_candidateAddress",
          "type": "address"
        }
      ],
      "name": "deleteCandidate",
      "outputs": [],
      "stateMutability": "nonpayable",
      "type": "function"
    },
    {
      "inputs": [],
      "name": "getAdminCount",
      "outputs": [
        {
          "internalType": "uint256",
          "name": "",
          "type": "uint256"
        }
      ],
      "stateMutability": "view",
      "type": "function"
    },
    {
      "inputs": [],
      "name": "getAllAdmins",
      "outputs": [
        {
          "internalType": "address[]",
          "name": "",
          "type": "address[]"
        }
      ],
      "stateMutability": "view",
      "type": "function"
    },
    {
      "inputs": [],
      "name": "getAllCandidates",
      "outputs": [
        {
          "internalType": "address[]",
          "name": "",
          "type": "address[]"
        }
      ],
      "stateMutability": "view",
      "type": "function"
    },
    {
      "inputs": [],
      "name": "getCandidateCount",
      "outputs": [
        {
          "internalType": "uint256",
          "name": "count",
          "type": "uint256"
        }
      ],
      "stateMutability": "view",
      "type": "function"
    },
    {
      "inputs": [
        {
          "internalType": "address",
          "name": "_candidateAddress",
          "type": "address"
        }
      ],
      "name": "getCandidateDetails",
      "outputs": [
        {
          "internalType": "string",
          "name": "name",
          "type": "string"
        },
        {
          "internalType": "uint256",
          "name": "age",
          "type": "uint256"
        },
        {
          "internalType": "enum ICandidateDatabase.Gender",
          "name": "gender",
          "type": "uint8"
        },
        {
          "internalType": "string",
          "name": "presentAddress",
          "type": "string"
        },
        {
          "internalType": "string",
          "name": "email",
          "type": "string"
        },
        {
          "internalType": "string",
          "name": "qualifications",
          "type": "string"
        },
        {
          "internalType": "string",
          "name": "manifesto",
          "type": "string"
        },
        {
          "internalType": "uint256",
          "name": "registrationTimestamp",
          "type": "uint256"
        }
      ],
      "stateMutability": "view",
      "type": "function"
    },
    {
      "inputs": [
        {
          "internalType": "address",
          "name": "_candidateAddress",
          "type": "address"
        }
      ],
      "name": "getCandidateRegistrationStatus",
      "outputs": [
        {
          "internalType": "bool",
          "name": "isRegistered",
          "type": "bool"
        }
      ],
      "stateMutability": "view",
      "type": "function"
    },
    {
      "inputs": [],
      "name": "getMyCandidateDetails",
      "outputs": [
        {
          "internalType": "string",
          "name": "name",
          "type": "string"
        },
        {
          "internalType": "uint256",
          "name": "age",
          "type": "uint256"
        },
        {
          "internalType": "enum ICandidateDatabase.Gender",
          "name": "gender",
          "type": "uint8"
        },
        {
          "internalType": "string",
          "name": "presentAddress",
          "type": "string"
        },
        {
          "internalType": "string",
          "name": "email",
          "type": "string"
        },
        {
          "internalType": "string",
          "name": "qualifications",
          "type": "string"
        },
        {
          "internalType": "string",
          "name": "manifesto",
          "type": "string"
        },
        {
          "internalType": "uint256",
          "name": "registrationTimestamp",
          "type": "uint256"
        }
      ],
      "stateMutability": "view",
      "type": "function"
    },
    {
      "inputs": [],
      "name": "getMyRegistrationStatus",
      "outputs": [
        {
          "internalType": "bool",
          "name": "isRegistered",
          "type": "bool"
        }
      ],
      "stateMutability": "view",
      "type": "function"
    },
    {
      "inputs": [],
      "name": "getOwner",
      "outputs": [
        {
          "internalType": "address",
          "name": "",
          "type": "address"
        }
      ],
      "stateMutability": "view",
      "type": "function"
    },
    {
      "inputs": [
        {
          "internalType": "address",
          "name": "_address",
          "type": "address"
        }
      ],
      "name": "isAdmin",
      "outputs": [
        {
          "internalType": "bool",
          "name": "",
          "type": "bool"
        }
      ],
      "stateMutability": "view",
      "type": "function"
    },
    {
      "inputs": [
        {
          "internalType": "address",
          "name": "_adminAddress",
          "type": "address"
        }
      ],
      "name": "removeAdmin",
      "outputs": [],
      "stateMutability": "nonpayable",
      "type": "function"
    },
    {
      "inputs": [
        {
          "internalType": "string",
          "name": "_name",
          "type": "string"
        },
        {
          "internalType": "uint256",
          "name": "_age",
          "type": "uint256"
        },
        {
          "internalType": "enum ICandidateDatabase.Gender",
          "name": "_gender",
          "type": "uint8"
        },
        {
          "internalType": "string",
          "name": "_presentAddress",
          "type": "string"
        },
        {
          "internalType": "string",
          "name": "_email",
          "type": "string"
        },
        {
          "internalType": "string",
          "name": "_qualifications",
          "type": "string"
        },
        {
          "internalType": "string",
          "name": "_manifesto",
          "type": "string"
        }
      ],
      "name": "updateCandidate",
      "outputs": [],
      "stateMutability": "nonpayable",
      "type": "function"
    }
  ],
  "bytecode": "0x60a060405234801561001057600080fd5b503373ffffffffffffffffffffffffffffffffffffffff1660808173ffffffffffffffffffffffffffffffffffffffff168152505060805161442f61009f600039600081816103e401528181610721015281816108be01528181610dda01528181611a2a01528181611cb101528181612136015281816121790152818161256f01526129a3015261442f6000f3fe608060405234801561001057600080fd5b50600436106101375760003560e01c806370480275116100b857806395f11ce61161007c57806395f11ce61461032f57806399e476e71461034b578063cdd0e1a714610367578063e9523c9714610383578063f6c094a6146103a1578063fd270ed6146103c657610137565b8063704802751461029d5780637effaef1146102b9578063893d20e8146102d55780638b7bf3eb146102f3578063934f1cca1461031157610137565b806346b7cd63116100ff57806346b7cd63146101f45780634eddfa8a1461021057806353ac5dc31461022c5780635b409d091461026357806366d4c5061461028157610137565b80631785f53c1461013c57806324d7806c146101585780632e6997fe146101885780632f0acbe1146101a657806330a56347146101d6575b600080fd5b610156600480360381019061015191906134d6565b6103e2565b005b610172600480360381019061016d91906134d6565b61071d565b60405161017f919061351e565b60405180910390f35b6101906107c9565b60405161019d91906135f7565b60405180910390f35b6101c060048036038101906101bb91906134d6565b610857565b6040516101cd919061351e565b60405180910390f35b6101de6108af565b6040516101eb9190613632565b60405180910390f35b61020e600480360381019061020991906134d6565b6108bc565b005b61022a6004803603810190610225919061364d565b610dd8565b005b610246600480360381019061024191906134d6565b61125f565b60405161025a989796959493929190613794565b60405180910390f35b61026b6116c7565b604051610278919061351e565b60405180910390f35b61029b600480360381019061029691906139bb565b61171d565b005b6102b760048036038101906102b291906134d6565b611a28565b005b6102d360048036038101906102ce9190613b49565b611caf565b005b6102dd612132565b6040516102ea9190613bb8565b60405180910390f35b6102fb61215a565b6040516103089190613632565b60405180910390f35b610319612167565b604051610326919061351e565b60405180910390f35b610349600480360381019061034491906134d6565b612177565b005b61036560048036038101906103609190613bd3565b61256d565b005b610381600480360381019061037c9190613bd3565b6129a1565b005b61038b612c39565b60405161039891906135f7565b60405180910390f35b6103a9612cc7565b6040516103bd989796959493929190613794565b60405180910390f35b6103e060048036038101906103db91906139bb565b61312e565b005b7f000000000000000000000000000000000000000000000000000000000000000073ffffffffffffffffffffffffffffffffffffffff163373ffffffffffffffffffffffffffffffffffffffff1614610467576040517fe7f229ea00000000000000000000000000000000000000000000000000000000815260040160405180910390fd5b600260008273ffffffffffffffffffffffffffffffffffffffff1673ffffffffffffffffffffffffffffffffffffffff16815260200190815260200160002060009054906101000a900460ff166104ea576040517f09f7734400000000000000000000000000000000000000000000000000000000815260040160405180910390fd5b600260008273ffffffffffffffffffffffffffffffffffffffff1673ffffffffffffffffffffffffffffffffffffffff16815260200190815260200160002060006101000a81549060ff021916905560005b6003805490508110156106bf578173ffffffffffffffffffffffffffffffffffffffff166003828154811061057457610573613d15565b5b9060005260206000200160009054906101000a900473ffffffffffffffffffffffffffffffffffffffff1673ffffffffffffffffffffffffffffffffffffffff16036106b257600360016003805490506105ce9190613d73565b815481106105df576105de613d15565b5b9060005260206000200160009054906101000a900473ffffffffffffffffffffffffffffffffffffffff166003828154811061061e5761061d613d15565b5b9060005260206000200160006101000a81548173ffffffffffffffffffffffffffffffffffffffff021916908373ffffffffffffffffffffffffffffffffffffffff160217905550600380548061067857610677613da7565b5b6001900381819060005260206000200160006101000a81549073ffffffffffffffffffffffffffffffffffffffff021916905590556106bf565b808060010191505061053c565b503373ffffffffffffffffffffffffffffffffffffffff168173ffffffffffffffffffffffffffffffffffffffff167fdb9d5d31320daf5bc7181d565b6da4d12e30f0f4d5aa324a992426c14a1d19ce60405160405180910390a350565b60007f000000000000000000000000000000000000000000000000000000000000000073ffffffffffffffffffffffffffffffffffffffff168273ffffffffffffffffffffffffffffffffffffffff1614806107c25750600260008373ffffffffffffffffffffffffffffffffffffffff1673ffffffffffffffffffffffffffffffffffffffff16815260200190815260200160002060009054906101000a900460ff165b9050919050565b6060600180548060200260200160405190810160405280929190818152602001828054801561084d57602002820191906000526020600020905b8160009054906101000a900473ffffffffffffffffffffffffffffffffffffffff1673ffffffffffffffffffffffffffffffffffffffff1681526020019060010190808311610803575b5050505050905090565b60008060008373ffffffffffffffffffffffffffffffffffffffff1673ffffffffffffffffffffffffffffffffffffffff16815260200190815260200160002060080160009054906101000a900460ff169050919050565b6000600180549050905090565b7f000000000000000000000000000000000000000000000000000000000000000073ffffffffffffffffffffffffffffffffffffffff163373ffffffffffffffffffffffffffffffffffffffff16141580156109625750600260003373ffffffffffffffffffffffffffffffffffffffff1673ffffffffffffffffffffffffffffffffffffffff16815260200190815260200160002060009054906101000a900460ff16155b15610999576040517f446b76e700000000000000000000000000000000000000000000000000000000815260040160405180910390fd5b600081905060608173ffffffffffffffffffffffffffffffffffffffff16632e6997fe6040518163ffffffff1660e01b8152600401600060405180830381865afa925050508015610a0d57506040513d6000823e3d601f19601f82011682018060405250810190610a0a9190613eae565b60015b610a43576040517fb9c861f000000000000000000000000000000000000000000000000000000000815260040160405180910390fd5b809150506000805b8251811015610d83576000838281518110610a6957610a68613d15565b5b602002602001015190506000808273ffffffffffffffffffffffffffffffffffffffff1673ffffffffffffffffffffffffffffffffffffffff16815260200190815260200160002060080160009054906101000a900460ff1615610acd5750610d76565b8473ffffffffffffffffffffffffffffffffffffffff166353ac5dc3826040518263ffffffff1660e01b8152600401610b069190613bb8565b600060405180830381865afa925050508015610b4557506040513d6000823e3d601f19601f82011682018060405250810190610b429190613f91565b60015b610b4f5750610d76565b604051806101200160405280898152602001888152602001876001811115610b7a57610b7961371d565b5b8152602001868152602001858152602001848152602001838152602001828152602001600115158152506000808b73ffffffffffffffffffffffffffffffffffffffff1673ffffffffffffffffffffffffffffffffffffffff1681526020019081526020016000206000820151816000019081610bf791906142df565b506020820151816001015560408201518160020160006101000a81548160ff02191690836001811115610c2d57610c2c61371d565b5b02179055506060820151816003019081610c4791906142df565b506080820151816004019081610c5d91906142df565b5060a0820151816005019081610c7391906142df565b5060c0820151816006019081610c8991906142df565b5060e082015181600701556101008201518160080160006101000a81548160ff0219169083151502179055509050506001899080600181540180825580915050600190039060005260206000200160009091909190916101000a81548173ffffffffffffffffffffffffffffffffffffffff021916908373ffffffffffffffffffffffffffffffffffffffff1602179055508873ffffffffffffffffffffffffffffffffffffffff167fa0ac4f59dabb0ddc4b8b883adda9e055e02c796b2cde2ed80fdb11a38f77e5c960405160405180910390a28a80610d69906143b1565b9b50505050505050505050505b8080600101915050610a4b565b508373ffffffffffffffffffffffffffffffffffffffff167f7b11f9707fd616002d9c0f0983f21e0021088827cc3a7fc4f36175ecb4782d5182604051610dca9190613632565b60405180910390a250505050565b7f000000000000000000000000000000000000000000000000000000000000000073ffffffffffffffffffffffffffffffffffffffff163373ffffffffffffffffffffffffffffffffffffffff1614158015610e7e5750600260003373ffffffffffffffffffffffffffffffffffffffff1673ffffffffffffffffffffffffffffffffffffffff16815260200190815260200160002060009054906101000a900460ff16155b15610eb5576040517f446b76e700000000000000000000000000000000000000000000000000000000815260040160405180910390fd5b6000808273ffffffffffffffffffffffffffffffffffffffff1673ffffffffffffffffffffffffffffffffffffffff16815260200190815260200160002060080160009054906101000a900460ff1615610f3b576040517fba6a3fb800000000000000000000000000000000000000000000000000000000815260040160405180910390fd5b60008290508073ffffffffffffffffffffffffffffffffffffffff166353ac5dc3836040518263ffffffff1660e01b8152600401610f799190613bb8565b600060405180830381865afa925050508015610fb857506040513d6000823e3d601f19601f82011682018060405250810190610fb59190613f91565b60015b610fee576040517fb9c861f000000000000000000000000000000000000000000000000000000000815260040160405180910390fd5b6040518061012001604052808981526020018881526020018760018111156110195761101861371d565b5b8152602001868152602001858152602001848152602001838152602001828152602001600115158152506000808c73ffffffffffffffffffffffffffffffffffffffff1673ffffffffffffffffffffffffffffffffffffffff168152602001908152602001600020600082015181600001908161109691906142df565b506020820151816001015560408201518160020160006101000a81548160ff021916908360018111156110cc576110cb61371d565b5b021790555060608201518160030190816110e691906142df565b5060808201518160040190816110fc91906142df565b5060a082015181600501908161111291906142df565b5060c082015181600601908161112891906142df565b5060e082015181600701556101008201518160080160006101000a81548160ff02191690831515021790555090505060018a9080600181540180825580915050600190039060005260206000200160009091909190916101000a81548173ffffffffffffffffffffffffffffffffffffffff021916908373ffffffffffffffffffffffffffffffffffffffff1602179055508973ffffffffffffffffffffffffffffffffffffffff167fa0ac4f59dabb0ddc4b8b883adda9e055e02c796b2cde2ed80fdb11a38f77e5c960405160405180910390a26000600190508b73ffffffffffffffffffffffffffffffffffffffff167f7b11f9707fd616002d9c0f0983f21e0021088827cc3a7fc4f36175ecb4782d51826040516112499190613632565b60405180910390a2505050505050505050505050565b606060008060608060608060008060008a73ffffffffffffffffffffffffffffffffffffffff1673ffffffffffffffffffffffffffffffffffffffff16815260200190815260200160002060080160009054906101000a900460ff166112f1576040517fc26f0ffd00000000000000000000000000000000000000000000000000000000815260040160405180910390fd5b60008060008b73ffffffffffffffffffffffffffffffffffffffff1673ffffffffffffffffffffffffffffffffffffffff1681526020019081526020016000206040518061012001604052908160008201805461134d90614102565b80601f016020809104026020016040519081016040528092919081815260200182805461137990614102565b80156113c65780601f1061139b576101008083540402835291602001916113c6565b820191906000526020600020905b8154815290600101906020018083116113a957829003601f168201915b50505050508152602001600182015481526020016002820160009054906101000a900460ff1660018111156113fe576113fd61371d565b5b60018111156114105761140f61371d565b5b815260200160038201805461142490614102565b80601f016020809104026020016040519081016040528092919081815260200182805461145090614102565b801561149d5780601f106114725761010080835404028352916020019161149d565b820191906000526020600020905b81548152906001019060200180831161148057829003601f168201915b505050505081526020016004820180546114b690614102565b80601f01602080910402602001604051908101604052809291908181526020018280546114e290614102565b801561152f5780601f106115045761010080835404028352916020019161152f565b820191906000526020600020905b81548152906001019060200180831161151257829003601f168201915b5050505050815260200160058201805461154890614102565b80601f016020809104026020016040519081016040528092919081815260200182805461157490614102565b80156115c15780601f10611596576101008083540402835291602001916115c1565b820191906000526020600020905b8154815290600101906020018083116115a457829003601f168201915b505050505081526020016006820180546115da90614102565b80601f016020809104026020016040519081016040528092919081815260200182805461160690614102565b80156116535780601f1061162857610100808354040283529160200191611653565b820191906000526020600020905b81548152906001019060200180831161163657829003601f168201915b50505050508152602001600782015481526020016008820160009054906101000a900460ff1615151515815250509050806000015181602001518260400151836060015184608001518560a001518660c001518760e001519850985098509850985098509850985050919395975091939597565b60008060003373ffffffffffffffffffffffffffffffffffffffff1673ffffffffffffffffffffffffffffffffffffffff16815260200190815260200160002060080160009054906101000a900460ff16905090565b6000803373ffffffffffffffffffffffffffffffffffffffff1673ffffffffffffffffffffffffffffffffffffffff16815260200190815260200160002060080160009054906101000a900460ff166117a2576040517fc26f0ffd00000000000000000000000000000000000000000000000000000000815260040160405180910390fd5b866000803373ffffffffffffffffffffffffffffffffffffffff1673ffffffffffffffffffffffffffffffffffffffff16815260200190815260200160002060000190816117f091906142df565b50856000803373ffffffffffffffffffffffffffffffffffffffff1673ffffffffffffffffffffffffffffffffffffffff16815260200190815260200160002060010181905550846000803373ffffffffffffffffffffffffffffffffffffffff1673ffffffffffffffffffffffffffffffffffffffff16815260200190815260200160002060020160006101000a81548160ff0219169083600181111561189b5761189a61371d565b5b0217905550836000803373ffffffffffffffffffffffffffffffffffffffff1673ffffffffffffffffffffffffffffffffffffffff16815260200190815260200160002060030190816118ee91906142df565b50826000803373ffffffffffffffffffffffffffffffffffffffff1673ffffffffffffffffffffffffffffffffffffffff168152602001908152602001600020600401908161193d91906142df565b50816000803373ffffffffffffffffffffffffffffffffffffffff1673ffffffffffffffffffffffffffffffffffffffff168152602001908152602001600020600501908161198c91906142df565b50806000803373ffffffffffffffffffffffffffffffffffffffff1673ffffffffffffffffffffffffffffffffffffffff16815260200190815260200160002060060190816119db91906142df565b503373ffffffffffffffffffffffffffffffffffffffff167f5c1cd16d0c55845505cf06834fc8d64b03a2fb0c2ffea81be006fd3fe764ede460405160405180910390a250505050505050565b7f000000000000000000000000000000000000000000000000000000000000000073ffffffffffffffffffffffffffffffffffffffff163373ffffffffffffffffffffffffffffffffffffffff1614611aad576040517fe7f229ea00000000000000000000000000000000000000000000000000000000815260040160405180910390fd5b600073ffffffffffffffffffffffffffffffffffffffff168173ffffffffffffffffffffffffffffffffffffffff1603611b13576040517fab820aca00000000000000000000000000000000000000000000000000000000815260040160405180910390fd5b600260008273ffffffffffffffffffffffffffffffffffffffff1673ffffffffffffffffffffffffffffffffffffffff16815260200190815260200160002060009054906101000a900460ff1615611b97576040517f6949f8f100000000000000000000000000000000000000000000000000000000815260040160405180910390fd5b6001600260008373ffffffffffffffffffffffffffffffffffffffff1673ffffffffffffffffffffffffffffffffffffffff16815260200190815260200160002060006101000a81548160ff0219169083151502179055506003819080600181540180825580915050600190039060005260206000200160009091909190916101000a81548173ffffffffffffffffffffffffffffffffffffffff021916908373ffffffffffffffffffffffffffffffffffffffff1602179055503373ffffffffffffffffffffffffffffffffffffffff168173ffffffffffffffffffffffffffffffffffffffff167fbf3f493c772c8c283fd124432c2d0f539ab343faa04258fe88e52912d36b102b60405160405180910390a350565b7f000000000000000000000000000000000000000000000000000000000000000073ffffffffffffffffffffffffffffffffffffffff163373ffffffffffffffffffffffffffffffffffffffff1614158015611d555750600260003373ffffffffffffffffffffffffffffffffffffffff1673ffffffffffffffffffffffffffffffffffffffff16815260200190815260200160002060009054906101000a900460ff16155b15611d8c576040517f446b76e700000000000000000000000000000000000000000000000000000000815260040160405180910390fd5b60008390506000805b848490508110156120dc576000858583818110611db557611db4613d15565b5b9050602002016020810190611dca91906134d6565b90506000808273ffffffffffffffffffffffffffffffffffffffff1673ffffffffffffffffffffffffffffffffffffffff16815260200190815260200160002060080160009054906101000a900460ff1615611e2657506120cf565b8373ffffffffffffffffffffffffffffffffffffffff166353ac5dc3826040518263ffffffff1660e01b8152600401611e5f9190613bb8565b600060405180830381865afa925050508015611e9e57506040513d6000823e3d601f19601f82011682018060405250810190611e9b9190613f91565b60015b611ea857506120cf565b604051806101200160405280898152602001888152602001876001811115611ed357611ed261371d565b5b8152602001868152602001858152602001848152602001838152602001828152602001600115158152506000808b73ffffffffffffffffffffffffffffffffffffffff1673ffffffffffffffffffffffffffffffffffffffff1681526020019081526020016000206000820151816000019081611f5091906142df565b506020820151816001015560408201518160020160006101000a81548160ff02191690836001811115611f8657611f8561371d565b5b02179055506060820151816003019081611fa091906142df565b506080820151816004019081611fb691906142df565b5060a0820151816005019081611fcc91906142df565b5060c0820151816006019081611fe291906142df565b5060e082015181600701556101008201518160080160006101000a81548160ff0219169083151502179055509050506001899080600181540180825580915050600190039060005260206000200160009091909190916101000a81548173ffffffffffffffffffffffffffffffffffffffff021916908373ffffffffffffffffffffffffffffffffffffffff1602179055508873ffffffffffffffffffffffffffffffffffffffff167fa0ac4f59dabb0ddc4b8b883adda9e055e02c796b2cde2ed80fdb11a38f77e5c960405160405180910390a28a806120c2906143b1565b9b50505050505050505050505b8080600101915050611d95565b508473ffffffffffffffffffffffffffffffffffffffff167f7b11f9707fd616002d9c0f0983f21e0021088827cc3a7fc4f36175ecb4782d51826040516121239190613632565b60405180910390a25050505050565b60007f0000000000000000000000000000000000000000000000000000000000000000905090565b6000600380549050905090565b60006121723361071d565b905090565b7f000000000000000000000000000000000000000000000000000000000000000073ffffffffffffffffffffffffffffffffffffffff163373ffffffffffffffffffffffffffffffffffffffff161415801561221d5750600260003373ffffffffffffffffffffffffffffffffffffffff1673ffffffffffffffffffffffffffffffffffffffff16815260200190815260200160002060009054906101000a900460ff16155b15612254576040517f446b76e700000000000000000000000000000000000000000000000000000000815260040160405180910390fd5b6000808273ffffffffffffffffffffffffffffffffffffffff1673ffffffffffffffffffffffffffffffffffffffff16815260200190815260200160002060080160009054906101000a900460ff166122d9576040517fc26f0ffd00000000000000000000000000000000000000000000000000000000815260040160405180910390fd5b6000808273ffffffffffffffffffffffffffffffffffffffff1673ffffffffffffffffffffffffffffffffffffffff168152602001908152602001600020600080820160006123289190613407565b60018201600090556002820160006101000a81549060ff02191690556003820160006123549190613407565b6004820160006123649190613407565b6005820160006123749190613407565b6006820160006123849190613407565b60078201600090556008820160006101000a81549060ff0219169055505060005b600180549050811015612526578173ffffffffffffffffffffffffffffffffffffffff16600182815481106123dd576123dc613d15565b5b9060005260206000200160009054906101000a900473ffffffffffffffffffffffffffffffffffffffff1673ffffffffffffffffffffffffffffffffffffffff16036125195760018080805490506124359190613d73565b8154811061244657612445613d15565b5b9060005260206000200160009054906101000a900473ffffffffffffffffffffffffffffffffffffffff166001828154811061248557612484613d15565b5b9060005260206000200160006101000a81548173ffffffffffffffffffffffffffffffffffffffff021916908373ffffffffffffffffffffffffffffffffffffffff16021790555060018054806124df576124de613da7565b5b6001900381819060005260206000200160006101000a81549073ffffffffffffffffffffffffffffffffffffffff02191690559055612526565b80806001019150506123a5565b508073ffffffffffffffffffffffffffffffffffffffff167f6fe1c8a36bbf04217ace8c02e2469521bb21107f6f54ae5213ab312b8ae1bb6f60405160405180910390a250565b7f000000000000000000000000000000000000000000000000000000000000000073ffffffffffffffffffffffffffffffffffffffff163373ffffffffffffffffffffffffffffffffffffffff16141580156126135750600260003373ffffffffffffffffffffffffffffffffffffffff1673ffffffffffffffffffffffffffffffffffffffff16815260200190815260200160002060009054906101000a900460ff16155b1561264a576040517f446b76e700000000000000000000000000000000000000000000000000000000815260040160405180910390fd5b600073ffffffffffffffffffffffffffffffffffffffff168873ffffffffffffffffffffffffffffffffffffffff16036126b0576040517fab820aca00000000000000000000000000000000000000000000000000000000815260040160405180910390fd5b60128610156126eb576040517fc84eb1fe00000000000000000000000000000000000000000000000000000000815260040160405180910390fd5b6000808973ffffffffffffffffffffffffffffffffffffffff1673ffffffffffffffffffffffffffffffffffffffff16815260200190815260200160002060080160009054906101000a900460ff1615612771576040517fba6a3fb800000000000000000000000000000000000000000000000000000000815260040160405180910390fd5b60405180610120016040528088815260200187815260200186600181111561279c5761279b61371d565b5b8152602001858152602001848152602001838152602001828152602001428152602001600115158152506000808a73ffffffffffffffffffffffffffffffffffffffff1673ffffffffffffffffffffffffffffffffffffffff168152602001908152602001600020600082015181600001908161281991906142df565b506020820151816001015560408201518160020160006101000a81548160ff0219169083600181111561284f5761284e61371d565b5b0217905550606082015181600301908161286991906142df565b50608082015181600401908161287f91906142df565b5060a082015181600501908161289591906142df565b5060c08201518160060190816128ab91906142df565b5060e082015181600701556101008201518160080160006101000a81548160ff0219169083151502179055509050506001889080600181540180825580915050600190039060005260206000200160009091909190916101000a81548173ffffffffffffffffffffffffffffffffffffffff021916908373ffffffffffffffffffffffffffffffffffffffff1602179055503373ffffffffffffffffffffffffffffffffffffffff168873ffffffffffffffffffffffffffffffffffffffff167fbae38c103fcb399c54b7f4938cbeb7260b54380334fd0f5365f5eecde90d759a60405160405180910390a35050505050505050565b7f000000000000000000000000000000000000000000000000000000000000000073ffffffffffffffffffffffffffffffffffffffff163373ffffffffffffffffffffffffffffffffffffffff1614158015612a475750600260003373ffffffffffffffffffffffffffffffffffffffff1673ffffffffffffffffffffffffffffffffffffffff16815260200190815260200160002060009054906101000a900460ff16155b15612a7e576040517f446b76e700000000000000000000000000000000000000000000000000000000815260040160405180910390fd5b6000808973ffffffffffffffffffffffffffffffffffffffff1673ffffffffffffffffffffffffffffffffffffffff16815260200190815260200160002060080160009054906101000a900460ff16612b03576040517fc26f0ffd00000000000000000000000000000000000000000000000000000000815260040160405180910390fd5b60008060008a73ffffffffffffffffffffffffffffffffffffffff1673ffffffffffffffffffffffffffffffffffffffff168152602001908152602001600020905087816000019081612b5691906142df565b50868160010181905550858160020160006101000a81548160ff02191690836001811115612b8757612b8661371d565b5b021790555084816003019081612b9d91906142df565b5083816004019081612baf91906142df565b5082816005019081612bc191906142df565b5081816006019081612bd391906142df565b503373ffffffffffffffffffffffffffffffffffffffff168973ffffffffffffffffffffffffffffffffffffffff167f9a558f778a9c36163180e5c4b2d6f3e7b43f255a529c2606e3ec5ac5b5214e5060405160405180910390a3505050505050505050565b60606003805480602002602001604051908101604052809291908181526020018280548015612cbd57602002820191906000526020600020905b8160009054906101000a900473ffffffffffffffffffffffffffffffffffffffff1673ffffffffffffffffffffffffffffffffffffffff1681526020019060010190808311612c73575b5050505050905090565b606060008060608060608060008060003373ffffffffffffffffffffffffffffffffffffffff1673ffffffffffffffffffffffffffffffffffffffff16815260200190815260200160002060080160009054906101000a900460ff16612d59576040517fc26f0ffd00000000000000000000000000000000000000000000000000000000815260040160405180910390fd5b60008060003373ffffffffffffffffffffffffffffffffffffffff1673ffffffffffffffffffffffffffffffffffffffff16815260200190815260200160002060405180610120016040529081600082018054612db590614102565b80601f0160208091040260200160405190810160405280929190818152602001828054612de190614102565b8015612e2e5780601f10612e0357610100808354040283529160200191612e2e565b820191906000526020600020905b815481529060010190602001808311612e1157829003601f168201915b50505050508152602001600182015481526020016002820160009054906101000a900460ff166001811115612e6657612e6561371d565b5b6001811115612e7857612e7761371d565b5b8152602001600382018054612e8c90614102565b80601f0160208091040260200160405190810160405280929190818152602001828054612eb890614102565b8015612f055780601f10612eda57610100808354040283529160200191612f05565b820191906000526020600020905b815481529060010190602001808311612ee857829003601f168201915b50505050508152602001600482018054612f1e90614102565b80601f0160208091040260200160405190810160405280929190818152602001828054612f4a90614102565b8015612f975780601f10612f6c57610100808354040283529160200191612f97565b820191906000526020600020905b815481529060010190602001808311612f7a57829003601f168201915b50505050508152602001600582018054612fb090614102565b80601f0160208091040260200160405190810160405280929190818152602001828054612fdc90614102565b80156130295780601f10612ffe57610100808354040283529160200191613029565b820191906000526020600020905b81548152906001019060200180831161300c57829003601f168201915b5050505050815260200160068201805461304290614102565b80601f016020809104026020016040519081016040528092919081815260200182805461306e90614102565b80156130bb5780601f10613090576101008083540402835291602001916130bb565b820191906000526020600020905b81548152906001019060200180831161309e57829003601f168201915b50505050508152602001600782015481526020016008820160009054906101000a900460ff1615151515815250509050806000015181602001518260400151836060015184608001518560a001518660c001518760e0015198509850985098509850985098509850509091929394959697565b6012861015613169576040517fc84eb1fe00000000000000000000000000000000000000000000000000000000815260040160405180910390fd5b6000803373ffffffffffffffffffffffffffffffffffffffff1673ffffffffffffffffffffffffffffffffffffffff16815260200190815260200160002060080160009054906101000a900460ff16156131ef576040517fba6a3fb800000000000000000000000000000000000000000000000000000000815260040160405180910390fd5b60405180610120016040528088815260200187815260200186600181111561321a5761321961371d565b5b8152602001858152602001848152602001838152602001828152602001428152602001600115158152506000803373ffffffffffffffffffffffffffffffffffffffff1673ffffffffffffffffffffffffffffffffffffffff168152602001908152602001600020600082015181600001908161329791906142df565b506020820151816001015560408201518160020160006101000a81548160ff021916908360018111156132cd576132cc61371d565b5b021790555060608201518160030190816132e791906142df565b5060808201518160040190816132fd91906142df565b5060a082015181600501908161331391906142df565b5060c082015181600601908161332991906142df565b5060e082015181600701556101008201518160080160006101000a81548160ff0219169083151502179055509050506001339080600181540180825580915050600190039060005260206000200160009091909190916101000a81548173ffffffffffffffffffffffffffffffffffffffff021916908373ffffffffffffffffffffffffffffffffffffffff1602179055503373ffffffffffffffffffffffffffffffffffffffff167fa0ac4f59dabb0ddc4b8b883adda9e055e02c796b2cde2ed80fdb11a38f77e5c960405160405180910390a250505050505050565b50805461341390614102565b6000825580601f106134255750613444565b601f0160209004906000526020600020908101906134439190613447565b5b50565b5b80821115613460576000816000905550600101613448565b5090565b6000604051905090565b600080fd5b600080fd5b600073ffffffffffffffffffffffffffffffffffffffff82169050919050565b60006134a382613478565b9050919050565b6134b381613498565b81146134be57600080fd5b50565b6000813590506134d0816134aa565b92915050565b6000602082840312156134ec576134eb61346e565b5b60006134fa848285016134c1565b91505092915050565b60008115159050919050565b61351881613503565b82525050565b6000602082019050613533600083018461350f565b92915050565b600081519050919050565b600082825260208201905092915050565b6000819050602082019050919050565b61356e81613498565b82525050565b60006135808383613565565b60208301905092915050565b6000602082019050919050565b60006135a482613539565b6135ae8185613544565b93506135b983613555565b8060005b838110156135ea5781516135d18882613574565b97506135dc8361358c565b9250506001810190506135bd565b5085935050505092915050565b600060208201905081810360008301526136118184613599565b905092915050565b6000819050919050565b61362c81613619565b82525050565b60006020820190506136476000830184613623565b92915050565b600080604083850312156136645761366361346e565b5b6000613672858286016134c1565b9250506020613683858286016134c1565b9150509250929050565b600081519050919050565b600082825260208201905092915050565b60005b838110156136c75780820151818401526020810190506136ac565b60008484015250505050565b6000601f19601f8301169050919050565b60006136ef8261368d565b6136f98185613698565b93506137098185602086016136a9565b613712816136d3565b840191505092915050565b7f4e487b7100000000000000000000000000000000000000000000000000000000600052602160045260246000fd5b6002811061375d5761375c61371d565b5b50565b600081905061376e8261374c565b919050565b600061377e82613760565b9050919050565b61378e81613773565b82525050565b60006101008201905081810360008301526137af818b6136e4565b90506137be602083018a613623565b6137cb6040830189613785565b81810360608301526137dd81886136e4565b905081810360808301526137f181876136e4565b905081810360a083015261380581866136e4565b905081810360c083015261381981856136e4565b905061382860e0830184613623565b9998505050505050505050565b600080fd5b600080fd5b7f4e487b7100000000000000000000000000000000000000000000000000000000600052604160045260246000fd5b613877826136d3565b810181811067ffffffffffffffff821117156138965761389561383f565b5b80604052505050565b60006138a9613464565b90506138b5828261386e565b919050565b600067ffffffffffffffff8211156138d5576138d461383f565b5b6138de826136d3565b9050602081019050919050565b82818337600083830152505050565b600061390d613908846138ba565b61389f565b9050828152602081018484840111156139295761392861383a565b5b6139348482856138eb565b509392505050565b600082601f83011261395157613950613835565b5b81356139618482602086016138fa565b91505092915050565b61397381613619565b811461397e57600080fd5b50565b6000813590506139908161396a565b92915050565b600281106139a357600080fd5b50565b6000813590506139b581613996565b92915050565b600080600080600080600060e0888a0312156139da576139d961346e565b5b600088013567ffffffffffffffff8111156139f8576139f7613473565b5b613a048a828b0161393c565b9750506020613a158a828b01613981565b9650506040613a268a828b016139a6565b955050606088013567ffffffffffffffff811115613a4757613a46613473565b5b613a538a828b0161393c565b945050608088013567ffffffffffffffff811115613a7457613a73613473565b5b613a808a828b0161393c565b93505060a088013567ffffffffffffffff811115613aa157613aa0613473565b5b613aad8a828b0161393c565b92505060c088013567ffffffffffffffff811115613ace57613acd613473565b5b613ada8a828b0161393c565b91505092959891949750929550565b600080fd5b600080fd5b60008083601f840112613b0957613b08613835565b5b8235905067ffffffffffffffff811115613b2657613b25613ae9565b5b602083019150836020820283011115613b4257613b41613aee565b5b9250929050565b600080600060408486031215613b6257613b6161346e565b5b6000613b70868287016134c1565b935050602084013567ffffffffffffffff811115613b9157613b90613473565b5b613b9d86828701613af3565b92509250509250925092565b613bb281613498565b82525050565b6000602082019050613bcd6000830184613ba9565b92915050565b600080600080600080600080610100898b031215613bf457613bf361346e565b5b6000613c028b828c016134c1565b985050602089013567ffffffffffffffff811115613c2357613c22613473565b5b613c2f8b828c0161393c565b9750506040613c408b828c01613981565b9650506060613c518b828c016139a6565b955050608089013567ffffffffffffffff811115613c7257613c71613473565b5b613c7e8b828c0161393c565b94505060a089013567ffffffffffffffff811115613c9f57613c9e613473565b5b613cab8b828c0161393c565b93505060c089013567ffffffffffffffff811115613ccc57613ccb613473565b5b613cd88b828c0161393c565b92505060e089013567ffffffffffffffff811115613cf957613cf8613473565b5b613d058b828c0161393c565b9150509295985092959890939650565b7f4e487b7100000000000000000000000000000000000000000000000000000000600052603260045260246000fd5b7f4e487b7100000000000000000000000000000000000000000000000000000000600052601160045260246000fd5b6000613d7e82613619565b9150613d8983613619565b9250828203905081811115613da157613da0613d44565b5b92915050565b7f4e487b7100000000000000000000000000000000000000000000000000000000600052603160045260246000fd5b600067ffffffffffffffff821115613df157613df061383f565b5b602082029050602081019050919050565b600081519050613e11816134aa565b92915050565b6000613e2a613e2584613dd6565b61389f565b90508083825260208201905060208402830185811115613e4d57613e4c613aee565b5b835b81811015613e765780613e628882613e02565b845260208401935050602081019050613e4f565b5050509392505050565b600082601f830112613e9557613e94613835565b5b8151613ea5848260208601613e17565b91505092915050565b600060208284031215613ec457613ec361346e565b5b600082015167ffffffffffffffff811115613ee257613ee1613473565b5b613eee84828501613e80565b91505092915050565b6000613f0a613f05846138ba565b61389f565b905082815260208101848484011115613f2657613f2561383a565b5b613f318482856136a9565b509392505050565b600082601f830112613f4e57613f4d613835565b5b8151613f5e848260208601613ef7565b91505092915050565b600081519050613f768161396a565b92915050565b600081519050613f8b81613996565b92915050565b600080600080600080600080610100898b031215613fb257613fb161346e565b5b600089015167ffffffffffffffff811115613fd057613fcf613473565b5b613fdc8b828c01613f39565b9850506020613fed8b828c01613f67565b9750506040613ffe8b828c01613f7c565b965050606089015167ffffffffffffffff81111561401f5761401e613473565b5b61402b8b828c01613f39565b955050608089015167ffffffffffffffff81111561404c5761404b613473565b5b6140588b828c01613f39565b94505060a089015167ffffffffffffffff81111561407957614078613473565b5b6140858b828c01613f39565b93505060c089015167ffffffffffffffff8111156140a6576140a5613473565b5b6140b28b828c01613f39565b92505060e06140c38b828c01613f67565b9150509295985092959890939650565b7f4e487b7100000000000000000000000000000000000000000000000000000000600052602260045260246000fd5b6000600282049050600182168061411a57607f821691505b60208210810361412d5761412c6140d3565b5b50919050565b60008190508160005260206000209050919050565b60006020601f8301049050919050565b600082821b905092915050565b6000600883026141957fffffffffffffffffffffffffffffffffffffffffffffffffffffffffffffffff82614158565b61419f8683614158565b95508019841693508086168417925050509392505050565b6000819050919050565b60006141dc6141d76141d284613619565b6141b7565b613619565b9050919050565b6000819050919050565b6141f6836141c1565b61420a614202826141e3565b848454614165565b825550505050565b600090565b61421f614212565b61422a8184846141ed565b505050565b5b8181101561424e57614243600082614217565b600181019050614230565b5050565b601f8211156142935761426481614133565b61426d84614148565b8101602085101561427c578190505b61429061428885614148565b83018261422f565b50505b505050565b600082821c905092915050565b60006142b660001984600802614298565b1980831691505092915050565b60006142cf83836142a5565b9150826002028217905092915050565b6142e88261368d565b67ffffffffffffffff8111156143015761430061383f565b5b61430b8254614102565b614316828285614252565b600060209050601f8311600181146143495760008415614337578287015190505b61434185826142c3565b8655506143a9565b601f19841661435786614133565b60005b8281101561437f5784890151825560018201915060208501945060208101905061435a565b8683101561439c5784890151614398601f8916826142a5565b8355505b6001600288020188555050505b505050505050565b60006143bc82613619565b91507fffffffffffffffffffffffffffffffffffffffffffffffffffffffffffffffff82036143ee576143ed613d44565b5b60018201905091905056fea2646970667358221220ee827d3d8a55999dbbbe15bef8a3136b191b8fb8c1103b8e8b6ab6fbe20c683564736f6c634300081c0033",
  "linkReferences": {},
  "deployedLinkReferences": {}
}