{
  "_format": "hh-sol-artifact-1",
  "contractName": "CandidateDatabase",
  "sourceName": "contracts/CandidateDatabase.sol",
  "abi": [
    {
      "inputs": [],
      "stateMutability": "nonpayable",
      "type": "constructor"
    },
    {
      "inputs": [],
      "name": "CandidateDatabase__AdminNotFound",
      "type": "error"
    },
    {
      "inputs": [],
      "name": "CandidateDatabase__AlreadyAdmin",
      "type": "error"
    },
    {
      "inputs": [],
      "name": "CandidateDatabase__AlreadyRegistered",
      "type": "error"
    },
    {
      "inputs": [],
      "name": "CandidateDatabase__ImportFailed",
      "type": "error"
    },
    {
      "inputs": [],
      "name": "CandidateDatabase__InvalidAddress",
      "type": "error"
    },
    {
      "inputs": [],
      "name": "CandidateDatabase__NotAdmin",
      "type": "error"
    },
    {
      "inputs": [],
      "name": "CandidateDatabase__NotEligible",
      "type": "error"
    },
    {
      "inputs": [],
      "name": "CandidateDatabase__NotOwner",
      "type": "error"
    },
    {
      "inputs": [],
      "name": "CandidateDatabase__NotRegistered",
      "type": "error"
    },
    {
      "anonymous": false,
      "inputs": [
        {
          "indexed": true,
          "internalType": "address",
          "name": "admin",
          "type": "address"
        },
        {
          "indexed": true,
          "internalType": "address",
          "name": "owner",
          "type": "address"
        }
      ],
      "name": "AdminAdded",
      "type": "event"
    },
    {
      "anonymous": false,
      "inputs": [
        {
          "indexed": true,
          "internalType": "address",
          "name": "candidate",
          "type": "address"
        },
        {
          "indexed": true,
          "internalType": "address",
          "name": "admin",
          "type": "address"
        }
      ],
      "name": "AdminAddedCandidate",
      "type": "event"
    },
    {
      "anonymous": false,
      "inputs": [
        {
          "indexed": true,
          "internalType": "address",
          "name": "admin",
          "type": "address"
        },
        {
          "indexed": true,
          "internalType": "address",
          "name": "owner",
          "type": "address"
        }
      ],
      "name": "AdminRemoved",
      "type": "event"
    },
    {
      "anonymous": false,
      "inputs": [
        {
          "indexed": true,
          "internalType": "address",
          "name": "candidate",
          "type": "address"
        },
        {
          "indexed": true,
          "internalType": "address",
          "name": "admin",
          "type": "address"
        }
      ],
      "name": "AdminUpdatedCandidate",
      "type": "event"
    },
    {
      "anonymous": false,
      "inputs": [
        {
          "indexed": true,
          "internalType": "address",
          "name": "candidate",
          "type": "address"
        }
      ],
      "name": "CandidateDeleted",
      "type": "event"
    },
    {
      "anonymous": false,
      "inputs": [
        {
          "indexed": true,
          "internalType": "address",
          "name": "candidate",
          "type": "address"
        }
      ],
      "name": "CandidateRegistered",
      "type": "event"
    },
    {
      "anonymous": false,
      "inputs": [
        {
          "indexed": true,
          "internalType": "address",
          "name": "candidate",
          "type": "address"
        }
      ],
      "name": "CandidateUpdated",
      "type": "event"
    },
    {
      "anonymous": false,
      "inputs": [
        {
          "indexed": true,
          "internalType": "address",
          "name": "sourceContract",
          "type": "address"
        },
        {
          "indexed": false,
          "internalType": "uint256",
          "name": "candidatesImported",
          "type": "uint256"
        }
      ],
      "name": "CandidatesImported",
      "type": "event"
    },
    {
      "inputs": [
        {
          "internalType": "address",
          "name": "_adminAddress",
          "type": "address"
        }
      ],
      "name": "addAdmin",
      "outputs": [],
      "stateMutability": "nonpayable",
      "type": "function"
    },
    {
      "inputs": [
        {
          "internalType": "string",
          "name": "_name",
          "type": "string"
        },
        {
          "internalType": "uint256",
          "name": "_age",
          "type": "uint256"
        },
        {
          "internalType": "string",
          "name": "_email",
          "type": "string"
        },
        {
          "internalType": "string",
          "name": "_qualifications",
          "type": "string"
        },
        {
          "internalType": "string",
          "name": "_manifesto",
          "type": "string"
        }
      ],
      "name": "addCandidate",
      "outputs": [],
      "stateMutability": "nonpayable",
      "type": "function"
    },
    {
      "inputs": [
        {
          "internalType": "address",
          "name": "_candidateAddress",
          "type": "address"
        },
        {
          "internalType": "string",
          "name": "_name",
          "type": "string"
        },
        {
          "internalType": "uint256",
          "name": "_age",
          "type": "uint256"
        },
        {
          "internalType": "string",
          "name": "_email",
          "type": "string"
        },
        {
          "internalType": "string",
          "name": "_qualifications",
          "type": "string"
        },
        {
          "internalType": "string",
          "name": "_manifesto",
          "type": "string"
        }
      ],
      "name": "adminAddCandidate",
      "outputs": [],
      "stateMutability": "nonpayable",
      "type": "function"
    },
    {
      "inputs": [
        {
          "internalType": "address",
          "name": "_sourceContract",
          "type": "address"
        },
        {
          "internalType": "address[]",
          "name": "_candidateAddresses",
          "type": "address[]"
        }
      ],
      "name": "adminBatchImportCandidates",
      "outputs": [],
      "stateMutability": "nonpayable",
      "type": "function"
    },
    {
      "inputs": [
        {
          "internalType": "address",
          "name": "_sourceContract",
          "type": "address"
        }
      ],
      "name": "adminImportAllCandidates",
      "outputs": [],
      "stateMutability": "nonpayable",
      "type": "function"
    },
    {
      "inputs": [
        {
          "internalType": "address",
          "name": "_sourceContract",
          "type": "address"
        },
        {
          "internalType": "address",
          "name": "_candidateAddress",
          "type": "address"
        }
      ],
      "name": "adminImportCandidate",
      "outputs": [],
      "stateMutability": "nonpayable",
      "type": "function"
    },
    {
      "inputs": [
        {
          "internalType": "address",
          "name": "_candidateAddress",
          "type": "address"
        },
        {
          "internalType": "string",
          "name": "_name",
          "type": "string"
        },
        {
          "internalType": "uint256",
          "name": "_age",
          "type": "uint256"
        },
        {
          "internalType": "string",
          "name": "_email",
          "type": "string"
        },
        {
          "internalType": "string",
          "name": "_qualifications",
          "type": "string"
        },
        {
          "internalType": "string",
          "name": "_manifesto",
          "type": "string"
        }
      ],
      "name": "adminUpdateCandidate",
      "outputs": [],
      "stateMutability": "nonpayable",
      "type": "function"
    },
    {
      "inputs": [],
      "name": "amIAdmin",
      "outputs": [
        {
          "internalType": "bool",
          "name": "",
          "type": "bool"
        }
      ],
      "stateMutability": "view",
      "type": "function"
    },
    {
      "inputs": [
        {
          "internalType": "address",
          "name": "_candidateAddress",
          "type": "address"
        }
      ],
      "name": "deleteCandidate",
      "outputs": [],
      "stateMutability": "nonpayable",
      "type": "function"
    },
    {
      "inputs": [],
      "name": "getAdminCount",
      "outputs": [
        {
          "internalType": "uint256",
          "name": "",
          "type": "uint256"
        }
      ],
      "stateMutability": "view",
      "type": "function"
    },
    {
      "inputs": [],
      "name": "getAllAdmins",
      "outputs": [
        {
          "internalType": "address[]",
          "name": "",
          "type": "address[]"
        }
      ],
      "stateMutability": "view",
      "type": "function"
    },
    {
      "inputs": [],
      "name": "getAllCandidates",
      "outputs": [
        {
          "internalType": "address[]",
          "name": "",
          "type": "address[]"
        }
      ],
      "stateMutability": "view",
      "type": "function"
    },
    {
      "inputs": [],
      "name": "getCandidateCount",
      "outputs": [
        {
          "internalType": "uint256",
          "name": "count",
          "type": "uint256"
        }
      ],
      "stateMutability": "view",
      "type": "function"
    },
    {
      "inputs": [
        {
          "internalType": "address",
          "name": "_candidateAddress",
          "type": "address"
        }
      ],
      "name": "getCandidateDetails",
      "outputs": [
        {
          "internalType": "string",
          "name": "name",
          "type": "string"
        },
        {
          "internalType": "uint256",
          "name": "age",
          "type": "uint256"
        },
        {
          "internalType": "string",
          "name": "email",
          "type": "string"
        },
        {
          "internalType": "string",
          "name": "qualifications",
          "type": "string"
        },
        {
          "internalType": "string",
          "name": "manifesto",
          "type": "string"
        },
        {
          "internalType": "uint256",
          "name": "registrationTimestamp",
          "type": "uint256"
        }
      ],
      "stateMutability": "view",
      "type": "function"
    },
    {
      "inputs": [
        {
          "internalType": "address",
          "name": "_candidateAddress",
          "type": "address"
        }
      ],
      "name": "getCandidateRegistrationStatus",
      "outputs": [
        {
          "internalType": "bool",
          "name": "isRegistered",
          "type": "bool"
        }
      ],
      "stateMutability": "view",
      "type": "function"
    },
    {
      "inputs": [],
      "name": "getMyCandidateDetails",
      "outputs": [
        {
          "internalType": "string",
          "name": "name",
          "type": "string"
        },
        {
          "internalType": "uint256",
          "name": "age",
          "type": "uint256"
        },
        {
          "internalType": "string",
          "name": "email",
          "type": "string"
        },
        {
          "internalType": "string",
          "name": "qualifications",
          "type": "string"
        },
        {
          "internalType": "string",
          "name": "manifesto",
          "type": "string"
        },
        {
          "internalType": "uint256",
          "name": "registrationTimestamp",
          "type": "uint256"
        }
      ],
      "stateMutability": "view",
      "type": "function"
    },
    {
      "inputs": [],
      "name": "getMyRegistrationStatus",
      "outputs": [
        {
          "internalType": "bool",
          "name": "isRegistered",
          "type": "bool"
        }
      ],
      "stateMutability": "view",
      "type": "function"
    },
    {
      "inputs": [],
      "name": "getOwner",
      "outputs": [
        {
          "internalType": "address",
          "name": "",
          "type": "address"
        }
      ],
      "stateMutability": "view",
      "type": "function"
    },
    {
      "inputs": [
        {
          "internalType": "address",
          "name": "_address",
          "type": "address"
        }
      ],
      "name": "isAdmin",
      "outputs": [
        {
          "internalType": "bool",
          "name": "",
          "type": "bool"
        }
      ],
      "stateMutability": "view",
      "type": "function"
    },
    {
      "inputs": [
        {
          "internalType": "address",
          "name": "_adminAddress",
          "type": "address"
        }
      ],
      "name": "removeAdmin",
      "outputs": [],
      "stateMutability": "nonpayable",
      "type": "function"
    },
    {
      "inputs": [
        {
          "internalType": "string",
          "name": "_name",
          "type": "string"
        },
        {
          "internalType": "uint256",
          "name": "_age",
          "type": "uint256"
        },
        {
          "internalType": "string",
          "name": "_email",
          "type": "string"
        },
        {
          "internalType": "string",
          "name": "_qualifications",
          "type": "string"
        },
        {
          "internalType": "string",
          "name": "_manifesto",
          "type": "string"
        }
      ],
      "name": "updateCandidate",
      "outputs": [],
      "stateMutability": "nonpayable",
      "type": "function"
    }
  ],
  "bytecode": "0x60a060405234801561001057600080fd5b503373ffffffffffffffffffffffffffffffffffffffff1660808173ffffffffffffffffffffffffffffffffffffffff1681525050608051613da361009f600039600081816103e00152818161071d01528181610b0b01528181610fbf01528181611a2d01528181611cb4015281816120d101528181612114015281816124e601526129400152613da36000f3fe608060405234801561001057600080fd5b50600436106101375760003560e01c80635e3a950f116100b8578063934f1cca1161007c578063934f1cca1461032b57806395f11ce614610349578063cafd1f7014610365578063e9523c9714610381578063efaacedf1461039f578063f6c094a6146103bb57610137565b80635e3a950f1461029b57806370480275146102b75780637effaef1146102d3578063893d20e8146102ef5780638b7bf3eb1461030d57610137565b806330a56347116100ff57806330a56347146101f257806346b7cd63146102105780634eddfa8a1461022c57806353ac5dc3146102485780635b409d091461027d57610137565b80631785f53c1461013c57806324d7806c1461015857806325f9f4dc146101885780632e6997fe146101a45780632f0acbe1146101c2575b600080fd5b61015660048036038101906101519190612fec565b6103de565b005b610172600480360381019061016d9190612fec565b610719565b60405161017f9190613034565b60405180910390f35b6101a2600480360381019061019d91906131cb565b6107c5565b005b6101ac610a16565b6040516101b99190613374565b60405180910390f35b6101dc60048036038101906101d79190612fec565b610aa4565b6040516101e99190613034565b60405180910390f35b6101fa610afc565b60405161020791906133a5565b60405180910390f35b61022a60048036038101906102259190612fec565b610b09565b005b610246600480360381019061024191906133c0565b610fbd565b005b610262600480360381019061025d9190612fec565b6113dc565b6040516102749695949392919061347f565b60405180910390f35b610285611764565b6040516102929190613034565b60405180910390f35b6102b560048036038101906102b091906131cb565b6117ba565b005b6102d160048036038101906102cc9190612fec565b611a2b565b005b6102ed60048036038101906102e8919061355c565b611cb2565b005b6102f76120cd565b60405161030491906135cb565b60405180910390f35b6103156120f5565b60405161032291906133a5565b60405180910390f35b610333612102565b6040516103409190613034565b60405180910390f35b610363600480360381019061035e9190612fec565b612112565b005b61037f600480360381019061037a91906135e6565b6124e4565b005b6103896128b0565b6040516103969190613374565b60405180910390f35b6103b960048036038101906103b491906135e6565b61293e565b005b6103c3612b96565b6040516103d59695949392919061347f565b60405180910390f35b7f000000000000000000000000000000000000000000000000000000000000000073ffffffffffffffffffffffffffffffffffffffff163373ffffffffffffffffffffffffffffffffffffffff1614610463576040517fe7f229ea00000000000000000000000000000000000000000000000000000000815260040160405180910390fd5b600260008273ffffffffffffffffffffffffffffffffffffffff1673ffffffffffffffffffffffffffffffffffffffff16815260200190815260200160002060009054906101000a900460ff166104e6576040517f09f7734400000000000000000000000000000000000000000000000000000000815260040160405180910390fd5b600260008273ffffffffffffffffffffffffffffffffffffffff1673ffffffffffffffffffffffffffffffffffffffff16815260200190815260200160002060006101000a81549060ff021916905560005b6003805490508110156106bb578173ffffffffffffffffffffffffffffffffffffffff16600382815481106105705761056f6136e3565b5b9060005260206000200160009054906101000a900473ffffffffffffffffffffffffffffffffffffffff1673ffffffffffffffffffffffffffffffffffffffff16036106ae57600360016003805490506105ca9190613741565b815481106105db576105da6136e3565b5b9060005260206000200160009054906101000a900473ffffffffffffffffffffffffffffffffffffffff166003828154811061061a576106196136e3565b5b9060005260206000200160006101000a81548173ffffffffffffffffffffffffffffffffffffffff021916908373ffffffffffffffffffffffffffffffffffffffff160217905550600380548061067457610673613775565b5b6001900381819060005260206000200160006101000a81549073ffffffffffffffffffffffffffffffffffffffff021916905590556106bb565b8080600101915050610538565b503373ffffffffffffffffffffffffffffffffffffffff168173ffffffffffffffffffffffffffffffffffffffff167fdb9d5d31320daf5bc7181d565b6da4d12e30f0f4d5aa324a992426c14a1d19ce60405160405180910390a350565b60007f000000000000000000000000000000000000000000000000000000000000000073ffffffffffffffffffffffffffffffffffffffff168273ffffffffffffffffffffffffffffffffffffffff1614806107be5750600260008373ffffffffffffffffffffffffffffffffffffffff1673ffffffffffffffffffffffffffffffffffffffff16815260200190815260200160002060009054906101000a900460ff165b9050919050565b6000803373ffffffffffffffffffffffffffffffffffffffff1673ffffffffffffffffffffffffffffffffffffffff16815260200190815260200160002060060160009054906101000a900460ff1661084a576040517fc26f0ffd00000000000000000000000000000000000000000000000000000000815260040160405180910390fd5b846000803373ffffffffffffffffffffffffffffffffffffffff1673ffffffffffffffffffffffffffffffffffffffff168152602001908152602001600020600001908161089891906139b0565b50836000803373ffffffffffffffffffffffffffffffffffffffff1673ffffffffffffffffffffffffffffffffffffffff16815260200190815260200160002060010181905550826000803373ffffffffffffffffffffffffffffffffffffffff1673ffffffffffffffffffffffffffffffffffffffff168152602001908152602001600020600201908161092d91906139b0565b50816000803373ffffffffffffffffffffffffffffffffffffffff1673ffffffffffffffffffffffffffffffffffffffff168152602001908152602001600020600301908161097c91906139b0565b50806000803373ffffffffffffffffffffffffffffffffffffffff1673ffffffffffffffffffffffffffffffffffffffff16815260200190815260200160002060040190816109cb91906139b0565b503373ffffffffffffffffffffffffffffffffffffffff167f5c1cd16d0c55845505cf06834fc8d64b03a2fb0c2ffea81be006fd3fe764ede460405160405180910390a25050505050565b60606001805480602002602001604051908101604052809291908181526020018280548015610a9a57602002820191906000526020600020905b8160009054906101000a900473ffffffffffffffffffffffffffffffffffffffff1673ffffffffffffffffffffffffffffffffffffffff1681526020019060010190808311610a50575b5050505050905090565b60008060008373ffffffffffffffffffffffffffffffffffffffff1673ffffffffffffffffffffffffffffffffffffffff16815260200190815260200160002060060160009054906101000a900460ff169050919050565b6000600180549050905090565b7f000000000000000000000000000000000000000000000000000000000000000073ffffffffffffffffffffffffffffffffffffffff163373ffffffffffffffffffffffffffffffffffffffff1614158015610baf5750600260003373ffffffffffffffffffffffffffffffffffffffff1673ffffffffffffffffffffffffffffffffffffffff16815260200190815260200160002060009054906101000a900460ff16155b15610be6576040517f446b76e700000000000000000000000000000000000000000000000000000000815260040160405180910390fd5b600081905060608173ffffffffffffffffffffffffffffffffffffffff16632e6997fe6040518163ffffffff1660e01b8152600401600060405180830381865afa925050508015610c5a57506040513d6000823e3d601f19601f82011682018060405250810190610c579190613b5a565b60015b610c90576040517fb9c861f000000000000000000000000000000000000000000000000000000000815260040160405180910390fd5b809150506000805b8251811015610f68576000838281518110610cb657610cb56136e3565b5b602002602001015190506000808273ffffffffffffffffffffffffffffffffffffffff1673ffffffffffffffffffffffffffffffffffffffff16815260200190815260200160002060060160009054906101000a900460ff1615610d1a5750610f5b565b8473ffffffffffffffffffffffffffffffffffffffff166353ac5dc3826040518263ffffffff1660e01b8152600401610d5391906135cb565b600060405180830381865afa925050508015610d9257506040513d6000823e3d601f19601f82011682018060405250810190610d8f9190613c28565b60015b610d9c5750610f5b565b6040518060e00160405280878152602001868152602001858152602001848152602001838152602001828152602001600115158152506000808973ffffffffffffffffffffffffffffffffffffffff1673ffffffffffffffffffffffffffffffffffffffff1681526020019081526020016000206000820151816000019081610e2591906139b0565b50602082015181600101556040820151816002019081610e4591906139b0565b506060820151816003019081610e5b91906139b0565b506080820151816004019081610e7191906139b0565b5060a0820151816005015560c08201518160060160006101000a81548160ff0219169083151502179055509050506001879080600181540180825580915050600190039060005260206000200160009091909190916101000a81548173ffffffffffffffffffffffffffffffffffffffff021916908373ffffffffffffffffffffffffffffffffffffffff1602179055508673ffffffffffffffffffffffffffffffffffffffff167fa0ac4f59dabb0ddc4b8b883adda9e055e02c796b2cde2ed80fdb11a38f77e5c960405160405180910390a28880610f5090613d25565b995050505050505050505b8080600101915050610c98565b508373ffffffffffffffffffffffffffffffffffffffff167f7b11f9707fd616002d9c0f0983f21e0021088827cc3a7fc4f36175ecb4782d5182604051610faf91906133a5565b60405180910390a250505050565b7f000000000000000000000000000000000000000000000000000000000000000073ffffffffffffffffffffffffffffffffffffffff163373ffffffffffffffffffffffffffffffffffffffff16141580156110635750600260003373ffffffffffffffffffffffffffffffffffffffff1673ffffffffffffffffffffffffffffffffffffffff16815260200190815260200160002060009054906101000a900460ff16155b1561109a576040517f446b76e700000000000000000000000000000000000000000000000000000000815260040160405180910390fd5b6000808273ffffffffffffffffffffffffffffffffffffffff1673ffffffffffffffffffffffffffffffffffffffff16815260200190815260200160002060060160009054906101000a900460ff1615611120576040517fba6a3fb800000000000000000000000000000000000000000000000000000000815260040160405180910390fd5b60008290508073ffffffffffffffffffffffffffffffffffffffff166353ac5dc3836040518263ffffffff1660e01b815260040161115e91906135cb565b600060405180830381865afa92505050801561119d57506040513d6000823e3d601f19601f8201168201806040525081019061119a9190613c28565b60015b6111d3576040517fb9c861f000000000000000000000000000000000000000000000000000000000815260040160405180910390fd5b6040518060e00160405280878152602001868152602001858152602001848152602001838152602001828152602001600115158152506000808a73ffffffffffffffffffffffffffffffffffffffff1673ffffffffffffffffffffffffffffffffffffffff168152602001908152602001600020600082015181600001908161125c91906139b0565b5060208201518160010155604082015181600201908161127c91906139b0565b50606082015181600301908161129291906139b0565b5060808201518160040190816112a891906139b0565b5060a0820151816005015560c08201518160060160006101000a81548160ff0219169083151502179055509050506001889080600181540180825580915050600190039060005260206000200160009091909190916101000a81548173ffffffffffffffffffffffffffffffffffffffff021916908373ffffffffffffffffffffffffffffffffffffffff1602179055508773ffffffffffffffffffffffffffffffffffffffff167fa0ac4f59dabb0ddc4b8b883adda9e055e02c796b2cde2ed80fdb11a38f77e5c960405160405180910390a26000600190508973ffffffffffffffffffffffffffffffffffffffff167f7b11f9707fd616002d9c0f0983f21e0021088827cc3a7fc4f36175ecb4782d51826040516113c891906133a5565b60405180910390a250505050505050505050565b60606000606080606060008060008873ffffffffffffffffffffffffffffffffffffffff1673ffffffffffffffffffffffffffffffffffffffff16815260200190815260200160002060060160009054906101000a900460ff1661146c576040517fc26f0ffd00000000000000000000000000000000000000000000000000000000815260040160405180910390fd5b60008060008973ffffffffffffffffffffffffffffffffffffffff1673ffffffffffffffffffffffffffffffffffffffff1681526020019081526020016000206040518060e00160405290816000820180546114c7906137d3565b80601f01602080910402602001604051908101604052809291908181526020018280546114f3906137d3565b80156115405780601f1061151557610100808354040283529160200191611540565b820191906000526020600020905b81548152906001019060200180831161152357829003601f168201915b5050505050815260200160018201548152602001600282018054611563906137d3565b80601f016020809104026020016040519081016040528092919081815260200182805461158f906137d3565b80156115dc5780601f106115b1576101008083540402835291602001916115dc565b820191906000526020600020905b8154815290600101906020018083116115bf57829003601f168201915b505050505081526020016003820180546115f5906137d3565b80601f0160208091040260200160405190810160405280929190818152602001828054611621906137d3565b801561166e5780601f106116435761010080835404028352916020019161166e565b820191906000526020600020905b81548152906001019060200180831161165157829003601f168201915b50505050508152602001600482018054611687906137d3565b80601f01602080910402602001604051908101604052809291908181526020018280546116b3906137d3565b80156117005780601f106116d557610100808354040283529160200191611700565b820191906000526020600020905b8154815290600101906020018083116116e357829003601f168201915b50505050508152602001600582015481526020016006820160009054906101000a900460ff1615151515815250509050806000015181602001518260400151836060015184608001518560a001519650965096509650965096505091939550919395565b60008060003373ffffffffffffffffffffffffffffffffffffffff1673ffffffffffffffffffffffffffffffffffffffff16815260200190815260200160002060060160009054906101000a900460ff16905090565b60128410156117f5576040517fc84eb1fe00000000000000000000000000000000000000000000000000000000815260040160405180910390fd5b6000803373ffffffffffffffffffffffffffffffffffffffff1673ffffffffffffffffffffffffffffffffffffffff16815260200190815260200160002060060160009054906101000a900460ff161561187b576040517fba6a3fb800000000000000000000000000000000000000000000000000000000815260040160405180910390fd5b6040518060e00160405280868152602001858152602001848152602001838152602001828152602001428152602001600115158152506000803373ffffffffffffffffffffffffffffffffffffffff1673ffffffffffffffffffffffffffffffffffffffff168152602001908152602001600020600082015181600001908161190491906139b0565b5060208201518160010155604082015181600201908161192491906139b0565b50606082015181600301908161193a91906139b0565b50608082015181600401908161195091906139b0565b5060a0820151816005015560c08201518160060160006101000a81548160ff0219169083151502179055509050506001339080600181540180825580915050600190039060005260206000200160009091909190916101000a81548173ffffffffffffffffffffffffffffffffffffffff021916908373ffffffffffffffffffffffffffffffffffffffff1602179055503373ffffffffffffffffffffffffffffffffffffffff167fa0ac4f59dabb0ddc4b8b883adda9e055e02c796b2cde2ed80fdb11a38f77e5c960405160405180910390a25050505050565b7f000000000000000000000000000000000000000000000000000000000000000073ffffffffffffffffffffffffffffffffffffffff163373ffffffffffffffffffffffffffffffffffffffff1614611ab0576040517fe7f229ea00000000000000000000000000000000000000000000000000000000815260040160405180910390fd5b600073ffffffffffffffffffffffffffffffffffffffff168173ffffffffffffffffffffffffffffffffffffffff1603611b16576040517fab820aca00000000000000000000000000000000000000000000000000000000815260040160405180910390fd5b600260008273ffffffffffffffffffffffffffffffffffffffff1673ffffffffffffffffffffffffffffffffffffffff16815260200190815260200160002060009054906101000a900460ff1615611b9a576040517f6949f8f100000000000000000000000000000000000000000000000000000000815260040160405180910390fd5b6001600260008373ffffffffffffffffffffffffffffffffffffffff1673ffffffffffffffffffffffffffffffffffffffff16815260200190815260200160002060006101000a81548160ff0219169083151502179055506003819080600181540180825580915050600190039060005260206000200160009091909190916101000a81548173ffffffffffffffffffffffffffffffffffffffff021916908373ffffffffffffffffffffffffffffffffffffffff1602179055503373ffffffffffffffffffffffffffffffffffffffff168173ffffffffffffffffffffffffffffffffffffffff167fbf3f493c772c8c283fd124432c2d0f539ab343faa04258fe88e52912d36b102b60405160405180910390a350565b7f000000000000000000000000000000000000000000000000000000000000000073ffffffffffffffffffffffffffffffffffffffff163373ffffffffffffffffffffffffffffffffffffffff1614158015611d585750600260003373ffffffffffffffffffffffffffffffffffffffff1673ffffffffffffffffffffffffffffffffffffffff16815260200190815260200160002060009054906101000a900460ff16155b15611d8f576040517f446b76e700000000000000000000000000000000000000000000000000000000815260040160405180910390fd5b60008390506000805b84849050811015612077576000858583818110611db857611db76136e3565b5b9050602002016020810190611dcd9190612fec565b90506000808273ffffffffffffffffffffffffffffffffffffffff1673ffffffffffffffffffffffffffffffffffffffff16815260200190815260200160002060060160009054906101000a900460ff1615611e29575061206a565b8373ffffffffffffffffffffffffffffffffffffffff166353ac5dc3826040518263ffffffff1660e01b8152600401611e6291906135cb565b600060405180830381865afa925050508015611ea157506040513d6000823e3d601f19601f82011682018060405250810190611e9e9190613c28565b60015b611eab575061206a565b6040518060e00160405280878152602001868152602001858152602001848152602001838152602001828152602001600115158152506000808973ffffffffffffffffffffffffffffffffffffffff1673ffffffffffffffffffffffffffffffffffffffff1681526020019081526020016000206000820151816000019081611f3491906139b0565b50602082015181600101556040820151816002019081611f5491906139b0565b506060820151816003019081611f6a91906139b0565b506080820151816004019081611f8091906139b0565b5060a0820151816005015560c08201518160060160006101000a81548160ff0219169083151502179055509050506001879080600181540180825580915050600190039060005260206000200160009091909190916101000a81548173ffffffffffffffffffffffffffffffffffffffff021916908373ffffffffffffffffffffffffffffffffffffffff1602179055508673ffffffffffffffffffffffffffffffffffffffff167fa0ac4f59dabb0ddc4b8b883adda9e055e02c796b2cde2ed80fdb11a38f77e5c960405160405180910390a2888061205f90613d25565b995050505050505050505b8080600101915050611d98565b508473ffffffffffffffffffffffffffffffffffffffff167f7b11f9707fd616002d9c0f0983f21e0021088827cc3a7fc4f36175ecb4782d51826040516120be91906133a5565b60405180910390a25050505050565b60007f0000000000000000000000000000000000000000000000000000000000000000905090565b6000600380549050905090565b600061210d33610719565b905090565b7f000000000000000000000000000000000000000000000000000000000000000073ffffffffffffffffffffffffffffffffffffffff163373ffffffffffffffffffffffffffffffffffffffff16141580156121b85750600260003373ffffffffffffffffffffffffffffffffffffffff1673ffffffffffffffffffffffffffffffffffffffff16815260200190815260200160002060009054906101000a900460ff16155b156121ef576040517f446b76e700000000000000000000000000000000000000000000000000000000815260040160405180910390fd5b6000808273ffffffffffffffffffffffffffffffffffffffff1673ffffffffffffffffffffffffffffffffffffffff16815260200190815260200160002060060160009054906101000a900460ff16612274576040517fc26f0ffd00000000000000000000000000000000000000000000000000000000815260040160405180910390fd5b6000808273ffffffffffffffffffffffffffffffffffffffff1673ffffffffffffffffffffffffffffffffffffffff168152602001908152602001600020600080820160006122c39190612f1d565b60018201600090556002820160006122db9190612f1d565b6003820160006122eb9190612f1d565b6004820160006122fb9190612f1d565b60058201600090556006820160006101000a81549060ff0219169055505060005b60018054905081101561249d578173ffffffffffffffffffffffffffffffffffffffff1660018281548110612354576123536136e3565b5b9060005260206000200160009054906101000a900473ffffffffffffffffffffffffffffffffffffffff1673ffffffffffffffffffffffffffffffffffffffff16036124905760018080805490506123ac9190613741565b815481106123bd576123bc6136e3565b5b9060005260206000200160009054906101000a900473ffffffffffffffffffffffffffffffffffffffff16600182815481106123fc576123fb6136e3565b5b9060005260206000200160006101000a81548173ffffffffffffffffffffffffffffffffffffffff021916908373ffffffffffffffffffffffffffffffffffffffff160217905550600180548061245657612455613775565b5b6001900381819060005260206000200160006101000a81549073ffffffffffffffffffffffffffffffffffffffff0219169055905561249d565b808060010191505061231c565b508073ffffffffffffffffffffffffffffffffffffffff167f6fe1c8a36bbf04217ace8c02e2469521bb21107f6f54ae5213ab312b8ae1bb6f60405160405180910390a250565b7f000000000000000000000000000000000000000000000000000000000000000073ffffffffffffffffffffffffffffffffffffffff163373ffffffffffffffffffffffffffffffffffffffff161415801561258a5750600260003373ffffffffffffffffffffffffffffffffffffffff1673ffffffffffffffffffffffffffffffffffffffff16815260200190815260200160002060009054906101000a900460ff16155b156125c1576040517f446b76e700000000000000000000000000000000000000000000000000000000815260040160405180910390fd5b600073ffffffffffffffffffffffffffffffffffffffff168673ffffffffffffffffffffffffffffffffffffffff1603612627576040517fab820aca00000000000000000000000000000000000000000000000000000000815260040160405180910390fd5b6012841015612662576040517fc84eb1fe00000000000000000000000000000000000000000000000000000000815260040160405180910390fd5b6000808773ffffffffffffffffffffffffffffffffffffffff1673ffffffffffffffffffffffffffffffffffffffff16815260200190815260200160002060060160009054906101000a900460ff16156126e8576040517fba6a3fb800000000000000000000000000000000000000000000000000000000815260040160405180910390fd5b6040518060e00160405280868152602001858152602001848152602001838152602001828152602001428152602001600115158152506000808873ffffffffffffffffffffffffffffffffffffffff1673ffffffffffffffffffffffffffffffffffffffff168152602001908152602001600020600082015181600001908161277191906139b0565b5060208201518160010155604082015181600201908161279191906139b0565b5060608201518160030190816127a791906139b0565b5060808201518160040190816127bd91906139b0565b5060a0820151816005015560c08201518160060160006101000a81548160ff0219169083151502179055509050506001869080600181540180825580915050600190039060005260206000200160009091909190916101000a81548173ffffffffffffffffffffffffffffffffffffffff021916908373ffffffffffffffffffffffffffffffffffffffff1602179055503373ffffffffffffffffffffffffffffffffffffffff168673ffffffffffffffffffffffffffffffffffffffff167fbae38c103fcb399c54b7f4938cbeb7260b54380334fd0f5365f5eecde90d759a60405160405180910390a3505050505050565b6060600380548060200260200160405190810160405280929190818152602001828054801561293457602002820191906000526020600020905b8160009054906101000a900473ffffffffffffffffffffffffffffffffffffffff1673ffffffffffffffffffffffffffffffffffffffff16815260200190600101908083116128ea575b5050505050905090565b7f000000000000000000000000000000000000000000000000000000000000000073ffffffffffffffffffffffffffffffffffffffff163373ffffffffffffffffffffffffffffffffffffffff16141580156129e45750600260003373ffffffffffffffffffffffffffffffffffffffff1673ffffffffffffffffffffffffffffffffffffffff16815260200190815260200160002060009054906101000a900460ff16155b15612a1b576040517f446b76e700000000000000000000000000000000000000000000000000000000815260040160405180910390fd5b6000808773ffffffffffffffffffffffffffffffffffffffff1673ffffffffffffffffffffffffffffffffffffffff16815260200190815260200160002060060160009054906101000a900460ff16612aa0576040517fc26f0ffd00000000000000000000000000000000000000000000000000000000815260040160405180910390fd5b60008060008873ffffffffffffffffffffffffffffffffffffffff1673ffffffffffffffffffffffffffffffffffffffff168152602001908152602001600020905085816000019081612af391906139b0565b5084816001018190555083816002019081612b0e91906139b0565b5082816003019081612b2091906139b0565b5081816004019081612b3291906139b0565b503373ffffffffffffffffffffffffffffffffffffffff168773ffffffffffffffffffffffffffffffffffffffff167f9a558f778a9c36163180e5c4b2d6f3e7b43f255a529c2606e3ec5ac5b5214e5060405160405180910390a350505050505050565b60606000606080606060008060003373ffffffffffffffffffffffffffffffffffffffff1673ffffffffffffffffffffffffffffffffffffffff16815260200190815260200160002060060160009054906101000a900460ff16612c26576040517fc26f0ffd00000000000000000000000000000000000000000000000000000000815260040160405180910390fd5b60008060003373ffffffffffffffffffffffffffffffffffffffff1673ffffffffffffffffffffffffffffffffffffffff1681526020019081526020016000206040518060e0016040529081600082018054612c81906137d3565b80601f0160208091040260200160405190810160405280929190818152602001828054612cad906137d3565b8015612cfa5780601f10612ccf57610100808354040283529160200191612cfa565b820191906000526020600020905b815481529060010190602001808311612cdd57829003601f168201915b5050505050815260200160018201548152602001600282018054612d1d906137d3565b80601f0160208091040260200160405190810160405280929190818152602001828054612d49906137d3565b8015612d965780601f10612d6b57610100808354040283529160200191612d96565b820191906000526020600020905b815481529060010190602001808311612d7957829003601f168201915b50505050508152602001600382018054612daf906137d3565b80601f0160208091040260200160405190810160405280929190818152602001828054612ddb906137d3565b8015612e285780601f10612dfd57610100808354040283529160200191612e28565b820191906000526020600020905b815481529060010190602001808311612e0b57829003601f168201915b50505050508152602001600482018054612e41906137d3565b80601f0160208091040260200160405190810160405280929190818152602001828054612e6d906137d3565b8015612eba5780601f10612e8f57610100808354040283529160200191612eba565b820191906000526020600020905b815481529060010190602001808311612e9d57829003601f168201915b50505050508152602001600582015481526020016006820160009054906101000a900460ff1615151515815250509050806000015181602001518260400151836060015184608001518560a0015196509650965096509650965050909192939495565b508054612f29906137d3565b6000825580601f10612f3b5750612f5a565b601f016020900490600052602060002090810190612f599190612f5d565b5b50565b5b80821115612f76576000816000905550600101612f5e565b5090565b6000604051905090565b600080fd5b600080fd5b600073ffffffffffffffffffffffffffffffffffffffff82169050919050565b6000612fb982612f8e565b9050919050565b612fc981612fae565b8114612fd457600080fd5b50565b600081359050612fe681612fc0565b92915050565b60006020828403121561300257613001612f84565b5b600061301084828501612fd7565b91505092915050565b60008115159050919050565b61302e81613019565b82525050565b60006020820190506130496000830184613025565b92915050565b600080fd5b600080fd5b6000601f19601f8301169050919050565b7f4e487b7100000000000000000000000000000000000000000000000000000000600052604160045260246000fd5b6130a282613059565b810181811067ffffffffffffffff821117156130c1576130c061306a565b5b80604052505050565b60006130d4612f7a565b90506130e08282613099565b919050565b600067ffffffffffffffff821115613100576130ff61306a565b5b61310982613059565b9050602081019050919050565b82818337600083830152505050565b6000613138613133846130e5565b6130ca565b90508281526020810184848401111561315457613153613054565b5b61315f848285613116565b509392505050565b600082601f83011261317c5761317b61304f565b5b813561318c848260208601613125565b91505092915050565b6000819050919050565b6131a881613195565b81146131b357600080fd5b50565b6000813590506131c58161319f565b92915050565b600080600080600060a086880312156131e7576131e6612f84565b5b600086013567ffffffffffffffff81111561320557613204612f89565b5b61321188828901613167565b9550506020613222888289016131b6565b945050604086013567ffffffffffffffff81111561324357613242612f89565b5b61324f88828901613167565b935050606086013567ffffffffffffffff8111156132705761326f612f89565b5b61327c88828901613167565b925050608086013567ffffffffffffffff81111561329d5761329c612f89565b5b6132a988828901613167565b9150509295509295909350565b600081519050919050565b600082825260208201905092915050565b6000819050602082019050919050565b6132eb81612fae565b82525050565b60006132fd83836132e2565b60208301905092915050565b6000602082019050919050565b6000613321826132b6565b61332b81856132c1565b9350613336836132d2565b8060005b8381101561336757815161334e88826132f1565b975061335983613309565b92505060018101905061333a565b5085935050505092915050565b6000602082019050818103600083015261338e8184613316565b905092915050565b61339f81613195565b82525050565b60006020820190506133ba6000830184613396565b92915050565b600080604083850312156133d7576133d6612f84565b5b60006133e585828601612fd7565b92505060206133f685828601612fd7565b9150509250929050565b600081519050919050565b600082825260208201905092915050565b60005b8381101561343a57808201518184015260208101905061341f565b60008484015250505050565b600061345182613400565b61345b818561340b565b935061346b81856020860161341c565b61347481613059565b840191505092915050565b600060c08201905081810360008301526134998189613446565b90506134a86020830188613396565b81810360408301526134ba8187613446565b905081810360608301526134ce8186613446565b905081810360808301526134e28185613446565b90506134f160a0830184613396565b979650505050505050565b600080fd5b600080fd5b60008083601f84011261351c5761351b61304f565b5b8235905067ffffffffffffffff811115613539576135386134fc565b5b60208301915083602082028301111561355557613554613501565b5b9250929050565b60008060006040848603121561357557613574612f84565b5b600061358386828701612fd7565b935050602084013567ffffffffffffffff8111156135a4576135a3612f89565b5b6135b086828701613506565b92509250509250925092565b6135c581612fae565b82525050565b60006020820190506135e060008301846135bc565b92915050565b60008060008060008060c0878903121561360357613602612f84565b5b600061361189828a01612fd7565b965050602087013567ffffffffffffffff81111561363257613631612f89565b5b61363e89828a01613167565b955050604061364f89828a016131b6565b945050606087013567ffffffffffffffff8111156136705761366f612f89565b5b61367c89828a01613167565b935050608087013567ffffffffffffffff81111561369d5761369c612f89565b5b6136a989828a01613167565b92505060a087013567ffffffffffffffff8111156136ca576136c9612f89565b5b6136d689828a01613167565b9150509295509295509295565b7f4e487b7100000000000000000000000000000000000000000000000000000000600052603260045260246000fd5b7f4e487b7100000000000000000000000000000000000000000000000000000000600052601160045260246000fd5b600061374c82613195565b915061375783613195565b925082820390508181111561376f5761376e613712565b5b92915050565b7f4e487b7100000000000000000000000000000000000000000000000000000000600052603160045260246000fd5b7f4e487b7100000000000000000000000000000000000000000000000000000000600052602260045260246000fd5b600060028204905060018216806137eb57607f821691505b6020821081036137fe576137fd6137a4565b5b50919050565b60008190508160005260206000209050919050565b60006020601f8301049050919050565b600082821b905092915050565b6000600883026138667fffffffffffffffffffffffffffffffffffffffffffffffffffffffffffffffff82613829565b6138708683613829565b95508019841693508086168417925050509392505050565b6000819050919050565b60006138ad6138a86138a384613195565b613888565b613195565b9050919050565b6000819050919050565b6138c783613892565b6138db6138d3826138b4565b848454613836565b825550505050565b600090565b6138f06138e3565b6138fb8184846138be565b505050565b5b8181101561391f576139146000826138e8565b600181019050613901565b5050565b601f8211156139645761393581613804565b61393e84613819565b8101602085101561394d578190505b61396161395985613819565b830182613900565b50505b505050565b600082821c905092915050565b600061398760001984600802613969565b1980831691505092915050565b60006139a08383613976565b9150826002028217905092915050565b6139b982613400565b67ffffffffffffffff8111156139d2576139d161306a565b5b6139dc82546137d3565b6139e7828285613923565b600060209050601f831160018114613a1a5760008415613a08578287015190505b613a128582613994565b865550613a7a565b601f198416613a2886613804565b60005b82811015613a5057848901518255600182019150602085019450602081019050613a2b565b86831015613a6d5784890151613a69601f891682613976565b8355505b6001600288020188555050505b505050505050565b600067ffffffffffffffff821115613a9d57613a9c61306a565b5b602082029050602081019050919050565b600081519050613abd81612fc0565b92915050565b6000613ad6613ad184613a82565b6130ca565b90508083825260208201905060208402830185811115613af957613af8613501565b5b835b81811015613b225780613b0e8882613aae565b845260208401935050602081019050613afb565b5050509392505050565b600082601f830112613b4157613b4061304f565b5b8151613b51848260208601613ac3565b91505092915050565b600060208284031215613b7057613b6f612f84565b5b600082015167ffffffffffffffff811115613b8e57613b8d612f89565b5b613b9a84828501613b2c565b91505092915050565b6000613bb6613bb1846130e5565b6130ca565b905082815260208101848484011115613bd257613bd1613054565b5b613bdd84828561341c565b509392505050565b600082601f830112613bfa57613bf961304f565b5b8151613c0a848260208601613ba3565b91505092915050565b600081519050613c228161319f565b92915050565b60008060008060008060c08789031215613c4557613c44612f84565b5b600087015167ffffffffffffffff811115613c6357613c62612f89565b5b613c6f89828a01613be5565b9650506020613c8089828a01613c13565b955050604087015167ffffffffffffffff811115613ca157613ca0612f89565b5b613cad89828a01613be5565b945050606087015167ffffffffffffffff811115613cce57613ccd612f89565b5b613cda89828a01613be5565b935050608087015167ffffffffffffffff811115613cfb57613cfa612f89565b5b613d0789828a01613be5565b92505060a0613d1889828a01613c13565b9150509295509295509295565b6000613d3082613195565b91507fffffffffffffffffffffffffffffffffffffffffffffffffffffffffffffffff8203613d6257613d61613712565b5b60018201905091905056fea26469706673582212203217655e50a10c49ca413ba121e08c49199113952f89582240f21b3fa923af4c64736f6c634300081c0033",
  "linkReferences": {},
  "deployedLinkReferences": {}
}