{
  "_format": "hh-sol-artifact-1",
  "contractName": "CandidateDatabase",
  "sourceName": "contracts/CandidateDatabase.sol",
  "abi": [
    {
      "inputs": [],
      "name": "AdminManagement__AdminNotFound",
      "type": "error"
    },
    {
      "inputs": [],
      "name": "AdminManagement__AlreadyAdmin",
      "type": "error"
    },
    {
      "inputs": [],
      "name": "AdminManagement__InvalidAddress",
      "type": "error"
    },
    {
      "inputs": [],
      "name": "AdminManagement__NotAdmin",
      "type": "error"
    },
    {
      "inputs": [],
      "name": "AdminManagement__NotOwner",
      "type": "error"
    },
    {
      "inputs": [],
      "name": "CandidateDatabase__AlreadyRegistered",
      "type": "error"
    },
    {
      "inputs": [],
      "name": "CandidateDatabase__ImportFailed",
      "type": "error"
    },
    {
      "inputs": [],
      "name": "CandidateDatabase__InvalidAddress",
      "type": "error"
    },
    {
      "inputs": [],
      "name": "CandidateDatabase__NotEligible",
      "type": "error"
    },
    {
      "inputs": [],
      "name": "CandidateDatabase__NotRegistered",
      "type": "error"
    },
    {
      "anonymous": false,
      "inputs": [
        {
          "indexed": true,
          "internalType": "address",
          "name": "admin",
          "type": "address"
        },
        {
          "indexed": true,
          "internalType": "address",
          "name": "owner",
          "type": "address"
        }
      ],
      "name": "AdminAdded",
      "type": "event"
    },
    {
      "anonymous": false,
      "inputs": [
        {
          "indexed": true,
          "internalType": "address",
          "name": "candidate",
          "type": "address"
        },
        {
          "indexed": true,
          "internalType": "address",
          "name": "admin",
          "type": "address"
        }
      ],
      "name": "AdminAddedCandidate",
      "type": "event"
    },
    {
      "anonymous": false,
      "inputs": [
        {
          "indexed": true,
          "internalType": "address",
          "name": "admin",
          "type": "address"
        },
        {
          "indexed": true,
          "internalType": "address",
          "name": "owner",
          "type": "address"
        }
      ],
      "name": "AdminRemoved",
      "type": "event"
    },
    {
      "anonymous": false,
      "inputs": [
        {
          "indexed": true,
          "internalType": "address",
          "name": "candidate",
          "type": "address"
        },
        {
          "indexed": true,
          "internalType": "address",
          "name": "admin",
          "type": "address"
        }
      ],
      "name": "AdminRemovedCandidate",
      "type": "event"
    },
    {
      "anonymous": false,
      "inputs": [
        {
          "indexed": true,
          "internalType": "address",
          "name": "candidate",
          "type": "address"
        },
        {
          "indexed": true,
          "internalType": "address",
          "name": "admin",
          "type": "address"
        }
      ],
      "name": "AdminUpdatedCandidate",
      "type": "event"
    },
    {
      "anonymous": false,
      "inputs": [
        {
          "indexed": true,
          "internalType": "address",
          "name": "candidate",
          "type": "address"
        }
      ],
      "name": "CandidateDeleted",
      "type": "event"
    },
    {
      "anonymous": false,
      "inputs": [
        {
          "indexed": true,
          "internalType": "address",
          "name": "candidate",
          "type": "address"
        }
      ],
      "name": "CandidateRegistered",
      "type": "event"
    },
    {
      "anonymous": false,
      "inputs": [
        {
          "indexed": true,
          "internalType": "address",
          "name": "candidate",
          "type": "address"
        }
      ],
      "name": "CandidateUpdated",
      "type": "event"
    },
    {
      "anonymous": false,
      "inputs": [
        {
          "indexed": true,
          "internalType": "address",
          "name": "sourceContract",
          "type": "address"
        },
        {
          "indexed": false,
          "internalType": "uint256",
          "name": "candidatesImported",
          "type": "uint256"
        }
      ],
      "name": "CandidatesImported",
      "type": "event"
    },
    {
      "inputs": [
        {
          "internalType": "address",
          "name": "_adminAddress",
          "type": "address"
        }
      ],
      "name": "addAdmin",
      "outputs": [],
      "stateMutability": "nonpayable",
      "type": "function"
    },
    {
      "inputs": [
        {
          "internalType": "string",
          "name": "_name",
          "type": "string"
        },
        {
          "internalType": "uint256",
          "name": "_dateOfBirthEpoch",
          "type": "uint256"
        },
        {
          "internalType": "enum ICandidateDatabase.Gender",
          "name": "_gender",
          "type": "uint8"
        },
        {
          "internalType": "string",
          "name": "_presentAddress",
          "type": "string"
        },
        {
          "internalType": "string",
          "name": "_email",
          "type": "string"
        },
        {
          "internalType": "string",
          "name": "_qualifications",
          "type": "string"
        },
        {
          "internalType": "string",
          "name": "_manifesto",
          "type": "string"
        }
      ],
      "name": "addCandidate",
      "outputs": [],
      "stateMutability": "nonpayable",
      "type": "function"
    },
    {
      "inputs": [
        {
          "internalType": "address",
          "name": "_candidateAddress",
          "type": "address"
        },
        {
          "internalType": "string",
          "name": "_name",
          "type": "string"
        },
        {
          "internalType": "uint256",
          "name": "_dateOfBirthEpoch",
          "type": "uint256"
        },
        {
          "internalType": "enum ICandidateDatabase.Gender",
          "name": "_gender",
          "type": "uint8"
        },
        {
          "internalType": "string",
          "name": "_presentAddress",
          "type": "string"
        },
        {
          "internalType": "string",
          "name": "_email",
          "type": "string"
        },
        {
          "internalType": "string",
          "name": "_qualifications",
          "type": "string"
        },
        {
          "internalType": "string",
          "name": "_manifesto",
          "type": "string"
        }
      ],
      "name": "adminAddCandidate",
      "outputs": [],
      "stateMutability": "nonpayable",
      "type": "function"
    },
    {
      "inputs": [
        {
          "internalType": "address",
          "name": "_sourceContract",
          "type": "address"
        },
        {
          "internalType": "address[]",
          "name": "_candidateAddresses",
          "type": "address[]"
        }
      ],
      "name": "adminBatchImportCandidates",
      "outputs": [],
      "stateMutability": "nonpayable",
      "type": "function"
    },
    {
      "inputs": [
        {
          "internalType": "address",
          "name": "_sourceContract",
          "type": "address"
        }
      ],
      "name": "adminImportAllCandidates",
      "outputs": [],
      "stateMutability": "nonpayable",
      "type": "function"
    },
    {
      "inputs": [
        {
          "internalType": "address",
          "name": "_sourceContract",
          "type": "address"
        },
        {
          "internalType": "address",
          "name": "_candidateAddress",
          "type": "address"
        }
      ],
      "name": "adminImportCandidate",
      "outputs": [],
      "stateMutability": "nonpayable",
      "type": "function"
    },
    {
      "inputs": [
        {
          "internalType": "address",
          "name": "_candidateAddress",
          "type": "address"
        }
      ],
      "name": "adminRemoveCandidate",
      "outputs": [],
      "stateMutability": "nonpayable",
      "type": "function"
    },
    {
      "inputs": [
        {
          "internalType": "address",
          "name": "_candidateAddress",
          "type": "address"
        },
        {
          "internalType": "string",
          "name": "_name",
          "type": "string"
        },
        {
          "internalType": "uint256",
          "name": "_dateOfBirthEpoch",
          "type": "uint256"
        },
        {
          "internalType": "enum ICandidateDatabase.Gender",
          "name": "_gender",
          "type": "uint8"
        },
        {
          "internalType": "string",
          "name": "_presentAddress",
          "type": "string"
        },
        {
          "internalType": "string",
          "name": "_email",
          "type": "string"
        },
        {
          "internalType": "string",
          "name": "_qualifications",
          "type": "string"
        },
        {
          "internalType": "string",
          "name": "_manifesto",
          "type": "string"
        }
      ],
      "name": "adminUpdateCandidate",
      "outputs": [],
      "stateMutability": "nonpayable",
      "type": "function"
    },
    {
      "inputs": [],
      "name": "amIAdmin",
      "outputs": [
        {
          "internalType": "bool",
          "name": "",
          "type": "bool"
        }
      ],
      "stateMutability": "view",
      "type": "function"
    },
    {
      "inputs": [
        {
          "internalType": "uint256",
          "name": "_dateOfBirthEpoch",
          "type": "uint256"
        }
      ],
      "name": "calculateAge",
      "outputs": [
        {
          "internalType": "uint256",
          "name": "",
          "type": "uint256"
        }
      ],
      "stateMutability": "view",
      "type": "function"
    },
    {
      "inputs": [],
      "name": "deleteCandidate",
      "outputs": [],
      "stateMutability": "nonpayable",
      "type": "function"
    },
    {
      "inputs": [],
      "name": "getAdminCount",
      "outputs": [
        {
          "internalType": "uint256",
          "name": "",
          "type": "uint256"
        }
      ],
      "stateMutability": "view",
      "type": "function"
    },
    {
      "inputs": [],
      "name": "getAllAdmins",
      "outputs": [
        {
          "internalType": "address[]",
          "name": "",
          "type": "address[]"
        }
      ],
      "stateMutability": "view",
      "type": "function"
    },
    {
      "inputs": [],
      "name": "getAllCandidates",
      "outputs": [
        {
          "internalType": "address[]",
          "name": "",
          "type": "address[]"
        }
      ],
      "stateMutability": "view",
      "type": "function"
    },
    {
      "inputs": [],
      "name": "getCandidateCount",
      "outputs": [
        {
          "internalType": "uint256",
          "name": "count",
          "type": "uint256"
        }
      ],
      "stateMutability": "view",
      "type": "function"
    },
    {
      "inputs": [
        {
          "internalType": "address",
          "name": "_candidateAddress",
          "type": "address"
        }
      ],
      "name": "getCandidateDetails",
      "outputs": [
        {
          "internalType": "string",
          "name": "name",
          "type": "string"
        },
        {
          "internalType": "uint256",
          "name": "dateOfBirthEpoch",
          "type": "uint256"
        },
        {
          "internalType": "enum ICandidateDatabase.Gender",
          "name": "gender",
          "type": "uint8"
        },
        {
          "internalType": "string",
          "name": "presentAddress",
          "type": "string"
        },
        {
          "internalType": "string",
          "name": "email",
          "type": "string"
        },
        {
          "internalType": "string",
          "name": "qualifications",
          "type": "string"
        },
        {
          "internalType": "string",
          "name": "manifesto",
          "type": "string"
        },
        {
          "internalType": "uint256",
          "name": "timeWhenRegisteredEpoch",
          "type": "uint256"
        }
      ],
      "stateMutability": "view",
      "type": "function"
    },
    {
      "inputs": [
        {
          "internalType": "address",
          "name": "_candidateAddress",
          "type": "address"
        }
      ],
      "name": "getCandidateRegistrationStatus",
      "outputs": [
        {
          "internalType": "bool",
          "name": "isRegistered",
          "type": "bool"
        }
      ],
      "stateMutability": "view",
      "type": "function"
    },
    {
      "inputs": [],
      "name": "getMyAge",
      "outputs": [
        {
          "internalType": "uint256",
          "name": "",
          "type": "uint256"
        }
      ],
      "stateMutability": "view",
      "type": "function"
    },
    {
      "inputs": [],
      "name": "getMyCandidateDetails",
      "outputs": [
        {
          "internalType": "string",
          "name": "name",
          "type": "string"
        },
        {
          "internalType": "uint256",
          "name": "dateOfBirthEpoch",
          "type": "uint256"
        },
        {
          "internalType": "enum ICandidateDatabase.Gender",
          "name": "gender",
          "type": "uint8"
        },
        {
          "internalType": "string",
          "name": "presentAddress",
          "type": "string"
        },
        {
          "internalType": "string",
          "name": "email",
          "type": "string"
        },
        {
          "internalType": "string",
          "name": "qualifications",
          "type": "string"
        },
        {
          "internalType": "string",
          "name": "manifesto",
          "type": "string"
        },
        {
          "internalType": "uint256",
          "name": "timeWhenRegisteredEpoch",
          "type": "uint256"
        }
      ],
      "stateMutability": "view",
      "type": "function"
    },
    {
      "inputs": [],
      "name": "getMyRegistrationStatus",
      "outputs": [
        {
          "internalType": "bool",
          "name": "isRegistered",
          "type": "bool"
        }
      ],
      "stateMutability": "view",
      "type": "function"
    },
    {
      "inputs": [],
      "name": "getOwner",
      "outputs": [
        {
          "internalType": "address",
          "name": "",
          "type": "address"
        }
      ],
      "stateMutability": "view",
      "type": "function"
    },
    {
      "inputs": [
        {
          "internalType": "address",
          "name": "_address",
          "type": "address"
        }
      ],
      "name": "isAdmin",
      "outputs": [
        {
          "internalType": "bool",
          "name": "",
          "type": "bool"
        }
      ],
      "stateMutability": "view",
      "type": "function"
    },
    {
      "inputs": [
        {
          "internalType": "address",
          "name": "_adminAddress",
          "type": "address"
        }
      ],
      "name": "removeAdmin",
      "outputs": [],
      "stateMutability": "nonpayable",
      "type": "function"
    },
    {
      "inputs": [
        {
          "internalType": "string",
          "name": "_name",
          "type": "string"
        },
        {
          "internalType": "uint256",
          "name": "_dateOfBirthEpoch",
          "type": "uint256"
        },
        {
          "internalType": "enum ICandidateDatabase.Gender",
          "name": "_gender",
          "type": "uint8"
        },
        {
          "internalType": "string",
          "name": "_presentAddress",
          "type": "string"
        },
        {
          "internalType": "string",
          "name": "_email",
          "type": "string"
        },
        {
          "internalType": "string",
          "name": "_qualifications",
          "type": "string"
        },
        {
          "internalType": "string",
          "name": "_manifesto",
          "type": "string"
        }
      ],
      "name": "updateCandidate",
      "outputs": [],
      "stateMutability": "nonpayable",
      "type": "function"
    }
  ],
  "bytecode": "0x60a060405234801561001057600080fd5b503360805260805161312d61006f6000396000818161030c015281816103a20152818161058b0152818161065401528181610a52015281816112c7015281816114300152818161169001528181611a8c0152611f45015261312d6000f3fe608060405234801561001057600080fd5b50600436106101985760003560e01c80637effaef1116100e357806399e476e71161008c578063e9523c9711610066578063e9523c9714610374578063f6c094a61461037c578063fd270ed61461038457600080fd5b806399e476e714610346578063a417c52c14610359578063cdd0e1a71461036157600080fd5b8063893d20e8116100bd578063893d20e8146102ff5780638b7bf3eb14610336578063934f1cca1461033e57600080fd5b80637effaef1146102d157806384699ad9146102e457806385cc8bfb146102ec57600080fd5b80634eddfa8a1161014557806366d4c5061161011f57806366d4c5061461029857806370480275146102ab57806372bd364e146102be57600080fd5b80634eddfa8a1461024357806353ac5dc3146102565780635b409d091461027d57600080fd5b80632f0acbe1116101765780632f0acbe1146101ef57806330a563471461021e57806346b7cd631461023057600080fd5b80631785f53c1461019d57806324d7806c146101b25780632e6997fe146101da575b600080fd5b6101b06101ab3660046127ac565b610397565b005b6101c56101c03660046127ac565b610587565b60405190151581526020015b60405180910390f35b6101e26105e7565b6040516101d191906127d0565b6101c56101fd3660046127ac565b6001600160a01b031660009081526002602052604090206008015460ff1690565b6003545b6040519081526020016101d1565b6101b061023e3660046127ac565b610649565b6101b061025136600461281c565b610a47565b6102696102643660046127ac565b610da9565b6040516101d19897969594939291906128bb565b3360009081526002602052604090206008015460ff166101c5565b6101b06102a6366004612a3b565b611190565b6101b06102b93660046127ac565b6112bc565b6101b06102cc3660046127ac565b611425565b6101b06102df366004612b41565b611685565b610222611a07565b6102226102fa366004612bcb565b611a5b565b6040516001600160a01b037f00000000000000000000000000000000000000000000000000000000000000001681526020016101d1565b600154610222565b6101c5611a76565b6101b0610354366004612be4565b611a81565b6101b0611d55565b6101b061036f366004612be4565b611f3a565b6101e26120eb565b61026961214b565b6101b0610392366004612a3b565b61251f565b336001600160a01b037f000000000000000000000000000000000000000000000000000000000000000016146103e057604051632f8ab19d60e21b815260040160405180910390fd5b6001600160a01b03811660009081526020819052604090205460ff16610432576040517f256d404300000000000000000000000000000000000000000000000000000000815260040160405180910390fd5b6001600160a01b0381166000908152602081905260408120805460ff191690555b60015481101561054d57816001600160a01b03166001828154811061047a5761047a612cfb565b6000918252602090912001546001600160a01b03160361054557600180546104a3908290612d27565b815481106104b3576104b3612cfb565b600091825260209091200154600180546001600160a01b0390921691839081106104df576104df612cfb565b9060005260206000200160006101000a8154816001600160a01b0302191690836001600160a01b03160217905550600180548061051e5761051e612d3a565b600082815260209020810160001990810180546001600160a01b031916905501905561054d565b600101610453565b5060405133906001600160a01b038316907fdb9d5d31320daf5bc7181d565b6da4d12e30f0f4d5aa324a992426c14a1d19ce90600090a350565b60007f00000000000000000000000000000000000000000000000000000000000000006001600160a01b0316826001600160a01b031614806105e157506001600160a01b03821660009081526020819052604090205460ff165b92915050565b6060600380548060200260200160405190810160405280929190818152602001828054801561063f57602002820191906000526020600020905b81546001600160a01b03168152600190910190602001808311610621575b5050505050905090565b336001600160a01b037f0000000000000000000000000000000000000000000000000000000000000000161480159061069257503360009081526020819052604090205460ff16155b156106b0576040516343d4541760e11b815260040160405180910390fd5b60008190506060816001600160a01b0316632e6997fe6040518163ffffffff1660e01b8152600401600060405180830381865afa92505050801561071657506040513d6000823e601f3d908101601f191682016040526107139190810190612d50565b60015b61073357604051630b9c861f60e41b815260040160405180910390fd5b90506000805b82518110156109fd57600083828151811061075657610756612cfb565b6020908102919091018101516001600160a01b0381166000908152600290925260409091206008015490915060ff161561079057506109f5565b6040516353ac5dc360e01b81526001600160a01b0382811660048301528616906353ac5dc390602401600060405180830381865afa9250505080156107f757506040513d6000823e601f3d908101601f191682016040526107f49190810190612e61565b60015b61080157506109f5565b60006301e133806108128942612d27565b61081c9190612f75565b9050601281101561083657505050505050505050506109f5565b6040518061012001604052808a8152602001898152602001886001811115610860576108606128a5565b815260208082018990526040808301899052606083018890526080830187905260a08301869052600160c0909301929092526001600160a01b038d166000908152600290915220815181906108b5908261301f565b506020820151816001015560408201518160020160006101000a81548160ff021916908360018111156108ea576108ea6128a5565b021790555060608201516003820190610903908261301f565b5060808201516004820190610918908261301f565b5060a0820151600582019061092d908261301f565b5060c08201516006820190610942908261301f565b5060e08201516007820155610100909101516008909101805460ff19169115159190911790556003805460018101825560009182527fc2575a0e9e593c00f959f8c92f12db2869c3395a3b0502d05e2516446f71f85b0180546001600160a01b0319166001600160a01b038d1690811790915560405190917fa0ac4f59dabb0ddc4b8b883adda9e055e02c796b2cde2ed80fdb11a38f77e5c991a28b6109e7816130de565b9c5050505050505050505050505b600101610739565b50836001600160a01b03167f7b11f9707fd616002d9c0f0983f21e0021088827cc3a7fc4f36175ecb4782d5182604051610a3991815260200190565b60405180910390a250505050565b336001600160a01b037f00000000000000000000000000000000000000000000000000000000000000001614801590610a9057503360009081526020819052604090205460ff16155b15610aae576040516343d4541760e11b815260040160405180910390fd5b6001600160a01b03811660009081526002602052604090206008015460ff1615610aeb5760405163174d47f760e31b815260040160405180910390fd5b6040516353ac5dc360e01b81526001600160a01b0382811660048301528391908216906353ac5dc390602401600060405180830381865afa925050508015610b5557506040513d6000823e601f3d908101601f19168201604052610b529190810190612e61565b60015b610b7257604051630b9c861f60e41b815260040160405180910390fd5b60006301e13380610b838942612d27565b610b8d9190612f75565b90506012811015610bb15760405163642758ff60e11b815260040160405180910390fd5b6040518061012001604052808a8152602001898152602001886001811115610bdb57610bdb6128a5565b815260208082018990526040808301899052606083018890526080830187905260a08301869052600160c0909301929092526001600160a01b038e16600090815260029091522081518190610c30908261301f565b506020820151816001015560408201518160020160006101000a81548160ff02191690836001811115610c6557610c656128a5565b021790555060608201516003820190610c7e908261301f565b5060808201516004820190610c93908261301f565b5060a08201516005820190610ca8908261301f565b5060c08201516006820190610cbd908261301f565b5060e08201516007820155610100909101516008909101805460ff19169115159190911790556003805460018101825560009182527fc2575a0e9e593c00f959f8c92f12db2869c3395a3b0502d05e2516446f71f85b0180546001600160a01b0319166001600160a01b038e1690811790915560405190917fa0ac4f59dabb0ddc4b8b883adda9e055e02c796b2cde2ed80fdb11a38f77e5c991a26040516001808252906001600160a01b038e16907f7b11f9707fd616002d9c0f0983f21e0021088827cc3a7fc4f36175ecb4782d519060200160405180910390a2505050505050505050505b505050565b6001600160a01b0381166000908152600260205260408120600801546060919081908390819081908190859060ff16610df55760405163c26f0ffd60e01b815260040160405180910390fd5b6001600160a01b03891660009081526002602052604080822081516101208101909252805482908290610e2790612f97565b80601f0160208091040260200160405190810160405280929190818152602001828054610e5390612f97565b8015610ea05780601f10610e7557610100808354040283529160200191610ea0565b820191906000526020600020905b815481529060010190602001808311610e8357829003601f168201915b50505091835250506001828101546020830152600283015460409092019160ff1690811115610ed157610ed16128a5565b6001811115610ee257610ee26128a5565b8152602001600382018054610ef690612f97565b80601f0160208091040260200160405190810160405280929190818152602001828054610f2290612f97565b8015610f6f5780601f10610f4457610100808354040283529160200191610f6f565b820191906000526020600020905b815481529060010190602001808311610f5257829003601f168201915b50505050508152602001600482018054610f8890612f97565b80601f0160208091040260200160405190810160405280929190818152602001828054610fb490612f97565b80156110015780601f10610fd657610100808354040283529160200191611001565b820191906000526020600020905b815481529060010190602001808311610fe457829003601f168201915b5050505050815260200160058201805461101a90612f97565b80601f016020809104026020016040519081016040528092919081815260200182805461104690612f97565b80156110935780601f1061106857610100808354040283529160200191611093565b820191906000526020600020905b81548152906001019060200180831161107657829003601f168201915b505050505081526020016006820180546110ac90612f97565b80601f01602080910402602001604051908101604052809291908181526020018280546110d890612f97565b80156111255780601f106110fa57610100808354040283529160200191611125565b820191906000526020600020905b81548152906001019060200180831161110857829003601f168201915b5050509183525050600782015460208083019190915260089092015460ff161515604091820152825191830151908301516060840151608085015160a086015160c087015160e090970151959f50939d50919b50995097509550909350915050919395975091939597565b3360009081526002602052604090206008015460ff166111c35760405163c26f0ffd60e01b815260040160405180910390fd5b60006301e133806111d48842612d27565b6111de9190612f75565b905060128110156112025760405163642758ff60e11b815260040160405180910390fd5b3360009081526002602052604090208061121c8a8261301f565b506001808201899055600282018054899260ff19909116908381811115611245576112456128a5565b021790555060038101611258878261301f565b5060048101611267868261301f565b5060058101611276858261301f565b5060068101611285848261301f565b5060405133907f5c1cd16d0c55845505cf06834fc8d64b03a2fb0c2ffea81be006fd3fe764ede490600090a2505050505050505050565b336001600160a01b037f0000000000000000000000000000000000000000000000000000000000000000161461130557604051632f8ab19d60e21b815260040160405180910390fd5b6001600160a01b038116611345576040517fd9fa4b4700000000000000000000000000000000000000000000000000000000815260040160405180910390fd5b6001600160a01b03811660009081526020819052604090205460ff1615611398576040517f4e16b38200000000000000000000000000000000000000000000000000000000815260040160405180910390fd5b6001600160a01b038116600081815260208190526040808220805460ff19166001908117909155805480820182559083527fb10e2d527612073b26eecdfd717e6a320cf44b4afac2b0732d9fcbe2b7fa0cf60180546001600160a01b03191684179055513392917fbf3f493c772c8c283fd124432c2d0f539ab343faa04258fe88e52912d36b102b91a350565b336001600160a01b037f0000000000000000000000000000000000000000000000000000000000000000161480159061146e57503360009081526020819052604090205460ff16155b1561148c576040516343d4541760e11b815260040160405180910390fd5b6001600160a01b03811660009081526002602052604090206008015460ff166114c85760405163c26f0ffd60e01b815260040160405180910390fd5b6001600160a01b0381166000908152600260205260408120906114eb8282612731565b60006001830181905560028301805460ff1916905561150e906003840190612731565b61151c600483016000612731565b61152a600583016000612731565b611538600683016000612731565b506000600782018190556008909101805460ff191690555b60035481101561164b57816001600160a01b03166003828154811061157757611577612cfb565b6000918252602090912001546001600160a01b03160361164357600380546115a190600190612d27565b815481106115b1576115b1612cfb565b600091825260209091200154600380546001600160a01b0390921691839081106115dd576115dd612cfb565b9060005260206000200160006101000a8154816001600160a01b0302191690836001600160a01b03160217905550600380548061161c5761161c612d3a565b600082815260209020810160001990810180546001600160a01b031916905501905561164b565b600101611550565b5060405133906001600160a01b038316907f43204b0e5a9d6247fc2ce4f9b08b3aa78f102cbda5bdd93a132a18a676f1134090600090a350565b336001600160a01b037f000000000000000000000000000000000000000000000000000000000000000016148015906116ce57503360009081526020819052604090205460ff16155b156116ec576040516343d4541760e11b815260040160405180910390fd5b826000805b838110156119bc57600085858381811061170d5761170d612cfb565b905060200201602081019061172291906127ac565b6001600160a01b03811660009081526002602052604090206008015490915060ff161561174f57506119b4565b6040516353ac5dc360e01b81526001600160a01b0382811660048301528516906353ac5dc390602401600060405180830381865afa9250505080156117b657506040513d6000823e601f3d908101601f191682016040526117b39190810190612e61565b60015b6117c057506119b4565b60006301e133806117d18942612d27565b6117db9190612f75565b905060128110156117f557505050505050505050506119b4565b6040518061012001604052808a815260200189815260200188600181111561181f5761181f6128a5565b815260208082018990526040808301899052606083018890526080830187905260a08301869052600160c0909301929092526001600160a01b038d16600090815260029091522081518190611874908261301f565b506020820151816001015560408201518160020160006101000a81548160ff021916908360018111156118a9576118a96128a5565b0217905550606082015160038201906118c2908261301f565b50608082015160048201906118d7908261301f565b5060a082015160058201906118ec908261301f565b5060c08201516006820190611901908261301f565b5060e08201516007820155610100909101516008909101805460ff19169115159190911790556003805460018101825560009182527fc2575a0e9e593c00f959f8c92f12db2869c3395a3b0502d05e2516446f71f85b0180546001600160a01b0319166001600160a01b038d1690811790915560405190917fa0ac4f59dabb0ddc4b8b883adda9e055e02c796b2cde2ed80fdb11a38f77e5c991a28b6119a6816130de565b9c5050505050505050505050505b6001016116f1565b50846001600160a01b03167f7b11f9707fd616002d9c0f0983f21e0021088827cc3a7fc4f36175ecb4782d51826040516119f891815260200190565b60405180910390a25050505050565b3360009081526002602052604081206008015460ff16611a3a5760405163c26f0ffd60e01b815260040160405180910390fd5b33600090815260026020526040902060010154611a5690611a5b565b905090565b60006301e13380611a6c8342612d27565b6105e19190612f75565b6000611a5633610587565b336001600160a01b037f00000000000000000000000000000000000000000000000000000000000000001614801590611aca57503360009081526020819052604090205460ff16155b15611ae8576040516343d4541760e11b815260040160405180910390fd5b6001600160a01b038816611b28576040517fab820aca00000000000000000000000000000000000000000000000000000000815260040160405180910390fd5b60006301e13380611b398842612d27565b611b439190612f75565b90506012811015611b675760405163642758ff60e11b815260040160405180910390fd5b6001600160a01b03891660009081526002602052604090206008015460ff1615611ba45760405163174d47f760e31b815260040160405180910390fd5b604051806101200160405280898152602001888152602001876001811115611bce57611bce6128a5565b81526020808201889052604080830188905260608301879052608083018690524260a0840152600160c0909301929092526001600160a01b038c16600090815260029091522081518190611c22908261301f565b506020820151816001015560408201518160020160006101000a81548160ff02191690836001811115611c5757611c576128a5565b021790555060608201516003820190611c70908261301f565b5060808201516004820190611c85908261301f565b5060a08201516005820190611c9a908261301f565b5060c08201516006820190611caf908261301f565b5060e08201516007820155610100909101516008909101805460ff19169115159190911790556003805460018101825560009182527fc2575a0e9e593c00f959f8c92f12db2869c3395a3b0502d05e2516446f71f85b0180546001600160a01b0319166001600160a01b038c1690811790915560405133927fbae38c103fcb399c54b7f4938cbeb7260b54380334fd0f5365f5eecde90d759a91a3505050505050505050565b3360009081526002602052604090206008015460ff16611d885760405163c26f0ffd60e01b815260040160405180910390fd5b33600081815260026020526040812090611da28282612731565b60006001830181905560028301805460ff19169055611dc5906003840190612731565b611dd3600483016000612731565b611de1600583016000612731565b611def600683016000612731565b506000600782018190556008909101805460ff191690555b600354811015611f0257816001600160a01b031660038281548110611e2e57611e2e612cfb565b6000918252602090912001546001600160a01b031603611efa5760038054611e5890600190612d27565b81548110611e6857611e68612cfb565b600091825260209091200154600380546001600160a01b039092169183908110611e9457611e94612cfb565b9060005260206000200160006101000a8154816001600160a01b0302191690836001600160a01b031602179055506003805480611ed357611ed3612d3a565b600082815260209020810160001990810180546001600160a01b0319169055019055611f02565b600101611e07565b506040516001600160a01b038216907f6fe1c8a36bbf04217ace8c02e2469521bb21107f6f54ae5213ab312b8ae1bb6f90600090a250565b336001600160a01b037f00000000000000000000000000000000000000000000000000000000000000001614801590611f8357503360009081526020819052604090205460ff16155b15611fa1576040516343d4541760e11b815260040160405180910390fd5b6001600160a01b03881660009081526002602052604090206008015460ff16611fdd5760405163c26f0ffd60e01b815260040160405180910390fd5b60006301e13380611fee8842612d27565b611ff89190612f75565b9050601281101561201c5760405163642758ff60e11b815260040160405180910390fd5b6001600160a01b03891660009081526002602052604090208061203f8a8261301f565b506001808201899055600282018054899260ff19909116908381811115612068576120686128a5565b02179055506003810161207b878261301f565b506004810161208a868261301f565b5060058101612099858261301f565b50600681016120a8848261301f565b5060405133906001600160a01b038c16907f9a558f778a9c36163180e5c4b2d6f3e7b43f255a529c2606e3ec5ac5b5214e5090600090a350505050505050505050565b6060600180548060200260200160405190810160405280929190818152602001828054801561063f576020028201919060005260206000209081546001600160a01b03168152600190910190602001808311610621575050505050905090565b336000908152600260205260408120600801546060919081908390819081908190859060ff1661218e5760405163c26f0ffd60e01b815260040160405180910390fd5b33600090815260026020526040808220815161012081019092528054829082906121b790612f97565b80601f01602080910402602001604051908101604052809291908181526020018280546121e390612f97565b80156122305780601f1061220557610100808354040283529160200191612230565b820191906000526020600020905b81548152906001019060200180831161221357829003601f168201915b50505091835250506001828101546020830152600283015460409092019160ff1690811115612261576122616128a5565b6001811115612272576122726128a5565b815260200160038201805461228690612f97565b80601f01602080910402602001604051908101604052809291908181526020018280546122b290612f97565b80156122ff5780601f106122d4576101008083540402835291602001916122ff565b820191906000526020600020905b8154815290600101906020018083116122e257829003601f168201915b5050505050815260200160048201805461231890612f97565b80601f016020809104026020016040519081016040528092919081815260200182805461234490612f97565b80156123915780601f1061236657610100808354040283529160200191612391565b820191906000526020600020905b81548152906001019060200180831161237457829003601f168201915b505050505081526020016005820180546123aa90612f97565b80601f01602080910402602001604051908101604052809291908181526020018280546123d690612f97565b80156124235780601f106123f857610100808354040283529160200191612423565b820191906000526020600020905b81548152906001019060200180831161240657829003601f168201915b5050505050815260200160068201805461243c90612f97565b80601f016020809104026020016040519081016040528092919081815260200182805461246890612f97565b80156124b55780601f1061248a576101008083540402835291602001916124b5565b820191906000526020600020905b81548152906001019060200180831161249857829003601f168201915b5050509183525050600782015460208083019190915260089092015460ff161515604091820152825191830151908301516060840151608085015160a086015160c087015160e090970151959f50939d50919b509950975095509093509150509091929394959697565b60006301e133806125308842612d27565b61253a9190612f75565b9050601281101561255e5760405163642758ff60e11b815260040160405180910390fd5b3360009081526002602052604090206008015460ff16156125925760405163174d47f760e31b815260040160405180910390fd5b6040518061012001604052808981526020018881526020018760018111156125bc576125bc6128a5565b81526020808201889052604080830188905260608301879052608083018690524260a0840152600160c09093019290925233600090815260029091522081518190612607908261301f565b506020820151816001015560408201518160020160006101000a81548160ff0219169083600181111561263c5761263c6128a5565b021790555060608201516003820190612655908261301f565b506080820151600482019061266a908261301f565b5060a0820151600582019061267f908261301f565b5060c08201516006820190612694908261301f565b5060e08201516007820155610100909101516008909101805460ff19169115159190911790556003805460018101825560009182527fc2575a0e9e593c00f959f8c92f12db2869c3395a3b0502d05e2516446f71f85b018054336001600160a01b0319909116811790915560405190917fa0ac4f59dabb0ddc4b8b883adda9e055e02c796b2cde2ed80fdb11a38f77e5c991a25050505050505050565b50805461273d90612f97565b6000825580601f1061274d575050565b601f01602090049060005260206000209081019061276b919061276e565b50565b5b80821115612783576000815560010161276f565b5090565b6001600160a01b038116811461276b57600080fd5b80356127a781612787565b919050565b6000602082840312156127be57600080fd5b81356127c981612787565b9392505050565b602080825282518282018190526000918401906040840190835b818110156128115783516001600160a01b03168352602093840193909201916001016127ea565b509095945050505050565b6000806040838503121561282f57600080fd5b823561283a81612787565b9150602083013561284a81612787565b809150509250929050565b60005b83811015612870578181015183820152602001612858565b50506000910152565b60008151808452612891816020860160208601612855565b601f01601f19169290920160200192915050565b634e487b7160e01b600052602160045260246000fd5b610100815260006128d061010083018b612879565b896020840152600289106128f457634e487b7160e01b600052602160045260246000fd5b886040840152828103606084015261290c8189612879565b905082810360808401526129208188612879565b905082810360a08401526129348187612879565b905082810360c08401526129488186612879565b9150508260e08301529998505050505050505050565b634e487b7160e01b600052604160045260246000fd5b604051601f8201601f1916810167ffffffffffffffff8111828210171561299d5761299d61295e565b604052919050565b600067ffffffffffffffff8211156129bf576129bf61295e565b50601f01601f191660200190565b600082601f8301126129de57600080fd5b81356129f16129ec826129a5565b612974565b818152846020838601011115612a0657600080fd5b816020850160208301376000918101602001919091529392505050565b6002811061276b57600080fd5b80356127a781612a23565b600080600080600080600060e0888a031215612a5657600080fd5b873567ffffffffffffffff811115612a6d57600080fd5b612a798a828b016129cd565b97505060208801359550612a8f60408901612a30565b9450606088013567ffffffffffffffff811115612aab57600080fd5b612ab78a828b016129cd565b945050608088013567ffffffffffffffff811115612ad457600080fd5b612ae08a828b016129cd565b93505060a088013567ffffffffffffffff811115612afd57600080fd5b612b098a828b016129cd565b92505060c088013567ffffffffffffffff811115612b2657600080fd5b612b328a828b016129cd565b91505092959891949750929550565b600080600060408486031215612b5657600080fd5b8335612b6181612787565b9250602084013567ffffffffffffffff811115612b7d57600080fd5b8401601f81018613612b8e57600080fd5b803567ffffffffffffffff811115612ba557600080fd5b8660208260051b8401011115612bba57600080fd5b939660209190910195509293505050565b600060208284031215612bdd57600080fd5b5035919050565b600080600080600080600080610100898b031215612c0157600080fd5b612c0a8961279c565b9750602089013567ffffffffffffffff811115612c2657600080fd5b612c328b828c016129cd565b97505060408901359550612c4860608a01612a30565b9450608089013567ffffffffffffffff811115612c6457600080fd5b612c708b828c016129cd565b94505060a089013567ffffffffffffffff811115612c8d57600080fd5b612c998b828c016129cd565b93505060c089013567ffffffffffffffff811115612cb657600080fd5b612cc28b828c016129cd565b92505060e089013567ffffffffffffffff811115612cdf57600080fd5b612ceb8b828c016129cd565b9150509295985092959890939650565b634e487b7160e01b600052603260045260246000fd5b634e487b7160e01b600052601160045260246000fd5b818103818111156105e1576105e1612d11565b634e487b7160e01b600052603160045260246000fd5b600060208284031215612d6257600080fd5b815167ffffffffffffffff811115612d7957600080fd5b8201601f81018413612d8a57600080fd5b805167ffffffffffffffff811115612da457612da461295e565b8060051b612db460208201612974565b91825260208184018101929081019087841115612dd057600080fd5b6020850194505b83851015612dfe5784519250612dec83612787565b82825260209485019490910190612dd7565b979650505050505050565b600082601f830112612e1a57600080fd5b8151612e286129ec826129a5565b818152846020838601011115612e3d57600080fd5b612e4e826020830160208701612855565b949350505050565b80516127a781612a23565b600080600080600080600080610100898b031215612e7e57600080fd5b885167ffffffffffffffff811115612e9557600080fd5b612ea18b828c01612e09565b60208b01519099509750612eb9905060408a01612e56565b9550606089015167ffffffffffffffff811115612ed557600080fd5b612ee18b828c01612e09565b955050608089015167ffffffffffffffff811115612efe57600080fd5b612f0a8b828c01612e09565b94505060a089015167ffffffffffffffff811115612f2757600080fd5b612f338b828c01612e09565b93505060c089015167ffffffffffffffff811115612f5057600080fd5b612f5c8b828c01612e09565b60e09a909a0151989b979a509598949793969295505050565b600082612f9257634e487b7160e01b600052601260045260246000fd5b500490565b600181811c90821680612fab57607f821691505b602082108103612fcb57634e487b7160e01b600052602260045260246000fd5b50919050565b601f821115610da457806000526020600020601f840160051c81016020851015612ff85750805b601f840160051c820191505b818110156130185760008155600101613004565b5050505050565b815167ffffffffffffffff8111156130395761303961295e565b61304d816130478454612f97565b84612fd1565b6020601f82116001811461308157600083156130695750848201515b600019600385901b1c1916600184901b178455613018565b600084815260208120601f198516915b828110156130b15787850151825560209485019460019092019101613091565b50848210156130cf5786840151600019600387901b60f8161c191681555b50505050600190811b01905550565b6000600182016130f0576130f0612d11565b506001019056fea264697066735822122039da8a8baba5732992970f0fedf2715a16c4c31b021fccc5ac6765f32f4cbe8f64736f6c634300081c0033",
  "linkReferences": {},
  "deployedLinkReferences": {}
}