{
  "_format": "hh-sol-artifact-1",
  "contractName": "CandidateDatabase",
  "sourceName": "contracts/CandidateDatabase.sol",
  "abi": [
    {
      "inputs": [],
      "stateMutability": "nonpayable",
      "type": "constructor"
    },
    {
      "inputs": [],
      "name": "CandidateDatabase__AdminNotFound",
      "type": "error"
    },
    {
      "inputs": [],
      "name": "CandidateDatabase__AlreadyAdmin",
      "type": "error"
    },
    {
      "inputs": [],
      "name": "CandidateDatabase__AlreadyRegistered",
      "type": "error"
    },
    {
      "inputs": [],
      "name": "CandidateDatabase__ImportFailed",
      "type": "error"
    },
    {
      "inputs": [],
      "name": "CandidateDatabase__InvalidAddress",
      "type": "error"
    },
    {
      "inputs": [],
      "name": "CandidateDatabase__NotAdmin",
      "type": "error"
    },
    {
      "inputs": [],
      "name": "CandidateDatabase__NotEligible",
      "type": "error"
    },
    {
      "inputs": [],
      "name": "CandidateDatabase__NotOwner",
      "type": "error"
    },
    {
      "inputs": [],
      "name": "CandidateDatabase__NotRegistered",
      "type": "error"
    },
    {
      "anonymous": false,
      "inputs": [
        {
          "indexed": true,
          "internalType": "address",
          "name": "admin",
          "type": "address"
        },
        {
          "indexed": true,
          "internalType": "address",
          "name": "owner",
          "type": "address"
        }
      ],
      "name": "AdminAdded",
      "type": "event"
    },
    {
      "anonymous": false,
      "inputs": [
        {
          "indexed": true,
          "internalType": "address",
          "name": "candidate",
          "type": "address"
        },
        {
          "indexed": true,
          "internalType": "address",
          "name": "admin",
          "type": "address"
        }
      ],
      "name": "AdminAddedCandidate",
      "type": "event"
    },
    {
      "anonymous": false,
      "inputs": [
        {
          "indexed": true,
          "internalType": "address",
          "name": "admin",
          "type": "address"
        },
        {
          "indexed": true,
          "internalType": "address",
          "name": "owner",
          "type": "address"
        }
      ],
      "name": "AdminRemoved",
      "type": "event"
    },
    {
      "anonymous": false,
      "inputs": [
        {
          "indexed": true,
          "internalType": "address",
          "name": "candidate",
          "type": "address"
        },
        {
          "indexed": true,
          "internalType": "address",
          "name": "admin",
          "type": "address"
        }
      ],
      "name": "AdminUpdatedCandidate",
      "type": "event"
    },
    {
      "anonymous": false,
      "inputs": [
        {
          "indexed": true,
          "internalType": "address",
          "name": "candidate",
          "type": "address"
        }
      ],
      "name": "CandidateDeleted",
      "type": "event"
    },
    {
      "anonymous": false,
      "inputs": [
        {
          "indexed": true,
          "internalType": "address",
          "name": "candidate",
          "type": "address"
        }
      ],
      "name": "CandidateRegistered",
      "type": "event"
    },
    {
      "anonymous": false,
      "inputs": [
        {
          "indexed": true,
          "internalType": "address",
          "name": "candidate",
          "type": "address"
        }
      ],
      "name": "CandidateUpdated",
      "type": "event"
    },
    {
      "anonymous": false,
      "inputs": [
        {
          "indexed": true,
          "internalType": "address",
          "name": "sourceContract",
          "type": "address"
        },
        {
          "indexed": false,
          "internalType": "uint256",
          "name": "candidatesImported",
          "type": "uint256"
        }
      ],
      "name": "CandidatesImported",
      "type": "event"
    },
    {
      "inputs": [
        {
          "internalType": "address",
          "name": "_adminAddress",
          "type": "address"
        }
      ],
      "name": "addAdmin",
      "outputs": [],
      "stateMutability": "nonpayable",
      "type": "function"
    },
    {
      "inputs": [
        {
          "internalType": "string",
          "name": "_name",
          "type": "string"
        },
        {
          "internalType": "uint256",
          "name": "_age",
          "type": "uint256"
        },
        {
          "internalType": "enum ICandidateDatabase.Gender",
          "name": "_gender",
          "type": "uint8"
        },
        {
          "internalType": "string",
          "name": "_email",
          "type": "string"
        },
        {
          "internalType": "string",
          "name": "_qualifications",
          "type": "string"
        },
        {
          "internalType": "string",
          "name": "_manifesto",
          "type": "string"
        }
      ],
      "name": "addCandidate",
      "outputs": [],
      "stateMutability": "nonpayable",
      "type": "function"
    },
    {
      "inputs": [
        {
          "internalType": "address",
          "name": "_candidateAddress",
          "type": "address"
        },
        {
          "internalType": "string",
          "name": "_name",
          "type": "string"
        },
        {
          "internalType": "uint256",
          "name": "_age",
          "type": "uint256"
        },
        {
          "internalType": "enum ICandidateDatabase.Gender",
          "name": "_gender",
          "type": "uint8"
        },
        {
          "internalType": "string",
          "name": "_email",
          "type": "string"
        },
        {
          "internalType": "string",
          "name": "_qualifications",
          "type": "string"
        },
        {
          "internalType": "string",
          "name": "_manifesto",
          "type": "string"
        }
      ],
      "name": "adminAddCandidate",
      "outputs": [],
      "stateMutability": "nonpayable",
      "type": "function"
    },
    {
      "inputs": [
        {
          "internalType": "address",
          "name": "_sourceContract",
          "type": "address"
        },
        {
          "internalType": "address[]",
          "name": "_candidateAddresses",
          "type": "address[]"
        }
      ],
      "name": "adminBatchImportCandidates",
      "outputs": [],
      "stateMutability": "nonpayable",
      "type": "function"
    },
    {
      "inputs": [
        {
          "internalType": "address",
          "name": "_sourceContract",
          "type": "address"
        }
      ],
      "name": "adminImportAllCandidates",
      "outputs": [],
      "stateMutability": "nonpayable",
      "type": "function"
    },
    {
      "inputs": [
        {
          "internalType": "address",
          "name": "_sourceContract",
          "type": "address"
        },
        {
          "internalType": "address",
          "name": "_candidateAddress",
          "type": "address"
        }
      ],
      "name": "adminImportCandidate",
      "outputs": [],
      "stateMutability": "nonpayable",
      "type": "function"
    },
    {
      "inputs": [
        {
          "internalType": "address",
          "name": "_candidateAddress",
          "type": "address"
        },
        {
          "internalType": "string",
          "name": "_name",
          "type": "string"
        },
        {
          "internalType": "uint256",
          "name": "_age",
          "type": "uint256"
        },
        {
          "internalType": "enum ICandidateDatabase.Gender",
          "name": "_gender",
          "type": "uint8"
        },
        {
          "internalType": "string",
          "name": "_email",
          "type": "string"
        },
        {
          "internalType": "string",
          "name": "_qualifications",
          "type": "string"
        },
        {
          "internalType": "string",
          "name": "_manifesto",
          "type": "string"
        }
      ],
      "name": "adminUpdateCandidate",
      "outputs": [],
      "stateMutability": "nonpayable",
      "type": "function"
    },
    {
      "inputs": [],
      "name": "amIAdmin",
      "outputs": [
        {
          "internalType": "bool",
          "name": "",
          "type": "bool"
        }
      ],
      "stateMutability": "view",
      "type": "function"
    },
    {
      "inputs": [
        {
          "internalType": "address",
          "name": "_candidateAddress",
          "type": "address"
        }
      ],
      "name": "deleteCandidate",
      "outputs": [],
      "stateMutability": "nonpayable",
      "type": "function"
    },
    {
      "inputs": [],
      "name": "getAdminCount",
      "outputs": [
        {
          "internalType": "uint256",
          "name": "",
          "type": "uint256"
        }
      ],
      "stateMutability": "view",
      "type": "function"
    },
    {
      "inputs": [],
      "name": "getAllAdmins",
      "outputs": [
        {
          "internalType": "address[]",
          "name": "",
          "type": "address[]"
        }
      ],
      "stateMutability": "view",
      "type": "function"
    },
    {
      "inputs": [],
      "name": "getAllCandidates",
      "outputs": [
        {
          "internalType": "address[]",
          "name": "",
          "type": "address[]"
        }
      ],
      "stateMutability": "view",
      "type": "function"
    },
    {
      "inputs": [],
      "name": "getCandidateCount",
      "outputs": [
        {
          "internalType": "uint256",
          "name": "count",
          "type": "uint256"
        }
      ],
      "stateMutability": "view",
      "type": "function"
    },
    {
      "inputs": [
        {
          "internalType": "address",
          "name": "_candidateAddress",
          "type": "address"
        }
      ],
      "name": "getCandidateDetails",
      "outputs": [
        {
          "internalType": "string",
          "name": "name",
          "type": "string"
        },
        {
          "internalType": "uint256",
          "name": "age",
          "type": "uint256"
        },
        {
          "internalType": "enum ICandidateDatabase.Gender",
          "name": "gender",
          "type": "uint8"
        },
        {
          "internalType": "string",
          "name": "email",
          "type": "string"
        },
        {
          "internalType": "string",
          "name": "qualifications",
          "type": "string"
        },
        {
          "internalType": "string",
          "name": "manifesto",
          "type": "string"
        },
        {
          "internalType": "uint256",
          "name": "registrationTimestamp",
          "type": "uint256"
        }
      ],
      "stateMutability": "view",
      "type": "function"
    },
    {
      "inputs": [
        {
          "internalType": "address",
          "name": "_candidateAddress",
          "type": "address"
        }
      ],
      "name": "getCandidateRegistrationStatus",
      "outputs": [
        {
          "internalType": "bool",
          "name": "isRegistered",
          "type": "bool"
        }
      ],
      "stateMutability": "view",
      "type": "function"
    },
    {
      "inputs": [],
      "name": "getMyCandidateDetails",
      "outputs": [
        {
          "internalType": "string",
          "name": "name",
          "type": "string"
        },
        {
          "internalType": "uint256",
          "name": "age",
          "type": "uint256"
        },
        {
          "internalType": "enum ICandidateDatabase.Gender",
          "name": "gender",
          "type": "uint8"
        },
        {
          "internalType": "string",
          "name": "email",
          "type": "string"
        },
        {
          "internalType": "string",
          "name": "qualifications",
          "type": "string"
        },
        {
          "internalType": "string",
          "name": "manifesto",
          "type": "string"
        },
        {
          "internalType": "uint256",
          "name": "registrationTimestamp",
          "type": "uint256"
        }
      ],
      "stateMutability": "view",
      "type": "function"
    },
    {
      "inputs": [],
      "name": "getMyRegistrationStatus",
      "outputs": [
        {
          "internalType": "bool",
          "name": "isRegistered",
          "type": "bool"
        }
      ],
      "stateMutability": "view",
      "type": "function"
    },
    {
      "inputs": [],
      "name": "getOwner",
      "outputs": [
        {
          "internalType": "address",
          "name": "",
          "type": "address"
        }
      ],
      "stateMutability": "view",
      "type": "function"
    },
    {
      "inputs": [
        {
          "internalType": "address",
          "name": "_address",
          "type": "address"
        }
      ],
      "name": "isAdmin",
      "outputs": [
        {
          "internalType": "bool",
          "name": "",
          "type": "bool"
        }
      ],
      "stateMutability": "view",
      "type": "function"
    },
    {
      "inputs": [
        {
          "internalType": "address",
          "name": "_adminAddress",
          "type": "address"
        }
      ],
      "name": "removeAdmin",
      "outputs": [],
      "stateMutability": "nonpayable",
      "type": "function"
    },
    {
      "inputs": [
        {
          "internalType": "string",
          "name": "_name",
          "type": "string"
        },
        {
          "internalType": "uint256",
          "name": "_age",
          "type": "uint256"
        },
        {
          "internalType": "enum ICandidateDatabase.Gender",
          "name": "_gender",
          "type": "uint8"
        },
        {
          "internalType": "string",
          "name": "_email",
          "type": "string"
        },
        {
          "internalType": "string",
          "name": "_qualifications",
          "type": "string"
        },
        {
          "internalType": "string",
          "name": "_manifesto",
          "type": "string"
        }
      ],
      "name": "updateCandidate",
      "outputs": [],
      "stateMutability": "nonpayable",
      "type": "function"
    }
  ],
  "bytecode": "0x60a060405234801561001057600080fd5b503373ffffffffffffffffffffffffffffffffffffffff1660808173ffffffffffffffffffffffffffffffffffffffff168152505060805161414861009f600039600081816103e20152818161071f015281816108bc01528181610b410152818161103f015281816118cc01528181611b5301528181611fba01528181611ffd01526123e301526141486000f3fe608060405234801561001057600080fd5b50600436106101375760003560e01c806370480275116100b857806395f11ce61161007c57806395f11ce61461032e578063ce4f93f81461034a578063ceabed8c14610366578063e355c44714610382578063e9523c971461039e578063f6c094a6146103bc57610137565b8063704802751461029c5780637effaef1146102b8578063893d20e8146102d45780638b7bf3eb146102f2578063934f1cca1461031057610137565b8063392f0d55116100ff578063392f0d55146101f457806346b7cd63146102105780634eddfa8a1461022c57806353ac5dc3146102485780635b409d091461027e57610137565b80631785f53c1461013c57806324d7806c146101585780632e6997fe146101885780632f0acbe1146101a657806330a56347146101d6575b600080fd5b61015660048036038101906101519190613296565b6103e0565b005b610172600480360381019061016d9190613296565b61071b565b60405161017f91906132de565b60405180910390f35b6101906107c7565b60405161019d91906133b7565b60405180910390f35b6101c060048036038101906101bb9190613296565b610855565b6040516101cd91906132de565b60405180910390f35b6101de6108ad565b6040516101eb91906133f2565b60405180910390f35b61020e600480360381019061020991906135a4565b6108ba565b005b61022a60048036038101906102259190613296565b610b3f565b005b610246600480360381019061024191906136b6565b61103d565b005b610262600480360381019061025d9190613296565b6114a6565b60405161027597969594939291906137ec565b60405180910390f35b610286611874565b60405161029391906132de565b60405180910390f35b6102b660048036038101906102b19190613296565b6118ca565b005b6102d260048036038101906102cd91906138d7565b611b51565b005b6102dc611fb6565b6040516102e99190613946565b60405180910390f35b6102fa611fde565b60405161030791906133f2565b60405180910390f35b610318611feb565b60405161032591906132de565b60405180910390f35b61034860048036038101906103439190613296565b611ffb565b005b610364600480360381019061035f91906135a4565b6123e1565b005b610380600480360381019061037b9190613961565b6127f7565b005b61039c60048036038101906103979190613961565b612ab2565b005b6103a6612d6d565b6040516103b391906133b7565b60405180910390f35b6103c4612dfb565b6040516103d797969594939291906137ec565b60405180910390f35b7f000000000000000000000000000000000000000000000000000000000000000073ffffffffffffffffffffffffffffffffffffffff163373ffffffffffffffffffffffffffffffffffffffff1614610465576040517fe7f229ea00000000000000000000000000000000000000000000000000000000815260040160405180910390fd5b600260008273ffffffffffffffffffffffffffffffffffffffff1673ffffffffffffffffffffffffffffffffffffffff16815260200190815260200160002060009054906101000a900460ff166104e8576040517f09f7734400000000000000000000000000000000000000000000000000000000815260040160405180910390fd5b600260008273ffffffffffffffffffffffffffffffffffffffff1673ffffffffffffffffffffffffffffffffffffffff16815260200190815260200160002060006101000a81549060ff021916905560005b6003805490508110156106bd578173ffffffffffffffffffffffffffffffffffffffff166003828154811061057257610571613a5e565b5b9060005260206000200160009054906101000a900473ffffffffffffffffffffffffffffffffffffffff1673ffffffffffffffffffffffffffffffffffffffff16036106b057600360016003805490506105cc9190613abc565b815481106105dd576105dc613a5e565b5b9060005260206000200160009054906101000a900473ffffffffffffffffffffffffffffffffffffffff166003828154811061061c5761061b613a5e565b5b9060005260206000200160006101000a81548173ffffffffffffffffffffffffffffffffffffffff021916908373ffffffffffffffffffffffffffffffffffffffff160217905550600380548061067657610675613af0565b5b6001900381819060005260206000200160006101000a81549073ffffffffffffffffffffffffffffffffffffffff021916905590556106bd565b808060010191505061053a565b503373ffffffffffffffffffffffffffffffffffffffff168173ffffffffffffffffffffffffffffffffffffffff167fdb9d5d31320daf5bc7181d565b6da4d12e30f0f4d5aa324a992426c14a1d19ce60405160405180910390a350565b60007f000000000000000000000000000000000000000000000000000000000000000073ffffffffffffffffffffffffffffffffffffffff168273ffffffffffffffffffffffffffffffffffffffff1614806107c05750600260008373ffffffffffffffffffffffffffffffffffffffff1673ffffffffffffffffffffffffffffffffffffffff16815260200190815260200160002060009054906101000a900460ff165b9050919050565b6060600180548060200260200160405190810160405280929190818152602001828054801561084b57602002820191906000526020600020905b8160009054906101000a900473ffffffffffffffffffffffffffffffffffffffff1673ffffffffffffffffffffffffffffffffffffffff1681526020019060010190808311610801575b5050505050905090565b60008060008373ffffffffffffffffffffffffffffffffffffffff1673ffffffffffffffffffffffffffffffffffffffff16815260200190815260200160002060070160009054906101000a900460ff169050919050565b6000600180549050905090565b7f000000000000000000000000000000000000000000000000000000000000000073ffffffffffffffffffffffffffffffffffffffff163373ffffffffffffffffffffffffffffffffffffffff16141580156109605750600260003373ffffffffffffffffffffffffffffffffffffffff1673ffffffffffffffffffffffffffffffffffffffff16815260200190815260200160002060009054906101000a900460ff16155b15610997576040517f446b76e700000000000000000000000000000000000000000000000000000000815260040160405180910390fd5b6000808873ffffffffffffffffffffffffffffffffffffffff1673ffffffffffffffffffffffffffffffffffffffff16815260200190815260200160002060070160009054906101000a900460ff16610a1c576040517fc26f0ffd00000000000000000000000000000000000000000000000000000000815260040160405180910390fd5b60008060008973ffffffffffffffffffffffffffffffffffffffff1673ffffffffffffffffffffffffffffffffffffffff168152602001908152602001600020905086816000019081610a6f9190613d2b565b50858160010181905550848160020160006101000a81548160ff02191690836001811115610aa057610a9f613775565b5b021790555083816003019081610ab69190613d2b565b5082816004019081610ac89190613d2b565b5081816005019081610ada9190613d2b565b503373ffffffffffffffffffffffffffffffffffffffff168873ffffffffffffffffffffffffffffffffffffffff167f9a558f778a9c36163180e5c4b2d6f3e7b43f255a529c2606e3ec5ac5b5214e5060405160405180910390a35050505050505050565b7f000000000000000000000000000000000000000000000000000000000000000073ffffffffffffffffffffffffffffffffffffffff163373ffffffffffffffffffffffffffffffffffffffff1614158015610be55750600260003373ffffffffffffffffffffffffffffffffffffffff1673ffffffffffffffffffffffffffffffffffffffff16815260200190815260200160002060009054906101000a900460ff16155b15610c1c576040517f446b76e700000000000000000000000000000000000000000000000000000000815260040160405180910390fd5b600081905060608173ffffffffffffffffffffffffffffffffffffffff16632e6997fe6040518163ffffffff1660e01b8152600401600060405180830381865afa925050508015610c9057506040513d6000823e3d601f19601f82011682018060405250810190610c8d9190613ed5565b60015b610cc6576040517fb9c861f000000000000000000000000000000000000000000000000000000000815260040160405180910390fd5b809150506000805b8251811015610fe8576000838281518110610cec57610ceb613a5e565b5b602002602001015190506000808273ffffffffffffffffffffffffffffffffffffffff1673ffffffffffffffffffffffffffffffffffffffff16815260200190815260200160002060070160009054906101000a900460ff1615610d505750610fdb565b8473ffffffffffffffffffffffffffffffffffffffff166353ac5dc3826040518263ffffffff1660e01b8152600401610d899190613946565b600060405180830381865afa925050508015610dc857506040513d6000823e3d601f19601f82011682018060405250810190610dc59190613fb8565b60015b610dd25750610fdb565b604051806101000160405280888152602001878152602001866001811115610dfd57610dfc613775565b5b8152602001858152602001848152602001838152602001828152602001600115158152506000808a73ffffffffffffffffffffffffffffffffffffffff1673ffffffffffffffffffffffffffffffffffffffff1681526020019081526020016000206000820151816000019081610e749190613d2b565b506020820151816001015560408201518160020160006101000a81548160ff02191690836001811115610eaa57610ea9613775565b5b02179055506060820151816003019081610ec49190613d2b565b506080820151816004019081610eda9190613d2b565b5060a0820151816005019081610ef09190613d2b565b5060c0820151816006015560e08201518160070160006101000a81548160ff0219169083151502179055509050506001889080600181540180825580915050600190039060005260206000200160009091909190916101000a81548173ffffffffffffffffffffffffffffffffffffffff021916908373ffffffffffffffffffffffffffffffffffffffff1602179055508773ffffffffffffffffffffffffffffffffffffffff167fa0ac4f59dabb0ddc4b8b883adda9e055e02c796b2cde2ed80fdb11a38f77e5c960405160405180910390a28980610fcf906140ca565b9a505050505050505050505b8080600101915050610cce565b508373ffffffffffffffffffffffffffffffffffffffff167f7b11f9707fd616002d9c0f0983f21e0021088827cc3a7fc4f36175ecb4782d518260405161102f91906133f2565b60405180910390a250505050565b7f000000000000000000000000000000000000000000000000000000000000000073ffffffffffffffffffffffffffffffffffffffff163373ffffffffffffffffffffffffffffffffffffffff16141580156110e35750600260003373ffffffffffffffffffffffffffffffffffffffff1673ffffffffffffffffffffffffffffffffffffffff16815260200190815260200160002060009054906101000a900460ff16155b1561111a576040517f446b76e700000000000000000000000000000000000000000000000000000000815260040160405180910390fd5b6000808273ffffffffffffffffffffffffffffffffffffffff1673ffffffffffffffffffffffffffffffffffffffff16815260200190815260200160002060070160009054906101000a900460ff16156111a0576040517fba6a3fb800000000000000000000000000000000000000000000000000000000815260040160405180910390fd5b60008290508073ffffffffffffffffffffffffffffffffffffffff166353ac5dc3836040518263ffffffff1660e01b81526004016111de9190613946565b600060405180830381865afa92505050801561121d57506040513d6000823e3d601f19601f8201168201806040525081019061121a9190613fb8565b60015b611253576040517fb9c861f000000000000000000000000000000000000000000000000000000000815260040160405180910390fd5b60405180610100016040528088815260200187815260200186600181111561127e5761127d613775565b5b8152602001858152602001848152602001838152602001828152602001600115158152506000808b73ffffffffffffffffffffffffffffffffffffffff1673ffffffffffffffffffffffffffffffffffffffff16815260200190815260200160002060008201518160000190816112f59190613d2b565b506020820151816001015560408201518160020160006101000a81548160ff0219169083600181111561132b5761132a613775565b5b021790555060608201518160030190816113459190613d2b565b50608082015181600401908161135b9190613d2b565b5060a08201518160050190816113719190613d2b565b5060c0820151816006015560e08201518160070160006101000a81548160ff0219169083151502179055509050506001899080600181540180825580915050600190039060005260206000200160009091909190916101000a81548173ffffffffffffffffffffffffffffffffffffffff021916908373ffffffffffffffffffffffffffffffffffffffff1602179055508873ffffffffffffffffffffffffffffffffffffffff167fa0ac4f59dabb0ddc4b8b883adda9e055e02c796b2cde2ed80fdb11a38f77e5c960405160405180910390a26000600190508a73ffffffffffffffffffffffffffffffffffffffff167f7b11f9707fd616002d9c0f0983f21e0021088827cc3a7fc4f36175ecb4782d518260405161149191906133f2565b60405180910390a25050505050505050505050565b6060600080606080606060008060008973ffffffffffffffffffffffffffffffffffffffff1673ffffffffffffffffffffffffffffffffffffffff16815260200190815260200160002060070160009054906101000a900460ff16611537576040517fc26f0ffd00000000000000000000000000000000000000000000000000000000815260040160405180910390fd5b60008060008a73ffffffffffffffffffffffffffffffffffffffff1673ffffffffffffffffffffffffffffffffffffffff1681526020019081526020016000206040518061010001604052908160008201805461159390613b4e565b80601f01602080910402602001604051908101604052809291908181526020018280546115bf90613b4e565b801561160c5780601f106115e15761010080835404028352916020019161160c565b820191906000526020600020905b8154815290600101906020018083116115ef57829003601f168201915b50505050508152602001600182015481526020016002820160009054906101000a900460ff16600181111561164457611643613775565b5b600181111561165657611655613775565b5b815260200160038201805461166a90613b4e565b80601f016020809104026020016040519081016040528092919081815260200182805461169690613b4e565b80156116e35780601f106116b8576101008083540402835291602001916116e3565b820191906000526020600020905b8154815290600101906020018083116116c657829003601f168201915b505050505081526020016004820180546116fc90613b4e565b80601f016020809104026020016040519081016040528092919081815260200182805461172890613b4e565b80156117755780601f1061174a57610100808354040283529160200191611775565b820191906000526020600020905b81548152906001019060200180831161175857829003601f168201915b5050505050815260200160058201805461178e90613b4e565b80601f01602080910402602001604051908101604052809291908181526020018280546117ba90613b4e565b80156118075780601f106117dc57610100808354040283529160200191611807565b820191906000526020600020905b8154815290600101906020018083116117ea57829003601f168201915b50505050508152602001600682015481526020016007820160009054906101000a900460ff1615151515815250509050806000015181602001518260400151836060015184608001518560a001518660c00151975097509750975097509750975050919395979092949650565b60008060003373ffffffffffffffffffffffffffffffffffffffff1673ffffffffffffffffffffffffffffffffffffffff16815260200190815260200160002060070160009054906101000a900460ff16905090565b7f000000000000000000000000000000000000000000000000000000000000000073ffffffffffffffffffffffffffffffffffffffff163373ffffffffffffffffffffffffffffffffffffffff161461194f576040517fe7f229ea00000000000000000000000000000000000000000000000000000000815260040160405180910390fd5b600073ffffffffffffffffffffffffffffffffffffffff168173ffffffffffffffffffffffffffffffffffffffff16036119b5576040517fab820aca00000000000000000000000000000000000000000000000000000000815260040160405180910390fd5b600260008273ffffffffffffffffffffffffffffffffffffffff1673ffffffffffffffffffffffffffffffffffffffff16815260200190815260200160002060009054906101000a900460ff1615611a39576040517f6949f8f100000000000000000000000000000000000000000000000000000000815260040160405180910390fd5b6001600260008373ffffffffffffffffffffffffffffffffffffffff1673ffffffffffffffffffffffffffffffffffffffff16815260200190815260200160002060006101000a81548160ff0219169083151502179055506003819080600181540180825580915050600190039060005260206000200160009091909190916101000a81548173ffffffffffffffffffffffffffffffffffffffff021916908373ffffffffffffffffffffffffffffffffffffffff1602179055503373ffffffffffffffffffffffffffffffffffffffff168173ffffffffffffffffffffffffffffffffffffffff167fbf3f493c772c8c283fd124432c2d0f539ab343faa04258fe88e52912d36b102b60405160405180910390a350565b7f000000000000000000000000000000000000000000000000000000000000000073ffffffffffffffffffffffffffffffffffffffff163373ffffffffffffffffffffffffffffffffffffffff1614158015611bf75750600260003373ffffffffffffffffffffffffffffffffffffffff1673ffffffffffffffffffffffffffffffffffffffff16815260200190815260200160002060009054906101000a900460ff16155b15611c2e576040517f446b76e700000000000000000000000000000000000000000000000000000000815260040160405180910390fd5b60008390506000805b84849050811015611f60576000858583818110611c5757611c56613a5e565b5b9050602002016020810190611c6c9190613296565b90506000808273ffffffffffffffffffffffffffffffffffffffff1673ffffffffffffffffffffffffffffffffffffffff16815260200190815260200160002060070160009054906101000a900460ff1615611cc85750611f53565b8373ffffffffffffffffffffffffffffffffffffffff166353ac5dc3826040518263ffffffff1660e01b8152600401611d019190613946565b600060405180830381865afa925050508015611d4057506040513d6000823e3d601f19601f82011682018060405250810190611d3d9190613fb8565b60015b611d4a5750611f53565b604051806101000160405280888152602001878152602001866001811115611d7557611d74613775565b5b8152602001858152602001848152602001838152602001828152602001600115158152506000808a73ffffffffffffffffffffffffffffffffffffffff1673ffffffffffffffffffffffffffffffffffffffff1681526020019081526020016000206000820151816000019081611dec9190613d2b565b506020820151816001015560408201518160020160006101000a81548160ff02191690836001811115611e2257611e21613775565b5b02179055506060820151816003019081611e3c9190613d2b565b506080820151816004019081611e529190613d2b565b5060a0820151816005019081611e689190613d2b565b5060c0820151816006015560e08201518160070160006101000a81548160ff0219169083151502179055509050506001889080600181540180825580915050600190039060005260206000200160009091909190916101000a81548173ffffffffffffffffffffffffffffffffffffffff021916908373ffffffffffffffffffffffffffffffffffffffff1602179055508773ffffffffffffffffffffffffffffffffffffffff167fa0ac4f59dabb0ddc4b8b883adda9e055e02c796b2cde2ed80fdb11a38f77e5c960405160405180910390a28980611f47906140ca565b9a505050505050505050505b8080600101915050611c37565b508473ffffffffffffffffffffffffffffffffffffffff167f7b11f9707fd616002d9c0f0983f21e0021088827cc3a7fc4f36175ecb4782d5182604051611fa791906133f2565b60405180910390a25050505050565b60007f0000000000000000000000000000000000000000000000000000000000000000905090565b6000600380549050905090565b6000611ff63361071b565b905090565b7f000000000000000000000000000000000000000000000000000000000000000073ffffffffffffffffffffffffffffffffffffffff163373ffffffffffffffffffffffffffffffffffffffff16141580156120a15750600260003373ffffffffffffffffffffffffffffffffffffffff1673ffffffffffffffffffffffffffffffffffffffff16815260200190815260200160002060009054906101000a900460ff16155b156120d8576040517f446b76e700000000000000000000000000000000000000000000000000000000815260040160405180910390fd5b6000808273ffffffffffffffffffffffffffffffffffffffff1673ffffffffffffffffffffffffffffffffffffffff16815260200190815260200160002060070160009054906101000a900460ff1661215d576040517fc26f0ffd00000000000000000000000000000000000000000000000000000000815260040160405180910390fd5b6000808273ffffffffffffffffffffffffffffffffffffffff1673ffffffffffffffffffffffffffffffffffffffff168152602001908152602001600020600080820160006121ac91906131c7565b60018201600090556002820160006101000a81549060ff02191690556003820160006121d891906131c7565b6004820160006121e891906131c7565b6005820160006121f891906131c7565b60068201600090556007820160006101000a81549060ff0219169055505060005b60018054905081101561239a578173ffffffffffffffffffffffffffffffffffffffff166001828154811061225157612250613a5e565b5b9060005260206000200160009054906101000a900473ffffffffffffffffffffffffffffffffffffffff1673ffffffffffffffffffffffffffffffffffffffff160361238d5760018080805490506122a99190613abc565b815481106122ba576122b9613a5e565b5b9060005260206000200160009054906101000a900473ffffffffffffffffffffffffffffffffffffffff16600182815481106122f9576122f8613a5e565b5b9060005260206000200160006101000a81548173ffffffffffffffffffffffffffffffffffffffff021916908373ffffffffffffffffffffffffffffffffffffffff160217905550600180548061235357612352613af0565b5b6001900381819060005260206000200160006101000a81549073ffffffffffffffffffffffffffffffffffffffff0219169055905561239a565b8080600101915050612219565b508073ffffffffffffffffffffffffffffffffffffffff167f6fe1c8a36bbf04217ace8c02e2469521bb21107f6f54ae5213ab312b8ae1bb6f60405160405180910390a250565b7f000000000000000000000000000000000000000000000000000000000000000073ffffffffffffffffffffffffffffffffffffffff163373ffffffffffffffffffffffffffffffffffffffff16141580156124875750600260003373ffffffffffffffffffffffffffffffffffffffff1673ffffffffffffffffffffffffffffffffffffffff16815260200190815260200160002060009054906101000a900460ff16155b156124be576040517f446b76e700000000000000000000000000000000000000000000000000000000815260040160405180910390fd5b600073ffffffffffffffffffffffffffffffffffffffff168773ffffffffffffffffffffffffffffffffffffffff1603612524576040517fab820aca00000000000000000000000000000000000000000000000000000000815260040160405180910390fd5b601285101561255f576040517fc84eb1fe00000000000000000000000000000000000000000000000000000000815260040160405180910390fd5b6000808873ffffffffffffffffffffffffffffffffffffffff1673ffffffffffffffffffffffffffffffffffffffff16815260200190815260200160002060070160009054906101000a900460ff16156125e5576040517fba6a3fb800000000000000000000000000000000000000000000000000000000815260040160405180910390fd5b6040518061010001604052808781526020018681526020018560018111156126105761260f613775565b5b8152602001848152602001838152602001828152602001428152602001600115158152506000808973ffffffffffffffffffffffffffffffffffffffff1673ffffffffffffffffffffffffffffffffffffffff16815260200190815260200160002060008201518160000190816126879190613d2b565b506020820151816001015560408201518160020160006101000a81548160ff021916908360018111156126bd576126bc613775565b5b021790555060608201518160030190816126d79190613d2b565b5060808201518160040190816126ed9190613d2b565b5060a08201518160050190816127039190613d2b565b5060c0820151816006015560e08201518160070160006101000a81548160ff0219169083151502179055509050506001879080600181540180825580915050600190039060005260206000200160009091909190916101000a81548173ffffffffffffffffffffffffffffffffffffffff021916908373ffffffffffffffffffffffffffffffffffffffff1602179055503373ffffffffffffffffffffffffffffffffffffffff168773ffffffffffffffffffffffffffffffffffffffff167fbae38c103fcb399c54b7f4938cbeb7260b54380334fd0f5365f5eecde90d759a60405160405180910390a350505050505050565b6000803373ffffffffffffffffffffffffffffffffffffffff1673ffffffffffffffffffffffffffffffffffffffff16815260200190815260200160002060070160009054906101000a900460ff1661287c576040517fc26f0ffd00000000000000000000000000000000000000000000000000000000815260040160405180910390fd5b856000803373ffffffffffffffffffffffffffffffffffffffff1673ffffffffffffffffffffffffffffffffffffffff16815260200190815260200160002060000190816128ca9190613d2b565b50846000803373ffffffffffffffffffffffffffffffffffffffff1673ffffffffffffffffffffffffffffffffffffffff16815260200190815260200160002060010181905550836000803373ffffffffffffffffffffffffffffffffffffffff1673ffffffffffffffffffffffffffffffffffffffff16815260200190815260200160002060020160006101000a81548160ff0219169083600181111561297557612974613775565b5b0217905550826000803373ffffffffffffffffffffffffffffffffffffffff1673ffffffffffffffffffffffffffffffffffffffff16815260200190815260200160002060030190816129c89190613d2b565b50816000803373ffffffffffffffffffffffffffffffffffffffff1673ffffffffffffffffffffffffffffffffffffffff1681526020019081526020016000206004019081612a179190613d2b565b50806000803373ffffffffffffffffffffffffffffffffffffffff1673ffffffffffffffffffffffffffffffffffffffff1681526020019081526020016000206005019081612a669190613d2b565b503373ffffffffffffffffffffffffffffffffffffffff167f5c1cd16d0c55845505cf06834fc8d64b03a2fb0c2ffea81be006fd3fe764ede460405160405180910390a2505050505050565b6012851015612aed576040517fc84eb1fe00000000000000000000000000000000000000000000000000000000815260040160405180910390fd5b6000803373ffffffffffffffffffffffffffffffffffffffff1673ffffffffffffffffffffffffffffffffffffffff16815260200190815260200160002060070160009054906101000a900460ff1615612b73576040517fba6a3fb800000000000000000000000000000000000000000000000000000000815260040160405180910390fd5b604051806101000160405280878152602001868152602001856001811115612b9e57612b9d613775565b5b8152602001848152602001838152602001828152602001428152602001600115158152506000803373ffffffffffffffffffffffffffffffffffffffff1673ffffffffffffffffffffffffffffffffffffffff1681526020019081526020016000206000820151816000019081612c159190613d2b565b506020820151816001015560408201518160020160006101000a81548160ff02191690836001811115612c4b57612c4a613775565b5b02179055506060820151816003019081612c659190613d2b565b506080820151816004019081612c7b9190613d2b565b5060a0820151816005019081612c919190613d2b565b5060c0820151816006015560e08201518160070160006101000a81548160ff0219169083151502179055509050506001339080600181540180825580915050600190039060005260206000200160009091909190916101000a81548173ffffffffffffffffffffffffffffffffffffffff021916908373ffffffffffffffffffffffffffffffffffffffff1602179055503373ffffffffffffffffffffffffffffffffffffffff167fa0ac4f59dabb0ddc4b8b883adda9e055e02c796b2cde2ed80fdb11a38f77e5c960405160405180910390a2505050505050565b60606003805480602002602001604051908101604052809291908181526020018280548015612df157602002820191906000526020600020905b8160009054906101000a900473ffffffffffffffffffffffffffffffffffffffff1673ffffffffffffffffffffffffffffffffffffffff1681526020019060010190808311612da7575b5050505050905090565b6060600080606080606060008060003373ffffffffffffffffffffffffffffffffffffffff1673ffffffffffffffffffffffffffffffffffffffff16815260200190815260200160002060070160009054906101000a900460ff16612e8c576040517fc26f0ffd00000000000000000000000000000000000000000000000000000000815260040160405180910390fd5b60008060003373ffffffffffffffffffffffffffffffffffffffff1673ffffffffffffffffffffffffffffffffffffffff16815260200190815260200160002060405180610100016040529081600082018054612ee890613b4e565b80601f0160208091040260200160405190810160405280929190818152602001828054612f1490613b4e565b8015612f615780601f10612f3657610100808354040283529160200191612f61565b820191906000526020600020905b815481529060010190602001808311612f4457829003601f168201915b50505050508152602001600182015481526020016002820160009054906101000a900460ff166001811115612f9957612f98613775565b5b6001811115612fab57612faa613775565b5b8152602001600382018054612fbf90613b4e565b80601f0160208091040260200160405190810160405280929190818152602001828054612feb90613b4e565b80156130385780601f1061300d57610100808354040283529160200191613038565b820191906000526020600020905b81548152906001019060200180831161301b57829003601f168201915b5050505050815260200160048201805461305190613b4e565b80601f016020809104026020016040519081016040528092919081815260200182805461307d90613b4e565b80156130ca5780601f1061309f576101008083540402835291602001916130ca565b820191906000526020600020905b8154815290600101906020018083116130ad57829003601f168201915b505050505081526020016005820180546130e390613b4e565b80601f016020809104026020016040519081016040528092919081815260200182805461310f90613b4e565b801561315c5780601f106131315761010080835404028352916020019161315c565b820191906000526020600020905b81548152906001019060200180831161313f57829003601f168201915b50505050508152602001600682015481526020016007820160009054906101000a900460ff1615151515815250509050806000015181602001518260400151836060015184608001518560a001518660c0015197509750975097509750975097505090919293949596565b5080546131d390613b4e565b6000825580601f106131e55750613204565b601f0160209004906000526020600020908101906132039190613207565b5b50565b5b80821115613220576000816000905550600101613208565b5090565b6000604051905090565b600080fd5b600080fd5b600073ffffffffffffffffffffffffffffffffffffffff82169050919050565b600061326382613238565b9050919050565b61327381613258565b811461327e57600080fd5b50565b6000813590506132908161326a565b92915050565b6000602082840312156132ac576132ab61322e565b5b60006132ba84828501613281565b91505092915050565b60008115159050919050565b6132d8816132c3565b82525050565b60006020820190506132f360008301846132cf565b92915050565b600081519050919050565b600082825260208201905092915050565b6000819050602082019050919050565b61332e81613258565b82525050565b60006133408383613325565b60208301905092915050565b6000602082019050919050565b6000613364826132f9565b61336e8185613304565b935061337983613315565b8060005b838110156133aa5781516133918882613334565b975061339c8361334c565b92505060018101905061337d565b5085935050505092915050565b600060208201905081810360008301526133d18184613359565b905092915050565b6000819050919050565b6133ec816133d9565b82525050565b600060208201905061340760008301846133e3565b92915050565b600080fd5b600080fd5b6000601f19601f8301169050919050565b7f4e487b7100000000000000000000000000000000000000000000000000000000600052604160045260246000fd5b61346082613417565b810181811067ffffffffffffffff8211171561347f5761347e613428565b5b80604052505050565b6000613492613224565b905061349e8282613457565b919050565b600067ffffffffffffffff8211156134be576134bd613428565b5b6134c782613417565b9050602081019050919050565b82818337600083830152505050565b60006134f66134f1846134a3565b613488565b90508281526020810184848401111561351257613511613412565b5b61351d8482856134d4565b509392505050565b600082601f83011261353a5761353961340d565b5b813561354a8482602086016134e3565b91505092915050565b61355c816133d9565b811461356757600080fd5b50565b60008135905061357981613553565b92915050565b6002811061358c57600080fd5b50565b60008135905061359e8161357f565b92915050565b600080600080600080600060e0888a0312156135c3576135c261322e565b5b60006135d18a828b01613281565b975050602088013567ffffffffffffffff8111156135f2576135f1613233565b5b6135fe8a828b01613525565b965050604061360f8a828b0161356a565b95505060606136208a828b0161358f565b945050608088013567ffffffffffffffff81111561364157613640613233565b5b61364d8a828b01613525565b93505060a088013567ffffffffffffffff81111561366e5761366d613233565b5b61367a8a828b01613525565b92505060c088013567ffffffffffffffff81111561369b5761369a613233565b5b6136a78a828b01613525565b91505092959891949750929550565b600080604083850312156136cd576136cc61322e565b5b60006136db85828601613281565b92505060206136ec85828601613281565b9150509250929050565b600081519050919050565b600082825260208201905092915050565b60005b83811015613730578082015181840152602081019050613715565b60008484015250505050565b6000613747826136f6565b6137518185613701565b9350613761818560208601613712565b61376a81613417565b840191505092915050565b7f4e487b7100000000000000000000000000000000000000000000000000000000600052602160045260246000fd5b600281106137b5576137b4613775565b5b50565b60008190506137c6826137a4565b919050565b60006137d6826137b8565b9050919050565b6137e6816137cb565b82525050565b600060e0820190508181036000830152613806818a61373c565b905061381560208301896133e3565b61382260408301886137dd565b8181036060830152613834818761373c565b90508181036080830152613848818661373c565b905081810360a083015261385c818561373c565b905061386b60c08301846133e3565b98975050505050505050565b600080fd5b600080fd5b60008083601f8401126138975761389661340d565b5b8235905067ffffffffffffffff8111156138b4576138b3613877565b5b6020830191508360208202830111156138d0576138cf61387c565b5b9250929050565b6000806000604084860312156138f0576138ef61322e565b5b60006138fe86828701613281565b935050602084013567ffffffffffffffff81111561391f5761391e613233565b5b61392b86828701613881565b92509250509250925092565b61394081613258565b82525050565b600060208201905061395b6000830184613937565b92915050565b60008060008060008060c0878903121561397e5761397d61322e565b5b600087013567ffffffffffffffff81111561399c5761399b613233565b5b6139a889828a01613525565b96505060206139b989828a0161356a565b95505060406139ca89828a0161358f565b945050606087013567ffffffffffffffff8111156139eb576139ea613233565b5b6139f789828a01613525565b935050608087013567ffffffffffffffff811115613a1857613a17613233565b5b613a2489828a01613525565b92505060a087013567ffffffffffffffff811115613a4557613a44613233565b5b613a5189828a01613525565b9150509295509295509295565b7f4e487b7100000000000000000000000000000000000000000000000000000000600052603260045260246000fd5b7f4e487b7100000000000000000000000000000000000000000000000000000000600052601160045260246000fd5b6000613ac7826133d9565b9150613ad2836133d9565b9250828203905081811115613aea57613ae9613a8d565b5b92915050565b7f4e487b7100000000000000000000000000000000000000000000000000000000600052603160045260246000fd5b7f4e487b7100000000000000000000000000000000000000000000000000000000600052602260045260246000fd5b60006002820490506001821680613b6657607f821691505b602082108103613b7957613b78613b1f565b5b50919050565b60008190508160005260206000209050919050565b60006020601f8301049050919050565b600082821b905092915050565b600060088302613be17fffffffffffffffffffffffffffffffffffffffffffffffffffffffffffffffff82613ba4565b613beb8683613ba4565b95508019841693508086168417925050509392505050565b6000819050919050565b6000613c28613c23613c1e846133d9565b613c03565b6133d9565b9050919050565b6000819050919050565b613c4283613c0d565b613c56613c4e82613c2f565b848454613bb1565b825550505050565b600090565b613c6b613c5e565b613c76818484613c39565b505050565b5b81811015613c9a57613c8f600082613c63565b600181019050613c7c565b5050565b601f821115613cdf57613cb081613b7f565b613cb984613b94565b81016020851015613cc8578190505b613cdc613cd485613b94565b830182613c7b565b50505b505050565b600082821c905092915050565b6000613d0260001984600802613ce4565b1980831691505092915050565b6000613d1b8383613cf1565b9150826002028217905092915050565b613d34826136f6565b67ffffffffffffffff811115613d4d57613d4c613428565b5b613d578254613b4e565b613d62828285613c9e565b600060209050601f831160018114613d955760008415613d83578287015190505b613d8d8582613d0f565b865550613df5565b601f198416613da386613b7f565b60005b82811015613dcb57848901518255600182019150602085019450602081019050613da6565b86831015613de85784890151613de4601f891682613cf1565b8355505b6001600288020188555050505b505050505050565b600067ffffffffffffffff821115613e1857613e17613428565b5b602082029050602081019050919050565b600081519050613e388161326a565b92915050565b6000613e51613e4c84613dfd565b613488565b90508083825260208201905060208402830185811115613e7457613e7361387c565b5b835b81811015613e9d5780613e898882613e29565b845260208401935050602081019050613e76565b5050509392505050565b600082601f830112613ebc57613ebb61340d565b5b8151613ecc848260208601613e3e565b91505092915050565b600060208284031215613eeb57613eea61322e565b5b600082015167ffffffffffffffff811115613f0957613f08613233565b5b613f1584828501613ea7565b91505092915050565b6000613f31613f2c846134a3565b613488565b905082815260208101848484011115613f4d57613f4c613412565b5b613f58848285613712565b509392505050565b600082601f830112613f7557613f7461340d565b5b8151613f85848260208601613f1e565b91505092915050565b600081519050613f9d81613553565b92915050565b600081519050613fb28161357f565b92915050565b600080600080600080600060e0888a031215613fd757613fd661322e565b5b600088015167ffffffffffffffff811115613ff557613ff4613233565b5b6140018a828b01613f60565b97505060206140128a828b01613f8e565b96505060406140238a828b01613fa3565b955050606088015167ffffffffffffffff81111561404457614043613233565b5b6140508a828b01613f60565b945050608088015167ffffffffffffffff81111561407157614070613233565b5b61407d8a828b01613f60565b93505060a088015167ffffffffffffffff81111561409e5761409d613233565b5b6140aa8a828b01613f60565b92505060c06140bb8a828b01613f8e565b91505092959891949750929550565b60006140d5826133d9565b91507fffffffffffffffffffffffffffffffffffffffffffffffffffffffffffffffff820361410757614106613a8d565b5b60018201905091905056fea26469706673582212205ff1c7d2b8f9f67c82f3837b653263b055c7a65ac420741b3044063c6240cd0864736f6c634300081c0033",
  "linkReferences": {},
  "deployedLinkReferences": {}
}