{
  "_format": "hh-sol-artifact-1",
  "contractName": "CandidateDatabase",
  "sourceName": "contracts/CandidateDatabase.sol",
  "abi": [
    {
      "inputs": [],
      "name": "AdminManagement__AdminNotFound",
      "type": "error"
    },
    {
      "inputs": [],
      "name": "AdminManagement__AlreadyAdmin",
      "type": "error"
    },
    {
      "inputs": [],
      "name": "AdminManagement__InvalidAddress",
      "type": "error"
    },
    {
      "inputs": [],
      "name": "AdminManagement__NotAdmin",
      "type": "error"
    },
    {
      "inputs": [],
      "name": "AdminManagement__NotOwner",
      "type": "error"
    },
    {
      "inputs": [],
      "name": "CandidateDatabase__AlreadyRegistered",
      "type": "error"
    },
    {
      "inputs": [],
      "name": "CandidateDatabase__ImportFailed",
      "type": "error"
    },
    {
      "inputs": [],
      "name": "CandidateDatabase__InvalidAddress",
      "type": "error"
    },
    {
      "inputs": [],
      "name": "CandidateDatabase__NotEligible",
      "type": "error"
    },
    {
      "inputs": [],
      "name": "CandidateDatabase__NotRegistered",
      "type": "error"
    },
    {
      "anonymous": false,
      "inputs": [
        {
          "indexed": true,
          "internalType": "address",
          "name": "admin",
          "type": "address"
        },
        {
          "indexed": true,
          "internalType": "address",
          "name": "owner",
          "type": "address"
        }
      ],
      "name": "AdminAdded",
      "type": "event"
    },
    {
      "anonymous": false,
      "inputs": [
        {
          "indexed": true,
          "internalType": "address",
          "name": "candidate",
          "type": "address"
        },
        {
          "indexed": true,
          "internalType": "address",
          "name": "admin",
          "type": "address"
        }
      ],
      "name": "AdminAddedCandidate",
      "type": "event"
    },
    {
      "anonymous": false,
      "inputs": [
        {
          "indexed": true,
          "internalType": "address",
          "name": "admin",
          "type": "address"
        },
        {
          "indexed": true,
          "internalType": "address",
          "name": "owner",
          "type": "address"
        }
      ],
      "name": "AdminRemoved",
      "type": "event"
    },
    {
      "anonymous": false,
      "inputs": [
        {
          "indexed": true,
          "internalType": "address",
          "name": "candidate",
          "type": "address"
        },
        {
          "indexed": true,
          "internalType": "address",
          "name": "admin",
          "type": "address"
        }
      ],
      "name": "AdminRemovedCandidate",
      "type": "event"
    },
    {
      "anonymous": false,
      "inputs": [
        {
          "indexed": true,
          "internalType": "address",
          "name": "candidate",
          "type": "address"
        },
        {
          "indexed": true,
          "internalType": "address",
          "name": "admin",
          "type": "address"
        }
      ],
      "name": "AdminUpdatedCandidate",
      "type": "event"
    },
    {
      "anonymous": false,
      "inputs": [
        {
          "indexed": true,
          "internalType": "address",
          "name": "candidate",
          "type": "address"
        }
      ],
      "name": "CandidateDeleted",
      "type": "event"
    },
    {
      "anonymous": false,
      "inputs": [
        {
          "indexed": true,
          "internalType": "address",
          "name": "candidate",
          "type": "address"
        }
      ],
      "name": "CandidateRegistered",
      "type": "event"
    },
    {
      "anonymous": false,
      "inputs": [
        {
          "indexed": true,
          "internalType": "address",
          "name": "candidate",
          "type": "address"
        }
      ],
      "name": "CandidateUpdated",
      "type": "event"
    },
    {
      "anonymous": false,
      "inputs": [
        {
          "indexed": true,
          "internalType": "address",
          "name": "sourceContract",
          "type": "address"
        },
        {
          "indexed": false,
          "internalType": "uint256",
          "name": "candidatesImported",
          "type": "uint256"
        }
      ],
      "name": "CandidatesImported",
      "type": "event"
    },
    {
      "inputs": [
        {
          "internalType": "address",
          "name": "_adminAddress",
          "type": "address"
        }
      ],
      "name": "addAdmin",
      "outputs": [],
      "stateMutability": "nonpayable",
      "type": "function"
    },
    {
      "inputs": [
        {
          "internalType": "string",
          "name": "_name",
          "type": "string"
        },
        {
          "internalType": "uint256",
          "name": "_dateOfBirthEpoch",
          "type": "uint256"
        },
        {
          "internalType": "enum ICandidateDatabase.Gender",
          "name": "_gender",
          "type": "uint8"
        },
        {
          "internalType": "string",
          "name": "_presentAddress",
          "type": "string"
        },
        {
          "internalType": "string",
          "name": "_email",
          "type": "string"
        },
        {
          "internalType": "string",
          "name": "_qualifications",
          "type": "string"
        },
        {
          "internalType": "string",
          "name": "_manifesto",
          "type": "string"
        }
      ],
      "name": "addCandidate",
      "outputs": [],
      "stateMutability": "nonpayable",
      "type": "function"
    },
    {
      "inputs": [
        {
          "internalType": "address",
          "name": "_candidateAddress",
          "type": "address"
        },
        {
          "internalType": "string",
          "name": "_name",
          "type": "string"
        },
        {
          "internalType": "uint256",
          "name": "_dateOfBirthEpoch",
          "type": "uint256"
        },
        {
          "internalType": "enum ICandidateDatabase.Gender",
          "name": "_gender",
          "type": "uint8"
        },
        {
          "internalType": "string",
          "name": "_presentAddress",
          "type": "string"
        },
        {
          "internalType": "string",
          "name": "_email",
          "type": "string"
        },
        {
          "internalType": "string",
          "name": "_qualifications",
          "type": "string"
        },
        {
          "internalType": "string",
          "name": "_manifesto",
          "type": "string"
        }
      ],
      "name": "adminAddCandidate",
      "outputs": [],
      "stateMutability": "nonpayable",
      "type": "function"
    },
    {
      "inputs": [
        {
          "internalType": "address",
          "name": "_sourceContract",
          "type": "address"
        },
        {
          "internalType": "address[]",
          "name": "_candidateAddresses",
          "type": "address[]"
        }
      ],
      "name": "adminBatchImportCandidates",
      "outputs": [],
      "stateMutability": "nonpayable",
      "type": "function"
    },
    {
      "inputs": [
        {
          "internalType": "address",
          "name": "_sourceContract",
          "type": "address"
        }
      ],
      "name": "adminImportAllCandidates",
      "outputs": [],
      "stateMutability": "nonpayable",
      "type": "function"
    },
    {
      "inputs": [
        {
          "internalType": "address",
          "name": "_sourceContract",
          "type": "address"
        },
        {
          "internalType": "address",
          "name": "_candidateAddress",
          "type": "address"
        }
      ],
      "name": "adminImportCandidate",
      "outputs": [],
      "stateMutability": "nonpayable",
      "type": "function"
    },
    {
      "inputs": [
        {
          "internalType": "address",
          "name": "_candidateAddress",
          "type": "address"
        }
      ],
      "name": "adminRemoveCandidate",
      "outputs": [],
      "stateMutability": "nonpayable",
      "type": "function"
    },
    {
      "inputs": [
        {
          "internalType": "address",
          "name": "_candidateAddress",
          "type": "address"
        },
        {
          "internalType": "string",
          "name": "_name",
          "type": "string"
        },
        {
          "internalType": "uint256",
          "name": "_dateOfBirthEpoch",
          "type": "uint256"
        },
        {
          "internalType": "enum ICandidateDatabase.Gender",
          "name": "_gender",
          "type": "uint8"
        },
        {
          "internalType": "string",
          "name": "_presentAddress",
          "type": "string"
        },
        {
          "internalType": "string",
          "name": "_email",
          "type": "string"
        },
        {
          "internalType": "string",
          "name": "_qualifications",
          "type": "string"
        },
        {
          "internalType": "string",
          "name": "_manifesto",
          "type": "string"
        }
      ],
      "name": "adminUpdateCandidate",
      "outputs": [],
      "stateMutability": "nonpayable",
      "type": "function"
    },
    {
      "inputs": [],
      "name": "amIAdmin",
      "outputs": [
        {
          "internalType": "bool",
          "name": "",
          "type": "bool"
        }
      ],
      "stateMutability": "view",
      "type": "function"
    },
    {
      "inputs": [
        {
          "internalType": "uint256",
          "name": "_dateOfBirthEpoch",
          "type": "uint256"
        }
      ],
      "name": "calculateAge",
      "outputs": [
        {
          "internalType": "uint256",
          "name": "",
          "type": "uint256"
        }
      ],
      "stateMutability": "view",
      "type": "function"
    },
    {
      "inputs": [],
      "name": "deleteCandidate",
      "outputs": [],
      "stateMutability": "nonpayable",
      "type": "function"
    },
    {
      "inputs": [],
      "name": "getAdminCount",
      "outputs": [
        {
          "internalType": "uint256",
          "name": "",
          "type": "uint256"
        }
      ],
      "stateMutability": "view",
      "type": "function"
    },
    {
      "inputs": [],
      "name": "getAllAdmins",
      "outputs": [
        {
          "internalType": "address[]",
          "name": "",
          "type": "address[]"
        }
      ],
      "stateMutability": "view",
      "type": "function"
    },
    {
      "inputs": [],
      "name": "getAllCandidates",
      "outputs": [
        {
          "internalType": "address[]",
          "name": "",
          "type": "address[]"
        }
      ],
      "stateMutability": "view",
      "type": "function"
    },
    {
      "inputs": [],
      "name": "getCandidateCount",
      "outputs": [
        {
          "internalType": "uint256",
          "name": "count",
          "type": "uint256"
        }
      ],
      "stateMutability": "view",
      "type": "function"
    },
    {
      "inputs": [
        {
          "internalType": "address",
          "name": "_candidateAddress",
          "type": "address"
        }
      ],
      "name": "getCandidateDetails",
      "outputs": [
        {
          "internalType": "string",
          "name": "name",
          "type": "string"
        },
        {
          "internalType": "uint256",
          "name": "dateOfBirthEpoch",
          "type": "uint256"
        },
        {
          "internalType": "enum ICandidateDatabase.Gender",
          "name": "gender",
          "type": "uint8"
        },
        {
          "internalType": "string",
          "name": "presentAddress",
          "type": "string"
        },
        {
          "internalType": "string",
          "name": "email",
          "type": "string"
        },
        {
          "internalType": "string",
          "name": "qualifications",
          "type": "string"
        },
        {
          "internalType": "string",
          "name": "manifesto",
          "type": "string"
        },
        {
          "internalType": "uint256",
          "name": "registrationTimestamp",
          "type": "uint256"
        }
      ],
      "stateMutability": "view",
      "type": "function"
    },
    {
      "inputs": [
        {
          "internalType": "address",
          "name": "_candidateAddress",
          "type": "address"
        }
      ],
      "name": "getCandidateRegistrationStatus",
      "outputs": [
        {
          "internalType": "bool",
          "name": "isRegistered",
          "type": "bool"
        }
      ],
      "stateMutability": "view",
      "type": "function"
    },
    {
      "inputs": [],
      "name": "getMyAge",
      "outputs": [
        {
          "internalType": "uint256",
          "name": "",
          "type": "uint256"
        }
      ],
      "stateMutability": "view",
      "type": "function"
    },
    {
      "inputs": [],
      "name": "getMyDetails",
      "outputs": [
        {
          "internalType": "string",
          "name": "name",
          "type": "string"
        },
        {
          "internalType": "uint256",
          "name": "dateOfBirthEpoch",
          "type": "uint256"
        },
        {
          "internalType": "enum ICandidateDatabase.Gender",
          "name": "gender",
          "type": "uint8"
        },
        {
          "internalType": "string",
          "name": "presentAddress",
          "type": "string"
        },
        {
          "internalType": "string",
          "name": "email",
          "type": "string"
        },
        {
          "internalType": "string",
          "name": "qualifications",
          "type": "string"
        },
        {
          "internalType": "string",
          "name": "manifesto",
          "type": "string"
        },
        {
          "internalType": "uint256",
          "name": "registrationTimestamp",
          "type": "uint256"
        }
      ],
      "stateMutability": "view",
      "type": "function"
    },
    {
      "inputs": [],
      "name": "getMyRegistrationStatus",
      "outputs": [
        {
          "internalType": "bool",
          "name": "isRegistered",
          "type": "bool"
        }
      ],
      "stateMutability": "view",
      "type": "function"
    },
    {
      "inputs": [],
      "name": "getOwner",
      "outputs": [
        {
          "internalType": "address",
          "name": "",
          "type": "address"
        }
      ],
      "stateMutability": "view",
      "type": "function"
    },
    {
      "inputs": [
        {
          "internalType": "address",
          "name": "_address",
          "type": "address"
        }
      ],
      "name": "isAdmin",
      "outputs": [
        {
          "internalType": "bool",
          "name": "",
          "type": "bool"
        }
      ],
      "stateMutability": "view",
      "type": "function"
    },
    {
      "inputs": [
        {
          "internalType": "address",
          "name": "_adminAddress",
          "type": "address"
        }
      ],
      "name": "removeAdmin",
      "outputs": [],
      "stateMutability": "nonpayable",
      "type": "function"
    },
    {
      "inputs": [
        {
          "internalType": "string",
          "name": "_name",
          "type": "string"
        },
        {
          "internalType": "uint256",
          "name": "_dateOfBirthEpoch",
          "type": "uint256"
        },
        {
          "internalType": "enum ICandidateDatabase.Gender",
          "name": "_gender",
          "type": "uint8"
        },
        {
          "internalType": "string",
          "name": "_presentAddress",
          "type": "string"
        },
        {
          "internalType": "string",
          "name": "_email",
          "type": "string"
        },
        {
          "internalType": "string",
          "name": "_qualifications",
          "type": "string"
        },
        {
          "internalType": "string",
          "name": "_manifesto",
          "type": "string"
        }
      ],
      "name": "updateCandidate",
      "outputs": [],
      "stateMutability": "nonpayable",
      "type": "function"
    }
  ],
  "bytecode": "0x60a060405234801561001057600080fd5b503373ffffffffffffffffffffffffffffffffffffffff1660808173ffffffffffffffffffffffffffffffffffffffff168152505060805161482f61009f6000396000818161045d0152818161079601528181610d6b0152818161129a01528181611dc90152818161204e0152818161243f015281816129c801528181612a0b015261312f015261482f6000f3fe608060405234801561001057600080fd5b50600436106101585760003560e01c806372bd364e116100c3578063934f1cca1161007c578063934f1cca146103c157806399e476e7146103df578063a417c52c146103fb578063cdd0e1a714610405578063e9523c9714610421578063fd270ed61461043f57610158565b806372bd364e146102ff5780637effaef11461031b57806384699ad91461033757806385cc8bfb14610355578063893d20e8146103855780638b7bf3eb146103a357610158565b806346b7cd631161011557806346b7cd631461023a5780634eddfa8a1461025657806353ac5dc3146102725780635b409d09146102a957806366d4c506146102c757806370480275146102e357610158565b80631785f53c1461015d57806324d7806c146101795780632e6997fe146101a95780632f0acbe1146101c757806330a56347146101f7578063431bbb7e14610215575b600080fd5b6101776004803603810190610172919061383b565b61045b565b005b610193600480360381019061018e919061383b565b610792565b6040516101a09190613883565b60405180910390f35b6101b161083d565b6040516101be919061395c565b60405180910390f35b6101e160048036038101906101dc919061383b565b6108cb565b6040516101ee9190613883565b60405180910390f35b6101ff610919565b60405161020c9190613997565b60405180910390f35b61021d610926565b604051610231989796959493929190613ab9565b60405180910390f35b610254600480360381019061024f919061383b565b610d69565b005b610270600480360381019061026b9190613b5a565b611298565b005b61028c6004803603810190610287919061383b565b611741565b6040516102a0989796959493929190613ab9565b60405180910390f35b6102b1611b85565b6040516102be9190613883565b60405180910390f35b6102e160048036038101906102dc9190613d20565b611bd1565b005b6102fd60048036038101906102f8919061383b565b611dc7565b005b6103196004803603810190610314919061383b565b61204c565b005b61033560048036038101906103309190613eae565b61243d565b005b61033f6128d3565b60405161034c9190613997565b60405180910390f35b61036f600480360381019061036a9190613f0e565b6129a0565b60405161037c9190613997565b60405180910390f35b61038d6129c4565b60405161039a9190613f4a565b60405180910390f35b6103ab6129ec565b6040516103b89190613997565b60405180910390f35b6103c96129f9565b6040516103d69190613883565b60405180910390f35b6103f960048036038101906103f49190613f65565b612a09565b005b610403612e2a565b005b61041f600480360381019061041a9190613f65565b61312d565b005b610429613417565b604051610436919061395c565b60405180910390f35b61045960048036038101906104549190613d20565b6134a5565b005b7f000000000000000000000000000000000000000000000000000000000000000073ffffffffffffffffffffffffffffffffffffffff163373ffffffffffffffffffffffffffffffffffffffff16146104e0576040517fbe2ac67400000000000000000000000000000000000000000000000000000000815260040160405180910390fd5b6000808273ffffffffffffffffffffffffffffffffffffffff1673ffffffffffffffffffffffffffffffffffffffff16815260200190815260200160002060009054906101000a900460ff16610562576040517f256d404300000000000000000000000000000000000000000000000000000000815260040160405180910390fd5b6000808273ffffffffffffffffffffffffffffffffffffffff1673ffffffffffffffffffffffffffffffffffffffff16815260200190815260200160002060006101000a81549060ff02191690556000600180549050905060005b81811015610733578273ffffffffffffffffffffffffffffffffffffffff16600182815481106105f0576105ef6140a7565b5b9060005260206000200160009054906101000a900473ffffffffffffffffffffffffffffffffffffffff1673ffffffffffffffffffffffffffffffffffffffff160361072857600180836106449190614105565b81548110610655576106546140a7565b5b9060005260206000200160009054906101000a900473ffffffffffffffffffffffffffffffffffffffff1660018281548110610694576106936140a7565b5b9060005260206000200160006101000a81548173ffffffffffffffffffffffffffffffffffffffff021916908373ffffffffffffffffffffffffffffffffffffffff16021790555060018054806106ee576106ed614139565b5b6001900381819060005260206000200160006101000a81549073ffffffffffffffffffffffffffffffffffffffff02191690559055610733565b8060010190506105bd565b503373ffffffffffffffffffffffffffffffffffffffff168273ffffffffffffffffffffffffffffffffffffffff167fdb9d5d31320daf5bc7181d565b6da4d12e30f0f4d5aa324a992426c14a1d19ce60405160405180910390a35050565b60007f000000000000000000000000000000000000000000000000000000000000000073ffffffffffffffffffffffffffffffffffffffff168273ffffffffffffffffffffffffffffffffffffffff16148061083657506000808373ffffffffffffffffffffffffffffffffffffffff1673ffffffffffffffffffffffffffffffffffffffff16815260200190815260200160002060009054906101000a900460ff165b9050919050565b606060038054806020026020016040519081016040528092919081815260200182805480156108c157602002820191906000526020600020905b8160009054906101000a900473ffffffffffffffffffffffffffffffffffffffff1673ffffffffffffffffffffffffffffffffffffffff1681526020019060010190808311610877575b5050505050905090565b600080600260008473ffffffffffffffffffffffffffffffffffffffff1673ffffffffffffffffffffffffffffffffffffffff16815260200190815260200160002060070154119050919050565b6000600380549050905090565b6060600080606080606080600080600260003373ffffffffffffffffffffffffffffffffffffffff1673ffffffffffffffffffffffffffffffffffffffff16815260200190815260200160002060070154036109ae576040517fc26f0ffd00000000000000000000000000000000000000000000000000000000815260040160405180910390fd5b6000600260003373ffffffffffffffffffffffffffffffffffffffff1673ffffffffffffffffffffffffffffffffffffffff16815260200190815260200160002060405180610100016040529081600082018054610a0b90614197565b80601f0160208091040260200160405190810160405280929190818152602001828054610a3790614197565b8015610a845780601f10610a5957610100808354040283529160200191610a84565b820191906000526020600020905b815481529060010190602001808311610a6757829003601f168201915b50505050508152602001600182015481526020016002820160009054906101000a900460ff166001811115610abc57610abb613a42565b5b6001811115610ace57610acd613a42565b5b8152602001600382018054610ae290614197565b80601f0160208091040260200160405190810160405280929190818152602001828054610b0e90614197565b8015610b5b5780601f10610b3057610100808354040283529160200191610b5b565b820191906000526020600020905b815481529060010190602001808311610b3e57829003601f168201915b50505050508152602001600482018054610b7490614197565b80601f0160208091040260200160405190810160405280929190818152602001828054610ba090614197565b8015610bed5780601f10610bc257610100808354040283529160200191610bed565b820191906000526020600020905b815481529060010190602001808311610bd057829003601f168201915b50505050508152602001600582018054610c0690614197565b80601f0160208091040260200160405190810160405280929190818152602001828054610c3290614197565b8015610c7f5780601f10610c5457610100808354040283529160200191610c7f565b820191906000526020600020905b815481529060010190602001808311610c6257829003601f168201915b50505050508152602001600682018054610c9890614197565b80601f0160208091040260200160405190810160405280929190818152602001828054610cc490614197565b8015610d115780601f10610ce657610100808354040283529160200191610d11565b820191906000526020600020905b815481529060010190602001808311610cf457829003601f168201915b505050505081526020016007820154815250509050806000015181602001518260400151836060015184608001518560a001518660c001518760e0015198509850985098509850985098509850509091929394959697565b7f000000000000000000000000000000000000000000000000000000000000000073ffffffffffffffffffffffffffffffffffffffff163373ffffffffffffffffffffffffffffffffffffffff1614158015610e0e57506000803373ffffffffffffffffffffffffffffffffffffffff1673ffffffffffffffffffffffffffffffffffffffff16815260200190815260200160002060009054906101000a900460ff16155b15610e45576040517f87a8a82e00000000000000000000000000000000000000000000000000000000815260040160405180910390fd5b600081905060608173ffffffffffffffffffffffffffffffffffffffff16632e6997fe6040518163ffffffff1660e01b8152600401600060405180830381865afa925050508015610eb957506040513d6000823e3d601f19601f82011682018060405250810190610eb691906142a0565b60015b610eef576040517fb9c861f000000000000000000000000000000000000000000000000000000000815260040160405180910390fd5b809150506000808251905060005b81811015611242576000848281518110610f1a57610f196140a7565b5b602002602001015190506000600260008373ffffffffffffffffffffffffffffffffffffffff1673ffffffffffffffffffffffffffffffffffffffff168152602001908152602001600020600701541115610f7b578160010191505061123d565b8573ffffffffffffffffffffffffffffffffffffffff166353ac5dc3826040518263ffffffff1660e01b8152600401610fb49190613f4a565b600060405180830381865afa925050508015610ff357506040513d6000823e3d601f19601f82011682018060405250810190610ff09190614383565b60015b611003578160010191505061123d565b60006301e1338088426110169190614105565b61102091906144f4565b90506012811015611040578a6001019a505050505050505050505061123d565b6040518061010001604052808a815260200189815260200188600181111561106b5761106a613a42565b5b815260200187815260200186815260200185815260200184815260200183815250600260008c73ffffffffffffffffffffffffffffffffffffffff1673ffffffffffffffffffffffffffffffffffffffff16815260200190815260200160002060008201518160000190816110e091906146d1565b506020820151816001015560408201518160020160006101000a81548160ff0219169083600181111561111657611115613a42565b5b0217905550606082015181600301908161113091906146d1565b50608082015181600401908161114691906146d1565b5060a082015181600501908161115c91906146d1565b5060c082015181600601908161117291906146d1565b5060e0820151816007015590505060038a9080600181540180825580915050600190039060005260206000200160009091909190916101000a81548173ffffffffffffffffffffffffffffffffffffffff021916908373ffffffffffffffffffffffffffffffffffffffff1602179055508973ffffffffffffffffffffffffffffffffffffffff167fa0ac4f59dabb0ddc4b8b883adda9e055e02c796b2cde2ed80fdb11a38f77e5c960405160405180910390a28c6001019c508a6001019a50505050505050505050505b610efd565b508473ffffffffffffffffffffffffffffffffffffffff167f7b11f9707fd616002d9c0f0983f21e0021088827cc3a7fc4f36175ecb4782d51836040516112899190613997565b60405180910390a25050505050565b7f000000000000000000000000000000000000000000000000000000000000000073ffffffffffffffffffffffffffffffffffffffff163373ffffffffffffffffffffffffffffffffffffffff161415801561133d57506000803373ffffffffffffffffffffffffffffffffffffffff1673ffffffffffffffffffffffffffffffffffffffff16815260200190815260200160002060009054906101000a900460ff16155b15611374576040517f87a8a82e00000000000000000000000000000000000000000000000000000000815260040160405180910390fd5b6000600260008373ffffffffffffffffffffffffffffffffffffffff1673ffffffffffffffffffffffffffffffffffffffff1681526020019081526020016000206007015411156113f1576040517fba6a3fb800000000000000000000000000000000000000000000000000000000815260040160405180910390fd5b60008290508073ffffffffffffffffffffffffffffffffffffffff166353ac5dc3836040518263ffffffff1660e01b815260040161142f9190613f4a565b600060405180830381865afa92505050801561146e57506040513d6000823e3d601f19601f8201168201806040525081019061146b9190614383565b60015b6114a4576040517fb9c861f000000000000000000000000000000000000000000000000000000000815260040160405180910390fd5b60006301e1338088426114b79190614105565b6114c191906144f4565b905060128110156114fe576040517fc84eb1fe00000000000000000000000000000000000000000000000000000000815260040160405180910390fd5b6040518061010001604052808a815260200189815260200188600181111561152957611528613a42565b5b815260200187815260200186815260200185815260200184815260200183815250600260008d73ffffffffffffffffffffffffffffffffffffffff1673ffffffffffffffffffffffffffffffffffffffff168152602001908152602001600020600082015181600001908161159e91906146d1565b506020820151816001015560408201518160020160006101000a81548160ff021916908360018111156115d4576115d3613a42565b5b021790555060608201518160030190816115ee91906146d1565b50608082015181600401908161160491906146d1565b5060a082015181600501908161161a91906146d1565b5060c082015181600601908161163091906146d1565b5060e0820151816007015590505060038b9080600181540180825580915050600190039060005260206000200160009091909190916101000a81548173ffffffffffffffffffffffffffffffffffffffff021916908373ffffffffffffffffffffffffffffffffffffffff1602179055508a73ffffffffffffffffffffffffffffffffffffffff167fa0ac4f59dabb0ddc4b8b883adda9e055e02c796b2cde2ed80fdb11a38f77e5c960405160405180910390a28b73ffffffffffffffffffffffffffffffffffffffff167f7b11f9707fd616002d9c0f0983f21e0021088827cc3a7fc4f36175ecb4782d51600160405161172b91906147de565b60405180910390a2505050505050505050505050565b6060600080606080606080600080600260008b73ffffffffffffffffffffffffffffffffffffffff1673ffffffffffffffffffffffffffffffffffffffff16815260200190815260200160002060070154036117c9576040517fc26f0ffd00000000000000000000000000000000000000000000000000000000815260040160405180910390fd5b6000600260008b73ffffffffffffffffffffffffffffffffffffffff1673ffffffffffffffffffffffffffffffffffffffff1681526020019081526020016000206040518061010001604052908160008201805461182690614197565b80601f016020809104026020016040519081016040528092919081815260200182805461185290614197565b801561189f5780601f106118745761010080835404028352916020019161189f565b820191906000526020600020905b81548152906001019060200180831161188257829003601f168201915b50505050508152602001600182015481526020016002820160009054906101000a900460ff1660018111156118d7576118d6613a42565b5b60018111156118e9576118e8613a42565b5b81526020016003820180546118fd90614197565b80601f016020809104026020016040519081016040528092919081815260200182805461192990614197565b80156119765780601f1061194b57610100808354040283529160200191611976565b820191906000526020600020905b81548152906001019060200180831161195957829003601f168201915b5050505050815260200160048201805461198f90614197565b80601f01602080910402602001604051908101604052809291908181526020018280546119bb90614197565b8015611a085780601f106119dd57610100808354040283529160200191611a08565b820191906000526020600020905b8154815290600101906020018083116119eb57829003601f168201915b50505050508152602001600582018054611a2190614197565b80601f0160208091040260200160405190810160405280929190818152602001828054611a4d90614197565b8015611a9a5780601f10611a6f57610100808354040283529160200191611a9a565b820191906000526020600020905b815481529060010190602001808311611a7d57829003601f168201915b50505050508152602001600682018054611ab390614197565b80601f0160208091040260200160405190810160405280929190818152602001828054611adf90614197565b8015611b2c5780601f10611b0157610100808354040283529160200191611b2c565b820191906000526020600020905b815481529060010190602001808311611b0f57829003601f168201915b505050505081526020016007820154815250509050806000015181602001518260400151836060015184608001518560a001518660c001518760e001519850985098509850985098509850985050919395975091939597565b600080600260003373ffffffffffffffffffffffffffffffffffffffff1673ffffffffffffffffffffffffffffffffffffffff1681526020019081526020016000206007015411905090565b6000600260003373ffffffffffffffffffffffffffffffffffffffff1673ffffffffffffffffffffffffffffffffffffffff1681526020019081526020016000206007015403611c4d576040517fc26f0ffd00000000000000000000000000000000000000000000000000000000815260040160405180910390fd5b60006301e133808742611c609190614105565b611c6a91906144f4565b90506012811015611ca7576040517fc84eb1fe00000000000000000000000000000000000000000000000000000000815260040160405180910390fd5b6000600260003373ffffffffffffffffffffffffffffffffffffffff1673ffffffffffffffffffffffffffffffffffffffff168152602001908152602001600020905088816000019081611cfb91906146d1565b50878160010181905550868160020160006101000a81548160ff02191690836001811115611d2c57611d2b613a42565b5b021790555085816003019081611d4291906146d1565b5084816004019081611d5491906146d1565b5083816005019081611d6691906146d1565b5082816006019081611d7891906146d1565b503373ffffffffffffffffffffffffffffffffffffffff167f5c1cd16d0c55845505cf06834fc8d64b03a2fb0c2ffea81be006fd3fe764ede460405160405180910390a2505050505050505050565b7f000000000000000000000000000000000000000000000000000000000000000073ffffffffffffffffffffffffffffffffffffffff163373ffffffffffffffffffffffffffffffffffffffff1614611e4c576040517fbe2ac67400000000000000000000000000000000000000000000000000000000815260040160405180910390fd5b600073ffffffffffffffffffffffffffffffffffffffff168173ffffffffffffffffffffffffffffffffffffffff1603611eb2576040517fd9fa4b4700000000000000000000000000000000000000000000000000000000815260040160405180910390fd5b6000808273ffffffffffffffffffffffffffffffffffffffff1673ffffffffffffffffffffffffffffffffffffffff16815260200190815260200160002060009054906101000a900460ff1615611f35576040517f4e16b38200000000000000000000000000000000000000000000000000000000815260040160405180910390fd5b60016000808373ffffffffffffffffffffffffffffffffffffffff1673ffffffffffffffffffffffffffffffffffffffff16815260200190815260200160002060006101000a81548160ff0219169083151502179055506001819080600181540180825580915050600190039060005260206000200160009091909190916101000a81548173ffffffffffffffffffffffffffffffffffffffff021916908373ffffffffffffffffffffffffffffffffffffffff1602179055503373ffffffffffffffffffffffffffffffffffffffff168173ffffffffffffffffffffffffffffffffffffffff167fbf3f493c772c8c283fd124432c2d0f539ab343faa04258fe88e52912d36b102b60405160405180910390a350565b7f000000000000000000000000000000000000000000000000000000000000000073ffffffffffffffffffffffffffffffffffffffff163373ffffffffffffffffffffffffffffffffffffffff16141580156120f157506000803373ffffffffffffffffffffffffffffffffffffffff1673ffffffffffffffffffffffffffffffffffffffff16815260200190815260200160002060009054906101000a900460ff16155b15612128576040517f87a8a82e00000000000000000000000000000000000000000000000000000000815260040160405180910390fd5b6000600260008373ffffffffffffffffffffffffffffffffffffffff1673ffffffffffffffffffffffffffffffffffffffff16815260200190815260200160002060070154036121a4576040517fc26f0ffd00000000000000000000000000000000000000000000000000000000815260040160405180910390fd5b600260008273ffffffffffffffffffffffffffffffffffffffff1673ffffffffffffffffffffffffffffffffffffffff168152602001908152602001600020600080820160006121f4919061376c565b60018201600090556002820160006101000a81549060ff0219169055600382016000612220919061376c565b600482016000612230919061376c565b600582016000612240919061376c565b600682016000612250919061376c565b600782016000905550506000600380549050905060005b818110156123de578273ffffffffffffffffffffffffffffffffffffffff166003828154811061229a576122996140a7565b5b9060005260206000200160009054906101000a900473ffffffffffffffffffffffffffffffffffffffff1673ffffffffffffffffffffffffffffffffffffffff16036123d35760036001836122ef9190614105565b81548110612300576122ff6140a7565b5b9060005260206000200160009054906101000a900473ffffffffffffffffffffffffffffffffffffffff166003828154811061233f5761233e6140a7565b5b9060005260206000200160006101000a81548173ffffffffffffffffffffffffffffffffffffffff021916908373ffffffffffffffffffffffffffffffffffffffff160217905550600380548061239957612398614139565b5b6001900381819060005260206000200160006101000a81549073ffffffffffffffffffffffffffffffffffffffff021916905590556123de565b806001019050612267565b503373ffffffffffffffffffffffffffffffffffffffff168273ffffffffffffffffffffffffffffffffffffffff167f43204b0e5a9d6247fc2ce4f9b08b3aa78f102cbda5bdd93a132a18a676f1134060405160405180910390a35050565b7f000000000000000000000000000000000000000000000000000000000000000073ffffffffffffffffffffffffffffffffffffffff163373ffffffffffffffffffffffffffffffffffffffff16141580156124e257506000803373ffffffffffffffffffffffffffffffffffffffff1673ffffffffffffffffffffffffffffffffffffffff16815260200190815260200160002060009054906101000a900460ff16155b15612519576040517f87a8a82e00000000000000000000000000000000000000000000000000000000815260040160405180910390fd5b600083905060008084849050905060005b8181101561287c576000868683818110612547576125466140a7565b5b905060200201602081019061255c919061383b565b90506000600260008373ffffffffffffffffffffffffffffffffffffffff1673ffffffffffffffffffffffffffffffffffffffff1681526020019081526020016000206007015411156125b55781600101915050612877565b8473ffffffffffffffffffffffffffffffffffffffff166353ac5dc3826040518263ffffffff1660e01b81526004016125ee9190613f4a565b600060405180830381865afa92505050801561262d57506040513d6000823e3d601f19601f8201168201806040525081019061262a9190614383565b60015b61263d5781600101915050612877565b60006301e1338088426126509190614105565b61265a91906144f4565b9050601281101561267a578a6001019a5050505050505050505050612877565b6040518061010001604052808a81526020018981526020018860018111156126a5576126a4613a42565b5b815260200187815260200186815260200185815260200184815260200183815250600260008c73ffffffffffffffffffffffffffffffffffffffff1673ffffffffffffffffffffffffffffffffffffffff168152602001908152602001600020600082015181600001908161271a91906146d1565b506020820151816001015560408201518160020160006101000a81548160ff021916908360018111156127505761274f613a42565b5b0217905550606082015181600301908161276a91906146d1565b50608082015181600401908161278091906146d1565b5060a082015181600501908161279691906146d1565b5060c08201518160060190816127ac91906146d1565b5060e0820151816007015590505060038a9080600181540180825580915050600190039060005260206000200160009091909190916101000a81548173ffffffffffffffffffffffffffffffffffffffff021916908373ffffffffffffffffffffffffffffffffffffffff1602179055508973ffffffffffffffffffffffffffffffffffffffff167fa0ac4f59dabb0ddc4b8b883adda9e055e02c796b2cde2ed80fdb11a38f77e5c960405160405180910390a28c6001019c508a6001019a50505050505050505050505b61252a565b508573ffffffffffffffffffffffffffffffffffffffff167f7b11f9707fd616002d9c0f0983f21e0021088827cc3a7fc4f36175ecb4782d51836040516128c39190613997565b60405180910390a2505050505050565b600080600260003373ffffffffffffffffffffffffffffffffffffffff1673ffffffffffffffffffffffffffffffffffffffff1681526020019081526020016000206007015403612950576040517fc26f0ffd00000000000000000000000000000000000000000000000000000000815260040160405180910390fd5b61299b600260003373ffffffffffffffffffffffffffffffffffffffff1673ffffffffffffffffffffffffffffffffffffffff168152602001908152602001600020600101546129a0565b905090565b60006301e1338082426129b39190614105565b6129bd91906144f4565b9050919050565b60007f0000000000000000000000000000000000000000000000000000000000000000905090565b6000600180549050905090565b6000612a0433610792565b905090565b7f000000000000000000000000000000000000000000000000000000000000000073ffffffffffffffffffffffffffffffffffffffff163373ffffffffffffffffffffffffffffffffffffffff1614158015612aae57506000803373ffffffffffffffffffffffffffffffffffffffff1673ffffffffffffffffffffffffffffffffffffffff16815260200190815260200160002060009054906101000a900460ff16155b15612ae5576040517f87a8a82e00000000000000000000000000000000000000000000000000000000815260040160405180910390fd5b600073ffffffffffffffffffffffffffffffffffffffff168873ffffffffffffffffffffffffffffffffffffffff1603612b4b576040517fab820aca00000000000000000000000000000000000000000000000000000000815260040160405180910390fd5b60006301e133808742612b5e9190614105565b612b6891906144f4565b90506012811015612ba5576040517fc84eb1fe00000000000000000000000000000000000000000000000000000000815260040160405180910390fd5b6000600260008b73ffffffffffffffffffffffffffffffffffffffff1673ffffffffffffffffffffffffffffffffffffffff168152602001908152602001600020600701541115612c22576040517fba6a3fb800000000000000000000000000000000000000000000000000000000815260040160405180910390fd5b604051806101000160405280898152602001888152602001876001811115612c4d57612c4c613a42565b5b815260200186815260200185815260200184815260200183815260200142815250600260008b73ffffffffffffffffffffffffffffffffffffffff1673ffffffffffffffffffffffffffffffffffffffff1681526020019081526020016000206000820151816000019081612cc291906146d1565b506020820151816001015560408201518160020160006101000a81548160ff02191690836001811115612cf857612cf7613a42565b5b02179055506060820151816003019081612d1291906146d1565b506080820151816004019081612d2891906146d1565b5060a0820151816005019081612d3e91906146d1565b5060c0820151816006019081612d5491906146d1565b5060e082015181600701559050506003899080600181540180825580915050600190039060005260206000200160009091909190916101000a81548173ffffffffffffffffffffffffffffffffffffffff021916908373ffffffffffffffffffffffffffffffffffffffff1602179055503373ffffffffffffffffffffffffffffffffffffffff168973ffffffffffffffffffffffffffffffffffffffff167fbae38c103fcb399c54b7f4938cbeb7260b54380334fd0f5365f5eecde90d759a60405160405180910390a3505050505050505050565b6000600260003373ffffffffffffffffffffffffffffffffffffffff1673ffffffffffffffffffffffffffffffffffffffff1681526020019081526020016000206007015403612ea6576040517fc26f0ffd00000000000000000000000000000000000000000000000000000000815260040160405180910390fd5b6000339050600260008273ffffffffffffffffffffffffffffffffffffffff1673ffffffffffffffffffffffffffffffffffffffff16815260200190815260200160002060008082016000612efb919061376c565b60018201600090556002820160006101000a81549060ff0219169055600382016000612f27919061376c565b600482016000612f37919061376c565b600582016000612f47919061376c565b600682016000612f57919061376c565b600782016000905550506000600380549050905060005b818110156130e5578273ffffffffffffffffffffffffffffffffffffffff1660038281548110612fa157612fa06140a7565b5b9060005260206000200160009054906101000a900473ffffffffffffffffffffffffffffffffffffffff1673ffffffffffffffffffffffffffffffffffffffff16036130da576003600183612ff69190614105565b81548110613007576130066140a7565b5b9060005260206000200160009054906101000a900473ffffffffffffffffffffffffffffffffffffffff1660038281548110613046576130456140a7565b5b9060005260206000200160006101000a81548173ffffffffffffffffffffffffffffffffffffffff021916908373ffffffffffffffffffffffffffffffffffffffff16021790555060038054806130a05761309f614139565b5b6001900381819060005260206000200160006101000a81549073ffffffffffffffffffffffffffffffffffffffff021916905590556130e5565b806001019050612f6e565b508173ffffffffffffffffffffffffffffffffffffffff167f6fe1c8a36bbf04217ace8c02e2469521bb21107f6f54ae5213ab312b8ae1bb6f60405160405180910390a25050565b7f000000000000000000000000000000000000000000000000000000000000000073ffffffffffffffffffffffffffffffffffffffff163373ffffffffffffffffffffffffffffffffffffffff16141580156131d257506000803373ffffffffffffffffffffffffffffffffffffffff1673ffffffffffffffffffffffffffffffffffffffff16815260200190815260200160002060009054906101000a900460ff16155b15613209576040517f87a8a82e00000000000000000000000000000000000000000000000000000000815260040160405180910390fd5b6000600260008a73ffffffffffffffffffffffffffffffffffffffff1673ffffffffffffffffffffffffffffffffffffffff1681526020019081526020016000206007015403613285576040517fc26f0ffd00000000000000000000000000000000000000000000000000000000815260040160405180910390fd5b60006301e1338087426132989190614105565b6132a291906144f4565b905060128110156132df576040517fc84eb1fe00000000000000000000000000000000000000000000000000000000815260040160405180910390fd5b6000600260008b73ffffffffffffffffffffffffffffffffffffffff1673ffffffffffffffffffffffffffffffffffffffff16815260200190815260200160002090508881600001908161333391906146d1565b50878160010181905550868160020160006101000a81548160ff0219169083600181111561336457613363613a42565b5b02179055508581600301908161337a91906146d1565b508481600401908161338c91906146d1565b508381600501908161339e91906146d1565b50828160060190816133b091906146d1565b503373ffffffffffffffffffffffffffffffffffffffff168a73ffffffffffffffffffffffffffffffffffffffff167f9a558f778a9c36163180e5c4b2d6f3e7b43f255a529c2606e3ec5ac5b5214e5060405160405180910390a350505050505050505050565b6060600180548060200260200160405190810160405280929190818152602001828054801561349b57602002820191906000526020600020905b8160009054906101000a900473ffffffffffffffffffffffffffffffffffffffff1673ffffffffffffffffffffffffffffffffffffffff1681526020019060010190808311613451575b5050505050905090565b60006301e1338087426134b89190614105565b6134c291906144f4565b905060128110156134ff576040517fc84eb1fe00000000000000000000000000000000000000000000000000000000815260040160405180910390fd5b6000600260003373ffffffffffffffffffffffffffffffffffffffff1673ffffffffffffffffffffffffffffffffffffffff16815260200190815260200160002060070154111561357c576040517fba6a3fb800000000000000000000000000000000000000000000000000000000815260040160405180910390fd5b6040518061010001604052808981526020018881526020018760018111156135a7576135a6613a42565b5b815260200186815260200185815260200184815260200183815260200142815250600260003373ffffffffffffffffffffffffffffffffffffffff1673ffffffffffffffffffffffffffffffffffffffff168152602001908152602001600020600082015181600001908161361c91906146d1565b506020820151816001015560408201518160020160006101000a81548160ff0219169083600181111561365257613651613a42565b5b0217905550606082015181600301908161366c91906146d1565b50608082015181600401908161368291906146d1565b5060a082015181600501908161369891906146d1565b5060c08201518160060190816136ae91906146d1565b5060e082015181600701559050506003339080600181540180825580915050600190039060005260206000200160009091909190916101000a81548173ffffffffffffffffffffffffffffffffffffffff021916908373ffffffffffffffffffffffffffffffffffffffff1602179055503373ffffffffffffffffffffffffffffffffffffffff167fa0ac4f59dabb0ddc4b8b883adda9e055e02c796b2cde2ed80fdb11a38f77e5c960405160405180910390a25050505050505050565b50805461377890614197565b6000825580601f1061378a57506137a9565b601f0160209004906000526020600020908101906137a891906137ac565b5b50565b5b808211156137c55760008160009055506001016137ad565b5090565b6000604051905090565b600080fd5b600080fd5b600073ffffffffffffffffffffffffffffffffffffffff82169050919050565b6000613808826137dd565b9050919050565b613818816137fd565b811461382357600080fd5b50565b6000813590506138358161380f565b92915050565b600060208284031215613851576138506137d3565b5b600061385f84828501613826565b91505092915050565b60008115159050919050565b61387d81613868565b82525050565b60006020820190506138986000830184613874565b92915050565b600081519050919050565b600082825260208201905092915050565b6000819050602082019050919050565b6138d3816137fd565b82525050565b60006138e583836138ca565b60208301905092915050565b6000602082019050919050565b60006139098261389e565b61391381856138a9565b935061391e836138ba565b8060005b8381101561394f57815161393688826138d9565b9750613941836138f1565b925050600181019050613922565b5085935050505092915050565b6000602082019050818103600083015261397681846138fe565b905092915050565b6000819050919050565b6139918161397e565b82525050565b60006020820190506139ac6000830184613988565b92915050565b600081519050919050565b600082825260208201905092915050565b60005b838110156139ec5780820151818401526020810190506139d1565b60008484015250505050565b6000601f19601f8301169050919050565b6000613a14826139b2565b613a1e81856139bd565b9350613a2e8185602086016139ce565b613a37816139f8565b840191505092915050565b7f4e487b7100000000000000000000000000000000000000000000000000000000600052602160045260246000fd5b60028110613a8257613a81613a42565b5b50565b6000819050613a9382613a71565b919050565b6000613aa382613a85565b9050919050565b613ab381613a98565b82525050565b6000610100820190508181036000830152613ad4818b613a09565b9050613ae3602083018a613988565b613af06040830189613aaa565b8181036060830152613b028188613a09565b90508181036080830152613b168187613a09565b905081810360a0830152613b2a8186613a09565b905081810360c0830152613b3e8185613a09565b9050613b4d60e0830184613988565b9998505050505050505050565b60008060408385031215613b7157613b706137d3565b5b6000613b7f85828601613826565b9250506020613b9085828601613826565b9150509250929050565b600080fd5b600080fd5b7f4e487b7100000000000000000000000000000000000000000000000000000000600052604160045260246000fd5b613bdc826139f8565b810181811067ffffffffffffffff82111715613bfb57613bfa613ba4565b5b80604052505050565b6000613c0e6137c9565b9050613c1a8282613bd3565b919050565b600067ffffffffffffffff821115613c3a57613c39613ba4565b5b613c43826139f8565b9050602081019050919050565b82818337600083830152505050565b6000613c72613c6d84613c1f565b613c04565b905082815260208101848484011115613c8e57613c8d613b9f565b5b613c99848285613c50565b509392505050565b600082601f830112613cb657613cb5613b9a565b5b8135613cc6848260208601613c5f565b91505092915050565b613cd88161397e565b8114613ce357600080fd5b50565b600081359050613cf581613ccf565b92915050565b60028110613d0857600080fd5b50565b600081359050613d1a81613cfb565b92915050565b600080600080600080600060e0888a031215613d3f57613d3e6137d3565b5b600088013567ffffffffffffffff811115613d5d57613d5c6137d8565b5b613d698a828b01613ca1565b9750506020613d7a8a828b01613ce6565b9650506040613d8b8a828b01613d0b565b955050606088013567ffffffffffffffff811115613dac57613dab6137d8565b5b613db88a828b01613ca1565b945050608088013567ffffffffffffffff811115613dd957613dd86137d8565b5b613de58a828b01613ca1565b93505060a088013567ffffffffffffffff811115613e0657613e056137d8565b5b613e128a828b01613ca1565b92505060c088013567ffffffffffffffff811115613e3357613e326137d8565b5b613e3f8a828b01613ca1565b91505092959891949750929550565b600080fd5b600080fd5b60008083601f840112613e6e57613e6d613b9a565b5b8235905067ffffffffffffffff811115613e8b57613e8a613e4e565b5b602083019150836020820283011115613ea757613ea6613e53565b5b9250929050565b600080600060408486031215613ec757613ec66137d3565b5b6000613ed586828701613826565b935050602084013567ffffffffffffffff811115613ef657613ef56137d8565b5b613f0286828701613e58565b92509250509250925092565b600060208284031215613f2457613f236137d3565b5b6000613f3284828501613ce6565b91505092915050565b613f44816137fd565b82525050565b6000602082019050613f5f6000830184613f3b565b92915050565b600080600080600080600080610100898b031215613f8657613f856137d3565b5b6000613f948b828c01613826565b985050602089013567ffffffffffffffff811115613fb557613fb46137d8565b5b613fc18b828c01613ca1565b9750506040613fd28b828c01613ce6565b9650506060613fe38b828c01613d0b565b955050608089013567ffffffffffffffff811115614004576140036137d8565b5b6140108b828c01613ca1565b94505060a089013567ffffffffffffffff811115614031576140306137d8565b5b61403d8b828c01613ca1565b93505060c089013567ffffffffffffffff81111561405e5761405d6137d8565b5b61406a8b828c01613ca1565b92505060e089013567ffffffffffffffff81111561408b5761408a6137d8565b5b6140978b828c01613ca1565b9150509295985092959890939650565b7f4e487b7100000000000000000000000000000000000000000000000000000000600052603260045260246000fd5b7f4e487b7100000000000000000000000000000000000000000000000000000000600052601160045260246000fd5b60006141108261397e565b915061411b8361397e565b9250828203905081811115614133576141326140d6565b5b92915050565b7f4e487b7100000000000000000000000000000000000000000000000000000000600052603160045260246000fd5b7f4e487b7100000000000000000000000000000000000000000000000000000000600052602260045260246000fd5b600060028204905060018216806141af57607f821691505b6020821081036141c2576141c1614168565b5b50919050565b600067ffffffffffffffff8211156141e3576141e2613ba4565b5b602082029050602081019050919050565b6000815190506142038161380f565b92915050565b600061421c614217846141c8565b613c04565b9050808382526020820190506020840283018581111561423f5761423e613e53565b5b835b81811015614268578061425488826141f4565b845260208401935050602081019050614241565b5050509392505050565b600082601f83011261428757614286613b9a565b5b8151614297848260208601614209565b91505092915050565b6000602082840312156142b6576142b56137d3565b5b600082015167ffffffffffffffff8111156142d4576142d36137d8565b5b6142e084828501614272565b91505092915050565b60006142fc6142f784613c1f565b613c04565b90508281526020810184848401111561431857614317613b9f565b5b6143238482856139ce565b509392505050565b600082601f8301126143405761433f613b9a565b5b81516143508482602086016142e9565b91505092915050565b60008151905061436881613ccf565b92915050565b60008151905061437d81613cfb565b92915050565b600080600080600080600080610100898b0312156143a4576143a36137d3565b5b600089015167ffffffffffffffff8111156143c2576143c16137d8565b5b6143ce8b828c0161432b565b98505060206143df8b828c01614359565b97505060406143f08b828c0161436e565b965050606089015167ffffffffffffffff811115614411576144106137d8565b5b61441d8b828c0161432b565b955050608089015167ffffffffffffffff81111561443e5761443d6137d8565b5b61444a8b828c0161432b565b94505060a089015167ffffffffffffffff81111561446b5761446a6137d8565b5b6144778b828c0161432b565b93505060c089015167ffffffffffffffff811115614498576144976137d8565b5b6144a48b828c0161432b565b92505060e06144b58b828c01614359565b9150509295985092959890939650565b7f4e487b7100000000000000000000000000000000000000000000000000000000600052601260045260246000fd5b60006144ff8261397e565b915061450a8361397e565b92508261451a576145196144c5565b5b828204905092915050565b60008190508160005260206000209050919050565b60006020601f8301049050919050565b600082821b905092915050565b6000600883026145877fffffffffffffffffffffffffffffffffffffffffffffffffffffffffffffffff8261454a565b614591868361454a565b95508019841693508086168417925050509392505050565b6000819050919050565b60006145ce6145c96145c48461397e565b6145a9565b61397e565b9050919050565b6000819050919050565b6145e8836145b3565b6145fc6145f4826145d5565b848454614557565b825550505050565b600090565b614611614604565b61461c8184846145df565b505050565b5b8181101561464057614635600082614609565b600181019050614622565b5050565b601f8211156146855761465681614525565b61465f8461453a565b8101602085101561466e578190505b61468261467a8561453a565b830182614621565b50505b505050565b600082821c905092915050565b60006146a86000198460080261468a565b1980831691505092915050565b60006146c18383614697565b9150826002028217905092915050565b6146da826139b2565b67ffffffffffffffff8111156146f3576146f2613ba4565b5b6146fd8254614197565b614708828285614644565b600060209050601f83116001811461473b5760008415614729578287015190505b61473385826146b5565b86555061479b565b601f19841661474986614525565b60005b828110156147715784890151825560018201915060208501945060208101905061474c565b8683101561478e578489015161478a601f891682614697565b8355505b6001600288020188555050505b505050505050565b6000819050919050565b60006147c86147c36147be846147a3565b6145a9565b61397e565b9050919050565b6147d8816147ad565b82525050565b60006020820190506147f360008301846147cf565b9291505056fea2646970667358221220a2e0dcd2179e0c27eea6e35c64e8106925afc37db7eb48db286682ffaf85bc1364736f6c634300081c0033",
  "linkReferences": {},
  "deployedLinkReferences": {}
}