{
  "_format": "hh-sol-artifact-1",
  "contractName": "CandidateDatabase",
  "sourceName": "contracts/CandidateDatabase.sol",
  "abi": [
    {
      "inputs": [],
      "stateMutability": "nonpayable",
      "type": "constructor"
    },
    {
      "inputs": [],
      "name": "CandidateDatabase__AdminNotFound",
      "type": "error"
    },
    {
      "inputs": [],
      "name": "CandidateDatabase__AlreadyAdmin",
      "type": "error"
    },
    {
      "inputs": [],
      "name": "CandidateDatabase__AlreadyRegistered",
      "type": "error"
    },
    {
      "inputs": [],
      "name": "CandidateDatabase__ImportFailed",
      "type": "error"
    },
    {
      "inputs": [],
      "name": "CandidateDatabase__InvalidAddress",
      "type": "error"
    },
    {
      "inputs": [],
      "name": "CandidateDatabase__NotAdmin",
      "type": "error"
    },
    {
      "inputs": [],
      "name": "CandidateDatabase__NotEligible",
      "type": "error"
    },
    {
      "inputs": [],
      "name": "CandidateDatabase__NotOwner",
      "type": "error"
    },
    {
      "inputs": [],
      "name": "CandidateDatabase__NotRegistered",
      "type": "error"
    },
    {
      "anonymous": false,
      "inputs": [
        {
          "indexed": true,
          "internalType": "address",
          "name": "admin",
          "type": "address"
        },
        {
          "indexed": true,
          "internalType": "address",
          "name": "owner",
          "type": "address"
        }
      ],
      "name": "AdminAdded",
      "type": "event"
    },
    {
      "anonymous": false,
      "inputs": [
        {
          "indexed": true,
          "internalType": "address",
          "name": "candidate",
          "type": "address"
        },
        {
          "indexed": true,
          "internalType": "address",
          "name": "admin",
          "type": "address"
        }
      ],
      "name": "AdminAddedCandidate",
      "type": "event"
    },
    {
      "anonymous": false,
      "inputs": [
        {
          "indexed": true,
          "internalType": "address",
          "name": "admin",
          "type": "address"
        },
        {
          "indexed": true,
          "internalType": "address",
          "name": "owner",
          "type": "address"
        }
      ],
      "name": "AdminRemoved",
      "type": "event"
    },
    {
      "anonymous": false,
      "inputs": [
        {
          "indexed": true,
          "internalType": "address",
          "name": "candidate",
          "type": "address"
        },
        {
          "indexed": true,
          "internalType": "address",
          "name": "admin",
          "type": "address"
        }
      ],
      "name": "AdminRemovedCandidate",
      "type": "event"
    },
    {
      "anonymous": false,
      "inputs": [
        {
          "indexed": true,
          "internalType": "address",
          "name": "candidate",
          "type": "address"
        },
        {
          "indexed": true,
          "internalType": "address",
          "name": "admin",
          "type": "address"
        }
      ],
      "name": "AdminUpdatedCandidate",
      "type": "event"
    },
    {
      "anonymous": false,
      "inputs": [
        {
          "indexed": true,
          "internalType": "address",
          "name": "candidate",
          "type": "address"
        }
      ],
      "name": "CandidateDeleted",
      "type": "event"
    },
    {
      "anonymous": false,
      "inputs": [
        {
          "indexed": true,
          "internalType": "address",
          "name": "candidate",
          "type": "address"
        }
      ],
      "name": "CandidateRegistered",
      "type": "event"
    },
    {
      "anonymous": false,
      "inputs": [
        {
          "indexed": true,
          "internalType": "address",
          "name": "candidate",
          "type": "address"
        }
      ],
      "name": "CandidateUpdated",
      "type": "event"
    },
    {
      "anonymous": false,
      "inputs": [
        {
          "indexed": true,
          "internalType": "address",
          "name": "sourceContract",
          "type": "address"
        },
        {
          "indexed": false,
          "internalType": "uint256",
          "name": "candidatesImported",
          "type": "uint256"
        }
      ],
      "name": "CandidatesImported",
      "type": "event"
    },
    {
      "inputs": [
        {
          "internalType": "address",
          "name": "_adminAddress",
          "type": "address"
        }
      ],
      "name": "addAdmin",
      "outputs": [],
      "stateMutability": "nonpayable",
      "type": "function"
    },
    {
      "inputs": [
        {
          "internalType": "string",
          "name": "_name",
          "type": "string"
        },
        {
          "internalType": "uint256",
          "name": "_age",
          "type": "uint256"
        },
        {
          "internalType": "enum ICandidateDatabase.Gender",
          "name": "_gender",
          "type": "uint8"
        },
        {
          "internalType": "string",
          "name": "_presentAddress",
          "type": "string"
        },
        {
          "internalType": "string",
          "name": "_email",
          "type": "string"
        },
        {
          "internalType": "string",
          "name": "_qualifications",
          "type": "string"
        },
        {
          "internalType": "string",
          "name": "_manifesto",
          "type": "string"
        }
      ],
      "name": "addCandidate",
      "outputs": [],
      "stateMutability": "nonpayable",
      "type": "function"
    },
    {
      "inputs": [
        {
          "internalType": "address",
          "name": "_candidateAddress",
          "type": "address"
        },
        {
          "internalType": "string",
          "name": "_name",
          "type": "string"
        },
        {
          "internalType": "uint256",
          "name": "_age",
          "type": "uint256"
        },
        {
          "internalType": "enum ICandidateDatabase.Gender",
          "name": "_gender",
          "type": "uint8"
        },
        {
          "internalType": "string",
          "name": "_presentAddress",
          "type": "string"
        },
        {
          "internalType": "string",
          "name": "_email",
          "type": "string"
        },
        {
          "internalType": "string",
          "name": "_qualifications",
          "type": "string"
        },
        {
          "internalType": "string",
          "name": "_manifesto",
          "type": "string"
        }
      ],
      "name": "adminAddCandidate",
      "outputs": [],
      "stateMutability": "nonpayable",
      "type": "function"
    },
    {
      "inputs": [
        {
          "internalType": "address",
          "name": "_sourceContract",
          "type": "address"
        },
        {
          "internalType": "address[]",
          "name": "_candidateAddresses",
          "type": "address[]"
        }
      ],
      "name": "adminBatchImportCandidates",
      "outputs": [],
      "stateMutability": "nonpayable",
      "type": "function"
    },
    {
      "inputs": [
        {
          "internalType": "address",
          "name": "_sourceContract",
          "type": "address"
        }
      ],
      "name": "adminImportAllCandidates",
      "outputs": [],
      "stateMutability": "nonpayable",
      "type": "function"
    },
    {
      "inputs": [
        {
          "internalType": "address",
          "name": "_sourceContract",
          "type": "address"
        },
        {
          "internalType": "address",
          "name": "_candidateAddress",
          "type": "address"
        }
      ],
      "name": "adminImportCandidate",
      "outputs": [],
      "stateMutability": "nonpayable",
      "type": "function"
    },
    {
      "inputs": [
        {
          "internalType": "address",
          "name": "_candidateAddress",
          "type": "address"
        }
      ],
      "name": "adminRemoveCandidate",
      "outputs": [],
      "stateMutability": "nonpayable",
      "type": "function"
    },
    {
      "inputs": [
        {
          "internalType": "address",
          "name": "_candidateAddress",
          "type": "address"
        },
        {
          "internalType": "string",
          "name": "_name",
          "type": "string"
        },
        {
          "internalType": "uint256",
          "name": "_age",
          "type": "uint256"
        },
        {
          "internalType": "enum ICandidateDatabase.Gender",
          "name": "_gender",
          "type": "uint8"
        },
        {
          "internalType": "string",
          "name": "_presentAddress",
          "type": "string"
        },
        {
          "internalType": "string",
          "name": "_email",
          "type": "string"
        },
        {
          "internalType": "string",
          "name": "_qualifications",
          "type": "string"
        },
        {
          "internalType": "string",
          "name": "_manifesto",
          "type": "string"
        }
      ],
      "name": "adminUpdateCandidate",
      "outputs": [],
      "stateMutability": "nonpayable",
      "type": "function"
    },
    {
      "inputs": [],
      "name": "amIAdmin",
      "outputs": [
        {
          "internalType": "bool",
          "name": "",
          "type": "bool"
        }
      ],
      "stateMutability": "view",
      "type": "function"
    },
    {
      "inputs": [],
      "name": "deleteCandidate",
      "outputs": [],
      "stateMutability": "nonpayable",
      "type": "function"
    },
    {
      "inputs": [],
      "name": "getAdminCount",
      "outputs": [
        {
          "internalType": "uint256",
          "name": "",
          "type": "uint256"
        }
      ],
      "stateMutability": "view",
      "type": "function"
    },
    {
      "inputs": [],
      "name": "getAllAdmins",
      "outputs": [
        {
          "internalType": "address[]",
          "name": "",
          "type": "address[]"
        }
      ],
      "stateMutability": "view",
      "type": "function"
    },
    {
      "inputs": [],
      "name": "getAllCandidates",
      "outputs": [
        {
          "internalType": "address[]",
          "name": "",
          "type": "address[]"
        }
      ],
      "stateMutability": "view",
      "type": "function"
    },
    {
      "inputs": [],
      "name": "getCandidateCount",
      "outputs": [
        {
          "internalType": "uint256",
          "name": "count",
          "type": "uint256"
        }
      ],
      "stateMutability": "view",
      "type": "function"
    },
    {
      "inputs": [
        {
          "internalType": "address",
          "name": "_candidateAddress",
          "type": "address"
        }
      ],
      "name": "getCandidateDetails",
      "outputs": [
        {
          "internalType": "string",
          "name": "name",
          "type": "string"
        },
        {
          "internalType": "uint256",
          "name": "age",
          "type": "uint256"
        },
        {
          "internalType": "enum ICandidateDatabase.Gender",
          "name": "gender",
          "type": "uint8"
        },
        {
          "internalType": "string",
          "name": "presentAddress",
          "type": "string"
        },
        {
          "internalType": "string",
          "name": "email",
          "type": "string"
        },
        {
          "internalType": "string",
          "name": "qualifications",
          "type": "string"
        },
        {
          "internalType": "string",
          "name": "manifesto",
          "type": "string"
        },
        {
          "internalType": "uint256",
          "name": "registrationTimestamp",
          "type": "uint256"
        }
      ],
      "stateMutability": "view",
      "type": "function"
    },
    {
      "inputs": [
        {
          "internalType": "address",
          "name": "_candidateAddress",
          "type": "address"
        }
      ],
      "name": "getCandidateRegistrationStatus",
      "outputs": [
        {
          "internalType": "bool",
          "name": "isRegistered",
          "type": "bool"
        }
      ],
      "stateMutability": "view",
      "type": "function"
    },
    {
      "inputs": [],
      "name": "getMyCandidateDetails",
      "outputs": [
        {
          "internalType": "string",
          "name": "name",
          "type": "string"
        },
        {
          "internalType": "uint256",
          "name": "age",
          "type": "uint256"
        },
        {
          "internalType": "enum ICandidateDatabase.Gender",
          "name": "gender",
          "type": "uint8"
        },
        {
          "internalType": "string",
          "name": "presentAddress",
          "type": "string"
        },
        {
          "internalType": "string",
          "name": "email",
          "type": "string"
        },
        {
          "internalType": "string",
          "name": "qualifications",
          "type": "string"
        },
        {
          "internalType": "string",
          "name": "manifesto",
          "type": "string"
        },
        {
          "internalType": "uint256",
          "name": "registrationTimestamp",
          "type": "uint256"
        }
      ],
      "stateMutability": "view",
      "type": "function"
    },
    {
      "inputs": [],
      "name": "getMyRegistrationStatus",
      "outputs": [
        {
          "internalType": "bool",
          "name": "isRegistered",
          "type": "bool"
        }
      ],
      "stateMutability": "view",
      "type": "function"
    },
    {
      "inputs": [],
      "name": "getOwner",
      "outputs": [
        {
          "internalType": "address",
          "name": "",
          "type": "address"
        }
      ],
      "stateMutability": "view",
      "type": "function"
    },
    {
      "inputs": [
        {
          "internalType": "address",
          "name": "_address",
          "type": "address"
        }
      ],
      "name": "isAdmin",
      "outputs": [
        {
          "internalType": "bool",
          "name": "",
          "type": "bool"
        }
      ],
      "stateMutability": "view",
      "type": "function"
    },
    {
      "inputs": [
        {
          "internalType": "address",
          "name": "_adminAddress",
          "type": "address"
        }
      ],
      "name": "removeAdmin",
      "outputs": [],
      "stateMutability": "nonpayable",
      "type": "function"
    },
    {
      "inputs": [
        {
          "internalType": "string",
          "name": "_name",
          "type": "string"
        },
        {
          "internalType": "uint256",
          "name": "_age",
          "type": "uint256"
        },
        {
          "internalType": "enum ICandidateDatabase.Gender",
          "name": "_gender",
          "type": "uint8"
        },
        {
          "internalType": "string",
          "name": "_presentAddress",
          "type": "string"
        },
        {
          "internalType": "string",
          "name": "_email",
          "type": "string"
        },
        {
          "internalType": "string",
          "name": "_qualifications",
          "type": "string"
        },
        {
          "internalType": "string",
          "name": "_manifesto",
          "type": "string"
        }
      ],
      "name": "updateCandidate",
      "outputs": [],
      "stateMutability": "nonpayable",
      "type": "function"
    }
  ],
  "bytecode": "0x60a060405234801561001057600080fd5b503373ffffffffffffffffffffffffffffffffffffffff1660808173ffffffffffffffffffffffffffffffffffffffff168152505060805161461161009f600039600081816103f901528181610736015281816108d301528181610def015281816118d701528181611b5e01528181611f6b015281816123f0015281816124330152612b8501526146116000f3fe608060405234801561001057600080fd5b50600436106101425760003560e01c806372bd364e116100b857806399e476e71161007c57806399e476e714610356578063a417c52c14610372578063cdd0e1a71461037c578063e9523c9714610398578063f6c094a6146103b6578063fd270ed6146103db57610142565b806372bd364e146102c45780637effaef1146102e0578063893d20e8146102fc5780638b7bf3eb1461031a578063934f1cca1461033857610142565b806346b7cd631161010a57806346b7cd63146101ff5780634eddfa8a1461021b57806353ac5dc3146102375780635b409d091461026e57806366d4c5061461028c57806370480275146102a857610142565b80631785f53c1461014757806324d7806c146101635780632e6997fe146101935780632f0acbe1146101b157806330a56347146101e1575b600080fd5b610161600480360381019061015c91906136b8565b6103f7565b005b61017d600480360381019061017891906136b8565b610732565b60405161018a9190613700565b60405180910390f35b61019b6107de565b6040516101a891906137d9565b60405180910390f35b6101cb60048036038101906101c691906136b8565b61086c565b6040516101d89190613700565b60405180910390f35b6101e96108c4565b6040516101f69190613814565b60405180910390f35b610219600480360381019061021491906136b8565b6108d1565b005b6102356004803603810190610230919061382f565b610ded565b005b610251600480360381019061024c91906136b8565b611274565b604051610265989796959493929190613976565b60405180910390f35b6102766116dc565b6040516102839190613700565b60405180910390f35b6102a660048036038101906102a19190613b9d565b611732565b005b6102c260048036038101906102bd91906136b8565b6118d5565b005b6102de60048036038101906102d991906136b8565b611b5c565b005b6102fa60048036038101906102f59190613d2b565b611f69565b005b6103046123ec565b6040516103119190613d9a565b60405180910390f35b610322612414565b60405161032f9190613814565b60405180910390f35b610340612421565b60405161034d9190613700565b60405180910390f35b610370600480360381019061036b9190613db5565b612431565b005b61037a612865565b005b61039660048036038101906103919190613db5565b612b83565b005b6103a0612e1b565b6040516103ad91906137d9565b60405180910390f35b6103be612ea9565b6040516103d2989796959493929190613976565b60405180910390f35b6103f560048036038101906103f09190613b9d565b613310565b005b7f000000000000000000000000000000000000000000000000000000000000000073ffffffffffffffffffffffffffffffffffffffff163373ffffffffffffffffffffffffffffffffffffffff161461047c576040517fe7f229ea00000000000000000000000000000000000000000000000000000000815260040160405180910390fd5b600260008273ffffffffffffffffffffffffffffffffffffffff1673ffffffffffffffffffffffffffffffffffffffff16815260200190815260200160002060009054906101000a900460ff166104ff576040517f09f7734400000000000000000000000000000000000000000000000000000000815260040160405180910390fd5b600260008273ffffffffffffffffffffffffffffffffffffffff1673ffffffffffffffffffffffffffffffffffffffff16815260200190815260200160002060006101000a81549060ff021916905560005b6003805490508110156106d4578173ffffffffffffffffffffffffffffffffffffffff166003828154811061058957610588613ef7565b5b9060005260206000200160009054906101000a900473ffffffffffffffffffffffffffffffffffffffff1673ffffffffffffffffffffffffffffffffffffffff16036106c757600360016003805490506105e39190613f55565b815481106105f4576105f3613ef7565b5b9060005260206000200160009054906101000a900473ffffffffffffffffffffffffffffffffffffffff166003828154811061063357610632613ef7565b5b9060005260206000200160006101000a81548173ffffffffffffffffffffffffffffffffffffffff021916908373ffffffffffffffffffffffffffffffffffffffff160217905550600380548061068d5761068c613f89565b5b6001900381819060005260206000200160006101000a81549073ffffffffffffffffffffffffffffffffffffffff021916905590556106d4565b8080600101915050610551565b503373ffffffffffffffffffffffffffffffffffffffff168173ffffffffffffffffffffffffffffffffffffffff167fdb9d5d31320daf5bc7181d565b6da4d12e30f0f4d5aa324a992426c14a1d19ce60405160405180910390a350565b60007f000000000000000000000000000000000000000000000000000000000000000073ffffffffffffffffffffffffffffffffffffffff168273ffffffffffffffffffffffffffffffffffffffff1614806107d75750600260008373ffffffffffffffffffffffffffffffffffffffff1673ffffffffffffffffffffffffffffffffffffffff16815260200190815260200160002060009054906101000a900460ff165b9050919050565b6060600180548060200260200160405190810160405280929190818152602001828054801561086257602002820191906000526020600020905b8160009054906101000a900473ffffffffffffffffffffffffffffffffffffffff1673ffffffffffffffffffffffffffffffffffffffff1681526020019060010190808311610818575b5050505050905090565b60008060008373ffffffffffffffffffffffffffffffffffffffff1673ffffffffffffffffffffffffffffffffffffffff16815260200190815260200160002060080160009054906101000a900460ff169050919050565b6000600180549050905090565b7f000000000000000000000000000000000000000000000000000000000000000073ffffffffffffffffffffffffffffffffffffffff163373ffffffffffffffffffffffffffffffffffffffff16141580156109775750600260003373ffffffffffffffffffffffffffffffffffffffff1673ffffffffffffffffffffffffffffffffffffffff16815260200190815260200160002060009054906101000a900460ff16155b156109ae576040517f446b76e700000000000000000000000000000000000000000000000000000000815260040160405180910390fd5b600081905060608173ffffffffffffffffffffffffffffffffffffffff16632e6997fe6040518163ffffffff1660e01b8152600401600060405180830381865afa925050508015610a2257506040513d6000823e3d601f19601f82011682018060405250810190610a1f9190614090565b60015b610a58576040517fb9c861f000000000000000000000000000000000000000000000000000000000815260040160405180910390fd5b809150506000805b8251811015610d98576000838281518110610a7e57610a7d613ef7565b5b602002602001015190506000808273ffffffffffffffffffffffffffffffffffffffff1673ffffffffffffffffffffffffffffffffffffffff16815260200190815260200160002060080160009054906101000a900460ff1615610ae25750610d8b565b8473ffffffffffffffffffffffffffffffffffffffff166353ac5dc3826040518263ffffffff1660e01b8152600401610b1b9190613d9a565b600060405180830381865afa925050508015610b5a57506040513d6000823e3d601f19601f82011682018060405250810190610b579190614173565b60015b610b645750610d8b565b604051806101200160405280898152602001888152602001876001811115610b8f57610b8e6138ff565b5b8152602001868152602001858152602001848152602001838152602001828152602001600115158152506000808b73ffffffffffffffffffffffffffffffffffffffff1673ffffffffffffffffffffffffffffffffffffffff1681526020019081526020016000206000820151816000019081610c0c91906144c1565b506020820151816001015560408201518160020160006101000a81548160ff02191690836001811115610c4257610c416138ff565b5b02179055506060820151816003019081610c5c91906144c1565b506080820151816004019081610c7291906144c1565b5060a0820151816005019081610c8891906144c1565b5060c0820151816006019081610c9e91906144c1565b5060e082015181600701556101008201518160080160006101000a81548160ff0219169083151502179055509050506001899080600181540180825580915050600190039060005260206000200160009091909190916101000a81548173ffffffffffffffffffffffffffffffffffffffff021916908373ffffffffffffffffffffffffffffffffffffffff1602179055508873ffffffffffffffffffffffffffffffffffffffff167fa0ac4f59dabb0ddc4b8b883adda9e055e02c796b2cde2ed80fdb11a38f77e5c960405160405180910390a28a80610d7e90614593565b9b50505050505050505050505b8080600101915050610a60565b508373ffffffffffffffffffffffffffffffffffffffff167f7b11f9707fd616002d9c0f0983f21e0021088827cc3a7fc4f36175ecb4782d5182604051610ddf9190613814565b60405180910390a250505050565b7f000000000000000000000000000000000000000000000000000000000000000073ffffffffffffffffffffffffffffffffffffffff163373ffffffffffffffffffffffffffffffffffffffff1614158015610e935750600260003373ffffffffffffffffffffffffffffffffffffffff1673ffffffffffffffffffffffffffffffffffffffff16815260200190815260200160002060009054906101000a900460ff16155b15610eca576040517f446b76e700000000000000000000000000000000000000000000000000000000815260040160405180910390fd5b6000808273ffffffffffffffffffffffffffffffffffffffff1673ffffffffffffffffffffffffffffffffffffffff16815260200190815260200160002060080160009054906101000a900460ff1615610f50576040517fba6a3fb800000000000000000000000000000000000000000000000000000000815260040160405180910390fd5b60008290508073ffffffffffffffffffffffffffffffffffffffff166353ac5dc3836040518263ffffffff1660e01b8152600401610f8e9190613d9a565b600060405180830381865afa925050508015610fcd57506040513d6000823e3d601f19601f82011682018060405250810190610fca9190614173565b60015b611003576040517fb9c861f000000000000000000000000000000000000000000000000000000000815260040160405180910390fd5b60405180610120016040528089815260200188815260200187600181111561102e5761102d6138ff565b5b8152602001868152602001858152602001848152602001838152602001828152602001600115158152506000808c73ffffffffffffffffffffffffffffffffffffffff1673ffffffffffffffffffffffffffffffffffffffff16815260200190815260200160002060008201518160000190816110ab91906144c1565b506020820151816001015560408201518160020160006101000a81548160ff021916908360018111156110e1576110e06138ff565b5b021790555060608201518160030190816110fb91906144c1565b50608082015181600401908161111191906144c1565b5060a082015181600501908161112791906144c1565b5060c082015181600601908161113d91906144c1565b5060e082015181600701556101008201518160080160006101000a81548160ff02191690831515021790555090505060018a9080600181540180825580915050600190039060005260206000200160009091909190916101000a81548173ffffffffffffffffffffffffffffffffffffffff021916908373ffffffffffffffffffffffffffffffffffffffff1602179055508973ffffffffffffffffffffffffffffffffffffffff167fa0ac4f59dabb0ddc4b8b883adda9e055e02c796b2cde2ed80fdb11a38f77e5c960405160405180910390a26000600190508b73ffffffffffffffffffffffffffffffffffffffff167f7b11f9707fd616002d9c0f0983f21e0021088827cc3a7fc4f36175ecb4782d518260405161125e9190613814565b60405180910390a2505050505050505050505050565b606060008060608060608060008060008a73ffffffffffffffffffffffffffffffffffffffff1673ffffffffffffffffffffffffffffffffffffffff16815260200190815260200160002060080160009054906101000a900460ff16611306576040517fc26f0ffd00000000000000000000000000000000000000000000000000000000815260040160405180910390fd5b60008060008b73ffffffffffffffffffffffffffffffffffffffff1673ffffffffffffffffffffffffffffffffffffffff16815260200190815260200160002060405180610120016040529081600082018054611362906142e4565b80601f016020809104026020016040519081016040528092919081815260200182805461138e906142e4565b80156113db5780601f106113b0576101008083540402835291602001916113db565b820191906000526020600020905b8154815290600101906020018083116113be57829003601f168201915b50505050508152602001600182015481526020016002820160009054906101000a900460ff166001811115611413576114126138ff565b5b6001811115611425576114246138ff565b5b8152602001600382018054611439906142e4565b80601f0160208091040260200160405190810160405280929190818152602001828054611465906142e4565b80156114b25780601f10611487576101008083540402835291602001916114b2565b820191906000526020600020905b81548152906001019060200180831161149557829003601f168201915b505050505081526020016004820180546114cb906142e4565b80601f01602080910402602001604051908101604052809291908181526020018280546114f7906142e4565b80156115445780601f1061151957610100808354040283529160200191611544565b820191906000526020600020905b81548152906001019060200180831161152757829003601f168201915b5050505050815260200160058201805461155d906142e4565b80601f0160208091040260200160405190810160405280929190818152602001828054611589906142e4565b80156115d65780601f106115ab576101008083540402835291602001916115d6565b820191906000526020600020905b8154815290600101906020018083116115b957829003601f168201915b505050505081526020016006820180546115ef906142e4565b80601f016020809104026020016040519081016040528092919081815260200182805461161b906142e4565b80156116685780601f1061163d57610100808354040283529160200191611668565b820191906000526020600020905b81548152906001019060200180831161164b57829003601f168201915b50505050508152602001600782015481526020016008820160009054906101000a900460ff1615151515815250509050806000015181602001518260400151836060015184608001518560a001518660c001518760e001519850985098509850985098509850985050919395975091939597565b60008060003373ffffffffffffffffffffffffffffffffffffffff1673ffffffffffffffffffffffffffffffffffffffff16815260200190815260200160002060080160009054906101000a900460ff16905090565b6000803373ffffffffffffffffffffffffffffffffffffffff1673ffffffffffffffffffffffffffffffffffffffff16815260200190815260200160002060080160009054906101000a900460ff166117b7576040517fc26f0ffd00000000000000000000000000000000000000000000000000000000815260040160405180910390fd5b60008060003373ffffffffffffffffffffffffffffffffffffffff1673ffffffffffffffffffffffffffffffffffffffff16815260200190815260200160002090508781600001908161180a91906144c1565b50868160010181905550858160020160006101000a81548160ff0219169083600181111561183b5761183a6138ff565b5b02179055508481600301908161185191906144c1565b508381600401908161186391906144c1565b508281600501908161187591906144c1565b508181600601908161188791906144c1565b503373ffffffffffffffffffffffffffffffffffffffff167f5c1cd16d0c55845505cf06834fc8d64b03a2fb0c2ffea81be006fd3fe764ede460405160405180910390a25050505050505050565b7f000000000000000000000000000000000000000000000000000000000000000073ffffffffffffffffffffffffffffffffffffffff163373ffffffffffffffffffffffffffffffffffffffff161461195a576040517fe7f229ea00000000000000000000000000000000000000000000000000000000815260040160405180910390fd5b600073ffffffffffffffffffffffffffffffffffffffff168173ffffffffffffffffffffffffffffffffffffffff16036119c0576040517fab820aca00000000000000000000000000000000000000000000000000000000815260040160405180910390fd5b600260008273ffffffffffffffffffffffffffffffffffffffff1673ffffffffffffffffffffffffffffffffffffffff16815260200190815260200160002060009054906101000a900460ff1615611a44576040517f6949f8f100000000000000000000000000000000000000000000000000000000815260040160405180910390fd5b6001600260008373ffffffffffffffffffffffffffffffffffffffff1673ffffffffffffffffffffffffffffffffffffffff16815260200190815260200160002060006101000a81548160ff0219169083151502179055506003819080600181540180825580915050600190039060005260206000200160009091909190916101000a81548173ffffffffffffffffffffffffffffffffffffffff021916908373ffffffffffffffffffffffffffffffffffffffff1602179055503373ffffffffffffffffffffffffffffffffffffffff168173ffffffffffffffffffffffffffffffffffffffff167fbf3f493c772c8c283fd124432c2d0f539ab343faa04258fe88e52912d36b102b60405160405180910390a350565b7f000000000000000000000000000000000000000000000000000000000000000073ffffffffffffffffffffffffffffffffffffffff163373ffffffffffffffffffffffffffffffffffffffff1614158015611c025750600260003373ffffffffffffffffffffffffffffffffffffffff1673ffffffffffffffffffffffffffffffffffffffff16815260200190815260200160002060009054906101000a900460ff16155b15611c39576040517f446b76e700000000000000000000000000000000000000000000000000000000815260040160405180910390fd5b6000808273ffffffffffffffffffffffffffffffffffffffff1673ffffffffffffffffffffffffffffffffffffffff16815260200190815260200160002060080160009054906101000a900460ff16611cbe576040517fc26f0ffd00000000000000000000000000000000000000000000000000000000815260040160405180910390fd5b6000808273ffffffffffffffffffffffffffffffffffffffff1673ffffffffffffffffffffffffffffffffffffffff16815260200190815260200160002060008082016000611d0d91906135e9565b60018201600090556002820160006101000a81549060ff0219169055600382016000611d3991906135e9565b600482016000611d4991906135e9565b600582016000611d5991906135e9565b600682016000611d6991906135e9565b60078201600090556008820160006101000a81549060ff0219169055505060005b600180549050811015611f0b578173ffffffffffffffffffffffffffffffffffffffff1660018281548110611dc257611dc1613ef7565b5b9060005260206000200160009054906101000a900473ffffffffffffffffffffffffffffffffffffffff1673ffffffffffffffffffffffffffffffffffffffff1603611efe576001808080549050611e1a9190613f55565b81548110611e2b57611e2a613ef7565b5b9060005260206000200160009054906101000a900473ffffffffffffffffffffffffffffffffffffffff1660018281548110611e6a57611e69613ef7565b5b9060005260206000200160006101000a81548173ffffffffffffffffffffffffffffffffffffffff021916908373ffffffffffffffffffffffffffffffffffffffff1602179055506001805480611ec457611ec3613f89565b5b6001900381819060005260206000200160006101000a81549073ffffffffffffffffffffffffffffffffffffffff02191690559055611f0b565b8080600101915050611d8a565b503373ffffffffffffffffffffffffffffffffffffffff168173ffffffffffffffffffffffffffffffffffffffff167f43204b0e5a9d6247fc2ce4f9b08b3aa78f102cbda5bdd93a132a18a676f1134060405160405180910390a350565b7f000000000000000000000000000000000000000000000000000000000000000073ffffffffffffffffffffffffffffffffffffffff163373ffffffffffffffffffffffffffffffffffffffff161415801561200f5750600260003373ffffffffffffffffffffffffffffffffffffffff1673ffffffffffffffffffffffffffffffffffffffff16815260200190815260200160002060009054906101000a900460ff16155b15612046576040517f446b76e700000000000000000000000000000000000000000000000000000000815260040160405180910390fd5b60008390506000805b8484905081101561239657600085858381811061206f5761206e613ef7565b5b905060200201602081019061208491906136b8565b90506000808273ffffffffffffffffffffffffffffffffffffffff1673ffffffffffffffffffffffffffffffffffffffff16815260200190815260200160002060080160009054906101000a900460ff16156120e05750612389565b8373ffffffffffffffffffffffffffffffffffffffff166353ac5dc3826040518263ffffffff1660e01b81526004016121199190613d9a565b600060405180830381865afa92505050801561215857506040513d6000823e3d601f19601f820116820180604052508101906121559190614173565b60015b6121625750612389565b60405180610120016040528089815260200188815260200187600181111561218d5761218c6138ff565b5b8152602001868152602001858152602001848152602001838152602001828152602001600115158152506000808b73ffffffffffffffffffffffffffffffffffffffff1673ffffffffffffffffffffffffffffffffffffffff168152602001908152602001600020600082015181600001908161220a91906144c1565b506020820151816001015560408201518160020160006101000a81548160ff021916908360018111156122405761223f6138ff565b5b0217905550606082015181600301908161225a91906144c1565b50608082015181600401908161227091906144c1565b5060a082015181600501908161228691906144c1565b5060c082015181600601908161229c91906144c1565b5060e082015181600701556101008201518160080160006101000a81548160ff0219169083151502179055509050506001899080600181540180825580915050600190039060005260206000200160009091909190916101000a81548173ffffffffffffffffffffffffffffffffffffffff021916908373ffffffffffffffffffffffffffffffffffffffff1602179055508873ffffffffffffffffffffffffffffffffffffffff167fa0ac4f59dabb0ddc4b8b883adda9e055e02c796b2cde2ed80fdb11a38f77e5c960405160405180910390a28a8061237c90614593565b9b50505050505050505050505b808060010191505061204f565b508473ffffffffffffffffffffffffffffffffffffffff167f7b11f9707fd616002d9c0f0983f21e0021088827cc3a7fc4f36175ecb4782d51826040516123dd9190613814565b60405180910390a25050505050565b60007f0000000000000000000000000000000000000000000000000000000000000000905090565b6000600380549050905090565b600061242c33610732565b905090565b7f000000000000000000000000000000000000000000000000000000000000000073ffffffffffffffffffffffffffffffffffffffff163373ffffffffffffffffffffffffffffffffffffffff16141580156124d75750600260003373ffffffffffffffffffffffffffffffffffffffff1673ffffffffffffffffffffffffffffffffffffffff16815260200190815260200160002060009054906101000a900460ff16155b1561250e576040517f446b76e700000000000000000000000000000000000000000000000000000000815260040160405180910390fd5b600073ffffffffffffffffffffffffffffffffffffffff168873ffffffffffffffffffffffffffffffffffffffff1603612574576040517fab820aca00000000000000000000000000000000000000000000000000000000815260040160405180910390fd5b60128610156125af576040517fc84eb1fe00000000000000000000000000000000000000000000000000000000815260040160405180910390fd5b6000808973ffffffffffffffffffffffffffffffffffffffff1673ffffffffffffffffffffffffffffffffffffffff16815260200190815260200160002060080160009054906101000a900460ff1615612635576040517fba6a3fb800000000000000000000000000000000000000000000000000000000815260040160405180910390fd5b6040518061012001604052808881526020018781526020018660018111156126605761265f6138ff565b5b8152602001858152602001848152602001838152602001828152602001428152602001600115158152506000808a73ffffffffffffffffffffffffffffffffffffffff1673ffffffffffffffffffffffffffffffffffffffff16815260200190815260200160002060008201518160000190816126dd91906144c1565b506020820151816001015560408201518160020160006101000a81548160ff02191690836001811115612713576127126138ff565b5b0217905550606082015181600301908161272d91906144c1565b50608082015181600401908161274391906144c1565b5060a082015181600501908161275991906144c1565b5060c082015181600601908161276f91906144c1565b5060e082015181600701556101008201518160080160006101000a81548160ff0219169083151502179055509050506001889080600181540180825580915050600190039060005260206000200160009091909190916101000a81548173ffffffffffffffffffffffffffffffffffffffff021916908373ffffffffffffffffffffffffffffffffffffffff1602179055503373ffffffffffffffffffffffffffffffffffffffff168873ffffffffffffffffffffffffffffffffffffffff167fbae38c103fcb399c54b7f4938cbeb7260b54380334fd0f5365f5eecde90d759a60405160405180910390a35050505050505050565b6000803373ffffffffffffffffffffffffffffffffffffffff1673ffffffffffffffffffffffffffffffffffffffff16815260200190815260200160002060080160009054906101000a900460ff166128ea576040517fc26f0ffd00000000000000000000000000000000000000000000000000000000815260040160405180910390fd5b60003390506000808273ffffffffffffffffffffffffffffffffffffffff1673ffffffffffffffffffffffffffffffffffffffff1681526020019081526020016000206000808201600061293e91906135e9565b60018201600090556002820160006101000a81549060ff021916905560038201600061296a91906135e9565b60048201600061297a91906135e9565b60058201600061298a91906135e9565b60068201600061299a91906135e9565b60078201600090556008820160006101000a81549060ff0219169055505060005b600180549050811015612b3c578173ffffffffffffffffffffffffffffffffffffffff16600182815481106129f3576129f2613ef7565b5b9060005260206000200160009054906101000a900473ffffffffffffffffffffffffffffffffffffffff1673ffffffffffffffffffffffffffffffffffffffff1603612b2f576001808080549050612a4b9190613f55565b81548110612a5c57612a5b613ef7565b5b9060005260206000200160009054906101000a900473ffffffffffffffffffffffffffffffffffffffff1660018281548110612a9b57612a9a613ef7565b5b9060005260206000200160006101000a81548173ffffffffffffffffffffffffffffffffffffffff021916908373ffffffffffffffffffffffffffffffffffffffff1602179055506001805480612af557612af4613f89565b5b6001900381819060005260206000200160006101000a81549073ffffffffffffffffffffffffffffffffffffffff02191690559055612b3c565b80806001019150506129bb565b508073ffffffffffffffffffffffffffffffffffffffff167f6fe1c8a36bbf04217ace8c02e2469521bb21107f6f54ae5213ab312b8ae1bb6f60405160405180910390a250565b7f000000000000000000000000000000000000000000000000000000000000000073ffffffffffffffffffffffffffffffffffffffff163373ffffffffffffffffffffffffffffffffffffffff1614158015612c295750600260003373ffffffffffffffffffffffffffffffffffffffff1673ffffffffffffffffffffffffffffffffffffffff16815260200190815260200160002060009054906101000a900460ff16155b15612c60576040517f446b76e700000000000000000000000000000000000000000000000000000000815260040160405180910390fd5b6000808973ffffffffffffffffffffffffffffffffffffffff1673ffffffffffffffffffffffffffffffffffffffff16815260200190815260200160002060080160009054906101000a900460ff16612ce5576040517fc26f0ffd00000000000000000000000000000000000000000000000000000000815260040160405180910390fd5b60008060008a73ffffffffffffffffffffffffffffffffffffffff1673ffffffffffffffffffffffffffffffffffffffff168152602001908152602001600020905087816000019081612d3891906144c1565b50868160010181905550858160020160006101000a81548160ff02191690836001811115612d6957612d686138ff565b5b021790555084816003019081612d7f91906144c1565b5083816004019081612d9191906144c1565b5082816005019081612da391906144c1565b5081816006019081612db591906144c1565b503373ffffffffffffffffffffffffffffffffffffffff168973ffffffffffffffffffffffffffffffffffffffff167f9a558f778a9c36163180e5c4b2d6f3e7b43f255a529c2606e3ec5ac5b5214e5060405160405180910390a3505050505050505050565b60606003805480602002602001604051908101604052809291908181526020018280548015612e9f57602002820191906000526020600020905b8160009054906101000a900473ffffffffffffffffffffffffffffffffffffffff1673ffffffffffffffffffffffffffffffffffffffff1681526020019060010190808311612e55575b5050505050905090565b606060008060608060608060008060003373ffffffffffffffffffffffffffffffffffffffff1673ffffffffffffffffffffffffffffffffffffffff16815260200190815260200160002060080160009054906101000a900460ff16612f3b576040517fc26f0ffd00000000000000000000000000000000000000000000000000000000815260040160405180910390fd5b60008060003373ffffffffffffffffffffffffffffffffffffffff1673ffffffffffffffffffffffffffffffffffffffff16815260200190815260200160002060405180610120016040529081600082018054612f97906142e4565b80601f0160208091040260200160405190810160405280929190818152602001828054612fc3906142e4565b80156130105780601f10612fe557610100808354040283529160200191613010565b820191906000526020600020905b815481529060010190602001808311612ff357829003601f168201915b50505050508152602001600182015481526020016002820160009054906101000a900460ff166001811115613048576130476138ff565b5b600181111561305a576130596138ff565b5b815260200160038201805461306e906142e4565b80601f016020809104026020016040519081016040528092919081815260200182805461309a906142e4565b80156130e75780601f106130bc576101008083540402835291602001916130e7565b820191906000526020600020905b8154815290600101906020018083116130ca57829003601f168201915b50505050508152602001600482018054613100906142e4565b80601f016020809104026020016040519081016040528092919081815260200182805461312c906142e4565b80156131795780601f1061314e57610100808354040283529160200191613179565b820191906000526020600020905b81548152906001019060200180831161315c57829003601f168201915b50505050508152602001600582018054613192906142e4565b80601f01602080910402602001604051908101604052809291908181526020018280546131be906142e4565b801561320b5780601f106131e05761010080835404028352916020019161320b565b820191906000526020600020905b8154815290600101906020018083116131ee57829003601f168201915b50505050508152602001600682018054613224906142e4565b80601f0160208091040260200160405190810160405280929190818152602001828054613250906142e4565b801561329d5780601f106132725761010080835404028352916020019161329d565b820191906000526020600020905b81548152906001019060200180831161328057829003601f168201915b50505050508152602001600782015481526020016008820160009054906101000a900460ff1615151515815250509050806000015181602001518260400151836060015184608001518560a001518660c001518760e0015198509850985098509850985098509850509091929394959697565b601286101561334b576040517fc84eb1fe00000000000000000000000000000000000000000000000000000000815260040160405180910390fd5b6000803373ffffffffffffffffffffffffffffffffffffffff1673ffffffffffffffffffffffffffffffffffffffff16815260200190815260200160002060080160009054906101000a900460ff16156133d1576040517fba6a3fb800000000000000000000000000000000000000000000000000000000815260040160405180910390fd5b6040518061012001604052808881526020018781526020018660018111156133fc576133fb6138ff565b5b8152602001858152602001848152602001838152602001828152602001428152602001600115158152506000803373ffffffffffffffffffffffffffffffffffffffff1673ffffffffffffffffffffffffffffffffffffffff168152602001908152602001600020600082015181600001908161347991906144c1565b506020820151816001015560408201518160020160006101000a81548160ff021916908360018111156134af576134ae6138ff565b5b021790555060608201518160030190816134c991906144c1565b5060808201518160040190816134df91906144c1565b5060a08201518160050190816134f591906144c1565b5060c082015181600601908161350b91906144c1565b5060e082015181600701556101008201518160080160006101000a81548160ff0219169083151502179055509050506001339080600181540180825580915050600190039060005260206000200160009091909190916101000a81548173ffffffffffffffffffffffffffffffffffffffff021916908373ffffffffffffffffffffffffffffffffffffffff1602179055503373ffffffffffffffffffffffffffffffffffffffff167fa0ac4f59dabb0ddc4b8b883adda9e055e02c796b2cde2ed80fdb11a38f77e5c960405160405180910390a250505050505050565b5080546135f5906142e4565b6000825580601f106136075750613626565b601f0160209004906000526020600020908101906136259190613629565b5b50565b5b8082111561364257600081600090555060010161362a565b5090565b6000604051905090565b600080fd5b600080fd5b600073ffffffffffffffffffffffffffffffffffffffff82169050919050565b60006136858261365a565b9050919050565b6136958161367a565b81146136a057600080fd5b50565b6000813590506136b28161368c565b92915050565b6000602082840312156136ce576136cd613650565b5b60006136dc848285016136a3565b91505092915050565b60008115159050919050565b6136fa816136e5565b82525050565b600060208201905061371560008301846136f1565b92915050565b600081519050919050565b600082825260208201905092915050565b6000819050602082019050919050565b6137508161367a565b82525050565b60006137628383613747565b60208301905092915050565b6000602082019050919050565b60006137868261371b565b6137908185613726565b935061379b83613737565b8060005b838110156137cc5781516137b38882613756565b97506137be8361376e565b92505060018101905061379f565b5085935050505092915050565b600060208201905081810360008301526137f3818461377b565b905092915050565b6000819050919050565b61380e816137fb565b82525050565b60006020820190506138296000830184613805565b92915050565b6000806040838503121561384657613845613650565b5b6000613854858286016136a3565b9250506020613865858286016136a3565b9150509250929050565b600081519050919050565b600082825260208201905092915050565b60005b838110156138a957808201518184015260208101905061388e565b60008484015250505050565b6000601f19601f8301169050919050565b60006138d18261386f565b6138db818561387a565b93506138eb81856020860161388b565b6138f4816138b5565b840191505092915050565b7f4e487b7100000000000000000000000000000000000000000000000000000000600052602160045260246000fd5b6002811061393f5761393e6138ff565b5b50565b60008190506139508261392e565b919050565b600061396082613942565b9050919050565b61397081613955565b82525050565b6000610100820190508181036000830152613991818b6138c6565b90506139a0602083018a613805565b6139ad6040830189613967565b81810360608301526139bf81886138c6565b905081810360808301526139d381876138c6565b905081810360a08301526139e781866138c6565b905081810360c08301526139fb81856138c6565b9050613a0a60e0830184613805565b9998505050505050505050565b600080fd5b600080fd5b7f4e487b7100000000000000000000000000000000000000000000000000000000600052604160045260246000fd5b613a59826138b5565b810181811067ffffffffffffffff82111715613a7857613a77613a21565b5b80604052505050565b6000613a8b613646565b9050613a978282613a50565b919050565b600067ffffffffffffffff821115613ab757613ab6613a21565b5b613ac0826138b5565b9050602081019050919050565b82818337600083830152505050565b6000613aef613aea84613a9c565b613a81565b905082815260208101848484011115613b0b57613b0a613a1c565b5b613b16848285613acd565b509392505050565b600082601f830112613b3357613b32613a17565b5b8135613b43848260208601613adc565b91505092915050565b613b55816137fb565b8114613b6057600080fd5b50565b600081359050613b7281613b4c565b92915050565b60028110613b8557600080fd5b50565b600081359050613b9781613b78565b92915050565b600080600080600080600060e0888a031215613bbc57613bbb613650565b5b600088013567ffffffffffffffff811115613bda57613bd9613655565b5b613be68a828b01613b1e565b9750506020613bf78a828b01613b63565b9650506040613c088a828b01613b88565b955050606088013567ffffffffffffffff811115613c2957613c28613655565b5b613c358a828b01613b1e565b945050608088013567ffffffffffffffff811115613c5657613c55613655565b5b613c628a828b01613b1e565b93505060a088013567ffffffffffffffff811115613c8357613c82613655565b5b613c8f8a828b01613b1e565b92505060c088013567ffffffffffffffff811115613cb057613caf613655565b5b613cbc8a828b01613b1e565b91505092959891949750929550565b600080fd5b600080fd5b60008083601f840112613ceb57613cea613a17565b5b8235905067ffffffffffffffff811115613d0857613d07613ccb565b5b602083019150836020820283011115613d2457613d23613cd0565b5b9250929050565b600080600060408486031215613d4457613d43613650565b5b6000613d52868287016136a3565b935050602084013567ffffffffffffffff811115613d7357613d72613655565b5b613d7f86828701613cd5565b92509250509250925092565b613d948161367a565b82525050565b6000602082019050613daf6000830184613d8b565b92915050565b600080600080600080600080610100898b031215613dd657613dd5613650565b5b6000613de48b828c016136a3565b985050602089013567ffffffffffffffff811115613e0557613e04613655565b5b613e118b828c01613b1e565b9750506040613e228b828c01613b63565b9650506060613e338b828c01613b88565b955050608089013567ffffffffffffffff811115613e5457613e53613655565b5b613e608b828c01613b1e565b94505060a089013567ffffffffffffffff811115613e8157613e80613655565b5b613e8d8b828c01613b1e565b93505060c089013567ffffffffffffffff811115613eae57613ead613655565b5b613eba8b828c01613b1e565b92505060e089013567ffffffffffffffff811115613edb57613eda613655565b5b613ee78b828c01613b1e565b9150509295985092959890939650565b7f4e487b7100000000000000000000000000000000000000000000000000000000600052603260045260246000fd5b7f4e487b7100000000000000000000000000000000000000000000000000000000600052601160045260246000fd5b6000613f60826137fb565b9150613f6b836137fb565b9250828203905081811115613f8357613f82613f26565b5b92915050565b7f4e487b7100000000000000000000000000000000000000000000000000000000600052603160045260246000fd5b600067ffffffffffffffff821115613fd357613fd2613a21565b5b602082029050602081019050919050565b600081519050613ff38161368c565b92915050565b600061400c61400784613fb8565b613a81565b9050808382526020820190506020840283018581111561402f5761402e613cd0565b5b835b8181101561405857806140448882613fe4565b845260208401935050602081019050614031565b5050509392505050565b600082601f83011261407757614076613a17565b5b8151614087848260208601613ff9565b91505092915050565b6000602082840312156140a6576140a5613650565b5b600082015167ffffffffffffffff8111156140c4576140c3613655565b5b6140d084828501614062565b91505092915050565b60006140ec6140e784613a9c565b613a81565b90508281526020810184848401111561410857614107613a1c565b5b61411384828561388b565b509392505050565b600082601f8301126141305761412f613a17565b5b81516141408482602086016140d9565b91505092915050565b60008151905061415881613b4c565b92915050565b60008151905061416d81613b78565b92915050565b600080600080600080600080610100898b03121561419457614193613650565b5b600089015167ffffffffffffffff8111156141b2576141b1613655565b5b6141be8b828c0161411b565b98505060206141cf8b828c01614149565b97505060406141e08b828c0161415e565b965050606089015167ffffffffffffffff81111561420157614200613655565b5b61420d8b828c0161411b565b955050608089015167ffffffffffffffff81111561422e5761422d613655565b5b61423a8b828c0161411b565b94505060a089015167ffffffffffffffff81111561425b5761425a613655565b5b6142678b828c0161411b565b93505060c089015167ffffffffffffffff81111561428857614287613655565b5b6142948b828c0161411b565b92505060e06142a58b828c01614149565b9150509295985092959890939650565b7f4e487b7100000000000000000000000000000000000000000000000000000000600052602260045260246000fd5b600060028204905060018216806142fc57607f821691505b60208210810361430f5761430e6142b5565b5b50919050565b60008190508160005260206000209050919050565b60006020601f8301049050919050565b600082821b905092915050565b6000600883026143777fffffffffffffffffffffffffffffffffffffffffffffffffffffffffffffffff8261433a565b614381868361433a565b95508019841693508086168417925050509392505050565b6000819050919050565b60006143be6143b96143b4846137fb565b614399565b6137fb565b9050919050565b6000819050919050565b6143d8836143a3565b6143ec6143e4826143c5565b848454614347565b825550505050565b600090565b6144016143f4565b61440c8184846143cf565b505050565b5b81811015614430576144256000826143f9565b600181019050614412565b5050565b601f8211156144755761444681614315565b61444f8461432a565b8101602085101561445e578190505b61447261446a8561432a565b830182614411565b50505b505050565b600082821c905092915050565b60006144986000198460080261447a565b1980831691505092915050565b60006144b18383614487565b9150826002028217905092915050565b6144ca8261386f565b67ffffffffffffffff8111156144e3576144e2613a21565b5b6144ed82546142e4565b6144f8828285614434565b600060209050601f83116001811461452b5760008415614519578287015190505b61452385826144a5565b86555061458b565b601f19841661453986614315565b60005b828110156145615784890151825560018201915060208501945060208101905061453c565b8683101561457e578489015161457a601f891682614487565b8355505b6001600288020188555050505b505050505050565b600061459e826137fb565b91507fffffffffffffffffffffffffffffffffffffffffffffffffffffffffffffffff82036145d0576145cf613f26565b5b60018201905091905056fea2646970667358221220f62fe80d17febe83398d01c1de52780a6460cf386d4e22c2510b55ca6385b68064736f6c634300081c0033",
  "linkReferences": {},
  "deployedLinkReferences": {}
}