{
  "_format": "hh-sol-artifact-1",
  "contractName": "CandidateDatabase",
  "sourceName": "contracts/CandidateDatabase.sol",
  "abi": [
    {
      "inputs": [],
      "name": "AdminManagement__AdminNotFound",
      "type": "error"
    },
    {
      "inputs": [],
      "name": "AdminManagement__AlreadyAdmin",
      "type": "error"
    },
    {
      "inputs": [],
      "name": "AdminManagement__InvalidAddress",
      "type": "error"
    },
    {
      "inputs": [],
      "name": "AdminManagement__NotAdmin",
      "type": "error"
    },
    {
      "inputs": [],
      "name": "AdminManagement__NotOwner",
      "type": "error"
    },
    {
      "inputs": [],
      "name": "CandidateDatabase__AlreadyRegistered",
      "type": "error"
    },
    {
      "inputs": [],
      "name": "CandidateDatabase__ImportFailed",
      "type": "error"
    },
    {
      "inputs": [],
      "name": "CandidateDatabase__InvalidAddress",
      "type": "error"
    },
    {
      "inputs": [],
      "name": "CandidateDatabase__NotEligible",
      "type": "error"
    },
    {
      "inputs": [],
      "name": "CandidateDatabase__NotRegistered",
      "type": "error"
    },
    {
      "anonymous": false,
      "inputs": [
        {
          "indexed": true,
          "internalType": "address",
          "name": "admin",
          "type": "address"
        },
        {
          "indexed": true,
          "internalType": "address",
          "name": "owner",
          "type": "address"
        }
      ],
      "name": "AdminAdded",
      "type": "event"
    },
    {
      "anonymous": false,
      "inputs": [
        {
          "indexed": true,
          "internalType": "address",
          "name": "candidate",
          "type": "address"
        },
        {
          "indexed": true,
          "internalType": "address",
          "name": "admin",
          "type": "address"
        }
      ],
      "name": "AdminAddedCandidate",
      "type": "event"
    },
    {
      "anonymous": false,
      "inputs": [
        {
          "indexed": true,
          "internalType": "address",
          "name": "admin",
          "type": "address"
        },
        {
          "indexed": true,
          "internalType": "address",
          "name": "owner",
          "type": "address"
        }
      ],
      "name": "AdminRemoved",
      "type": "event"
    },
    {
      "anonymous": false,
      "inputs": [
        {
          "indexed": true,
          "internalType": "address",
          "name": "candidate",
          "type": "address"
        },
        {
          "indexed": true,
          "internalType": "address",
          "name": "admin",
          "type": "address"
        }
      ],
      "name": "AdminRemovedCandidate",
      "type": "event"
    },
    {
      "anonymous": false,
      "inputs": [
        {
          "indexed": true,
          "internalType": "address",
          "name": "candidate",
          "type": "address"
        },
        {
          "indexed": true,
          "internalType": "address",
          "name": "admin",
          "type": "address"
        }
      ],
      "name": "AdminUpdatedCandidate",
      "type": "event"
    },
    {
      "anonymous": false,
      "inputs": [
        {
          "indexed": true,
          "internalType": "address",
          "name": "candidate",
          "type": "address"
        }
      ],
      "name": "CandidateDeleted",
      "type": "event"
    },
    {
      "anonymous": false,
      "inputs": [
        {
          "indexed": true,
          "internalType": "address",
          "name": "candidate",
          "type": "address"
        }
      ],
      "name": "CandidateRegistered",
      "type": "event"
    },
    {
      "anonymous": false,
      "inputs": [
        {
          "indexed": true,
          "internalType": "address",
          "name": "candidate",
          "type": "address"
        }
      ],
      "name": "CandidateUpdated",
      "type": "event"
    },
    {
      "anonymous": false,
      "inputs": [
        {
          "indexed": true,
          "internalType": "address",
          "name": "sourceContract",
          "type": "address"
        },
        {
          "indexed": false,
          "internalType": "uint256",
          "name": "candidatesImported",
          "type": "uint256"
        }
      ],
      "name": "CandidatesImported",
      "type": "event"
    },
    {
      "inputs": [
        {
          "internalType": "address",
          "name": "_adminAddress",
          "type": "address"
        }
      ],
      "name": "addAdmin",
      "outputs": [],
      "stateMutability": "nonpayable",
      "type": "function"
    },
    {
      "inputs": [
        {
          "internalType": "string",
          "name": "_name",
          "type": "string"
        },
        {
          "internalType": "uint256",
          "name": "_dateOfBirthEpoch",
          "type": "uint256"
        },
        {
          "internalType": "enum ICandidateDatabase.Gender",
          "name": "_gender",
          "type": "uint8"
        },
        {
          "internalType": "string",
          "name": "_presentAddress",
          "type": "string"
        },
        {
          "internalType": "string",
          "name": "_email",
          "type": "string"
        },
        {
          "internalType": "string",
          "name": "_qualifications",
          "type": "string"
        },
        {
          "internalType": "string",
          "name": "_manifesto",
          "type": "string"
        }
      ],
      "name": "addCandidate",
      "outputs": [],
      "stateMutability": "nonpayable",
      "type": "function"
    },
    {
      "inputs": [
        {
          "internalType": "address",
          "name": "_candidateAddress",
          "type": "address"
        },
        {
          "internalType": "string",
          "name": "_name",
          "type": "string"
        },
        {
          "internalType": "uint256",
          "name": "_dateOfBirthEpoch",
          "type": "uint256"
        },
        {
          "internalType": "enum ICandidateDatabase.Gender",
          "name": "_gender",
          "type": "uint8"
        },
        {
          "internalType": "string",
          "name": "_presentAddress",
          "type": "string"
        },
        {
          "internalType": "string",
          "name": "_email",
          "type": "string"
        },
        {
          "internalType": "string",
          "name": "_qualifications",
          "type": "string"
        },
        {
          "internalType": "string",
          "name": "_manifesto",
          "type": "string"
        }
      ],
      "name": "adminAddCandidate",
      "outputs": [],
      "stateMutability": "nonpayable",
      "type": "function"
    },
    {
      "inputs": [
        {
          "internalType": "address",
          "name": "_sourceContract",
          "type": "address"
        },
        {
          "internalType": "address[]",
          "name": "_candidateAddresses",
          "type": "address[]"
        }
      ],
      "name": "adminBatchImportCandidates",
      "outputs": [],
      "stateMutability": "nonpayable",
      "type": "function"
    },
    {
      "inputs": [
        {
          "internalType": "address",
          "name": "_sourceContract",
          "type": "address"
        }
      ],
      "name": "adminImportAllCandidates",
      "outputs": [],
      "stateMutability": "nonpayable",
      "type": "function"
    },
    {
      "inputs": [
        {
          "internalType": "address",
          "name": "_sourceContract",
          "type": "address"
        },
        {
          "internalType": "address",
          "name": "_candidateAddress",
          "type": "address"
        }
      ],
      "name": "adminImportCandidate",
      "outputs": [],
      "stateMutability": "nonpayable",
      "type": "function"
    },
    {
      "inputs": [
        {
          "internalType": "address",
          "name": "_candidateAddress",
          "type": "address"
        }
      ],
      "name": "adminRemoveCandidate",
      "outputs": [],
      "stateMutability": "nonpayable",
      "type": "function"
    },
    {
      "inputs": [
        {
          "internalType": "address",
          "name": "_candidateAddress",
          "type": "address"
        },
        {
          "internalType": "string",
          "name": "_name",
          "type": "string"
        },
        {
          "internalType": "uint256",
          "name": "_dateOfBirthEpoch",
          "type": "uint256"
        },
        {
          "internalType": "enum ICandidateDatabase.Gender",
          "name": "_gender",
          "type": "uint8"
        },
        {
          "internalType": "string",
          "name": "_presentAddress",
          "type": "string"
        },
        {
          "internalType": "string",
          "name": "_email",
          "type": "string"
        },
        {
          "internalType": "string",
          "name": "_qualifications",
          "type": "string"
        },
        {
          "internalType": "string",
          "name": "_manifesto",
          "type": "string"
        }
      ],
      "name": "adminUpdateCandidate",
      "outputs": [],
      "stateMutability": "nonpayable",
      "type": "function"
    },
    {
      "inputs": [],
      "name": "amIAdmin",
      "outputs": [
        {
          "internalType": "bool",
          "name": "",
          "type": "bool"
        }
      ],
      "stateMutability": "view",
      "type": "function"
    },
    {
      "inputs": [],
      "name": "deleteCandidate",
      "outputs": [],
      "stateMutability": "nonpayable",
      "type": "function"
    },
    {
      "inputs": [],
      "name": "getAdminCount",
      "outputs": [
        {
          "internalType": "uint256",
          "name": "",
          "type": "uint256"
        }
      ],
      "stateMutability": "view",
      "type": "function"
    },
    {
      "inputs": [],
      "name": "getAllAdmins",
      "outputs": [
        {
          "internalType": "address[]",
          "name": "",
          "type": "address[]"
        }
      ],
      "stateMutability": "view",
      "type": "function"
    },
    {
      "inputs": [],
      "name": "getAllCandidates",
      "outputs": [
        {
          "internalType": "address[]",
          "name": "",
          "type": "address[]"
        }
      ],
      "stateMutability": "view",
      "type": "function"
    },
    {
      "inputs": [],
      "name": "getCandidateCount",
      "outputs": [
        {
          "internalType": "uint256",
          "name": "count",
          "type": "uint256"
        }
      ],
      "stateMutability": "view",
      "type": "function"
    },
    {
      "inputs": [
        {
          "internalType": "address",
          "name": "_candidateAddress",
          "type": "address"
        }
      ],
      "name": "getCandidateDetails",
      "outputs": [
        {
          "internalType": "string",
          "name": "name",
          "type": "string"
        },
        {
          "internalType": "uint256",
          "name": "dateOfBirthEpoch",
          "type": "uint256"
        },
        {
          "internalType": "enum ICandidateDatabase.Gender",
          "name": "gender",
          "type": "uint8"
        },
        {
          "internalType": "string",
          "name": "presentAddress",
          "type": "string"
        },
        {
          "internalType": "string",
          "name": "email",
          "type": "string"
        },
        {
          "internalType": "string",
          "name": "qualifications",
          "type": "string"
        },
        {
          "internalType": "string",
          "name": "manifesto",
          "type": "string"
        },
        {
          "internalType": "uint256",
          "name": "registrationTimestamp",
          "type": "uint256"
        }
      ],
      "stateMutability": "view",
      "type": "function"
    },
    {
      "inputs": [
        {
          "internalType": "address",
          "name": "_candidateAddress",
          "type": "address"
        }
      ],
      "name": "getCandidateRegistrationStatus",
      "outputs": [
        {
          "internalType": "bool",
          "name": "isRegistered",
          "type": "bool"
        }
      ],
      "stateMutability": "view",
      "type": "function"
    },
    {
      "inputs": [],
      "name": "getMyAge",
      "outputs": [
        {
          "internalType": "uint256",
          "name": "age",
          "type": "uint256"
        }
      ],
      "stateMutability": "view",
      "type": "function"
    },
    {
      "inputs": [],
      "name": "getMyDetails",
      "outputs": [
        {
          "internalType": "string",
          "name": "name",
          "type": "string"
        },
        {
          "internalType": "uint256",
          "name": "dateOfBirthEpoch",
          "type": "uint256"
        },
        {
          "internalType": "enum ICandidateDatabase.Gender",
          "name": "gender",
          "type": "uint8"
        },
        {
          "internalType": "string",
          "name": "presentAddress",
          "type": "string"
        },
        {
          "internalType": "string",
          "name": "email",
          "type": "string"
        },
        {
          "internalType": "string",
          "name": "qualifications",
          "type": "string"
        },
        {
          "internalType": "string",
          "name": "manifesto",
          "type": "string"
        },
        {
          "internalType": "uint256",
          "name": "registrationTimestamp",
          "type": "uint256"
        }
      ],
      "stateMutability": "view",
      "type": "function"
    },
    {
      "inputs": [],
      "name": "getMyRegistrationStatus",
      "outputs": [
        {
          "internalType": "bool",
          "name": "isRegistered",
          "type": "bool"
        }
      ],
      "stateMutability": "view",
      "type": "function"
    },
    {
      "inputs": [],
      "name": "getOwner",
      "outputs": [
        {
          "internalType": "address",
          "name": "",
          "type": "address"
        }
      ],
      "stateMutability": "view",
      "type": "function"
    },
    {
      "inputs": [
        {
          "internalType": "address",
          "name": "_address",
          "type": "address"
        }
      ],
      "name": "isAdmin",
      "outputs": [
        {
          "internalType": "bool",
          "name": "",
          "type": "bool"
        }
      ],
      "stateMutability": "view",
      "type": "function"
    },
    {
      "inputs": [
        {
          "internalType": "address",
          "name": "_adminAddress",
          "type": "address"
        }
      ],
      "name": "removeAdmin",
      "outputs": [],
      "stateMutability": "nonpayable",
      "type": "function"
    },
    {
      "inputs": [
        {
          "internalType": "string",
          "name": "_name",
          "type": "string"
        },
        {
          "internalType": "uint256",
          "name": "_dateOfBirthEpoch",
          "type": "uint256"
        },
        {
          "internalType": "enum ICandidateDatabase.Gender",
          "name": "_gender",
          "type": "uint8"
        },
        {
          "internalType": "string",
          "name": "_presentAddress",
          "type": "string"
        },
        {
          "internalType": "string",
          "name": "_email",
          "type": "string"
        },
        {
          "internalType": "string",
          "name": "_qualifications",
          "type": "string"
        },
        {
          "internalType": "string",
          "name": "_manifesto",
          "type": "string"
        }
      ],
      "name": "updateCandidate",
      "outputs": [],
      "stateMutability": "nonpayable",
      "type": "function"
    }
  ],
  "bytecode": "0x60a060405234801561001057600080fd5b503373ffffffffffffffffffffffffffffffffffffffff1660808173ffffffffffffffffffffffffffffffffffffffff1681525050608051613cb961009f600039600081816104220152818161075b01528181610d33015281816110a80152818161186b01528181611af001528181611c9a015281816120480152818161208b01526122910152613cb96000f3fe608060405234801561001057600080fd5b506004361061014d5760003560e01c806370480275116100c3578063934f1cca1161007c578063934f1cca1461038657806399e476e7146103a4578063a417c52c146103c0578063cdd0e1a7146103ca578063e9523c97146103e6578063fd270ed6146104045761014d565b806370480275146102d857806372bd364e146102f45780637effaef11461031057806384699ad91461032c578063893d20e81461034a5780638b7bf3eb146103685761014d565b8063431bbb7e11610115578063431bbb7e1461020a57806346b7cd631461022f5780634eddfa8a1461024b57806353ac5dc3146102675780635b409d091461029e57806366d4c506146102bc5761014d565b80631785f53c1461015257806324d7806c1461016e5780632e6997fe1461019e5780632f0acbe1146101bc57806330a56347146101ec575b600080fd5b61016c60048036038101906101679190612cf2565b610420565b005b61018860048036038101906101839190612cf2565b610757565b6040516101959190612d3a565b60405180910390f35b6101a6610802565b6040516101b39190612e13565b60405180910390f35b6101d660048036038101906101d19190612cf2565b610890565b6040516101e39190612d3a565b60405180910390f35b6101f46108de565b6040516102019190612e4e565b60405180910390f35b6102126108eb565b604051610226989796959493929190612f70565b60405180910390f35b61024960048036038101906102449190612cf2565b610d31565b005b61026560048036038101906102609190613011565b6110a6565b005b610281600480360381019061027c9190612cf2565b61137a565b604051610295989796959493929190612f70565b60405180910390f35b6102a66117c1565b6040516102b39190612d3a565b60405180910390f35b6102d660048036038101906102d191906131d7565b61180d565b005b6102f260048036038101906102ed9190612cf2565b611869565b005b61030e60048036038101906103099190612cf2565b611aee565b005b61032a60048036038101906103259190613365565b611c98565b005b610334611f74565b6040516103419190612e4e565b60405180910390f35b610352612044565b60405161035f91906133d4565b60405180910390f35b61037061206c565b60405161037d9190612e4e565b60405180910390f35b61038e612079565b60405161039b9190612d3a565b60405180910390f35b6103be60048036038101906103b991906133ef565b612089565b005b6103c8612241565b005b6103e460048036038101906103df91906133ef565b61228f565b005b6103ee612447565b6040516103fb9190612e13565b60405180910390f35b61041e600480360381019061041991906131d7565b6124d5565b005b7f000000000000000000000000000000000000000000000000000000000000000073ffffffffffffffffffffffffffffffffffffffff163373ffffffffffffffffffffffffffffffffffffffff16146104a5576040517fbe2ac67400000000000000000000000000000000000000000000000000000000815260040160405180910390fd5b6000808273ffffffffffffffffffffffffffffffffffffffff1673ffffffffffffffffffffffffffffffffffffffff16815260200190815260200160002060009054906101000a900460ff16610527576040517f256d404300000000000000000000000000000000000000000000000000000000815260040160405180910390fd5b6000808273ffffffffffffffffffffffffffffffffffffffff1673ffffffffffffffffffffffffffffffffffffffff16815260200190815260200160002060006101000a81549060ff02191690556000600180549050905060005b818110156106f8578273ffffffffffffffffffffffffffffffffffffffff16600182815481106105b5576105b4613531565b5b9060005260206000200160009054906101000a900473ffffffffffffffffffffffffffffffffffffffff1673ffffffffffffffffffffffffffffffffffffffff16036106ed5760018083610609919061358f565b8154811061061a57610619613531565b5b9060005260206000200160009054906101000a900473ffffffffffffffffffffffffffffffffffffffff166001828154811061065957610658613531565b5b9060005260206000200160006101000a81548173ffffffffffffffffffffffffffffffffffffffff021916908373ffffffffffffffffffffffffffffffffffffffff16021790555060018054806106b3576106b26135c3565b5b6001900381819060005260206000200160006101000a81549073ffffffffffffffffffffffffffffffffffffffff021916905590556106f8565b806001019050610582565b503373ffffffffffffffffffffffffffffffffffffffff168273ffffffffffffffffffffffffffffffffffffffff167fdb9d5d31320daf5bc7181d565b6da4d12e30f0f4d5aa324a992426c14a1d19ce60405160405180910390a35050565b60007f000000000000000000000000000000000000000000000000000000000000000073ffffffffffffffffffffffffffffffffffffffff168273ffffffffffffffffffffffffffffffffffffffff1614806107fb57506000808373ffffffffffffffffffffffffffffffffffffffff1673ffffffffffffffffffffffffffffffffffffffff16815260200190815260200160002060009054906101000a900460ff165b9050919050565b6060600380548060200260200160405190810160405280929190818152602001828054801561088657602002820191906000526020600020905b8160009054906101000a900473ffffffffffffffffffffffffffffffffffffffff1673ffffffffffffffffffffffffffffffffffffffff168152602001906001019080831161083c575b5050505050905090565b600080600260008473ffffffffffffffffffffffffffffffffffffffff1673ffffffffffffffffffffffffffffffffffffffff16815260200190815260200160002060070154119050919050565b6000600380549050905090565b60606000806060806060806000336000600260008373ffffffffffffffffffffffffffffffffffffffff1673ffffffffffffffffffffffffffffffffffffffff1681526020019081526020016000206007015403610975576040517fc26f0ffd00000000000000000000000000000000000000000000000000000000815260040160405180910390fd5b6000600260003373ffffffffffffffffffffffffffffffffffffffff1673ffffffffffffffffffffffffffffffffffffffff168152602001908152602001600020604051806101000160405290816000820180546109d290613621565b80601f01602080910402602001604051908101604052809291908181526020018280546109fe90613621565b8015610a4b5780601f10610a2057610100808354040283529160200191610a4b565b820191906000526020600020905b815481529060010190602001808311610a2e57829003601f168201915b50505050508152602001600182018054610a6490613621565b80601f0160208091040260200160405190810160405280929190818152602001828054610a9090613621565b8015610add5780601f10610ab257610100808354040283529160200191610add565b820191906000526020600020905b815481529060010190602001808311610ac057829003601f168201915b50505050508152602001600282018054610af690613621565b80601f0160208091040260200160405190810160405280929190818152602001828054610b2290613621565b8015610b6f5780601f10610b4457610100808354040283529160200191610b6f565b820191906000526020600020905b815481529060010190602001808311610b5257829003601f168201915b50505050508152602001600382018054610b8890613621565b80601f0160208091040260200160405190810160405280929190818152602001828054610bb490613621565b8015610c015780601f10610bd657610100808354040283529160200191610c01565b820191906000526020600020905b815481529060010190602001808311610be457829003601f168201915b50505050508152602001600482018054610c1a90613621565b80601f0160208091040260200160405190810160405280929190818152602001828054610c4690613621565b8015610c935780601f10610c6857610100808354040283529160200191610c93565b820191906000526020600020905b815481529060010190602001808311610c7657829003601f168201915b505050505081526020016005820160009054906101000a900460ff166001811115610cc157610cc0612ef9565b5b6001811115610cd357610cd2612ef9565b5b815260200160068201548152602001600782015481525050905080600001518160c001518260a0015183602001518460400151856060015186608001518760e001519950995099509950995099509950995050509091929394959697565b7f000000000000000000000000000000000000000000000000000000000000000073ffffffffffffffffffffffffffffffffffffffff163373ffffffffffffffffffffffffffffffffffffffff1614158015610dd657506000803373ffffffffffffffffffffffffffffffffffffffff1673ffffffffffffffffffffffffffffffffffffffff16815260200190815260200160002060009054906101000a900460ff16155b15610e0d576040517f87a8a82e00000000000000000000000000000000000000000000000000000000815260040160405180910390fd5b600081905060608173ffffffffffffffffffffffffffffffffffffffff16632e6997fe6040518163ffffffff1660e01b8152600401600060405180830381865afa925050508015610e8157506040513d6000823e3d601f19601f82011682018060405250810190610e7e919061372a565b60015b610eb7576040517fb9c861f000000000000000000000000000000000000000000000000000000000815260040160405180910390fd5b809150506000808251905060005b81811015611050576000848281518110610ee257610ee1613531565b5b602002602001015190506000600260008373ffffffffffffffffffffffffffffffffffffffff1673ffffffffffffffffffffffffffffffffffffffff168152602001908152602001600020600701541115610f43578160010191505061104b565b8573ffffffffffffffffffffffffffffffffffffffff166353ac5dc3826040518263ffffffff1660e01b8152600401610f7c91906133d4565b600060405180830381865afa925050508015610fbb57506040513d6000823e3d601f19601f82011682018060405250810190610fb8919061380d565b60015b610fcb578160010191505061104b565b610fdb8989898989898989612531565b3373ffffffffffffffffffffffffffffffffffffffff168973ffffffffffffffffffffffffffffffffffffffff167fbae38c103fcb399c54b7f4938cbeb7260b54380334fd0f5365f5eecde90d759a60405160405180910390a38960010199508b6001019b505050505050505050505b610ec5565b508473ffffffffffffffffffffffffffffffffffffffff167f7b11f9707fd616002d9c0f0983f21e0021088827cc3a7fc4f36175ecb4782d51836040516110979190612e4e565b60405180910390a25050505050565b7f000000000000000000000000000000000000000000000000000000000000000073ffffffffffffffffffffffffffffffffffffffff163373ffffffffffffffffffffffffffffffffffffffff161415801561114b57506000803373ffffffffffffffffffffffffffffffffffffffff1673ffffffffffffffffffffffffffffffffffffffff16815260200190815260200160002060009054906101000a900460ff16155b15611182576040517f87a8a82e00000000000000000000000000000000000000000000000000000000815260040160405180910390fd5b806000600260008373ffffffffffffffffffffffffffffffffffffffff1673ffffffffffffffffffffffffffffffffffffffff168152602001908152602001600020600701541115611200576040517fba6a3fb800000000000000000000000000000000000000000000000000000000815260040160405180910390fd5b60008390508073ffffffffffffffffffffffffffffffffffffffff166353ac5dc3846040518263ffffffff1660e01b815260040161123e91906133d4565b600060405180830381865afa92505050801561127d57506040513d6000823e3d601f19601f8201168201806040525081019061127a919061380d565b60015b6112b3576040517fb9c861f000000000000000000000000000000000000000000000000000000000815260040160405180910390fd5b6112c38b89898989898989612531565b3373ffffffffffffffffffffffffffffffffffffffff168b73ffffffffffffffffffffffffffffffffffffffff167fbae38c103fcb399c54b7f4938cbeb7260b54380334fd0f5365f5eecde90d759a60405160405180910390a38b73ffffffffffffffffffffffffffffffffffffffff167f7b11f9707fd616002d9c0f0983f21e0021088827cc3a7fc4f36175ecb4782d5160016040516113649190613994565b60405180910390a2505050505050505050505050565b60606000806060806060806000886000600260008373ffffffffffffffffffffffffffffffffffffffff1673ffffffffffffffffffffffffffffffffffffffff1681526020019081526020016000206007015403611404576040517fc26f0ffd00000000000000000000000000000000000000000000000000000000815260040160405180910390fd5b6000600260008c73ffffffffffffffffffffffffffffffffffffffff1673ffffffffffffffffffffffffffffffffffffffff1681526020019081526020016000206040518061010001604052908160008201805461146190613621565b80601f016020809104026020016040519081016040528092919081815260200182805461148d90613621565b80156114da5780601f106114af576101008083540402835291602001916114da565b820191906000526020600020905b8154815290600101906020018083116114bd57829003601f168201915b505050505081526020016001820180546114f390613621565b80601f016020809104026020016040519081016040528092919081815260200182805461151f90613621565b801561156c5780601f106115415761010080835404028352916020019161156c565b820191906000526020600020905b81548152906001019060200180831161154f57829003601f168201915b5050505050815260200160028201805461158590613621565b80601f01602080910402602001604051908101604052809291908181526020018280546115b190613621565b80156115fe5780601f106115d3576101008083540402835291602001916115fe565b820191906000526020600020905b8154815290600101906020018083116115e157829003601f168201915b5050505050815260200160038201805461161790613621565b80601f016020809104026020016040519081016040528092919081815260200182805461164390613621565b80156116905780601f1061166557610100808354040283529160200191611690565b820191906000526020600020905b81548152906001019060200180831161167357829003601f168201915b505050505081526020016004820180546116a990613621565b80601f01602080910402602001604051908101604052809291908181526020018280546116d590613621565b80156117225780601f106116f757610100808354040283529160200191611722565b820191906000526020600020905b81548152906001019060200180831161170557829003601f168201915b505050505081526020016005820160009054906101000a900460ff1660018111156117505761174f612ef9565b5b600181111561176257611761612ef9565b5b815260200160068201548152602001600782015481525050905080600001518160c001518260a0015183602001518460400151856060015186608001518760e00151995099509950995099509950995099505050919395975091939597565b600080600260003373ffffffffffffffffffffffffffffffffffffffff1673ffffffffffffffffffffffffffffffffffffffff1681526020019081526020016000206007015411905090565b61181d33888888888888886127a2565b3373ffffffffffffffffffffffffffffffffffffffff167f5c1cd16d0c55845505cf06834fc8d64b03a2fb0c2ffea81be006fd3fe764ede460405160405180910390a250505050505050565b7f000000000000000000000000000000000000000000000000000000000000000073ffffffffffffffffffffffffffffffffffffffff163373ffffffffffffffffffffffffffffffffffffffff16146118ee576040517fbe2ac67400000000000000000000000000000000000000000000000000000000815260040160405180910390fd5b600073ffffffffffffffffffffffffffffffffffffffff168173ffffffffffffffffffffffffffffffffffffffff1603611954576040517fd9fa4b4700000000000000000000000000000000000000000000000000000000815260040160405180910390fd5b6000808273ffffffffffffffffffffffffffffffffffffffff1673ffffffffffffffffffffffffffffffffffffffff16815260200190815260200160002060009054906101000a900460ff16156119d7576040517f4e16b38200000000000000000000000000000000000000000000000000000000815260040160405180910390fd5b60016000808373ffffffffffffffffffffffffffffffffffffffff1673ffffffffffffffffffffffffffffffffffffffff16815260200190815260200160002060006101000a81548160ff0219169083151502179055506001819080600181540180825580915050600190039060005260206000200160009091909190916101000a81548173ffffffffffffffffffffffffffffffffffffffff021916908373ffffffffffffffffffffffffffffffffffffffff1602179055503373ffffffffffffffffffffffffffffffffffffffff168173ffffffffffffffffffffffffffffffffffffffff167fbf3f493c772c8c283fd124432c2d0f539ab343faa04258fe88e52912d36b102b60405160405180910390a350565b7f000000000000000000000000000000000000000000000000000000000000000073ffffffffffffffffffffffffffffffffffffffff163373ffffffffffffffffffffffffffffffffffffffff1614158015611b9357506000803373ffffffffffffffffffffffffffffffffffffffff1673ffffffffffffffffffffffffffffffffffffffff16815260200190815260200160002060009054906101000a900460ff16155b15611bca576040517f87a8a82e00000000000000000000000000000000000000000000000000000000815260040160405180910390fd5b80600073ffffffffffffffffffffffffffffffffffffffff168173ffffffffffffffffffffffffffffffffffffffff1603611c31576040517fab820aca00000000000000000000000000000000000000000000000000000000815260040160405180910390fd5b611c3a82612942565b3373ffffffffffffffffffffffffffffffffffffffff168273ffffffffffffffffffffffffffffffffffffffff167f43204b0e5a9d6247fc2ce4f9b08b3aa78f102cbda5bdd93a132a18a676f1134060405160405180910390a35050565b7f000000000000000000000000000000000000000000000000000000000000000073ffffffffffffffffffffffffffffffffffffffff163373ffffffffffffffffffffffffffffffffffffffff1614158015611d3d57506000803373ffffffffffffffffffffffffffffffffffffffff1673ffffffffffffffffffffffffffffffffffffffff16815260200190815260200160002060009054906101000a900460ff16155b15611d74576040517f87a8a82e00000000000000000000000000000000000000000000000000000000815260040160405180910390fd5b600083905060008084849050905060005b81811015611f1d576000868683818110611da257611da1613531565b5b9050602002016020810190611db79190612cf2565b90506000600260008373ffffffffffffffffffffffffffffffffffffffff1673ffffffffffffffffffffffffffffffffffffffff168152602001908152602001600020600701541115611e105781600101915050611f18565b8473ffffffffffffffffffffffffffffffffffffffff166353ac5dc3826040518263ffffffff1660e01b8152600401611e4991906133d4565b600060405180830381865afa925050508015611e8857506040513d6000823e3d601f19601f82011682018060405250810190611e85919061380d565b60015b611e985781600101915050611f18565b611ea88989898989898989612531565b3373ffffffffffffffffffffffffffffffffffffffff168973ffffffffffffffffffffffffffffffffffffffff167fbae38c103fcb399c54b7f4938cbeb7260b54380334fd0f5365f5eecde90d759a60405160405180910390a38960010199508b6001019b505050505050505050505b611d85565b508573ffffffffffffffffffffffffffffffffffffffff167f7b11f9707fd616002d9c0f0983f21e0021088827cc3a7fc4f36175ecb4782d5183604051611f649190612e4e565b60405180910390a2505050505050565b6000336000600260008373ffffffffffffffffffffffffffffffffffffffff1673ffffffffffffffffffffffffffffffffffffffff1681526020019081526020016000206007015403611ff3576040517fc26f0ffd00000000000000000000000000000000000000000000000000000000815260040160405180910390fd5b61203e600260003373ffffffffffffffffffffffffffffffffffffffff1673ffffffffffffffffffffffffffffffffffffffff16815260200190815260200160002060060154612bff565b91505090565b60007f0000000000000000000000000000000000000000000000000000000000000000905090565b6000600180549050905090565b600061208433610757565b905090565b7f000000000000000000000000000000000000000000000000000000000000000073ffffffffffffffffffffffffffffffffffffffff163373ffffffffffffffffffffffffffffffffffffffff161415801561212e57506000803373ffffffffffffffffffffffffffffffffffffffff1673ffffffffffffffffffffffffffffffffffffffff16815260200190815260200160002060009054906101000a900460ff16155b15612165576040517f87a8a82e00000000000000000000000000000000000000000000000000000000815260040160405180910390fd5b87600073ffffffffffffffffffffffffffffffffffffffff168173ffffffffffffffffffffffffffffffffffffffff16036121cc576040517fab820aca00000000000000000000000000000000000000000000000000000000815260040160405180910390fd5b6121dc8989898989898989612531565b3373ffffffffffffffffffffffffffffffffffffffff168973ffffffffffffffffffffffffffffffffffffffff167fbae38c103fcb399c54b7f4938cbeb7260b54380334fd0f5365f5eecde90d759a60405160405180910390a3505050505050505050565b61224a33612942565b3373ffffffffffffffffffffffffffffffffffffffff167f6fe1c8a36bbf04217ace8c02e2469521bb21107f6f54ae5213ab312b8ae1bb6f60405160405180910390a2565b7f000000000000000000000000000000000000000000000000000000000000000073ffffffffffffffffffffffffffffffffffffffff163373ffffffffffffffffffffffffffffffffffffffff161415801561233457506000803373ffffffffffffffffffffffffffffffffffffffff1673ffffffffffffffffffffffffffffffffffffffff16815260200190815260200160002060009054906101000a900460ff16155b1561236b576040517f87a8a82e00000000000000000000000000000000000000000000000000000000815260040160405180910390fd5b87600073ffffffffffffffffffffffffffffffffffffffff168173ffffffffffffffffffffffffffffffffffffffff16036123d2576040517fab820aca00000000000000000000000000000000000000000000000000000000815260040160405180910390fd5b6123e289898989898989896127a2565b3373ffffffffffffffffffffffffffffffffffffffff168973ffffffffffffffffffffffffffffffffffffffff167f9a558f778a9c36163180e5c4b2d6f3e7b43f255a529c2606e3ec5ac5b5214e5060405160405180910390a3505050505050505050565b606060018054806020026020016040519081016040528092919081815260200182805480156124cb57602002820191906000526020600020905b8160009054906101000a900473ffffffffffffffffffffffffffffffffffffffff1673ffffffffffffffffffffffffffffffffffffffff1681526020019060010190808311612481575b5050505050905090565b6124e53388888888888888612531565b3373ffffffffffffffffffffffffffffffffffffffff167fa0ac4f59dabb0ddc4b8b883adda9e055e02c796b2cde2ed80fdb11a38f77e5c960405160405180910390a250505050505050565b85601261253d82612bff565b1015612575576040517fc84eb1fe00000000000000000000000000000000000000000000000000000000815260040160405180910390fd5b886000600260008373ffffffffffffffffffffffffffffffffffffffff1673ffffffffffffffffffffffffffffffffffffffff1681526020019081526020016000206007015411156125f3576040517fba6a3fb800000000000000000000000000000000000000000000000000000000815260040160405180910390fd5b6040518061010001604052808a81526020018781526020018681526020018581526020018481526020018860018111156126305761262f612ef9565b5b815260200189815260200142815250600260008c73ffffffffffffffffffffffffffffffffffffffff1673ffffffffffffffffffffffffffffffffffffffff16815260200190815260200160002060008201518160000190816126939190613b51565b5060208201518160010190816126a99190613b51565b5060408201518160020190816126bf9190613b51565b5060608201518160030190816126d59190613b51565b5060808201518160040190816126eb9190613b51565b5060a08201518160050160006101000a81548160ff0219169083600181111561271757612716612ef9565b5b021790555060c0820151816006015560e0820151816007015590505060038a9080600181540180825580915050600190039060005260206000200160009091909190916101000a81548173ffffffffffffffffffffffffffffffffffffffff021916908373ffffffffffffffffffffffffffffffffffffffff16021790555050505050505050505050565b8560126127ae82612bff565b10156127e6576040517fc84eb1fe00000000000000000000000000000000000000000000000000000000815260040160405180910390fd5b886000600260008373ffffffffffffffffffffffffffffffffffffffff1673ffffffffffffffffffffffffffffffffffffffff1681526020019081526020016000206007015403612863576040517fc26f0ffd00000000000000000000000000000000000000000000000000000000815260040160405180910390fd5b6000600260008c73ffffffffffffffffffffffffffffffffffffffff1673ffffffffffffffffffffffffffffffffffffffff1681526020019081526020016000209050898160000190816128b79190613b51565b50888160060181905550878160050160006101000a81548160ff021916908360018111156128e8576128e7612ef9565b5b0217905550868160010190816128fe9190613b51565b50858160020190816129109190613b51565b50848160030190816129229190613b51565b50838160040190816129349190613b51565b505050505050505050505050565b806000600260008373ffffffffffffffffffffffffffffffffffffffff1673ffffffffffffffffffffffffffffffffffffffff16815260200190815260200160002060070154036129bf576040517fc26f0ffd00000000000000000000000000000000000000000000000000000000815260040160405180910390fd5b600260008373ffffffffffffffffffffffffffffffffffffffff1673ffffffffffffffffffffffffffffffffffffffff16815260200190815260200160002060008082016000612a0f9190612c23565b600182016000612a1f9190612c23565b600282016000612a2f9190612c23565b600382016000612a3f9190612c23565b600482016000612a4f9190612c23565b6005820160006101000a81549060ff02191690556006820160009055600782016000905550506000600380549050905060005b81811015612bf9578373ffffffffffffffffffffffffffffffffffffffff1660038281548110612ab557612ab4613531565b5b9060005260206000200160009054906101000a900473ffffffffffffffffffffffffffffffffffffffff1673ffffffffffffffffffffffffffffffffffffffff1603612bee576003600183612b0a919061358f565b81548110612b1b57612b1a613531565b5b9060005260206000200160009054906101000a900473ffffffffffffffffffffffffffffffffffffffff1660038281548110612b5a57612b59613531565b5b9060005260206000200160006101000a81548173ffffffffffffffffffffffffffffffffffffffff021916908373ffffffffffffffffffffffffffffffffffffffff1602179055506003805480612bb457612bb36135c3565b5b6001900381819060005260206000200160006101000a81549073ffffffffffffffffffffffffffffffffffffffff02191690559055612bf9565b806001019050612a82565b50505050565b60006301e133808242612c12919061358f565b612c1c9190613c52565b9050919050565b508054612c2f90613621565b6000825580601f10612c415750612c60565b601f016020900490600052602060002090810190612c5f9190612c63565b5b50565b5b80821115612c7c576000816000905550600101612c64565b5090565b6000604051905090565b600080fd5b600080fd5b600073ffffffffffffffffffffffffffffffffffffffff82169050919050565b6000612cbf82612c94565b9050919050565b612ccf81612cb4565b8114612cda57600080fd5b50565b600081359050612cec81612cc6565b92915050565b600060208284031215612d0857612d07612c8a565b5b6000612d1684828501612cdd565b91505092915050565b60008115159050919050565b612d3481612d1f565b82525050565b6000602082019050612d4f6000830184612d2b565b92915050565b600081519050919050565b600082825260208201905092915050565b6000819050602082019050919050565b612d8a81612cb4565b82525050565b6000612d9c8383612d81565b60208301905092915050565b6000602082019050919050565b6000612dc082612d55565b612dca8185612d60565b9350612dd583612d71565b8060005b83811015612e06578151612ded8882612d90565b9750612df883612da8565b925050600181019050612dd9565b5085935050505092915050565b60006020820190508181036000830152612e2d8184612db5565b905092915050565b6000819050919050565b612e4881612e35565b82525050565b6000602082019050612e636000830184612e3f565b92915050565b600081519050919050565b600082825260208201905092915050565b60005b83811015612ea3578082015181840152602081019050612e88565b60008484015250505050565b6000601f19601f8301169050919050565b6000612ecb82612e69565b612ed58185612e74565b9350612ee5818560208601612e85565b612eee81612eaf565b840191505092915050565b7f4e487b7100000000000000000000000000000000000000000000000000000000600052602160045260246000fd5b60028110612f3957612f38612ef9565b5b50565b6000819050612f4a82612f28565b919050565b6000612f5a82612f3c565b9050919050565b612f6a81612f4f565b82525050565b6000610100820190508181036000830152612f8b818b612ec0565b9050612f9a602083018a612e3f565b612fa76040830189612f61565b8181036060830152612fb98188612ec0565b90508181036080830152612fcd8187612ec0565b905081810360a0830152612fe18186612ec0565b905081810360c0830152612ff58185612ec0565b905061300460e0830184612e3f565b9998505050505050505050565b6000806040838503121561302857613027612c8a565b5b600061303685828601612cdd565b925050602061304785828601612cdd565b9150509250929050565b600080fd5b600080fd5b7f4e487b7100000000000000000000000000000000000000000000000000000000600052604160045260246000fd5b61309382612eaf565b810181811067ffffffffffffffff821117156130b2576130b161305b565b5b80604052505050565b60006130c5612c80565b90506130d1828261308a565b919050565b600067ffffffffffffffff8211156130f1576130f061305b565b5b6130fa82612eaf565b9050602081019050919050565b82818337600083830152505050565b6000613129613124846130d6565b6130bb565b90508281526020810184848401111561314557613144613056565b5b613150848285613107565b509392505050565b600082601f83011261316d5761316c613051565b5b813561317d848260208601613116565b91505092915050565b61318f81612e35565b811461319a57600080fd5b50565b6000813590506131ac81613186565b92915050565b600281106131bf57600080fd5b50565b6000813590506131d1816131b2565b92915050565b600080600080600080600060e0888a0312156131f6576131f5612c8a565b5b600088013567ffffffffffffffff81111561321457613213612c8f565b5b6132208a828b01613158565b97505060206132318a828b0161319d565b96505060406132428a828b016131c2565b955050606088013567ffffffffffffffff81111561326357613262612c8f565b5b61326f8a828b01613158565b945050608088013567ffffffffffffffff8111156132905761328f612c8f565b5b61329c8a828b01613158565b93505060a088013567ffffffffffffffff8111156132bd576132bc612c8f565b5b6132c98a828b01613158565b92505060c088013567ffffffffffffffff8111156132ea576132e9612c8f565b5b6132f68a828b01613158565b91505092959891949750929550565b600080fd5b600080fd5b60008083601f84011261332557613324613051565b5b8235905067ffffffffffffffff81111561334257613341613305565b5b60208301915083602082028301111561335e5761335d61330a565b5b9250929050565b60008060006040848603121561337e5761337d612c8a565b5b600061338c86828701612cdd565b935050602084013567ffffffffffffffff8111156133ad576133ac612c8f565b5b6133b98682870161330f565b92509250509250925092565b6133ce81612cb4565b82525050565b60006020820190506133e960008301846133c5565b92915050565b600080600080600080600080610100898b0312156134105761340f612c8a565b5b600061341e8b828c01612cdd565b985050602089013567ffffffffffffffff81111561343f5761343e612c8f565b5b61344b8b828c01613158565b975050604061345c8b828c0161319d565b965050606061346d8b828c016131c2565b955050608089013567ffffffffffffffff81111561348e5761348d612c8f565b5b61349a8b828c01613158565b94505060a089013567ffffffffffffffff8111156134bb576134ba612c8f565b5b6134c78b828c01613158565b93505060c089013567ffffffffffffffff8111156134e8576134e7612c8f565b5b6134f48b828c01613158565b92505060e089013567ffffffffffffffff81111561351557613514612c8f565b5b6135218b828c01613158565b9150509295985092959890939650565b7f4e487b7100000000000000000000000000000000000000000000000000000000600052603260045260246000fd5b7f4e487b7100000000000000000000000000000000000000000000000000000000600052601160045260246000fd5b600061359a82612e35565b91506135a583612e35565b92508282039050818111156135bd576135bc613560565b5b92915050565b7f4e487b7100000000000000000000000000000000000000000000000000000000600052603160045260246000fd5b7f4e487b7100000000000000000000000000000000000000000000000000000000600052602260045260246000fd5b6000600282049050600182168061363957607f821691505b60208210810361364c5761364b6135f2565b5b50919050565b600067ffffffffffffffff82111561366d5761366c61305b565b5b602082029050602081019050919050565b60008151905061368d81612cc6565b92915050565b60006136a66136a184613652565b6130bb565b905080838252602082019050602084028301858111156136c9576136c861330a565b5b835b818110156136f257806136de888261367e565b8452602084019350506020810190506136cb565b5050509392505050565b600082601f83011261371157613710613051565b5b8151613721848260208601613693565b91505092915050565b6000602082840312156137405761373f612c8a565b5b600082015167ffffffffffffffff81111561375e5761375d612c8f565b5b61376a848285016136fc565b91505092915050565b6000613786613781846130d6565b6130bb565b9050828152602081018484840111156137a2576137a1613056565b5b6137ad848285612e85565b509392505050565b600082601f8301126137ca576137c9613051565b5b81516137da848260208601613773565b91505092915050565b6000815190506137f281613186565b92915050565b600081519050613807816131b2565b92915050565b600080600080600080600080610100898b03121561382e5761382d612c8a565b5b600089015167ffffffffffffffff81111561384c5761384b612c8f565b5b6138588b828c016137b5565b98505060206138698b828c016137e3565b975050604061387a8b828c016137f8565b965050606089015167ffffffffffffffff81111561389b5761389a612c8f565b5b6138a78b828c016137b5565b955050608089015167ffffffffffffffff8111156138c8576138c7612c8f565b5b6138d48b828c016137b5565b94505060a089015167ffffffffffffffff8111156138f5576138f4612c8f565b5b6139018b828c016137b5565b93505060c089015167ffffffffffffffff81111561392257613921612c8f565b5b61392e8b828c016137b5565b92505060e061393f8b828c016137e3565b9150509295985092959890939650565b6000819050919050565b6000819050919050565b600061397e6139796139748461394f565b613959565b612e35565b9050919050565b61398e81613963565b82525050565b60006020820190506139a96000830184613985565b92915050565b60008190508160005260206000209050919050565b60006020601f8301049050919050565b600082821b905092915050565b600060088302613a117fffffffffffffffffffffffffffffffffffffffffffffffffffffffffffffffff826139d4565b613a1b86836139d4565b95508019841693508086168417925050509392505050565b6000613a4e613a49613a4484612e35565b613959565b612e35565b9050919050565b6000819050919050565b613a6883613a33565b613a7c613a7482613a55565b8484546139e1565b825550505050565b600090565b613a91613a84565b613a9c818484613a5f565b505050565b5b81811015613ac057613ab5600082613a89565b600181019050613aa2565b5050565b601f821115613b0557613ad6816139af565b613adf846139c4565b81016020851015613aee578190505b613b02613afa856139c4565b830182613aa1565b50505b505050565b600082821c905092915050565b6000613b2860001984600802613b0a565b1980831691505092915050565b6000613b418383613b17565b9150826002028217905092915050565b613b5a82612e69565b67ffffffffffffffff811115613b7357613b7261305b565b5b613b7d8254613621565b613b88828285613ac4565b600060209050601f831160018114613bbb5760008415613ba9578287015190505b613bb38582613b35565b865550613c1b565b601f198416613bc9866139af565b60005b82811015613bf157848901518255600182019150602085019450602081019050613bcc565b86831015613c0e5784890151613c0a601f891682613b17565b8355505b6001600288020188555050505b505050505050565b7f4e487b7100000000000000000000000000000000000000000000000000000000600052601260045260246000fd5b6000613c5d82612e35565b9150613c6883612e35565b925082613c7857613c77613c23565b5b82820490509291505056fea2646970667358221220b0f1071185259425179b40b353cba5fcc424e0f3a9d10202179b08607f09aafd64736f6c634300081c0033",
  "linkReferences": {},
  "deployedLinkReferences": {}
}