{
  "_format": "hh-sol-artifact-1",
  "contractName": "ElectionDatabase",
  "sourceName": "contracts/ElectionDatabase.sol",
  "abi": [
    {
      "inputs": [
        {
          "internalType": "address",
          "name": "_voterDBAddress",
          "type": "address"
        },
        {
          "internalType": "address",
          "name": "_candidateDBAddress",
          "type": "address"
        }
      ],
      "stateMutability": "nonpayable",
      "type": "constructor"
    },
    {
      "inputs": [],
      "name": "AdminManagement__AdminNotFound",
      "type": "error"
    },
    {
      "inputs": [],
      "name": "AdminManagement__AlreadyAdmin",
      "type": "error"
    },
    {
      "inputs": [],
      "name": "AdminManagement__InvalidAddress",
      "type": "error"
    },
    {
      "inputs": [],
      "name": "AdminManagement__NotAdmin",
      "type": "error"
    },
    {
      "inputs": [],
      "name": "AdminManagement__NotOwner",
      "type": "error"
    },
    {
      "inputs": [],
      "name": "ElectionDatabase__CandidateAlreadyEnrolled",
      "type": "error"
    },
    {
      "inputs": [],
      "name": "ElectionDatabase__CandidateNotRegistered",
      "type": "error"
    },
    {
      "inputs": [],
      "name": "ElectionDatabase__ElectionActive",
      "type": "error"
    },
    {
      "inputs": [],
      "name": "ElectionDatabase__ElectionClosed",
      "type": "error"
    },
    {
      "inputs": [],
      "name": "ElectionDatabase__ElectionHasNoContestant",
      "type": "error"
    },
    {
      "inputs": [],
      "name": "ElectionDatabase__ElectionNotFound",
      "type": "error"
    },
    {
      "inputs": [],
      "name": "ElectionDatabase__InvalidAddress",
      "type": "error"
    },
    {
      "inputs": [],
      "name": "ElectionDatabase__VoterAlreadyVoted",
      "type": "error"
    },
    {
      "inputs": [],
      "name": "ElectionDatabase__VoterNotRegistered",
      "type": "error"
    },
    {
      "anonymous": false,
      "inputs": [
        {
          "indexed": true,
          "internalType": "address",
          "name": "admin",
          "type": "address"
        },
        {
          "indexed": true,
          "internalType": "address",
          "name": "owner",
          "type": "address"
        }
      ],
      "name": "AdminAdded",
      "type": "event"
    },
    {
      "anonymous": false,
      "inputs": [
        {
          "indexed": true,
          "internalType": "uint256",
          "name": "electionId",
          "type": "uint256"
        },
        {
          "indexed": false,
          "internalType": "string",
          "name": "name",
          "type": "string"
        },
        {
          "indexed": true,
          "internalType": "address",
          "name": "creator",
          "type": "address"
        }
      ],
      "name": "AdminCreatedElection",
      "type": "event"
    },
    {
      "anonymous": false,
      "inputs": [
        {
          "indexed": true,
          "internalType": "uint256",
          "name": "electionId",
          "type": "uint256"
        },
        {
          "indexed": false,
          "internalType": "string",
          "name": "name",
          "type": "string"
        },
        {
          "indexed": true,
          "internalType": "address",
          "name": "remover",
          "type": "address"
        }
      ],
      "name": "AdminDeletedElection",
      "type": "event"
    },
    {
      "anonymous": false,
      "inputs": [
        {
          "indexed": true,
          "internalType": "uint256",
          "name": "electionId",
          "type": "uint256"
        },
        {
          "indexed": true,
          "internalType": "address",
          "name": "candidate",
          "type": "address"
        },
        {
          "indexed": true,
          "internalType": "address",
          "name": "adder",
          "type": "address"
        }
      ],
      "name": "AdminEnrolledCandidate",
      "type": "event"
    },
    {
      "anonymous": false,
      "inputs": [
        {
          "indexed": true,
          "internalType": "address",
          "name": "admin",
          "type": "address"
        },
        {
          "indexed": true,
          "internalType": "address",
          "name": "owner",
          "type": "address"
        }
      ],
      "name": "AdminRemoved",
      "type": "event"
    },
    {
      "anonymous": false,
      "inputs": [
        {
          "indexed": true,
          "internalType": "uint256",
          "name": "electionId",
          "type": "uint256"
        },
        {
          "indexed": true,
          "internalType": "address",
          "name": "candidate",
          "type": "address"
        },
        {
          "indexed": true,
          "internalType": "address",
          "name": "remover",
          "type": "address"
        }
      ],
      "name": "AdminRemovedCandidate",
      "type": "event"
    },
    {
      "anonymous": false,
      "inputs": [
        {
          "indexed": true,
          "internalType": "uint256",
          "name": "electionId",
          "type": "uint256"
        },
        {
          "indexed": false,
          "internalType": "string",
          "name": "name",
          "type": "string"
        },
        {
          "indexed": true,
          "internalType": "address",
          "name": "updater",
          "type": "address"
        }
      ],
      "name": "AdminUpdatedElection",
      "type": "event"
    },
    {
      "anonymous": false,
      "inputs": [
        {
          "indexed": true,
          "internalType": "uint256",
          "name": "electionId",
          "type": "uint256"
        },
        {
          "indexed": true,
          "internalType": "address",
          "name": "candidate",
          "type": "address"
        }
      ],
      "name": "CandidateEnrolled",
      "type": "event"
    },
    {
      "anonymous": false,
      "inputs": [
        {
          "indexed": true,
          "internalType": "uint256",
          "name": "electionId",
          "type": "uint256"
        },
        {
          "indexed": true,
          "internalType": "address",
          "name": "candidate",
          "type": "address"
        }
      ],
      "name": "CandidateWithdrawn",
      "type": "event"
    },
    {
      "anonymous": false,
      "inputs": [
        {
          "indexed": true,
          "internalType": "uint256",
          "name": "electionId",
          "type": "uint256"
        },
        {
          "indexed": true,
          "internalType": "address",
          "name": "admin",
          "type": "address"
        }
      ],
      "name": "ElectionClosed",
      "type": "event"
    },
    {
      "anonymous": false,
      "inputs": [
        {
          "indexed": true,
          "internalType": "uint256",
          "name": "electionId",
          "type": "uint256"
        },
        {
          "indexed": true,
          "internalType": "address",
          "name": "admin",
          "type": "address"
        }
      ],
      "name": "ElectionOpened",
      "type": "event"
    },
    {
      "anonymous": false,
      "inputs": [
        {
          "indexed": true,
          "internalType": "uint256",
          "name": "electionId",
          "type": "uint256"
        },
        {
          "indexed": true,
          "internalType": "address",
          "name": "voter",
          "type": "address"
        },
        {
          "indexed": true,
          "internalType": "address",
          "name": "candidate",
          "type": "address"
        }
      ],
      "name": "VoterVoted",
      "type": "event"
    },
    {
      "inputs": [
        {
          "internalType": "address",
          "name": "_adminAddress",
          "type": "address"
        }
      ],
      "name": "addAdmin",
      "outputs": [],
      "stateMutability": "nonpayable",
      "type": "function"
    },
    {
      "inputs": [
        {
          "internalType": "uint256",
          "name": "_electionId",
          "type": "uint256"
        }
      ],
      "name": "adminCloseElection",
      "outputs": [],
      "stateMutability": "nonpayable",
      "type": "function"
    },
    {
      "inputs": [
        {
          "internalType": "string",
          "name": "_name",
          "type": "string"
        },
        {
          "internalType": "string",
          "name": "_description",
          "type": "string"
        }
      ],
      "name": "adminCreateElection",
      "outputs": [],
      "stateMutability": "nonpayable",
      "type": "function"
    },
    {
      "inputs": [
        {
          "internalType": "uint256",
          "name": "_electionId",
          "type": "uint256"
        }
      ],
      "name": "adminDeleteElection",
      "outputs": [],
      "stateMutability": "nonpayable",
      "type": "function"
    },
    {
      "inputs": [
        {
          "internalType": "uint256",
          "name": "_electionId",
          "type": "uint256"
        },
        {
          "internalType": "address",
          "name": "_candidate",
          "type": "address"
        }
      ],
      "name": "adminEnrollCandidate",
      "outputs": [],
      "stateMutability": "nonpayable",
      "type": "function"
    },
    {
      "inputs": [
        {
          "internalType": "uint256",
          "name": "_electionId",
          "type": "uint256"
        }
      ],
      "name": "adminOpenElection",
      "outputs": [],
      "stateMutability": "nonpayable",
      "type": "function"
    },
    {
      "inputs": [
        {
          "internalType": "uint256",
          "name": "_electionId",
          "type": "uint256"
        },
        {
          "internalType": "string",
          "name": "_name",
          "type": "string"
        },
        {
          "internalType": "string",
          "name": "_description",
          "type": "string"
        }
      ],
      "name": "adminUpdateElection",
      "outputs": [],
      "stateMutability": "nonpayable",
      "type": "function"
    },
    {
      "inputs": [
        {
          "internalType": "uint256",
          "name": "_electionId",
          "type": "uint256"
        },
        {
          "internalType": "address",
          "name": "_candidate",
          "type": "address"
        }
      ],
      "name": "adminWithdrawCandidate",
      "outputs": [],
      "stateMutability": "nonpayable",
      "type": "function"
    },
    {
      "inputs": [],
      "name": "amIAdmin",
      "outputs": [
        {
          "internalType": "bool",
          "name": "",
          "type": "bool"
        }
      ],
      "stateMutability": "view",
      "type": "function"
    },
    {
      "inputs": [
        {
          "internalType": "uint256",
          "name": "_electionId",
          "type": "uint256"
        }
      ],
      "name": "enrollCandidate",
      "outputs": [],
      "stateMutability": "nonpayable",
      "type": "function"
    },
    {
      "inputs": [],
      "name": "getAdminCount",
      "outputs": [
        {
          "internalType": "uint256",
          "name": "",
          "type": "uint256"
        }
      ],
      "stateMutability": "view",
      "type": "function"
    },
    {
      "inputs": [],
      "name": "getAllAdmins",
      "outputs": [
        {
          "internalType": "address[]",
          "name": "",
          "type": "address[]"
        }
      ],
      "stateMutability": "view",
      "type": "function"
    },
    {
      "inputs": [],
      "name": "getAllElectionIds",
      "outputs": [
        {
          "internalType": "uint256[]",
          "name": "",
          "type": "uint256[]"
        }
      ],
      "stateMutability": "view",
      "type": "function"
    },
    {
      "inputs": [],
      "name": "getDatabases",
      "outputs": [
        {
          "internalType": "address",
          "name": "voterDB",
          "type": "address"
        },
        {
          "internalType": "address",
          "name": "candidateDB",
          "type": "address"
        }
      ],
      "stateMutability": "view",
      "type": "function"
    },
    {
      "inputs": [],
      "name": "getElectionCount",
      "outputs": [
        {
          "internalType": "uint256",
          "name": "",
          "type": "uint256"
        }
      ],
      "stateMutability": "view",
      "type": "function"
    },
    {
      "inputs": [
        {
          "internalType": "uint256",
          "name": "_electionId",
          "type": "uint256"
        }
      ],
      "name": "getElectionDetails",
      "outputs": [
        {
          "internalType": "string",
          "name": "name",
          "type": "string"
        },
        {
          "internalType": "string",
          "name": "description",
          "type": "string"
        },
        {
          "internalType": "bool",
          "name": "isActive",
          "type": "bool"
        },
        {
          "internalType": "address[]",
          "name": "candidates",
          "type": "address[]"
        },
        {
          "internalType": "uint256",
          "name": "totalVotes",
          "type": "uint256"
        },
        {
          "internalType": "uint256",
          "name": "registrationTimestamp",
          "type": "uint256"
        }
      ],
      "stateMutability": "view",
      "type": "function"
    },
    {
      "inputs": [
        {
          "internalType": "uint256",
          "name": "_electionId",
          "type": "uint256"
        }
      ],
      "name": "getElectionStatus",
      "outputs": [
        {
          "internalType": "bool",
          "name": "",
          "type": "bool"
        }
      ],
      "stateMutability": "view",
      "type": "function"
    },
    {
      "inputs": [],
      "name": "getOwner",
      "outputs": [
        {
          "internalType": "address",
          "name": "",
          "type": "address"
        }
      ],
      "stateMutability": "view",
      "type": "function"
    },
    {
      "inputs": [
        {
          "internalType": "uint256",
          "name": "_electionId",
          "type": "uint256"
        }
      ],
      "name": "getRegisteredCandidates",
      "outputs": [
        {
          "internalType": "address[]",
          "name": "",
          "type": "address[]"
        }
      ],
      "stateMutability": "view",
      "type": "function"
    },
    {
      "inputs": [
        {
          "internalType": "uint256",
          "name": "_electionId",
          "type": "uint256"
        }
      ],
      "name": "getTotalVoteCount",
      "outputs": [
        {
          "internalType": "uint256",
          "name": "",
          "type": "uint256"
        }
      ],
      "stateMutability": "view",
      "type": "function"
    },
    {
      "inputs": [
        {
          "internalType": "uint256",
          "name": "_electionId",
          "type": "uint256"
        },
        {
          "internalType": "address",
          "name": "_voter",
          "type": "address"
        }
      ],
      "name": "getVoteTimestamp",
      "outputs": [
        {
          "internalType": "uint256",
          "name": "",
          "type": "uint256"
        }
      ],
      "stateMutability": "view",
      "type": "function"
    },
    {
      "inputs": [
        {
          "internalType": "uint256",
          "name": "_electionId",
          "type": "uint256"
        },
        {
          "internalType": "address",
          "name": "_voter",
          "type": "address"
        }
      ],
      "name": "getVoterChoice",
      "outputs": [
        {
          "internalType": "address",
          "name": "",
          "type": "address"
        }
      ],
      "stateMutability": "view",
      "type": "function"
    },
    {
      "inputs": [
        {
          "internalType": "uint256",
          "name": "_electionId",
          "type": "uint256"
        },
        {
          "internalType": "address",
          "name": "_candidate",
          "type": "address"
        }
      ],
      "name": "getVotesOfCandidate",
      "outputs": [
        {
          "internalType": "uint256",
          "name": "",
          "type": "uint256"
        }
      ],
      "stateMutability": "view",
      "type": "function"
    },
    {
      "inputs": [
        {
          "internalType": "uint256",
          "name": "_electionId",
          "type": "uint256"
        }
      ],
      "name": "getWinner",
      "outputs": [
        {
          "internalType": "address",
          "name": "",
          "type": "address"
        }
      ],
      "stateMutability": "view",
      "type": "function"
    },
    {
      "inputs": [
        {
          "internalType": "uint256",
          "name": "_electionId",
          "type": "uint256"
        },
        {
          "internalType": "address",
          "name": "_voter",
          "type": "address"
        }
      ],
      "name": "hasVoted",
      "outputs": [
        {
          "internalType": "bool",
          "name": "",
          "type": "bool"
        }
      ],
      "stateMutability": "view",
      "type": "function"
    },
    {
      "inputs": [
        {
          "internalType": "address",
          "name": "_address",
          "type": "address"
        }
      ],
      "name": "isAdmin",
      "outputs": [
        {
          "internalType": "bool",
          "name": "",
          "type": "bool"
        }
      ],
      "stateMutability": "view",
      "type": "function"
    },
    {
      "inputs": [
        {
          "internalType": "address",
          "name": "_adminAddress",
          "type": "address"
        }
      ],
      "name": "removeAdmin",
      "outputs": [],
      "stateMutability": "nonpayable",
      "type": "function"
    },
    {
      "inputs": [
        {
          "internalType": "uint256",
          "name": "_electionId",
          "type": "uint256"
        },
        {
          "internalType": "address",
          "name": "_candidate",
          "type": "address"
        }
      ],
      "name": "vote",
      "outputs": [],
      "stateMutability": "nonpayable",
      "type": "function"
    },
    {
      "inputs": [
        {
          "internalType": "uint256",
          "name": "_electionId",
          "type": "uint256"
        }
      ],
      "name": "withdrawCandidate",
      "outputs": [],
      "stateMutability": "nonpayable",
      "type": "function"
    }
  ],
  "bytecode": "0x60e060405234801561001057600080fd5b50604051614294380380614294833981810160405281019061003291906101de565b3373ffffffffffffffffffffffffffffffffffffffff1660808173ffffffffffffffffffffffffffffffffffffffff1681525050600073ffffffffffffffffffffffffffffffffffffffff168273ffffffffffffffffffffffffffffffffffffffff1614806100cd5750600073ffffffffffffffffffffffffffffffffffffffff168173ffffffffffffffffffffffffffffffffffffffff16145b15610104576040517f7865ff4400000000000000000000000000000000000000000000000000000000815260040160405180910390fd5b8173ffffffffffffffffffffffffffffffffffffffff1660a08173ffffffffffffffffffffffffffffffffffffffff16815250508073ffffffffffffffffffffffffffffffffffffffff1660c08173ffffffffffffffffffffffffffffffffffffffff16815250506000600281905550505061021e565b600080fd5b600073ffffffffffffffffffffffffffffffffffffffff82169050919050565b60006101ab82610180565b9050919050565b6101bb816101a0565b81146101c657600080fd5b50565b6000815190506101d8816101b2565b92915050565b600080604083850312156101f5576101f461017b565b5b6000610203858286016101c9565b9250506020610214858286016101c9565b9150509250929050565b60805160a05160c051613fde6102b660003960008181611b480152818161236d0152612a4401526000818161077701528181610a0601528181610ee8015261234c015260008181610aec01528181610cd70152818161108f015281816114540152818161179501528181611a1a01528181611dbb01528181611f9f01528181612316015281816123960152612ca00152613fde6000f3fe608060405234801561001057600080fd5b50600436106101cf5760003560e01c80637b437c8311610104578063abc4269c116100a2578063d4dbfe3211610071578063d4dbfe321461053b578063dee40f741461056b578063e9523c9714610589578063f6049924146105a7576101cf565b8063abc4269c146104b7578063b05847bd146104d3578063b60b591014610503578063c24de3ed1461051f576101cf565b80638f99a8dc116100de5780638f99a8dc1461042e5780639186a57f1461044d578063934f1cca14610469578063a4afcc6014610487576101cf565b80637b437c83146103d6578063893d20e8146103f25780638b7bf3eb14610410576101cf565b806324d7806c11610171578063464fcbc31161014b578063464fcbc3146103525780637048027514610382578063712fb5bb1461039e5780637a55cb2a146103ba576101cf565b806324d7806c146102c25780634129b2c9146102f25780634385963214610322576101cf565b80630eac27f4116101ad5780630eac27f4146102285780631785f53c14610258578063213785a01461027457806324785b9e14610292576101cf565b806302d947ef146101d457806307e095f5146101f05780630c153e771461020c575b600080fd5b6101ee60048036038101906101e991906134fb565b6105dc565b005b61020a6004803603810190610205919061353b565b610aea565b005b610226600480360381019061022191906136ae565b610cd5565b005b610242600480360381019061023d91906134fb565b610e93565b60405161024f9190613748565b60405180910390f35b610272600480360381019061026d9190613763565b61108d565b005b61027c6113c4565b604051610289919061379f565b60405180910390f35b6102ac60048036038101906102a7919061353b565b6113d1565b6040516102b991906137d5565b60405180910390f35b6102dc60048036038101906102d79190613763565b611450565b6040516102e991906137d5565b60405180910390f35b61030c6004803603810190610307919061353b565b6114fb565b6040516103199190613748565b60405180910390f35b61033c600480360381019061033791906134fb565b611630565b60405161034991906137d5565b60405180910390f35b61036c600480360381019061036791906134fb565b6116e3565b604051610379919061379f565b60405180910390f35b61039c60048036038101906103979190613763565b611793565b005b6103b860048036038101906103b391906134fb565b611a18565b005b6103d460048036038101906103cf91906137f0565b611db9565b005b6103f060048036038101906103eb91906134fb565b611f9d565b005b6103fa612312565b6040516104079190613748565b60405180910390f35b61041861233a565b604051610425919061379f565b60405180910390f35b610436612347565b604051610444929190613868565b60405180910390f35b6104676004803603810190610462919061353b565b612394565b005b61047161253e565b60405161047e91906137d5565b60405180910390f35b6104a1600480360381019061049c919061353b565b61254e565b6040516104ae919061394f565b60405180910390f35b6104d160048036038101906104cc919061353b565b612644565b005b6104ed60048036038101906104e8919061353b565b612922565b6040516104fa919061379f565b60405180910390f35b61051d6004803603810190610518919061353b565b612994565b005b6105396004803603810190610534919061353b565b612c9e565b005b610555600480360381019061055091906134fb565b612fee565b604051610562919061379f565b60405180910390f35b61057361309e565b6040516105809190613a2f565b60405180910390f35b6105916130f6565b60405161059e919061394f565b60405180910390f35b6105c160048036038101906105bc919061353b565b613184565b6040516105d396959493929190613ad0565b60405180910390f35b81600060036000838152602001908152602001600020600801540361062d576040517f274a6f2800000000000000000000000000000000000000000000000000000000815260040160405180910390fd5b826003600082815260200190815260200160002060060160009054906101000a900460ff16610688576040517f280711c800000000000000000000000000000000000000000000000000000000815260040160405180910390fd5b838360006003600084815260200190815260200160002090506000805b826002018054905081101561073d578373ffffffffffffffffffffffffffffffffffffffff168360020182815481106106e1576106e0613b46565b5b9060005260206000200160009054906101000a900473ffffffffffffffffffffffffffffffffffffffff1673ffffffffffffffffffffffffffffffffffffffff1603610730576001915061073d565b80806001019150506106a5565b5080610775576040517f4378521a00000000000000000000000000000000000000000000000000000000815260040160405180910390fd5b7f000000000000000000000000000000000000000000000000000000000000000073ffffffffffffffffffffffffffffffffffffffff16635b409d096040518163ffffffff1660e01b8152600401602060405180830381865afa1580156107e0573d6000803e3d6000fd5b505050506040513d601f19601f820116820180604052508101906108049190613ba1565b61083a576040517fc96d366100000000000000000000000000000000000000000000000000000000815260040160405180910390fd5b6000600360008a8152602001908152602001600020905060008160050160003373ffffffffffffffffffffffffffffffffffffffff1673ffffffffffffffffffffffffffffffffffffffff1681526020019081526020016000205411156108cd576040517f5f5ab03900000000000000000000000000000000000000000000000000000000815260040160405180910390fd5b8060030160008973ffffffffffffffffffffffffffffffffffffffff1673ffffffffffffffffffffffffffffffffffffffff168152602001908152602001600020600081548092919061091f90613bfd565b9190505550878160040160003373ffffffffffffffffffffffffffffffffffffffff1673ffffffffffffffffffffffffffffffffffffffff16815260200190815260200160002060006101000a81548173ffffffffffffffffffffffffffffffffffffffff021916908373ffffffffffffffffffffffffffffffffffffffff160217905550428160050160003373ffffffffffffffffffffffffffffffffffffffff1673ffffffffffffffffffffffffffffffffffffffff168152602001908152602001600020819055508060070160008154809291906109ff90613bfd565b91905055507f000000000000000000000000000000000000000000000000000000000000000073ffffffffffffffffffffffffffffffffffffffff16638ebd0a4c6040518163ffffffff1660e01b8152600401600060405180830381600087803b158015610a6c57600080fd5b505af1158015610a80573d6000803e3d6000fd5b505050508773ffffffffffffffffffffffffffffffffffffffff163373ffffffffffffffffffffffffffffffffffffffff168a7febb148949ed47bc8192939ff1e47fd3f8ae26c4815e399aa06c42de96d62d2be60405160405180910390a4505050505050505050565b7f000000000000000000000000000000000000000000000000000000000000000073ffffffffffffffffffffffffffffffffffffffff163373ffffffffffffffffffffffffffffffffffffffff1614158015610b8f57506000803373ffffffffffffffffffffffffffffffffffffffff1673ffffffffffffffffffffffffffffffffffffffff16815260200190815260200160002060009054906101000a900460ff16155b15610bc6576040517f87a8a82e00000000000000000000000000000000000000000000000000000000815260040160405180910390fd5b806000600360008381526020019081526020016000206008015403610c17576040517f274a6f2800000000000000000000000000000000000000000000000000000000815260040160405180910390fd5b60006003600084815260200190815260200160002090506000816002018054905003610c6f576040517f65f8a67d00000000000000000000000000000000000000000000000000000000815260040160405180910390fd5b60018160060160006101000a81548160ff0219169083151502179055503373ffffffffffffffffffffffffffffffffffffffff16837fa96b0ccdd8a64358a5c6ed66153747d2f57922e5a63e6f54967024312f70474160405160405180910390a3505050565b7f000000000000000000000000000000000000000000000000000000000000000073ffffffffffffffffffffffffffffffffffffffff163373ffffffffffffffffffffffffffffffffffffffff1614158015610d7a57506000803373ffffffffffffffffffffffffffffffffffffffff1673ffffffffffffffffffffffffffffffffffffffff16815260200190815260200160002060009054906101000a900460ff16155b15610db1576040517f87a8a82e00000000000000000000000000000000000000000000000000000000815260040160405180910390fd5b826000600360008381526020019081526020016000206008015403610e02576040517f274a6f2800000000000000000000000000000000000000000000000000000000815260040160405180910390fd5b600060036000868152602001908152602001600020905083816000019081610e2a9190613e51565b5082816001019081610e3c9190613e51565b503373ffffffffffffffffffffffffffffffffffffffff16857f81f40209c15bf78fc64c9a3d75386f0b4c8c9c93c4f7352d7fba3328712fcc7a86604051610e849190613f23565b60405180910390a35050505050565b6000826000600360008381526020019081526020016000206008015403610ee6576040517f274a6f2800000000000000000000000000000000000000000000000000000000815260040160405180910390fd5b7f000000000000000000000000000000000000000000000000000000000000000073ffffffffffffffffffffffffffffffffffffffff16635b409d096040518163ffffffff1660e01b8152600401602060405180830381865afa158015610f51573d6000803e3d6000fd5b505050506040513d601f19601f82011682018060405250810190610f759190613ba1565b610fab576040517fc96d366100000000000000000000000000000000000000000000000000000000815260040160405180910390fd5b60006003600086815260200190815260200160002060050160008573ffffffffffffffffffffffffffffffffffffffff1673ffffffffffffffffffffffffffffffffffffffff168152602001908152602001600020540361100f5760009150611086565b6003600085815260200190815260200160002060040160008473ffffffffffffffffffffffffffffffffffffffff1673ffffffffffffffffffffffffffffffffffffffff16815260200190815260200160002060009054906101000a900473ffffffffffffffffffffffffffffffffffffffff1691505b5092915050565b7f000000000000000000000000000000000000000000000000000000000000000073ffffffffffffffffffffffffffffffffffffffff163373ffffffffffffffffffffffffffffffffffffffff1614611112576040517fbe2ac67400000000000000000000000000000000000000000000000000000000815260040160405180910390fd5b6000808273ffffffffffffffffffffffffffffffffffffffff1673ffffffffffffffffffffffffffffffffffffffff16815260200190815260200160002060009054906101000a900460ff16611194576040517f256d404300000000000000000000000000000000000000000000000000000000815260040160405180910390fd5b6000808273ffffffffffffffffffffffffffffffffffffffff1673ffffffffffffffffffffffffffffffffffffffff16815260200190815260200160002060006101000a81549060ff02191690556000600180549050905060005b81811015611365578273ffffffffffffffffffffffffffffffffffffffff166001828154811061122257611221613b46565b5b9060005260206000200160009054906101000a900473ffffffffffffffffffffffffffffffffffffffff1673ffffffffffffffffffffffffffffffffffffffff160361135a57600180836112769190613f45565b8154811061128757611286613b46565b5b9060005260206000200160009054906101000a900473ffffffffffffffffffffffffffffffffffffffff16600182815481106112c6576112c5613b46565b5b9060005260206000200160006101000a81548173ffffffffffffffffffffffffffffffffffffffff021916908373ffffffffffffffffffffffffffffffffffffffff16021790555060018054806113205761131f613f79565b5b6001900381819060005260206000200160006101000a81549073ffffffffffffffffffffffffffffffffffffffff02191690559055611365565b8060010190506111ef565b503373ffffffffffffffffffffffffffffffffffffffff168273ffffffffffffffffffffffffffffffffffffffff167fdb9d5d31320daf5bc7181d565b6da4d12e30f0f4d5aa324a992426c14a1d19ce60405160405180910390a35050565b6000600480549050905090565b6000816000600360008381526020019081526020016000206008015403611424576040517f274a6f2800000000000000000000000000000000000000000000000000000000815260040160405180910390fd5b6003600084815260200190815260200160002060060160009054906101000a900460ff16915050919050565b60007f000000000000000000000000000000000000000000000000000000000000000073ffffffffffffffffffffffffffffffffffffffff168273ffffffffffffffffffffffffffffffffffffffff1614806114f457506000808373ffffffffffffffffffffffffffffffffffffffff1673ffffffffffffffffffffffffffffffffffffffff16815260200190815260200160002060009054906101000a900460ff165b9050919050565b600081600060036000838152602001908152602001600020600801540361154e576040517f274a6f2800000000000000000000000000000000000000000000000000000000815260040160405180910390fd5b600060036000858152602001908152602001600020905060008060005b836002018054905081101561162357600084600201828154811061159257611591613b46565b5b9060005260206000200160009054906101000a900473ffffffffffffffffffffffffffffffffffffffff16905060008560030160008373ffffffffffffffffffffffffffffffffffffffff1673ffffffffffffffffffffffffffffffffffffffff16815260200190815260200160002054905084811115611614578094508193505b5050808060010191505061156b565b5080945050505050919050565b6000826000600360008381526020019081526020016000206008015403611683576040517f274a6f2800000000000000000000000000000000000000000000000000000000815260040160405180910390fd5b60006003600086815260200190815260200160002060050160008573ffffffffffffffffffffffffffffffffffffffff1673ffffffffffffffffffffffffffffffffffffffff168152602001908152602001600020541191505092915050565b6000826000600360008381526020019081526020016000206008015403611736576040517f274a6f2800000000000000000000000000000000000000000000000000000000815260040160405180910390fd5b6003600085815260200190815260200160002060050160008473ffffffffffffffffffffffffffffffffffffffff1673ffffffffffffffffffffffffffffffffffffffff1681526020019081526020016000205491505092915050565b7f000000000000000000000000000000000000000000000000000000000000000073ffffffffffffffffffffffffffffffffffffffff163373ffffffffffffffffffffffffffffffffffffffff1614611818576040517fbe2ac67400000000000000000000000000000000000000000000000000000000815260040160405180910390fd5b600073ffffffffffffffffffffffffffffffffffffffff168173ffffffffffffffffffffffffffffffffffffffff160361187e576040517fd9fa4b4700000000000000000000000000000000000000000000000000000000815260040160405180910390fd5b6000808273ffffffffffffffffffffffffffffffffffffffff1673ffffffffffffffffffffffffffffffffffffffff16815260200190815260200160002060009054906101000a900460ff1615611901576040517f4e16b38200000000000000000000000000000000000000000000000000000000815260040160405180910390fd5b60016000808373ffffffffffffffffffffffffffffffffffffffff1673ffffffffffffffffffffffffffffffffffffffff16815260200190815260200160002060006101000a81548160ff0219169083151502179055506001819080600181540180825580915050600190039060005260206000200160009091909190916101000a81548173ffffffffffffffffffffffffffffffffffffffff021916908373ffffffffffffffffffffffffffffffffffffffff1602179055503373ffffffffffffffffffffffffffffffffffffffff168173ffffffffffffffffffffffffffffffffffffffff167fbf3f493c772c8c283fd124432c2d0f539ab343faa04258fe88e52912d36b102b60405160405180910390a350565b7f000000000000000000000000000000000000000000000000000000000000000073ffffffffffffffffffffffffffffffffffffffff163373ffffffffffffffffffffffffffffffffffffffff1614158015611abd57506000803373ffffffffffffffffffffffffffffffffffffffff1673ffffffffffffffffffffffffffffffffffffffff16815260200190815260200160002060009054906101000a900460ff16155b15611af4576040517f87a8a82e00000000000000000000000000000000000000000000000000000000815260040160405180910390fd5b816000600360008381526020019081526020016000206008015403611b45576040517f274a6f2800000000000000000000000000000000000000000000000000000000815260040160405180910390fd5b817f000000000000000000000000000000000000000000000000000000000000000073ffffffffffffffffffffffffffffffffffffffff16632f0acbe1826040518263ffffffff1660e01b8152600401611b9f9190613748565b602060405180830381865afa158015611bbc573d6000803e3d6000fd5b505050506040513d601f19601f82011682018060405250810190611be09190613ba1565b611c16576040517f4378521a00000000000000000000000000000000000000000000000000000000815260040160405180910390fd5b600060036000868152602001908152602001600020905060005b8160020180549050811015611cf1578473ffffffffffffffffffffffffffffffffffffffff16826002018281548110611c6c57611c6b613b46565b5b9060005260206000200160009054906101000a900473ffffffffffffffffffffffffffffffffffffffff1673ffffffffffffffffffffffffffffffffffffffff1603611ce4576040517f0c0a2af000000000000000000000000000000000000000000000000000000000815260040160405180910390fd5b8080600101915050611c30565b5080600201849080600181540180825580915050600190039060005260206000200160009091909190916101000a81548173ffffffffffffffffffffffffffffffffffffffff021916908373ffffffffffffffffffffffffffffffffffffffff1602179055503373ffffffffffffffffffffffffffffffffffffffff168473ffffffffffffffffffffffffffffffffffffffff16867f0afc5e67526a6e1639dc6ad6a62a98fa0c372e88af17cdc9da31543f42e9195960405160405180910390a45050505050565b7f000000000000000000000000000000000000000000000000000000000000000073ffffffffffffffffffffffffffffffffffffffff163373ffffffffffffffffffffffffffffffffffffffff1614158015611e5e57506000803373ffffffffffffffffffffffffffffffffffffffff1673ffffffffffffffffffffffffffffffffffffffff16815260200190815260200160002060009054906101000a900460ff16155b15611e95576040517f87a8a82e00000000000000000000000000000000000000000000000000000000815260040160405180910390fd5b60006002549050600060036000838152602001908152602001600020905083816000019081611ec49190613e51565b5082816001019081611ed69190613e51565b5060008160060160006101000a81548160ff02191690831515021790555060008160070181905550428160080181905550600482908060018154018082558091505060019003906000526020600020016000909190919091505560026000815480929190611f4390613bfd565b91905055503373ffffffffffffffffffffffffffffffffffffffff16827f79d2761878c82102d5b23cd2718dde042dd74d8ca3b5c44a777ace990b98c87a86604051611f8f9190613f23565b60405180910390a350505050565b7f000000000000000000000000000000000000000000000000000000000000000073ffffffffffffffffffffffffffffffffffffffff163373ffffffffffffffffffffffffffffffffffffffff161415801561204257506000803373ffffffffffffffffffffffffffffffffffffffff1673ffffffffffffffffffffffffffffffffffffffff16815260200190815260200160002060009054906101000a900460ff16155b15612079576040517f87a8a82e00000000000000000000000000000000000000000000000000000000815260040160405180910390fd5b8160006003600083815260200190815260200160002060080154036120ca576040517f274a6f2800000000000000000000000000000000000000000000000000000000815260040160405180910390fd5b60006003600085815260200190815260200160002090506000805b8260020180549050811015612278578473ffffffffffffffffffffffffffffffffffffffff1683600201828154811061212157612120613b46565b5b9060005260206000200160009054906101000a900473ffffffffffffffffffffffffffffffffffffffff1673ffffffffffffffffffffffffffffffffffffffff160361226b57826002016001846002018054905061217f9190613f45565b815481106121905761218f613b46565b5b9060005260206000200160009054906101000a900473ffffffffffffffffffffffffffffffffffffffff168360020182815481106121d1576121d0613b46565b5b9060005260206000200160006101000a81548173ffffffffffffffffffffffffffffffffffffffff021916908373ffffffffffffffffffffffffffffffffffffffff1602179055508260020180548061222d5761222c613f79565b5b6001900381819060005260206000200160006101000a81549073ffffffffffffffffffffffffffffffffffffffff0219169055905560019150612278565b80806001019150506120e5565b50806122b0576040517f4378521a00000000000000000000000000000000000000000000000000000000815260040160405180910390fd5b3373ffffffffffffffffffffffffffffffffffffffff168473ffffffffffffffffffffffffffffffffffffffff16867f57f78e75c3d7318ab69424999101d7410a199c5729cecb96f0335db789f85a8c60405160405180910390a45050505050565b60007f0000000000000000000000000000000000000000000000000000000000000000905090565b6000600180549050905090565b6000807f00000000000000000000000000000000000000000000000000000000000000007f0000000000000000000000000000000000000000000000000000000000000000915091509091565b7f000000000000000000000000000000000000000000000000000000000000000073ffffffffffffffffffffffffffffffffffffffff163373ffffffffffffffffffffffffffffffffffffffff161415801561243957506000803373ffffffffffffffffffffffffffffffffffffffff1673ffffffffffffffffffffffffffffffffffffffff16815260200190815260200160002060009054906101000a900460ff16155b15612470576040517f87a8a82e00000000000000000000000000000000000000000000000000000000815260040160405180910390fd5b8060006003600083815260200190815260200160002060080154036124c1576040517f274a6f2800000000000000000000000000000000000000000000000000000000815260040160405180910390fd5b600060036000848152602001908152602001600020905060008160060160006101000a81548160ff0219169083151502179055503373ffffffffffffffffffffffffffffffffffffffff16837f6052db3c29431594517805e7b6da8c279ceb52e5bc733288b79021ed2826ffd060405160405180910390a3505050565b600061254933611450565b905090565b60608160006003600083815260200190815260200160002060080154036125a1576040517f274a6f2800000000000000000000000000000000000000000000000000000000815260040160405180910390fd5b6003600084815260200190815260200160002060020180548060200260200160405190810160405280929190818152602001828054801561263757602002820191906000526020600020905b8160009054906101000a900473ffffffffffffffffffffffffffffffffffffffff1673ffffffffffffffffffffffffffffffffffffffff16815260200190600101908083116125ed575b5050505050915050919050565b806000600360008381526020019081526020016000206008015403612695576040517f274a6f2800000000000000000000000000000000000000000000000000000000815260040160405180910390fd5b816003600082815260200190815260200160002060060160009054906101000a900460ff16156126f1576040517ff1bb5eee00000000000000000000000000000000000000000000000000000000815260040160405180910390fd5b60006003600085815260200190815260200160002090506000805b826002018054905081101561289f573373ffffffffffffffffffffffffffffffffffffffff1683600201828154811061274857612747613b46565b5b9060005260206000200160009054906101000a900473ffffffffffffffffffffffffffffffffffffffff1673ffffffffffffffffffffffffffffffffffffffff16036128925782600201600184600201805490506127a69190613f45565b815481106127b7576127b6613b46565b5b9060005260206000200160009054906101000a900473ffffffffffffffffffffffffffffffffffffffff168360020182815481106127f8576127f7613b46565b5b9060005260206000200160006101000a81548173ffffffffffffffffffffffffffffffffffffffff021916908373ffffffffffffffffffffffffffffffffffffffff1602179055508260020180548061285457612853613f79565b5b6001900381819060005260206000200160006101000a81549073ffffffffffffffffffffffffffffffffffffffff021916905590556001915061289f565b808060010191505061270c565b50806128d7576040517f4378521a00000000000000000000000000000000000000000000000000000000815260040160405180910390fd5b3373ffffffffffffffffffffffffffffffffffffffff16857f2c3e293c72cbb1426b07190641e6a5118f7f2a3b65947a17a37be3f98c8ceb1460405160405180910390a35050505050565b6000816000600360008381526020019081526020016000206008015403612975576040517f274a6f2800000000000000000000000000000000000000000000000000000000815260040160405180910390fd5b6003600084815260200190815260200160002060070154915050919050565b8060006003600083815260200190815260200160002060080154036129e5576040517f274a6f2800000000000000000000000000000000000000000000000000000000815260040160405180910390fd5b816003600082815260200190815260200160002060060160009054906101000a900460ff1615612a41576040517ff1bb5eee00000000000000000000000000000000000000000000000000000000815260040160405180910390fd5b337f000000000000000000000000000000000000000000000000000000000000000073ffffffffffffffffffffffffffffffffffffffff16632f0acbe1826040518263ffffffff1660e01b8152600401612a9b9190613748565b602060405180830381865afa158015612ab8573d6000803e3d6000fd5b505050506040513d601f19601f82011682018060405250810190612adc9190613ba1565b612b12576040517f4378521a00000000000000000000000000000000000000000000000000000000815260040160405180910390fd5b600060036000868152602001908152602001600020905060005b8160020180549050811015612bed573373ffffffffffffffffffffffffffffffffffffffff16826002018281548110612b6857612b67613b46565b5b9060005260206000200160009054906101000a900473ffffffffffffffffffffffffffffffffffffffff1673ffffffffffffffffffffffffffffffffffffffff1603612be0576040517f0c0a2af000000000000000000000000000000000000000000000000000000000815260040160405180910390fd5b8080600101915050612b2c565b5080600201339080600181540180825580915050600190039060005260206000200160009091909190916101000a81548173ffffffffffffffffffffffffffffffffffffffff021916908373ffffffffffffffffffffffffffffffffffffffff1602179055503373ffffffffffffffffffffffffffffffffffffffff16857faa5b0f683b0489b22595bbc91aa8fa7152fc0a12957a63686c50c2d73558927d60405160405180910390a35050505050565b7f000000000000000000000000000000000000000000000000000000000000000073ffffffffffffffffffffffffffffffffffffffff163373ffffffffffffffffffffffffffffffffffffffff1614158015612d4357506000803373ffffffffffffffffffffffffffffffffffffffff1673ffffffffffffffffffffffffffffffffffffffff16815260200190815260200160002060009054906101000a900460ff16155b15612d7a576040517f87a8a82e00000000000000000000000000000000000000000000000000000000815260040160405180910390fd5b806000600360008381526020019081526020016000206008015403612dcb576040517f274a6f2800000000000000000000000000000000000000000000000000000000815260040160405180910390fd5b6000600360008481526020019081526020016000206000018054612dee90613c74565b80601f0160208091040260200160405190810160405280929190818152602001828054612e1a90613c74565b8015612e675780601f10612e3c57610100808354040283529160200191612e67565b820191906000526020600020905b815481529060010190602001808311612e4a57829003601f168201915b505050505090506003600084815260200190815260200160002060008082016000612e9291906133d5565b600182016000612ea291906133d5565b600282016000612eb29190613415565b6006820160006101000a81549060ff021916905560078201600090556008820160009055505060005b600480549050811015612f99578360048281548110612efd57612efc613b46565b5b906000526020600020015403612f8c5760046001600480549050612f219190613f45565b81548110612f3257612f31613b46565b5b906000526020600020015460048281548110612f5157612f50613b46565b5b90600052602060002001819055506004805480612f7157612f70613f79565b5b60019003818190600052602060002001600090559055612f99565b8080600101915050612edb565b503373ffffffffffffffffffffffffffffffffffffffff16837f9e6f8c430e62bdb95c4136ee4ab0601a54912751e45a3aa93c83ef7eac5cc6bb83604051612fe19190613f23565b60405180910390a3505050565b6000826000600360008381526020019081526020016000206008015403613041576040517f274a6f2800000000000000000000000000000000000000000000000000000000815260040160405180910390fd5b6003600085815260200190815260200160002060030160008473ffffffffffffffffffffffffffffffffffffffff1673ffffffffffffffffffffffffffffffffffffffff1681526020019081526020016000205491505092915050565b606060048054806020026020016040519081016040528092919081815260200182805480156130ec57602002820191906000526020600020905b8154815260200190600101908083116130d8575b5050505050905090565b6060600180548060200260200160405190810160405280929190818152602001828054801561317a57602002820191906000526020600020905b8160009054906101000a900473ffffffffffffffffffffffffffffffffffffffff1673ffffffffffffffffffffffffffffffffffffffff1681526020019060010190808311613130575b5050505050905090565b606080600060606000808660006003600083815260200190815260200160002060080154036131df576040517f274a6f2800000000000000000000000000000000000000000000000000000000815260040160405180910390fd5b6000600360008a8152602001908152602001600020905080600001816001018260060160009054906101000a900460ff16836002018460070154856008015485805461322a90613c74565b80601f016020809104026020016040519081016040528092919081815260200182805461325690613c74565b80156132a35780601f10613278576101008083540402835291602001916132a3565b820191906000526020600020905b81548152906001019060200180831161328657829003601f168201915b505050505095508480546132b690613c74565b80601f01602080910402602001604051908101604052809291908181526020018280546132e290613c74565b801561332f5780601f106133045761010080835404028352916020019161332f565b820191906000526020600020905b81548152906001019060200180831161331257829003601f168201915b50505050509450828054806020026020016040519081016040528092919081815260200182805480156133b757602002820191906000526020600020905b8160009054906101000a900473ffffffffffffffffffffffffffffffffffffffff1673ffffffffffffffffffffffffffffffffffffffff168152602001906001019080831161336d575b50505050509250975097509750975097509750505091939550919395565b5080546133e190613c74565b6000825580601f106133f35750613412565b601f0160209004906000526020600020908101906134119190613436565b5b50565b50805460008255906000526020600020908101906134339190613436565b50565b5b8082111561344f576000816000905550600101613437565b5090565b6000604051905090565b600080fd5b600080fd5b6000819050919050565b61347a81613467565b811461348557600080fd5b50565b60008135905061349781613471565b92915050565b600073ffffffffffffffffffffffffffffffffffffffff82169050919050565b60006134c88261349d565b9050919050565b6134d8816134bd565b81146134e357600080fd5b50565b6000813590506134f5816134cf565b92915050565b600080604083850312156135125761351161345d565b5b600061352085828601613488565b9250506020613531858286016134e6565b9150509250929050565b6000602082840312156135515761355061345d565b5b600061355f84828501613488565b91505092915050565b600080fd5b600080fd5b6000601f19601f8301169050919050565b7f4e487b7100000000000000000000000000000000000000000000000000000000600052604160045260246000fd5b6135bb82613572565b810181811067ffffffffffffffff821117156135da576135d9613583565b5b80604052505050565b60006135ed613453565b90506135f982826135b2565b919050565b600067ffffffffffffffff82111561361957613618613583565b5b61362282613572565b9050602081019050919050565b82818337600083830152505050565b600061365161364c846135fe565b6135e3565b90508281526020810184848401111561366d5761366c61356d565b5b61367884828561362f565b509392505050565b600082601f83011261369557613694613568565b5b81356136a584826020860161363e565b91505092915050565b6000806000606084860312156136c7576136c661345d565b5b60006136d586828701613488565b935050602084013567ffffffffffffffff8111156136f6576136f5613462565b5b61370286828701613680565b925050604084013567ffffffffffffffff81111561372357613722613462565b5b61372f86828701613680565b9150509250925092565b613742816134bd565b82525050565b600060208201905061375d6000830184613739565b92915050565b6000602082840312156137795761377861345d565b5b6000613787848285016134e6565b91505092915050565b61379981613467565b82525050565b60006020820190506137b46000830184613790565b92915050565b60008115159050919050565b6137cf816137ba565b82525050565b60006020820190506137ea60008301846137c6565b92915050565b600080604083850312156138075761380661345d565b5b600083013567ffffffffffffffff81111561382557613824613462565b5b61383185828601613680565b925050602083013567ffffffffffffffff81111561385257613851613462565b5b61385e85828601613680565b9150509250929050565b600060408201905061387d6000830185613739565b61388a6020830184613739565b9392505050565b600081519050919050565b600082825260208201905092915050565b6000819050602082019050919050565b6138c6816134bd565b82525050565b60006138d883836138bd565b60208301905092915050565b6000602082019050919050565b60006138fc82613891565b613906818561389c565b9350613911836138ad565b8060005b8381101561394257815161392988826138cc565b9750613934836138e4565b925050600181019050613915565b5085935050505092915050565b6000602082019050818103600083015261396981846138f1565b905092915050565b600081519050919050565b600082825260208201905092915050565b6000819050602082019050919050565b6139a681613467565b82525050565b60006139b8838361399d565b60208301905092915050565b6000602082019050919050565b60006139dc82613971565b6139e6818561397c565b93506139f18361398d565b8060005b83811015613a22578151613a0988826139ac565b9750613a14836139c4565b9250506001810190506139f5565b5085935050505092915050565b60006020820190508181036000830152613a4981846139d1565b905092915050565b600081519050919050565b600082825260208201905092915050565b60005b83811015613a8b578082015181840152602081019050613a70565b60008484015250505050565b6000613aa282613a51565b613aac8185613a5c565b9350613abc818560208601613a6d565b613ac581613572565b840191505092915050565b600060c0820190508181036000830152613aea8189613a97565b90508181036020830152613afe8188613a97565b9050613b0d60408301876137c6565b8181036060830152613b1f81866138f1565b9050613b2e6080830185613790565b613b3b60a0830184613790565b979650505050505050565b7f4e487b7100000000000000000000000000000000000000000000000000000000600052603260045260246000fd5b613b7e816137ba565b8114613b8957600080fd5b50565b600081519050613b9b81613b75565b92915050565b600060208284031215613bb757613bb661345d565b5b6000613bc584828501613b8c565b91505092915050565b7f4e487b7100000000000000000000000000000000000000000000000000000000600052601160045260246000fd5b6000613c0882613467565b91507fffffffffffffffffffffffffffffffffffffffffffffffffffffffffffffffff8203613c3a57613c39613bce565b5b600182019050919050565b7f4e487b7100000000000000000000000000000000000000000000000000000000600052602260045260246000fd5b60006002820490506001821680613c8c57607f821691505b602082108103613c9f57613c9e613c45565b5b50919050565b60008190508160005260206000209050919050565b60006020601f8301049050919050565b600082821b905092915050565b600060088302613d077fffffffffffffffffffffffffffffffffffffffffffffffffffffffffffffffff82613cca565b613d118683613cca565b95508019841693508086168417925050509392505050565b6000819050919050565b6000613d4e613d49613d4484613467565b613d29565b613467565b9050919050565b6000819050919050565b613d6883613d33565b613d7c613d7482613d55565b848454613cd7565b825550505050565b600090565b613d91613d84565b613d9c818484613d5f565b505050565b5b81811015613dc057613db5600082613d89565b600181019050613da2565b5050565b601f821115613e0557613dd681613ca5565b613ddf84613cba565b81016020851015613dee578190505b613e02613dfa85613cba565b830182613da1565b50505b505050565b600082821c905092915050565b6000613e2860001984600802613e0a565b1980831691505092915050565b6000613e418383613e17565b9150826002028217905092915050565b613e5a82613a51565b67ffffffffffffffff811115613e7357613e72613583565b5b613e7d8254613c74565b613e88828285613dc4565b600060209050601f831160018114613ebb5760008415613ea9578287015190505b613eb38582613e35565b865550613f1b565b601f198416613ec986613ca5565b60005b82811015613ef157848901518255600182019150602085019450602081019050613ecc565b86831015613f0e5784890151613f0a601f891682613e17565b8355505b6001600288020188555050505b505050505050565b60006020820190508181036000830152613f3d8184613a97565b905092915050565b6000613f5082613467565b9150613f5b83613467565b9250828203905081811115613f7357613f72613bce565b5b92915050565b7f4e487b7100000000000000000000000000000000000000000000000000000000600052603160045260246000fdfea26469706673582212209cce41450f6e5dfa6006674abbcb9a322f3e2c49dc0a55a65fe0533a828e963964736f6c634300081c0033",
  "linkReferences": {},
  "deployedLinkReferences": {}
}