{
  "_format": "hh-sol-artifact-1",
  "contractName": "ElectionDatabase",
  "sourceName": "contracts/ElectionDatabase.sol",
  "abi": [
    {
      "inputs": [
        {
          "internalType": "address",
          "name": "_voterDBAddress",
          "type": "address"
        },
        {
          "internalType": "address",
          "name": "_candidateDBAddress",
          "type": "address"
        }
      ],
      "stateMutability": "nonpayable",
      "type": "constructor"
    },
    {
      "inputs": [],
      "name": "AdminManagement__AdminNotFound",
      "type": "error"
    },
    {
      "inputs": [],
      "name": "AdminManagement__AlreadyAdmin",
      "type": "error"
    },
    {
      "inputs": [],
      "name": "AdminManagement__InvalidAddress",
      "type": "error"
    },
    {
      "inputs": [],
      "name": "AdminManagement__NotAdmin",
      "type": "error"
    },
    {
      "inputs": [],
      "name": "AdminManagement__NotOwner",
      "type": "error"
    },
    {
      "inputs": [],
      "name": "ElectionDatabase__CandidateAlreadyEnrolled",
      "type": "error"
    },
    {
      "inputs": [],
      "name": "ElectionDatabase__CandidateNotRegistered",
      "type": "error"
    },
    {
      "inputs": [],
      "name": "ElectionDatabase__ElectionActive",
      "type": "error"
    },
    {
      "inputs": [],
      "name": "ElectionDatabase__ElectionClosed",
      "type": "error"
    },
    {
      "inputs": [],
      "name": "ElectionDatabase__ElectionHasNoContestant",
      "type": "error"
    },
    {
      "inputs": [],
      "name": "ElectionDatabase__ElectionNotFound",
      "type": "error"
    },
    {
      "inputs": [],
      "name": "ElectionDatabase__InvalidAddress",
      "type": "error"
    },
    {
      "inputs": [],
      "name": "ElectionDatabase__VoterAlreadyVoted",
      "type": "error"
    },
    {
      "inputs": [],
      "name": "ElectionDatabase__VoterNotRegistered",
      "type": "error"
    },
    {
      "anonymous": false,
      "inputs": [
        {
          "indexed": true,
          "internalType": "address",
          "name": "admin",
          "type": "address"
        },
        {
          "indexed": true,
          "internalType": "address",
          "name": "owner",
          "type": "address"
        }
      ],
      "name": "AdminAdded",
      "type": "event"
    },
    {
      "anonymous": false,
      "inputs": [
        {
          "indexed": true,
          "internalType": "uint256",
          "name": "electionId",
          "type": "uint256"
        },
        {
          "indexed": false,
          "internalType": "string",
          "name": "name",
          "type": "string"
        },
        {
          "indexed": true,
          "internalType": "address",
          "name": "creator",
          "type": "address"
        }
      ],
      "name": "AdminCreatedElection",
      "type": "event"
    },
    {
      "anonymous": false,
      "inputs": [
        {
          "indexed": true,
          "internalType": "uint256",
          "name": "electionId",
          "type": "uint256"
        },
        {
          "indexed": false,
          "internalType": "string",
          "name": "name",
          "type": "string"
        },
        {
          "indexed": true,
          "internalType": "address",
          "name": "remover",
          "type": "address"
        }
      ],
      "name": "AdminDeletedElection",
      "type": "event"
    },
    {
      "anonymous": false,
      "inputs": [
        {
          "indexed": true,
          "internalType": "uint256",
          "name": "electionId",
          "type": "uint256"
        },
        {
          "indexed": true,
          "internalType": "address",
          "name": "candidate",
          "type": "address"
        },
        {
          "indexed": true,
          "internalType": "address",
          "name": "adder",
          "type": "address"
        }
      ],
      "name": "AdminEnrolledCandidate",
      "type": "event"
    },
    {
      "anonymous": false,
      "inputs": [
        {
          "indexed": true,
          "internalType": "address",
          "name": "admin",
          "type": "address"
        },
        {
          "indexed": true,
          "internalType": "address",
          "name": "owner",
          "type": "address"
        }
      ],
      "name": "AdminRemoved",
      "type": "event"
    },
    {
      "anonymous": false,
      "inputs": [
        {
          "indexed": true,
          "internalType": "uint256",
          "name": "electionId",
          "type": "uint256"
        },
        {
          "indexed": true,
          "internalType": "address",
          "name": "candidate",
          "type": "address"
        },
        {
          "indexed": true,
          "internalType": "address",
          "name": "remover",
          "type": "address"
        }
      ],
      "name": "AdminRemovedCandidate",
      "type": "event"
    },
    {
      "anonymous": false,
      "inputs": [
        {
          "indexed": true,
          "internalType": "uint256",
          "name": "electionId",
          "type": "uint256"
        },
        {
          "indexed": false,
          "internalType": "string",
          "name": "name",
          "type": "string"
        },
        {
          "indexed": true,
          "internalType": "address",
          "name": "updater",
          "type": "address"
        }
      ],
      "name": "AdminUpdatedElection",
      "type": "event"
    },
    {
      "anonymous": false,
      "inputs": [
        {
          "indexed": true,
          "internalType": "uint256",
          "name": "electionId",
          "type": "uint256"
        },
        {
          "indexed": true,
          "internalType": "address",
          "name": "candidate",
          "type": "address"
        }
      ],
      "name": "CandidateEnrolled",
      "type": "event"
    },
    {
      "anonymous": false,
      "inputs": [
        {
          "indexed": true,
          "internalType": "uint256",
          "name": "electionId",
          "type": "uint256"
        },
        {
          "indexed": true,
          "internalType": "address",
          "name": "candidate",
          "type": "address"
        }
      ],
      "name": "CandidateWithdrawn",
      "type": "event"
    },
    {
      "anonymous": false,
      "inputs": [
        {
          "indexed": true,
          "internalType": "uint256",
          "name": "electionId",
          "type": "uint256"
        },
        {
          "indexed": true,
          "internalType": "address",
          "name": "admin",
          "type": "address"
        }
      ],
      "name": "ElectionClosed",
      "type": "event"
    },
    {
      "anonymous": false,
      "inputs": [
        {
          "indexed": true,
          "internalType": "uint256",
          "name": "electionId",
          "type": "uint256"
        },
        {
          "indexed": true,
          "internalType": "address",
          "name": "admin",
          "type": "address"
        }
      ],
      "name": "ElectionOpened",
      "type": "event"
    },
    {
      "anonymous": false,
      "inputs": [
        {
          "indexed": true,
          "internalType": "uint256",
          "name": "electionId",
          "type": "uint256"
        },
        {
          "indexed": true,
          "internalType": "address",
          "name": "voter",
          "type": "address"
        },
        {
          "indexed": true,
          "internalType": "address",
          "name": "candidate",
          "type": "address"
        }
      ],
      "name": "VoterVoted",
      "type": "event"
    },
    {
      "inputs": [
        {
          "internalType": "address",
          "name": "_adminAddress",
          "type": "address"
        }
      ],
      "name": "addAdmin",
      "outputs": [],
      "stateMutability": "nonpayable",
      "type": "function"
    },
    {
      "inputs": [
        {
          "internalType": "uint256",
          "name": "_electionId",
          "type": "uint256"
        }
      ],
      "name": "adminCloseElection",
      "outputs": [],
      "stateMutability": "nonpayable",
      "type": "function"
    },
    {
      "inputs": [
        {
          "internalType": "string",
          "name": "_name",
          "type": "string"
        },
        {
          "internalType": "string",
          "name": "_description",
          "type": "string"
        }
      ],
      "name": "adminCreateElection",
      "outputs": [],
      "stateMutability": "nonpayable",
      "type": "function"
    },
    {
      "inputs": [
        {
          "internalType": "uint256",
          "name": "_electionId",
          "type": "uint256"
        }
      ],
      "name": "adminDeleteElection",
      "outputs": [],
      "stateMutability": "nonpayable",
      "type": "function"
    },
    {
      "inputs": [
        {
          "internalType": "uint256",
          "name": "_electionId",
          "type": "uint256"
        },
        {
          "internalType": "address",
          "name": "_candidate",
          "type": "address"
        }
      ],
      "name": "adminEnrollCandidate",
      "outputs": [],
      "stateMutability": "nonpayable",
      "type": "function"
    },
    {
      "inputs": [
        {
          "internalType": "uint256",
          "name": "_electionId",
          "type": "uint256"
        }
      ],
      "name": "adminOpenElection",
      "outputs": [],
      "stateMutability": "nonpayable",
      "type": "function"
    },
    {
      "inputs": [
        {
          "internalType": "uint256",
          "name": "_electionId",
          "type": "uint256"
        },
        {
          "internalType": "string",
          "name": "_name",
          "type": "string"
        },
        {
          "internalType": "string",
          "name": "_description",
          "type": "string"
        }
      ],
      "name": "adminUpdateElection",
      "outputs": [],
      "stateMutability": "nonpayable",
      "type": "function"
    },
    {
      "inputs": [
        {
          "internalType": "uint256",
          "name": "_electionId",
          "type": "uint256"
        },
        {
          "internalType": "address",
          "name": "_candidate",
          "type": "address"
        }
      ],
      "name": "adminWithdrawCandidate",
      "outputs": [],
      "stateMutability": "nonpayable",
      "type": "function"
    },
    {
      "inputs": [],
      "name": "amIAdmin",
      "outputs": [
        {
          "internalType": "bool",
          "name": "",
          "type": "bool"
        }
      ],
      "stateMutability": "view",
      "type": "function"
    },
    {
      "inputs": [
        {
          "internalType": "uint256",
          "name": "_electionId",
          "type": "uint256"
        }
      ],
      "name": "enrollCandidate",
      "outputs": [],
      "stateMutability": "nonpayable",
      "type": "function"
    },
    {
      "inputs": [],
      "name": "getAdminCount",
      "outputs": [
        {
          "internalType": "uint256",
          "name": "",
          "type": "uint256"
        }
      ],
      "stateMutability": "view",
      "type": "function"
    },
    {
      "inputs": [],
      "name": "getAllAdmins",
      "outputs": [
        {
          "internalType": "address[]",
          "name": "",
          "type": "address[]"
        }
      ],
      "stateMutability": "view",
      "type": "function"
    },
    {
      "inputs": [],
      "name": "getAllElectionIds",
      "outputs": [
        {
          "internalType": "uint256[]",
          "name": "",
          "type": "uint256[]"
        }
      ],
      "stateMutability": "view",
      "type": "function"
    },
    {
      "inputs": [],
      "name": "getDatabases",
      "outputs": [
        {
          "internalType": "address",
          "name": "voterDB",
          "type": "address"
        },
        {
          "internalType": "address",
          "name": "candidateDB",
          "type": "address"
        }
      ],
      "stateMutability": "view",
      "type": "function"
    },
    {
      "inputs": [],
      "name": "getElectionCount",
      "outputs": [
        {
          "internalType": "uint256",
          "name": "",
          "type": "uint256"
        }
      ],
      "stateMutability": "view",
      "type": "function"
    },
    {
      "inputs": [
        {
          "internalType": "uint256",
          "name": "_electionId",
          "type": "uint256"
        }
      ],
      "name": "getElectionDetails",
      "outputs": [
        {
          "internalType": "string",
          "name": "name",
          "type": "string"
        },
        {
          "internalType": "string",
          "name": "description",
          "type": "string"
        },
        {
          "internalType": "bool",
          "name": "isActive",
          "type": "bool"
        },
        {
          "internalType": "address[]",
          "name": "candidates",
          "type": "address[]"
        },
        {
          "internalType": "uint256",
          "name": "totalVotes",
          "type": "uint256"
        },
        {
          "internalType": "uint256",
          "name": "registrationTimestamp",
          "type": "uint256"
        }
      ],
      "stateMutability": "view",
      "type": "function"
    },
    {
      "inputs": [
        {
          "internalType": "uint256",
          "name": "_electionId",
          "type": "uint256"
        }
      ],
      "name": "getElectionStatus",
      "outputs": [
        {
          "internalType": "bool",
          "name": "",
          "type": "bool"
        }
      ],
      "stateMutability": "view",
      "type": "function"
    },
    {
      "inputs": [],
      "name": "getOwner",
      "outputs": [
        {
          "internalType": "address",
          "name": "",
          "type": "address"
        }
      ],
      "stateMutability": "view",
      "type": "function"
    },
    {
      "inputs": [
        {
          "internalType": "uint256",
          "name": "_electionId",
          "type": "uint256"
        }
      ],
      "name": "getRegisteredCandidates",
      "outputs": [
        {
          "internalType": "address[]",
          "name": "",
          "type": "address[]"
        }
      ],
      "stateMutability": "view",
      "type": "function"
    },
    {
      "inputs": [
        {
          "internalType": "uint256",
          "name": "_electionId",
          "type": "uint256"
        }
      ],
      "name": "getTotalVoteCount",
      "outputs": [
        {
          "internalType": "uint256",
          "name": "",
          "type": "uint256"
        }
      ],
      "stateMutability": "view",
      "type": "function"
    },
    {
      "inputs": [
        {
          "internalType": "uint256",
          "name": "_electionId",
          "type": "uint256"
        },
        {
          "internalType": "address",
          "name": "_voter",
          "type": "address"
        }
      ],
      "name": "getVoteTimestamp",
      "outputs": [
        {
          "internalType": "uint256",
          "name": "",
          "type": "uint256"
        }
      ],
      "stateMutability": "view",
      "type": "function"
    },
    {
      "inputs": [
        {
          "internalType": "uint256",
          "name": "_electionId",
          "type": "uint256"
        },
        {
          "internalType": "address",
          "name": "_voter",
          "type": "address"
        }
      ],
      "name": "getVoterChoice",
      "outputs": [
        {
          "internalType": "address",
          "name": "",
          "type": "address"
        }
      ],
      "stateMutability": "view",
      "type": "function"
    },
    {
      "inputs": [
        {
          "internalType": "uint256",
          "name": "_electionId",
          "type": "uint256"
        },
        {
          "internalType": "address",
          "name": "_candidate",
          "type": "address"
        }
      ],
      "name": "getVotesOfCandidate",
      "outputs": [
        {
          "internalType": "uint256",
          "name": "",
          "type": "uint256"
        }
      ],
      "stateMutability": "view",
      "type": "function"
    },
    {
      "inputs": [
        {
          "internalType": "uint256",
          "name": "_electionId",
          "type": "uint256"
        }
      ],
      "name": "getWinner",
      "outputs": [
        {
          "internalType": "address",
          "name": "",
          "type": "address"
        }
      ],
      "stateMutability": "view",
      "type": "function"
    },
    {
      "inputs": [
        {
          "internalType": "uint256",
          "name": "_electionId",
          "type": "uint256"
        },
        {
          "internalType": "address",
          "name": "_voter",
          "type": "address"
        }
      ],
      "name": "hasVoted",
      "outputs": [
        {
          "internalType": "bool",
          "name": "",
          "type": "bool"
        }
      ],
      "stateMutability": "view",
      "type": "function"
    },
    {
      "inputs": [
        {
          "internalType": "address",
          "name": "_address",
          "type": "address"
        }
      ],
      "name": "isAdmin",
      "outputs": [
        {
          "internalType": "bool",
          "name": "",
          "type": "bool"
        }
      ],
      "stateMutability": "view",
      "type": "function"
    },
    {
      "inputs": [
        {
          "internalType": "address",
          "name": "_adminAddress",
          "type": "address"
        }
      ],
      "name": "removeAdmin",
      "outputs": [],
      "stateMutability": "nonpayable",
      "type": "function"
    },
    {
      "inputs": [
        {
          "internalType": "uint256",
          "name": "_electionId",
          "type": "uint256"
        },
        {
          "internalType": "address",
          "name": "_candidate",
          "type": "address"
        }
      ],
      "name": "vote",
      "outputs": [],
      "stateMutability": "nonpayable",
      "type": "function"
    },
    {
      "inputs": [
        {
          "internalType": "uint256",
          "name": "_electionId",
          "type": "uint256"
        }
      ],
      "name": "withdrawCandidate",
      "outputs": [],
      "stateMutability": "nonpayable",
      "type": "function"
    }
  ],
  "bytecode": "0x60e060405234801561001057600080fd5b506040516142b53803806142b5833981810160405281019061003291906101de565b3373ffffffffffffffffffffffffffffffffffffffff1660808173ffffffffffffffffffffffffffffffffffffffff1681525050600073ffffffffffffffffffffffffffffffffffffffff168273ffffffffffffffffffffffffffffffffffffffff1614806100cd5750600073ffffffffffffffffffffffffffffffffffffffff168173ffffffffffffffffffffffffffffffffffffffff16145b15610104576040517f7865ff4400000000000000000000000000000000000000000000000000000000815260040160405180910390fd5b8173ffffffffffffffffffffffffffffffffffffffff1660a08173ffffffffffffffffffffffffffffffffffffffff16815250508073ffffffffffffffffffffffffffffffffffffffff1660c08173ffffffffffffffffffffffffffffffffffffffff16815250506000600281905550505061021e565b600080fd5b600073ffffffffffffffffffffffffffffffffffffffff82169050919050565b60006101ab82610180565b9050919050565b6101bb816101a0565b81146101c657600080fd5b50565b6000815190506101d8816101b2565b92915050565b600080604083850312156101f5576101f461017b565b5b6000610203858286016101c9565b9250506020610214858286016101c9565b9150509250929050565b60805160a05160c051613fff6102b660003960008181611b690152818161238e0152612a6501526000818161077701528181610a1101528181610efe015261236d015260008181610b0201528181610ced015281816110b001528181611475015281816117b601528181611a3b01528181611ddc01528181611fc001528181612337015281816123b70152612cc10152613fff6000f3fe608060405234801561001057600080fd5b50600436106101cf5760003560e01c80637b437c8311610104578063abc4269c116100a2578063d4dbfe3211610071578063d4dbfe321461053b578063dee40f741461056b578063e9523c9714610589578063f6049924146105a7576101cf565b8063abc4269c146104b7578063b05847bd146104d3578063b60b591014610503578063c24de3ed1461051f576101cf565b80638f99a8dc116100de5780638f99a8dc1461042e5780639186a57f1461044d578063934f1cca14610469578063a4afcc6014610487576101cf565b80637b437c83146103d6578063893d20e8146103f25780638b7bf3eb14610410576101cf565b806324d7806c11610171578063464fcbc31161014b578063464fcbc3146103525780637048027514610382578063712fb5bb1461039e5780637a55cb2a146103ba576101cf565b806324d7806c146102c25780634129b2c9146102f25780634385963214610322576101cf565b80630eac27f4116101ad5780630eac27f4146102285780631785f53c14610258578063213785a01461027457806324785b9e14610292576101cf565b806302d947ef146101d457806307e095f5146101f05780630c153e771461020c575b600080fd5b6101ee60048036038101906101e9919061351c565b6105dc565b005b61020a6004803603810190610205919061355c565b610b00565b005b610226600480360381019061022191906136cf565b610ceb565b005b610242600480360381019061023d919061351c565b610ea9565b60405161024f9190613769565b60405180910390f35b610272600480360381019061026d9190613784565b6110ae565b005b61027c6113e5565b60405161028991906137c0565b60405180910390f35b6102ac60048036038101906102a7919061355c565b6113f2565b6040516102b991906137f6565b60405180910390f35b6102dc60048036038101906102d79190613784565b611471565b6040516102e991906137f6565b60405180910390f35b61030c6004803603810190610307919061355c565b61151c565b6040516103199190613769565b60405180910390f35b61033c6004803603810190610337919061351c565b611651565b60405161034991906137f6565b60405180910390f35b61036c6004803603810190610367919061351c565b611704565b60405161037991906137c0565b60405180910390f35b61039c60048036038101906103979190613784565b6117b4565b005b6103b860048036038101906103b3919061351c565b611a39565b005b6103d460048036038101906103cf9190613811565b611dda565b005b6103f060048036038101906103eb919061351c565b611fbe565b005b6103fa612333565b6040516104079190613769565b60405180910390f35b61041861235b565b60405161042591906137c0565b60405180910390f35b610436612368565b604051610444929190613889565b60405180910390f35b6104676004803603810190610462919061355c565b6123b5565b005b61047161255f565b60405161047e91906137f6565b60405180910390f35b6104a1600480360381019061049c919061355c565b61256f565b6040516104ae9190613970565b60405180910390f35b6104d160048036038101906104cc919061355c565b612665565b005b6104ed60048036038101906104e8919061355c565b612943565b6040516104fa91906137c0565b60405180910390f35b61051d6004803603810190610518919061355c565b6129b5565b005b6105396004803603810190610534919061355c565b612cbf565b005b6105556004803603810190610550919061351c565b61300f565b60405161056291906137c0565b60405180910390f35b6105736130bf565b6040516105809190613a50565b60405180910390f35b610591613117565b60405161059e9190613970565b60405180910390f35b6105c160048036038101906105bc919061355c565b6131a5565b6040516105d396959493929190613af1565b60405180910390f35b81600060036000838152602001908152602001600020600801540361062d576040517f274a6f2800000000000000000000000000000000000000000000000000000000815260040160405180910390fd5b826003600082815260200190815260200160002060060160009054906101000a900460ff16610688576040517f280711c800000000000000000000000000000000000000000000000000000000815260040160405180910390fd5b838360006003600084815260200190815260200160002090506000805b826002018054905081101561073d578373ffffffffffffffffffffffffffffffffffffffff168360020182815481106106e1576106e0613b67565b5b9060005260206000200160009054906101000a900473ffffffffffffffffffffffffffffffffffffffff1673ffffffffffffffffffffffffffffffffffffffff1603610730576001915061073d565b80806001019150506106a5565b5080610775576040517f4378521a00000000000000000000000000000000000000000000000000000000815260040160405180910390fd5b7f000000000000000000000000000000000000000000000000000000000000000073ffffffffffffffffffffffffffffffffffffffff166384aa21d4336040518263ffffffff1660e01b81526004016107ce9190613769565b602060405180830381865afa1580156107eb573d6000803e3d6000fd5b505050506040513d601f19601f8201168201806040525081019061080f9190613bc2565b610845576040517fc96d366100000000000000000000000000000000000000000000000000000000815260040160405180910390fd5b6000600360008a8152602001908152602001600020905060008160050160003373ffffffffffffffffffffffffffffffffffffffff1673ffffffffffffffffffffffffffffffffffffffff1681526020019081526020016000205411156108d8576040517f5f5ab03900000000000000000000000000000000000000000000000000000000815260040160405180910390fd5b8060030160008973ffffffffffffffffffffffffffffffffffffffff1673ffffffffffffffffffffffffffffffffffffffff168152602001908152602001600020600081548092919061092a90613c1e565b9190505550878160040160003373ffffffffffffffffffffffffffffffffffffffff1673ffffffffffffffffffffffffffffffffffffffff16815260200190815260200160002060006101000a81548173ffffffffffffffffffffffffffffffffffffffff021916908373ffffffffffffffffffffffffffffffffffffffff160217905550428160050160003373ffffffffffffffffffffffffffffffffffffffff1673ffffffffffffffffffffffffffffffffffffffff16815260200190815260200160002081905550806007016000815480929190610a0a90613c1e565b91905055507f000000000000000000000000000000000000000000000000000000000000000073ffffffffffffffffffffffffffffffffffffffff1663b0d42fb5336040518263ffffffff1660e01b8152600401610a689190613769565b600060405180830381600087803b158015610a8257600080fd5b505af1158015610a96573d6000803e3d6000fd5b505050508773ffffffffffffffffffffffffffffffffffffffff163373ffffffffffffffffffffffffffffffffffffffff168a7febb148949ed47bc8192939ff1e47fd3f8ae26c4815e399aa06c42de96d62d2be60405160405180910390a4505050505050505050565b7f000000000000000000000000000000000000000000000000000000000000000073ffffffffffffffffffffffffffffffffffffffff163373ffffffffffffffffffffffffffffffffffffffff1614158015610ba557506000803373ffffffffffffffffffffffffffffffffffffffff1673ffffffffffffffffffffffffffffffffffffffff16815260200190815260200160002060009054906101000a900460ff16155b15610bdc576040517f87a8a82e00000000000000000000000000000000000000000000000000000000815260040160405180910390fd5b806000600360008381526020019081526020016000206008015403610c2d576040517f274a6f2800000000000000000000000000000000000000000000000000000000815260040160405180910390fd5b60006003600084815260200190815260200160002090506000816002018054905003610c85576040517f65f8a67d00000000000000000000000000000000000000000000000000000000815260040160405180910390fd5b60018160060160006101000a81548160ff0219169083151502179055503373ffffffffffffffffffffffffffffffffffffffff16837fa96b0ccdd8a64358a5c6ed66153747d2f57922e5a63e6f54967024312f70474160405160405180910390a3505050565b7f000000000000000000000000000000000000000000000000000000000000000073ffffffffffffffffffffffffffffffffffffffff163373ffffffffffffffffffffffffffffffffffffffff1614158015610d9057506000803373ffffffffffffffffffffffffffffffffffffffff1673ffffffffffffffffffffffffffffffffffffffff16815260200190815260200160002060009054906101000a900460ff16155b15610dc7576040517f87a8a82e00000000000000000000000000000000000000000000000000000000815260040160405180910390fd5b826000600360008381526020019081526020016000206008015403610e18576040517f274a6f2800000000000000000000000000000000000000000000000000000000815260040160405180910390fd5b600060036000868152602001908152602001600020905083816000019081610e409190613e72565b5082816001019081610e529190613e72565b503373ffffffffffffffffffffffffffffffffffffffff16857f81f40209c15bf78fc64c9a3d75386f0b4c8c9c93c4f7352d7fba3328712fcc7a86604051610e9a9190613f44565b60405180910390a35050505050565b6000826000600360008381526020019081526020016000206008015403610efc576040517f274a6f2800000000000000000000000000000000000000000000000000000000815260040160405180910390fd5b7f000000000000000000000000000000000000000000000000000000000000000073ffffffffffffffffffffffffffffffffffffffff166384aa21d4336040518263ffffffff1660e01b8152600401610f559190613769565b602060405180830381865afa158015610f72573d6000803e3d6000fd5b505050506040513d601f19601f82011682018060405250810190610f969190613bc2565b610fcc576040517fc96d366100000000000000000000000000000000000000000000000000000000815260040160405180910390fd5b60006003600086815260200190815260200160002060050160008573ffffffffffffffffffffffffffffffffffffffff1673ffffffffffffffffffffffffffffffffffffffff168152602001908152602001600020540361103057600091506110a7565b6003600085815260200190815260200160002060040160008473ffffffffffffffffffffffffffffffffffffffff1673ffffffffffffffffffffffffffffffffffffffff16815260200190815260200160002060009054906101000a900473ffffffffffffffffffffffffffffffffffffffff1691505b5092915050565b7f000000000000000000000000000000000000000000000000000000000000000073ffffffffffffffffffffffffffffffffffffffff163373ffffffffffffffffffffffffffffffffffffffff1614611133576040517fbe2ac67400000000000000000000000000000000000000000000000000000000815260040160405180910390fd5b6000808273ffffffffffffffffffffffffffffffffffffffff1673ffffffffffffffffffffffffffffffffffffffff16815260200190815260200160002060009054906101000a900460ff166111b5576040517f256d404300000000000000000000000000000000000000000000000000000000815260040160405180910390fd5b6000808273ffffffffffffffffffffffffffffffffffffffff1673ffffffffffffffffffffffffffffffffffffffff16815260200190815260200160002060006101000a81549060ff02191690556000600180549050905060005b81811015611386578273ffffffffffffffffffffffffffffffffffffffff166001828154811061124357611242613b67565b5b9060005260206000200160009054906101000a900473ffffffffffffffffffffffffffffffffffffffff1673ffffffffffffffffffffffffffffffffffffffff160361137b57600180836112979190613f66565b815481106112a8576112a7613b67565b5b9060005260206000200160009054906101000a900473ffffffffffffffffffffffffffffffffffffffff16600182815481106112e7576112e6613b67565b5b9060005260206000200160006101000a81548173ffffffffffffffffffffffffffffffffffffffff021916908373ffffffffffffffffffffffffffffffffffffffff160217905550600180548061134157611340613f9a565b5b6001900381819060005260206000200160006101000a81549073ffffffffffffffffffffffffffffffffffffffff02191690559055611386565b806001019050611210565b503373ffffffffffffffffffffffffffffffffffffffff168273ffffffffffffffffffffffffffffffffffffffff167fdb9d5d31320daf5bc7181d565b6da4d12e30f0f4d5aa324a992426c14a1d19ce60405160405180910390a35050565b6000600480549050905090565b6000816000600360008381526020019081526020016000206008015403611445576040517f274a6f2800000000000000000000000000000000000000000000000000000000815260040160405180910390fd5b6003600084815260200190815260200160002060060160009054906101000a900460ff16915050919050565b60007f000000000000000000000000000000000000000000000000000000000000000073ffffffffffffffffffffffffffffffffffffffff168273ffffffffffffffffffffffffffffffffffffffff16148061151557506000808373ffffffffffffffffffffffffffffffffffffffff1673ffffffffffffffffffffffffffffffffffffffff16815260200190815260200160002060009054906101000a900460ff165b9050919050565b600081600060036000838152602001908152602001600020600801540361156f576040517f274a6f2800000000000000000000000000000000000000000000000000000000815260040160405180910390fd5b600060036000858152602001908152602001600020905060008060005b83600201805490508110156116445760008460020182815481106115b3576115b2613b67565b5b9060005260206000200160009054906101000a900473ffffffffffffffffffffffffffffffffffffffff16905060008560030160008373ffffffffffffffffffffffffffffffffffffffff1673ffffffffffffffffffffffffffffffffffffffff16815260200190815260200160002054905084811115611635578094508193505b5050808060010191505061158c565b5080945050505050919050565b60008260006003600083815260200190815260200160002060080154036116a4576040517f274a6f2800000000000000000000000000000000000000000000000000000000815260040160405180910390fd5b60006003600086815260200190815260200160002060050160008573ffffffffffffffffffffffffffffffffffffffff1673ffffffffffffffffffffffffffffffffffffffff168152602001908152602001600020541191505092915050565b6000826000600360008381526020019081526020016000206008015403611757576040517f274a6f2800000000000000000000000000000000000000000000000000000000815260040160405180910390fd5b6003600085815260200190815260200160002060050160008473ffffffffffffffffffffffffffffffffffffffff1673ffffffffffffffffffffffffffffffffffffffff1681526020019081526020016000205491505092915050565b7f000000000000000000000000000000000000000000000000000000000000000073ffffffffffffffffffffffffffffffffffffffff163373ffffffffffffffffffffffffffffffffffffffff1614611839576040517fbe2ac67400000000000000000000000000000000000000000000000000000000815260040160405180910390fd5b600073ffffffffffffffffffffffffffffffffffffffff168173ffffffffffffffffffffffffffffffffffffffff160361189f576040517fd9fa4b4700000000000000000000000000000000000000000000000000000000815260040160405180910390fd5b6000808273ffffffffffffffffffffffffffffffffffffffff1673ffffffffffffffffffffffffffffffffffffffff16815260200190815260200160002060009054906101000a900460ff1615611922576040517f4e16b38200000000000000000000000000000000000000000000000000000000815260040160405180910390fd5b60016000808373ffffffffffffffffffffffffffffffffffffffff1673ffffffffffffffffffffffffffffffffffffffff16815260200190815260200160002060006101000a81548160ff0219169083151502179055506001819080600181540180825580915050600190039060005260206000200160009091909190916101000a81548173ffffffffffffffffffffffffffffffffffffffff021916908373ffffffffffffffffffffffffffffffffffffffff1602179055503373ffffffffffffffffffffffffffffffffffffffff168173ffffffffffffffffffffffffffffffffffffffff167fbf3f493c772c8c283fd124432c2d0f539ab343faa04258fe88e52912d36b102b60405160405180910390a350565b7f000000000000000000000000000000000000000000000000000000000000000073ffffffffffffffffffffffffffffffffffffffff163373ffffffffffffffffffffffffffffffffffffffff1614158015611ade57506000803373ffffffffffffffffffffffffffffffffffffffff1673ffffffffffffffffffffffffffffffffffffffff16815260200190815260200160002060009054906101000a900460ff16155b15611b15576040517f87a8a82e00000000000000000000000000000000000000000000000000000000815260040160405180910390fd5b816000600360008381526020019081526020016000206008015403611b66576040517f274a6f2800000000000000000000000000000000000000000000000000000000815260040160405180910390fd5b817f000000000000000000000000000000000000000000000000000000000000000073ffffffffffffffffffffffffffffffffffffffff16632f0acbe1826040518263ffffffff1660e01b8152600401611bc09190613769565b602060405180830381865afa158015611bdd573d6000803e3d6000fd5b505050506040513d601f19601f82011682018060405250810190611c019190613bc2565b611c37576040517f4378521a00000000000000000000000000000000000000000000000000000000815260040160405180910390fd5b600060036000868152602001908152602001600020905060005b8160020180549050811015611d12578473ffffffffffffffffffffffffffffffffffffffff16826002018281548110611c8d57611c8c613b67565b5b9060005260206000200160009054906101000a900473ffffffffffffffffffffffffffffffffffffffff1673ffffffffffffffffffffffffffffffffffffffff1603611d05576040517f0c0a2af000000000000000000000000000000000000000000000000000000000815260040160405180910390fd5b8080600101915050611c51565b5080600201849080600181540180825580915050600190039060005260206000200160009091909190916101000a81548173ffffffffffffffffffffffffffffffffffffffff021916908373ffffffffffffffffffffffffffffffffffffffff1602179055503373ffffffffffffffffffffffffffffffffffffffff168473ffffffffffffffffffffffffffffffffffffffff16867f0afc5e67526a6e1639dc6ad6a62a98fa0c372e88af17cdc9da31543f42e9195960405160405180910390a45050505050565b7f000000000000000000000000000000000000000000000000000000000000000073ffffffffffffffffffffffffffffffffffffffff163373ffffffffffffffffffffffffffffffffffffffff1614158015611e7f57506000803373ffffffffffffffffffffffffffffffffffffffff1673ffffffffffffffffffffffffffffffffffffffff16815260200190815260200160002060009054906101000a900460ff16155b15611eb6576040517f87a8a82e00000000000000000000000000000000000000000000000000000000815260040160405180910390fd5b60006002549050600060036000838152602001908152602001600020905083816000019081611ee59190613e72565b5082816001019081611ef79190613e72565b5060008160060160006101000a81548160ff02191690831515021790555060008160070181905550428160080181905550600482908060018154018082558091505060019003906000526020600020016000909190919091505560026000815480929190611f6490613c1e565b91905055503373ffffffffffffffffffffffffffffffffffffffff16827f79d2761878c82102d5b23cd2718dde042dd74d8ca3b5c44a777ace990b98c87a86604051611fb09190613f44565b60405180910390a350505050565b7f000000000000000000000000000000000000000000000000000000000000000073ffffffffffffffffffffffffffffffffffffffff163373ffffffffffffffffffffffffffffffffffffffff161415801561206357506000803373ffffffffffffffffffffffffffffffffffffffff1673ffffffffffffffffffffffffffffffffffffffff16815260200190815260200160002060009054906101000a900460ff16155b1561209a576040517f87a8a82e00000000000000000000000000000000000000000000000000000000815260040160405180910390fd5b8160006003600083815260200190815260200160002060080154036120eb576040517f274a6f2800000000000000000000000000000000000000000000000000000000815260040160405180910390fd5b60006003600085815260200190815260200160002090506000805b8260020180549050811015612299578473ffffffffffffffffffffffffffffffffffffffff1683600201828154811061214257612141613b67565b5b9060005260206000200160009054906101000a900473ffffffffffffffffffffffffffffffffffffffff1673ffffffffffffffffffffffffffffffffffffffff160361228c5782600201600184600201805490506121a09190613f66565b815481106121b1576121b0613b67565b5b9060005260206000200160009054906101000a900473ffffffffffffffffffffffffffffffffffffffff168360020182815481106121f2576121f1613b67565b5b9060005260206000200160006101000a81548173ffffffffffffffffffffffffffffffffffffffff021916908373ffffffffffffffffffffffffffffffffffffffff1602179055508260020180548061224e5761224d613f9a565b5b6001900381819060005260206000200160006101000a81549073ffffffffffffffffffffffffffffffffffffffff0219169055905560019150612299565b8080600101915050612106565b50806122d1576040517f4378521a00000000000000000000000000000000000000000000000000000000815260040160405180910390fd5b3373ffffffffffffffffffffffffffffffffffffffff168473ffffffffffffffffffffffffffffffffffffffff16867f57f78e75c3d7318ab69424999101d7410a199c5729cecb96f0335db789f85a8c60405160405180910390a45050505050565b60007f0000000000000000000000000000000000000000000000000000000000000000905090565b6000600180549050905090565b6000807f00000000000000000000000000000000000000000000000000000000000000007f0000000000000000000000000000000000000000000000000000000000000000915091509091565b7f000000000000000000000000000000000000000000000000000000000000000073ffffffffffffffffffffffffffffffffffffffff163373ffffffffffffffffffffffffffffffffffffffff161415801561245a57506000803373ffffffffffffffffffffffffffffffffffffffff1673ffffffffffffffffffffffffffffffffffffffff16815260200190815260200160002060009054906101000a900460ff16155b15612491576040517f87a8a82e00000000000000000000000000000000000000000000000000000000815260040160405180910390fd5b8060006003600083815260200190815260200160002060080154036124e2576040517f274a6f2800000000000000000000000000000000000000000000000000000000815260040160405180910390fd5b600060036000848152602001908152602001600020905060008160060160006101000a81548160ff0219169083151502179055503373ffffffffffffffffffffffffffffffffffffffff16837f6052db3c29431594517805e7b6da8c279ceb52e5bc733288b79021ed2826ffd060405160405180910390a3505050565b600061256a33611471565b905090565b60608160006003600083815260200190815260200160002060080154036125c2576040517f274a6f2800000000000000000000000000000000000000000000000000000000815260040160405180910390fd5b6003600084815260200190815260200160002060020180548060200260200160405190810160405280929190818152602001828054801561265857602002820191906000526020600020905b8160009054906101000a900473ffffffffffffffffffffffffffffffffffffffff1673ffffffffffffffffffffffffffffffffffffffff168152602001906001019080831161260e575b5050505050915050919050565b8060006003600083815260200190815260200160002060080154036126b6576040517f274a6f2800000000000000000000000000000000000000000000000000000000815260040160405180910390fd5b816003600082815260200190815260200160002060060160009054906101000a900460ff1615612712576040517ff1bb5eee00000000000000000000000000000000000000000000000000000000815260040160405180910390fd5b60006003600085815260200190815260200160002090506000805b82600201805490508110156128c0573373ffffffffffffffffffffffffffffffffffffffff1683600201828154811061276957612768613b67565b5b9060005260206000200160009054906101000a900473ffffffffffffffffffffffffffffffffffffffff1673ffffffffffffffffffffffffffffffffffffffff16036128b35782600201600184600201805490506127c79190613f66565b815481106127d8576127d7613b67565b5b9060005260206000200160009054906101000a900473ffffffffffffffffffffffffffffffffffffffff1683600201828154811061281957612818613b67565b5b9060005260206000200160006101000a81548173ffffffffffffffffffffffffffffffffffffffff021916908373ffffffffffffffffffffffffffffffffffffffff1602179055508260020180548061287557612874613f9a565b5b6001900381819060005260206000200160006101000a81549073ffffffffffffffffffffffffffffffffffffffff02191690559055600191506128c0565b808060010191505061272d565b50806128f8576040517f4378521a00000000000000000000000000000000000000000000000000000000815260040160405180910390fd5b3373ffffffffffffffffffffffffffffffffffffffff16857f2c3e293c72cbb1426b07190641e6a5118f7f2a3b65947a17a37be3f98c8ceb1460405160405180910390a35050505050565b6000816000600360008381526020019081526020016000206008015403612996576040517f274a6f2800000000000000000000000000000000000000000000000000000000815260040160405180910390fd5b6003600084815260200190815260200160002060070154915050919050565b806000600360008381526020019081526020016000206008015403612a06576040517f274a6f2800000000000000000000000000000000000000000000000000000000815260040160405180910390fd5b816003600082815260200190815260200160002060060160009054906101000a900460ff1615612a62576040517ff1bb5eee00000000000000000000000000000000000000000000000000000000815260040160405180910390fd5b337f000000000000000000000000000000000000000000000000000000000000000073ffffffffffffffffffffffffffffffffffffffff16632f0acbe1826040518263ffffffff1660e01b8152600401612abc9190613769565b602060405180830381865afa158015612ad9573d6000803e3d6000fd5b505050506040513d601f19601f82011682018060405250810190612afd9190613bc2565b612b33576040517f4378521a00000000000000000000000000000000000000000000000000000000815260040160405180910390fd5b600060036000868152602001908152602001600020905060005b8160020180549050811015612c0e573373ffffffffffffffffffffffffffffffffffffffff16826002018281548110612b8957612b88613b67565b5b9060005260206000200160009054906101000a900473ffffffffffffffffffffffffffffffffffffffff1673ffffffffffffffffffffffffffffffffffffffff1603612c01576040517f0c0a2af000000000000000000000000000000000000000000000000000000000815260040160405180910390fd5b8080600101915050612b4d565b5080600201339080600181540180825580915050600190039060005260206000200160009091909190916101000a81548173ffffffffffffffffffffffffffffffffffffffff021916908373ffffffffffffffffffffffffffffffffffffffff1602179055503373ffffffffffffffffffffffffffffffffffffffff16857faa5b0f683b0489b22595bbc91aa8fa7152fc0a12957a63686c50c2d73558927d60405160405180910390a35050505050565b7f000000000000000000000000000000000000000000000000000000000000000073ffffffffffffffffffffffffffffffffffffffff163373ffffffffffffffffffffffffffffffffffffffff1614158015612d6457506000803373ffffffffffffffffffffffffffffffffffffffff1673ffffffffffffffffffffffffffffffffffffffff16815260200190815260200160002060009054906101000a900460ff16155b15612d9b576040517f87a8a82e00000000000000000000000000000000000000000000000000000000815260040160405180910390fd5b806000600360008381526020019081526020016000206008015403612dec576040517f274a6f2800000000000000000000000000000000000000000000000000000000815260040160405180910390fd5b6000600360008481526020019081526020016000206000018054612e0f90613c95565b80601f0160208091040260200160405190810160405280929190818152602001828054612e3b90613c95565b8015612e885780601f10612e5d57610100808354040283529160200191612e88565b820191906000526020600020905b815481529060010190602001808311612e6b57829003601f168201915b505050505090506003600084815260200190815260200160002060008082016000612eb391906133f6565b600182016000612ec391906133f6565b600282016000612ed39190613436565b6006820160006101000a81549060ff021916905560078201600090556008820160009055505060005b600480549050811015612fba578360048281548110612f1e57612f1d613b67565b5b906000526020600020015403612fad5760046001600480549050612f429190613f66565b81548110612f5357612f52613b67565b5b906000526020600020015460048281548110612f7257612f71613b67565b5b90600052602060002001819055506004805480612f9257612f91613f9a565b5b60019003818190600052602060002001600090559055612fba565b8080600101915050612efc565b503373ffffffffffffffffffffffffffffffffffffffff16837f9e6f8c430e62bdb95c4136ee4ab0601a54912751e45a3aa93c83ef7eac5cc6bb836040516130029190613f44565b60405180910390a3505050565b6000826000600360008381526020019081526020016000206008015403613062576040517f274a6f2800000000000000000000000000000000000000000000000000000000815260040160405180910390fd5b6003600085815260200190815260200160002060030160008473ffffffffffffffffffffffffffffffffffffffff1673ffffffffffffffffffffffffffffffffffffffff1681526020019081526020016000205491505092915050565b6060600480548060200260200160405190810160405280929190818152602001828054801561310d57602002820191906000526020600020905b8154815260200190600101908083116130f9575b5050505050905090565b6060600180548060200260200160405190810160405280929190818152602001828054801561319b57602002820191906000526020600020905b8160009054906101000a900473ffffffffffffffffffffffffffffffffffffffff1673ffffffffffffffffffffffffffffffffffffffff1681526020019060010190808311613151575b5050505050905090565b60608060006060600080866000600360008381526020019081526020016000206008015403613200576040517f274a6f2800000000000000000000000000000000000000000000000000000000815260040160405180910390fd5b6000600360008a8152602001908152602001600020905080600001816001018260060160009054906101000a900460ff16836002018460070154856008015485805461324b90613c95565b80601f016020809104026020016040519081016040528092919081815260200182805461327790613c95565b80156132c45780601f10613299576101008083540402835291602001916132c4565b820191906000526020600020905b8154815290600101906020018083116132a757829003601f168201915b505050505095508480546132d790613c95565b80601f016020809104026020016040519081016040528092919081815260200182805461330390613c95565b80156133505780601f1061332557610100808354040283529160200191613350565b820191906000526020600020905b81548152906001019060200180831161333357829003601f168201915b50505050509450828054806020026020016040519081016040528092919081815260200182805480156133d857602002820191906000526020600020905b8160009054906101000a900473ffffffffffffffffffffffffffffffffffffffff1673ffffffffffffffffffffffffffffffffffffffff168152602001906001019080831161338e575b50505050509250975097509750975097509750505091939550919395565b50805461340290613c95565b6000825580601f106134145750613433565b601f0160209004906000526020600020908101906134329190613457565b5b50565b50805460008255906000526020600020908101906134549190613457565b50565b5b80821115613470576000816000905550600101613458565b5090565b6000604051905090565b600080fd5b600080fd5b6000819050919050565b61349b81613488565b81146134a657600080fd5b50565b6000813590506134b881613492565b92915050565b600073ffffffffffffffffffffffffffffffffffffffff82169050919050565b60006134e9826134be565b9050919050565b6134f9816134de565b811461350457600080fd5b50565b600081359050613516816134f0565b92915050565b600080604083850312156135335761353261347e565b5b6000613541858286016134a9565b925050602061355285828601613507565b9150509250929050565b6000602082840312156135725761357161347e565b5b6000613580848285016134a9565b91505092915050565b600080fd5b600080fd5b6000601f19601f8301169050919050565b7f4e487b7100000000000000000000000000000000000000000000000000000000600052604160045260246000fd5b6135dc82613593565b810181811067ffffffffffffffff821117156135fb576135fa6135a4565b5b80604052505050565b600061360e613474565b905061361a82826135d3565b919050565b600067ffffffffffffffff82111561363a576136396135a4565b5b61364382613593565b9050602081019050919050565b82818337600083830152505050565b600061367261366d8461361f565b613604565b90508281526020810184848401111561368e5761368d61358e565b5b613699848285613650565b509392505050565b600082601f8301126136b6576136b5613589565b5b81356136c684826020860161365f565b91505092915050565b6000806000606084860312156136e8576136e761347e565b5b60006136f6868287016134a9565b935050602084013567ffffffffffffffff81111561371757613716613483565b5b613723868287016136a1565b925050604084013567ffffffffffffffff81111561374457613743613483565b5b613750868287016136a1565b9150509250925092565b613763816134de565b82525050565b600060208201905061377e600083018461375a565b92915050565b60006020828403121561379a5761379961347e565b5b60006137a884828501613507565b91505092915050565b6137ba81613488565b82525050565b60006020820190506137d560008301846137b1565b92915050565b60008115159050919050565b6137f0816137db565b82525050565b600060208201905061380b60008301846137e7565b92915050565b600080604083850312156138285761382761347e565b5b600083013567ffffffffffffffff81111561384657613845613483565b5b613852858286016136a1565b925050602083013567ffffffffffffffff81111561387357613872613483565b5b61387f858286016136a1565b9150509250929050565b600060408201905061389e600083018561375a565b6138ab602083018461375a565b9392505050565b600081519050919050565b600082825260208201905092915050565b6000819050602082019050919050565b6138e7816134de565b82525050565b60006138f983836138de565b60208301905092915050565b6000602082019050919050565b600061391d826138b2565b61392781856138bd565b9350613932836138ce565b8060005b8381101561396357815161394a88826138ed565b975061395583613905565b925050600181019050613936565b5085935050505092915050565b6000602082019050818103600083015261398a8184613912565b905092915050565b600081519050919050565b600082825260208201905092915050565b6000819050602082019050919050565b6139c781613488565b82525050565b60006139d983836139be565b60208301905092915050565b6000602082019050919050565b60006139fd82613992565b613a07818561399d565b9350613a12836139ae565b8060005b83811015613a43578151613a2a88826139cd565b9750613a35836139e5565b925050600181019050613a16565b5085935050505092915050565b60006020820190508181036000830152613a6a81846139f2565b905092915050565b600081519050919050565b600082825260208201905092915050565b60005b83811015613aac578082015181840152602081019050613a91565b60008484015250505050565b6000613ac382613a72565b613acd8185613a7d565b9350613add818560208601613a8e565b613ae681613593565b840191505092915050565b600060c0820190508181036000830152613b0b8189613ab8565b90508181036020830152613b1f8188613ab8565b9050613b2e60408301876137e7565b8181036060830152613b408186613912565b9050613b4f60808301856137b1565b613b5c60a08301846137b1565b979650505050505050565b7f4e487b7100000000000000000000000000000000000000000000000000000000600052603260045260246000fd5b613b9f816137db565b8114613baa57600080fd5b50565b600081519050613bbc81613b96565b92915050565b600060208284031215613bd857613bd761347e565b5b6000613be684828501613bad565b91505092915050565b7f4e487b7100000000000000000000000000000000000000000000000000000000600052601160045260246000fd5b6000613c2982613488565b91507fffffffffffffffffffffffffffffffffffffffffffffffffffffffffffffffff8203613c5b57613c5a613bef565b5b600182019050919050565b7f4e487b7100000000000000000000000000000000000000000000000000000000600052602260045260246000fd5b60006002820490506001821680613cad57607f821691505b602082108103613cc057613cbf613c66565b5b50919050565b60008190508160005260206000209050919050565b60006020601f8301049050919050565b600082821b905092915050565b600060088302613d287fffffffffffffffffffffffffffffffffffffffffffffffffffffffffffffffff82613ceb565b613d328683613ceb565b95508019841693508086168417925050509392505050565b6000819050919050565b6000613d6f613d6a613d6584613488565b613d4a565b613488565b9050919050565b6000819050919050565b613d8983613d54565b613d9d613d9582613d76565b848454613cf8565b825550505050565b600090565b613db2613da5565b613dbd818484613d80565b505050565b5b81811015613de157613dd6600082613daa565b600181019050613dc3565b5050565b601f821115613e2657613df781613cc6565b613e0084613cdb565b81016020851015613e0f578190505b613e23613e1b85613cdb565b830182613dc2565b50505b505050565b600082821c905092915050565b6000613e4960001984600802613e2b565b1980831691505092915050565b6000613e628383613e38565b9150826002028217905092915050565b613e7b82613a72565b67ffffffffffffffff811115613e9457613e936135a4565b5b613e9e8254613c95565b613ea9828285613de5565b600060209050601f831160018114613edc5760008415613eca578287015190505b613ed48582613e56565b865550613f3c565b601f198416613eea86613cc6565b60005b82811015613f1257848901518255600182019150602085019450602081019050613eed565b86831015613f2f5784890151613f2b601f891682613e38565b8355505b6001600288020188555050505b505050505050565b60006020820190508181036000830152613f5e8184613ab8565b905092915050565b6000613f7182613488565b9150613f7c83613488565b9250828203905081811115613f9457613f93613bef565b5b92915050565b7f4e487b7100000000000000000000000000000000000000000000000000000000600052603160045260246000fdfea2646970667358221220b403182a6d8237fa5987b98de4d6d1a3e4f38c7cbb984d231a13bee3ff5d435364736f6c634300081c0033",
  "linkReferences": {},
  "deployedLinkReferences": {}
}