{
  "_format": "hh-sol-artifact-1",
  "contractName": "ElectionDatabase",
  "sourceName": "contracts/ElectionDatabase.sol",
  "abi": [
    {
      "inputs": [
        {
          "internalType": "address",
          "name": "_voterDBAddress",
          "type": "address"
        },
        {
          "internalType": "address",
          "name": "_candidateDBAddress",
          "type": "address"
        }
      ],
      "stateMutability": "nonpayable",
      "type": "constructor"
    },
    {
      "inputs": [],
      "name": "AdminManagement__AdminNotFound",
      "type": "error"
    },
    {
      "inputs": [],
      "name": "AdminManagement__AlreadyAdmin",
      "type": "error"
    },
    {
      "inputs": [],
      "name": "AdminManagement__InvalidAddress",
      "type": "error"
    },
    {
      "inputs": [],
      "name": "AdminManagement__NotAdmin",
      "type": "error"
    },
    {
      "inputs": [],
      "name": "AdminManagement__NotOwner",
      "type": "error"
    },
    {
      "inputs": [],
      "name": "ElectionDatabase__CandidateAlreadyEnrolled",
      "type": "error"
    },
    {
      "inputs": [],
      "name": "ElectionDatabase__CandidateNotRegistered",
      "type": "error"
    },
    {
      "inputs": [],
      "name": "ElectionDatabase__ElectionActive",
      "type": "error"
    },
    {
      "inputs": [],
      "name": "ElectionDatabase__ElectionClosed",
      "type": "error"
    },
    {
      "inputs": [],
      "name": "ElectionDatabase__ElectionHasNoContestant",
      "type": "error"
    },
    {
      "inputs": [],
      "name": "ElectionDatabase__ElectionNotFound",
      "type": "error"
    },
    {
      "inputs": [],
      "name": "ElectionDatabase__InvalidAddress",
      "type": "error"
    },
    {
      "inputs": [],
      "name": "ElectionDatabase__VoterAlreadyVoted",
      "type": "error"
    },
    {
      "inputs": [],
      "name": "ElectionDatabase__VoterNotRegistered",
      "type": "error"
    },
    {
      "anonymous": false,
      "inputs": [
        {
          "indexed": true,
          "internalType": "address",
          "name": "admin",
          "type": "address"
        },
        {
          "indexed": true,
          "internalType": "address",
          "name": "owner",
          "type": "address"
        }
      ],
      "name": "AdminAdded",
      "type": "event"
    },
    {
      "anonymous": false,
      "inputs": [
        {
          "indexed": true,
          "internalType": "uint256",
          "name": "electionId",
          "type": "uint256"
        },
        {
          "indexed": true,
          "internalType": "address",
          "name": "candidate",
          "type": "address"
        },
        {
          "indexed": true,
          "internalType": "address",
          "name": "adder",
          "type": "address"
        }
      ],
      "name": "AdminEnrolledCandidate",
      "type": "event"
    },
    {
      "anonymous": false,
      "inputs": [
        {
          "indexed": true,
          "internalType": "address",
          "name": "admin",
          "type": "address"
        },
        {
          "indexed": true,
          "internalType": "address",
          "name": "owner",
          "type": "address"
        }
      ],
      "name": "AdminRemoved",
      "type": "event"
    },
    {
      "anonymous": false,
      "inputs": [
        {
          "indexed": true,
          "internalType": "uint256",
          "name": "electionId",
          "type": "uint256"
        },
        {
          "indexed": true,
          "internalType": "address",
          "name": "candidate",
          "type": "address"
        },
        {
          "indexed": true,
          "internalType": "address",
          "name": "remover",
          "type": "address"
        }
      ],
      "name": "AdminRemovedCandidate",
      "type": "event"
    },
    {
      "anonymous": false,
      "inputs": [
        {
          "indexed": true,
          "internalType": "uint256",
          "name": "electionId",
          "type": "uint256"
        },
        {
          "indexed": true,
          "internalType": "address",
          "name": "candidate",
          "type": "address"
        }
      ],
      "name": "CandidateEnrolled",
      "type": "event"
    },
    {
      "anonymous": false,
      "inputs": [
        {
          "indexed": true,
          "internalType": "uint256",
          "name": "electionId",
          "type": "uint256"
        },
        {
          "indexed": true,
          "internalType": "address",
          "name": "candidate",
          "type": "address"
        }
      ],
      "name": "CandidateWithdrawn",
      "type": "event"
    },
    {
      "anonymous": false,
      "inputs": [
        {
          "indexed": true,
          "internalType": "uint256",
          "name": "electionId",
          "type": "uint256"
        },
        {
          "indexed": true,
          "internalType": "address",
          "name": "admin",
          "type": "address"
        }
      ],
      "name": "ElectionClosed",
      "type": "event"
    },
    {
      "anonymous": false,
      "inputs": [
        {
          "indexed": true,
          "internalType": "uint256",
          "name": "electionId",
          "type": "uint256"
        },
        {
          "indexed": false,
          "internalType": "string",
          "name": "name",
          "type": "string"
        },
        {
          "indexed": true,
          "internalType": "address",
          "name": "creator",
          "type": "address"
        }
      ],
      "name": "ElectionCreated",
      "type": "event"
    },
    {
      "anonymous": false,
      "inputs": [
        {
          "indexed": true,
          "internalType": "uint256",
          "name": "electionId",
          "type": "uint256"
        },
        {
          "indexed": false,
          "internalType": "string",
          "name": "name",
          "type": "string"
        },
        {
          "indexed": true,
          "internalType": "address",
          "name": "remover",
          "type": "address"
        }
      ],
      "name": "ElectionDeleted",
      "type": "event"
    },
    {
      "anonymous": false,
      "inputs": [
        {
          "indexed": true,
          "internalType": "uint256",
          "name": "electionId",
          "type": "uint256"
        },
        {
          "indexed": true,
          "internalType": "address",
          "name": "admin",
          "type": "address"
        }
      ],
      "name": "ElectionOpened",
      "type": "event"
    },
    {
      "anonymous": false,
      "inputs": [
        {
          "indexed": true,
          "internalType": "uint256",
          "name": "electionId",
          "type": "uint256"
        },
        {
          "indexed": false,
          "internalType": "string",
          "name": "name",
          "type": "string"
        },
        {
          "indexed": true,
          "internalType": "address",
          "name": "updater",
          "type": "address"
        }
      ],
      "name": "ElectionUpdated",
      "type": "event"
    },
    {
      "anonymous": false,
      "inputs": [
        {
          "indexed": true,
          "internalType": "uint256",
          "name": "electionId",
          "type": "uint256"
        },
        {
          "indexed": true,
          "internalType": "address",
          "name": "voter",
          "type": "address"
        },
        {
          "indexed": true,
          "internalType": "address",
          "name": "candidate",
          "type": "address"
        }
      ],
      "name": "VoterVoted",
      "type": "event"
    },
    {
      "inputs": [
        {
          "internalType": "address",
          "name": "_adminAddress",
          "type": "address"
        }
      ],
      "name": "addAdmin",
      "outputs": [],
      "stateMutability": "nonpayable",
      "type": "function"
    },
    {
      "inputs": [
        {
          "internalType": "uint256",
          "name": "_electionId",
          "type": "uint256"
        }
      ],
      "name": "adminDeleteElection",
      "outputs": [],
      "stateMutability": "nonpayable",
      "type": "function"
    },
    {
      "inputs": [
        {
          "internalType": "uint256",
          "name": "_electionId",
          "type": "uint256"
        },
        {
          "internalType": "address",
          "name": "_candidate",
          "type": "address"
        }
      ],
      "name": "adminEnrollCandidate",
      "outputs": [],
      "stateMutability": "nonpayable",
      "type": "function"
    },
    {
      "inputs": [
        {
          "internalType": "uint256",
          "name": "_electionId",
          "type": "uint256"
        },
        {
          "internalType": "address",
          "name": "_candidate",
          "type": "address"
        }
      ],
      "name": "adminWithdrawCandidate",
      "outputs": [],
      "stateMutability": "nonpayable",
      "type": "function"
    },
    {
      "inputs": [],
      "name": "amIAdmin",
      "outputs": [
        {
          "internalType": "bool",
          "name": "",
          "type": "bool"
        }
      ],
      "stateMutability": "view",
      "type": "function"
    },
    {
      "inputs": [
        {
          "internalType": "uint256",
          "name": "_electionId",
          "type": "uint256"
        }
      ],
      "name": "closeElection",
      "outputs": [],
      "stateMutability": "nonpayable",
      "type": "function"
    },
    {
      "inputs": [
        {
          "internalType": "string",
          "name": "_name",
          "type": "string"
        },
        {
          "internalType": "string",
          "name": "_description",
          "type": "string"
        }
      ],
      "name": "createElection",
      "outputs": [
        {
          "internalType": "uint256",
          "name": "",
          "type": "uint256"
        }
      ],
      "stateMutability": "nonpayable",
      "type": "function"
    },
    {
      "inputs": [
        {
          "internalType": "uint256",
          "name": "_electionId",
          "type": "uint256"
        }
      ],
      "name": "enrollCandidate",
      "outputs": [],
      "stateMutability": "nonpayable",
      "type": "function"
    },
    {
      "inputs": [],
      "name": "getAdminCount",
      "outputs": [
        {
          "internalType": "uint256",
          "name": "",
          "type": "uint256"
        }
      ],
      "stateMutability": "view",
      "type": "function"
    },
    {
      "inputs": [],
      "name": "getAllAdmins",
      "outputs": [
        {
          "internalType": "address[]",
          "name": "",
          "type": "address[]"
        }
      ],
      "stateMutability": "view",
      "type": "function"
    },
    {
      "inputs": [],
      "name": "getAllElectionIds",
      "outputs": [
        {
          "internalType": "uint256[]",
          "name": "",
          "type": "uint256[]"
        }
      ],
      "stateMutability": "view",
      "type": "function"
    },
    {
      "inputs": [],
      "name": "getDatabases",
      "outputs": [
        {
          "internalType": "address",
          "name": "voterDB",
          "type": "address"
        },
        {
          "internalType": "address",
          "name": "candidateDB",
          "type": "address"
        }
      ],
      "stateMutability": "view",
      "type": "function"
    },
    {
      "inputs": [],
      "name": "getElectionCount",
      "outputs": [
        {
          "internalType": "uint256",
          "name": "",
          "type": "uint256"
        }
      ],
      "stateMutability": "view",
      "type": "function"
    },
    {
      "inputs": [
        {
          "internalType": "uint256",
          "name": "_electionId",
          "type": "uint256"
        }
      ],
      "name": "getElectionDetails",
      "outputs": [
        {
          "internalType": "string",
          "name": "name",
          "type": "string"
        },
        {
          "internalType": "string",
          "name": "description",
          "type": "string"
        },
        {
          "internalType": "bool",
          "name": "isActive",
          "type": "bool"
        },
        {
          "internalType": "address[]",
          "name": "candidates",
          "type": "address[]"
        },
        {
          "internalType": "uint256",
          "name": "totalVotes",
          "type": "uint256"
        },
        {
          "internalType": "uint256",
          "name": "createdTimestamp",
          "type": "uint256"
        }
      ],
      "stateMutability": "view",
      "type": "function"
    },
    {
      "inputs": [
        {
          "internalType": "uint256",
          "name": "_electionId",
          "type": "uint256"
        }
      ],
      "name": "getElectionStatus",
      "outputs": [
        {
          "internalType": "bool",
          "name": "",
          "type": "bool"
        }
      ],
      "stateMutability": "view",
      "type": "function"
    },
    {
      "inputs": [],
      "name": "getOwner",
      "outputs": [
        {
          "internalType": "address",
          "name": "",
          "type": "address"
        }
      ],
      "stateMutability": "view",
      "type": "function"
    },
    {
      "inputs": [
        {
          "internalType": "uint256",
          "name": "_electionId",
          "type": "uint256"
        }
      ],
      "name": "getRegisteredCandidates",
      "outputs": [
        {
          "internalType": "address[]",
          "name": "",
          "type": "address[]"
        }
      ],
      "stateMutability": "view",
      "type": "function"
    },
    {
      "inputs": [
        {
          "internalType": "uint256",
          "name": "_electionId",
          "type": "uint256"
        }
      ],
      "name": "getTotalVoteCount",
      "outputs": [
        {
          "internalType": "uint256",
          "name": "",
          "type": "uint256"
        }
      ],
      "stateMutability": "view",
      "type": "function"
    },
    {
      "inputs": [
        {
          "internalType": "uint256",
          "name": "_electionId",
          "type": "uint256"
        },
        {
          "internalType": "address",
          "name": "_voter",
          "type": "address"
        }
      ],
      "name": "getVoteTimestamp",
      "outputs": [
        {
          "internalType": "uint256",
          "name": "",
          "type": "uint256"
        }
      ],
      "stateMutability": "view",
      "type": "function"
    },
    {
      "inputs": [
        {
          "internalType": "uint256",
          "name": "_electionId",
          "type": "uint256"
        },
        {
          "internalType": "address",
          "name": "_voter",
          "type": "address"
        }
      ],
      "name": "getVoterChoice",
      "outputs": [
        {
          "internalType": "address",
          "name": "",
          "type": "address"
        }
      ],
      "stateMutability": "view",
      "type": "function"
    },
    {
      "inputs": [
        {
          "internalType": "uint256",
          "name": "_electionId",
          "type": "uint256"
        },
        {
          "internalType": "address",
          "name": "_candidate",
          "type": "address"
        }
      ],
      "name": "getVotesOfCandidate",
      "outputs": [
        {
          "internalType": "uint256",
          "name": "",
          "type": "uint256"
        }
      ],
      "stateMutability": "view",
      "type": "function"
    },
    {
      "inputs": [
        {
          "internalType": "uint256",
          "name": "_electionId",
          "type": "uint256"
        }
      ],
      "name": "getWinner",
      "outputs": [
        {
          "internalType": "address",
          "name": "",
          "type": "address"
        }
      ],
      "stateMutability": "view",
      "type": "function"
    },
    {
      "inputs": [
        {
          "internalType": "uint256",
          "name": "_electionId",
          "type": "uint256"
        },
        {
          "internalType": "address",
          "name": "_voter",
          "type": "address"
        }
      ],
      "name": "hasVoted",
      "outputs": [
        {
          "internalType": "bool",
          "name": "",
          "type": "bool"
        }
      ],
      "stateMutability": "view",
      "type": "function"
    },
    {
      "inputs": [
        {
          "internalType": "address",
          "name": "_address",
          "type": "address"
        }
      ],
      "name": "isAdmin",
      "outputs": [
        {
          "internalType": "bool",
          "name": "",
          "type": "bool"
        }
      ],
      "stateMutability": "view",
      "type": "function"
    },
    {
      "inputs": [
        {
          "internalType": "uint256",
          "name": "_electionId",
          "type": "uint256"
        }
      ],
      "name": "openElection",
      "outputs": [],
      "stateMutability": "nonpayable",
      "type": "function"
    },
    {
      "inputs": [
        {
          "internalType": "address",
          "name": "_adminAddress",
          "type": "address"
        }
      ],
      "name": "removeAdmin",
      "outputs": [],
      "stateMutability": "nonpayable",
      "type": "function"
    },
    {
      "inputs": [
        {
          "internalType": "uint256",
          "name": "_electionId",
          "type": "uint256"
        },
        {
          "internalType": "string",
          "name": "_name",
          "type": "string"
        },
        {
          "internalType": "string",
          "name": "_description",
          "type": "string"
        }
      ],
      "name": "updateElection",
      "outputs": [],
      "stateMutability": "nonpayable",
      "type": "function"
    },
    {
      "inputs": [
        {
          "internalType": "uint256",
          "name": "_electionId",
          "type": "uint256"
        },
        {
          "internalType": "address",
          "name": "_candidate",
          "type": "address"
        }
      ],
      "name": "vote",
      "outputs": [],
      "stateMutability": "nonpayable",
      "type": "function"
    },
    {
      "inputs": [
        {
          "internalType": "uint256",
          "name": "_electionId",
          "type": "uint256"
        }
      ],
      "name": "withdrawCandidate",
      "outputs": [],
      "stateMutability": "nonpayable",
      "type": "function"
    }
  ],
  "bytecode": "0x60e060405234801561001057600080fd5b506040516127ce3803806127ce83398101604081905261002f916100a6565b336080526001600160a01b038216158061005057506001600160a01b038116155b1561006e57604051631e197fd160e21b815260040160405180910390fd5b6001600160a01b0391821660a0521660c05260006002556100d9565b80516001600160a01b03811681146100a157600080fd5b919050565b600080604083850312156100b957600080fd5b6100c28361008a565b91506100d06020840161008a565b90509250929050565b60805160a05160c05161265d6101716000396000818161035a01528181610ff601526117f80152600081816103350152818161050f015261070f0152600081816102fb015281816107cb015281816108b4015281816109b901528181610bf901528181610ddc01528181610f4501528181611165015281816113880152818161196601528181611aaa0152611ced015261265d6000f3fe608060405234801561001057600080fd5b50600436106101cf5760003560e01c80638b7bf3eb11610104578063b60b5910116100a2578063d4dbfe3211610071578063d4dbfe3214610432578063dee40f7414610445578063e9523c971461045a578063f60499241461046257600080fd5b8063b60b5910146103e6578063bd27eca0146103f9578063c24de3ed1461040c578063c7cc2fd21461041f57600080fd5b80639a1d5956116100de5780639a1d59561461038d578063a4afcc60146103a0578063abc4269c146103c0578063b05847bd146103d357600080fd5b80638b7bf3eb1461031f5780638f99a8dc14610327578063934f1cca1461038557600080fd5b80634129b2c911610171578063704802751161014b57806370480275146102c0578063712fb5bb146102d35780637b437c83146102e6578063893d20e8146102f957600080fd5b80634129b2c914610287578063438596321461029a578063464fcbc3146102ad57600080fd5b80631785f53c116101ad5780631785f53c1461022c578063213785a01461023f57806324785b9e1461025157806324d7806c1461027457600080fd5b806302d947ef146101d457806309e33d07146101e95780630eac27f4146101fc575b600080fd5b6101e76101e2366004612123565b610487565b005b6101e76101f736600461214f565b6107c0565b61020f61020a366004612123565b6108a7565b6040516001600160a01b0390911681526020015b60405180910390f35b6101e761023a366004612168565b6109ae565b6004545b604051908152602001610223565b61026461025f36600461214f565b610b9e565b6040519015158152602001610223565b610264610282366004612168565b610bf5565b61020f61029536600461214f565b610c55565b6102646102a8366004612123565b610d0b565b6102436102bb366004612123565b610d6f565b6101e76102ce366004612168565b610dd1565b6101e76102e1366004612123565b610f3a565b6101e76102f4366004612123565b61115a565b7f000000000000000000000000000000000000000000000000000000000000000061020f565b600154610243565b604080516001600160a01b037f0000000000000000000000000000000000000000000000000000000000000000811682527f000000000000000000000000000000000000000000000000000000000000000016602082015201610223565b61026461136d565b6101e761039b36600461214f565b61137d565b6103b36103ae36600461214f565b6114a7565b60405161022391906121cf565b6101e76103ce36600461214f565b61154c565b6102436103e136600461214f565b611727565b6101e76103f436600461214f565b611772565b610243610407366004612287565b611959565b6101e761041a36600461214f565b611a9f565b6101e761042d3660046122f0565b611ce2565b610243610440366004612123565b611def565b61044d611e50565b6040516102239190612362565b6103b3611ea8565b61047561047036600461214f565b611f09565b604051610223969594939291906123eb565b600082815260036020526040902060060154829060ff166104bb576040516304e94de560e31b815260040160405180910390fd5b6000838152600360205260409020600601548390610100900460ff1661050d576040517f280711c800000000000000000000000000000000000000000000000000000000815260040160405180910390fd5b7f00000000000000000000000000000000000000000000000000000000000000006001600160a01b0316635b409d096040518163ffffffff1660e01b8152600401602060405180830381865afa15801561056b573d6000803e3d6000fd5b505050506040513d601f19601f8201168201806040525081019061058f9190612442565b6105c5576040517fc96d366100000000000000000000000000000000000000000000000000000000815260040160405180910390fd5b600084815260036020526040812090805b600283015481101561062c57856001600160a01b031683600201828154811061060157610601612464565b6000918252602090912001546001600160a01b031603610624576001915061062c565b6001016105d6565b508061064b576040516321bc290d60e11b815260040160405180910390fd5b33600090815260058301602052604090205415610694576040517f5f5ab03900000000000000000000000000000000000000000000000000000000815260040160405180910390fd5b6001600160a01b038516600090815260038301602052604081208054916106ba83612490565b9091555050336000908152600483016020908152604080832080546001600160a01b0319166001600160a01b038a161790556005850190915281204290556007830180549161070883612490565b91905055507f00000000000000000000000000000000000000000000000000000000000000006001600160a01b0316638ebd0a4c6040518163ffffffff1660e01b8152600401600060405180830381600087803b15801561076857600080fd5b505af115801561077c573d6000803e3d6000fd5b50506040516001600160a01b038816925033915088907febb148949ed47bc8192939ff1e47fd3f8ae26c4815e399aa06c42de96d62d2be90600090a4505050505050565b336001600160a01b037f0000000000000000000000000000000000000000000000000000000000000000161480159061080957503360009081526020819052604090205460ff16155b15610827576040516343d4541760e11b815260040160405180910390fd5b600081815260036020526040902060060154819060ff1661085b576040516304e94de560e31b815260040160405180910390fd5b60008281526003602052604080822060068101805461ff001916905590519091339185917f6052db3c29431594517805e7b6da8c279ceb52e5bc733288b79021ed2826ffd091a3505050565b6000336001600160a01b037f000000000000000000000000000000000000000000000000000000000000000016148015906108f257503360009081526020819052604090205460ff16155b15610910576040516343d4541760e11b815260040160405180910390fd5b600083815260036020526040902060060154839060ff16610944576040516304e94de560e31b815260040160405180910390fd5b60008481526003602090815260408083206001600160a01b0387168452600501909152812054900361097957600091506109a7565b60008481526003602090815260408083206001600160a01b0380881685526004909101909252909120541691505b5092915050565b336001600160a01b037f000000000000000000000000000000000000000000000000000000000000000016146109f757604051632f8ab19d60e21b815260040160405180910390fd5b6001600160a01b03811660009081526020819052604090205460ff16610a49576040517f256d404300000000000000000000000000000000000000000000000000000000815260040160405180910390fd5b6001600160a01b0381166000908152602081905260408120805460ff191690555b600154811015610b6457816001600160a01b031660018281548110610a9157610a91612464565b6000918252602090912001546001600160a01b031603610b5c5760018054610aba9082906124a9565b81548110610aca57610aca612464565b600091825260209091200154600180546001600160a01b039092169183908110610af657610af6612464565b9060005260206000200160006101000a8154816001600160a01b0302191690836001600160a01b031602179055506001805480610b3557610b356124bc565b600082815260209020810160001990810180546001600160a01b0319169055019055610b64565b600101610a6a565b5060405133906001600160a01b038316907fdb9d5d31320daf5bc7181d565b6da4d12e30f0f4d5aa324a992426c14a1d19ce90600090a350565b600081815260036020526040812060060154829060ff16610bd2576040516304e94de560e31b815260040160405180910390fd5b600083815260036020526040902060060154610100900460ff1691505b50919050565b60007f00000000000000000000000000000000000000000000000000000000000000006001600160a01b0316826001600160a01b03161480610c4f57506001600160a01b03821660009081526020819052604090205460ff165b92915050565b600081815260036020526040812060060154829060ff16610c89576040516304e94de560e31b815260040160405180910390fd5b60008381526003602052604081209080805b6002840154811015610d01576000846002018281548110610cbe57610cbe612464565b60009182526020808320909101546001600160a01b03168083526003880190915260409091205490915084811115610cf7578094508193505b5050600101610c9b565b5095945050505050565b600082815260036020526040812060060154839060ff16610d3f576040516304e94de560e31b815260040160405180910390fd5b505060009182526003602090815260408084206001600160a01b0393909316845260059092019052902054151590565b600082815260036020526040812060060154839060ff16610da3576040516304e94de560e31b815260040160405180910390fd5b505060009182526003602090815260408084206001600160a01b039390931684526005909201905290205490565b336001600160a01b037f00000000000000000000000000000000000000000000000000000000000000001614610e1a57604051632f8ab19d60e21b815260040160405180910390fd5b6001600160a01b038116610e5a576040517fd9fa4b4700000000000000000000000000000000000000000000000000000000815260040160405180910390fd5b6001600160a01b03811660009081526020819052604090205460ff1615610ead576040517f4e16b38200000000000000000000000000000000000000000000000000000000815260040160405180910390fd5b6001600160a01b038116600081815260208190526040808220805460ff19166001908117909155805480820182559083527fb10e2d527612073b26eecdfd717e6a320cf44b4afac2b0732d9fcbe2b7fa0cf60180546001600160a01b03191684179055513392917fbf3f493c772c8c283fd124432c2d0f539ab343faa04258fe88e52912d36b102b91a350565b336001600160a01b037f00000000000000000000000000000000000000000000000000000000000000001614801590610f8357503360009081526020819052604090205460ff16155b15610fa1576040516343d4541760e11b815260040160405180910390fd5b600082815260036020526040902060060154829060ff16610fd5576040516304e94de560e31b815260040160405180910390fd5b604051632f0acbe160e01b81526001600160a01b03808416600483015283917f000000000000000000000000000000000000000000000000000000000000000090911690632f0acbe190602401602060405180830381865afa15801561103f573d6000803e3d6000fd5b505050506040513d601f19601f820116820180604052508101906110639190612442565b611080576040516321bc290d60e11b815260040160405180910390fd5b6000848152600360205260408120905b60028201548110156110f557846001600160a01b03168260020182815481106110bb576110bb612464565b6000918252602090912001546001600160a01b0316036110ed5760405162c0a2af60e41b815260040160405180910390fd5b600101611090565b506002810180546001810182556000918252602082200180546001600160a01b0319166001600160a01b038716908117909155604051339288917f0afc5e67526a6e1639dc6ad6a62a98fa0c372e88af17cdc9da31543f42e919599190a45050505050565b336001600160a01b037f000000000000000000000000000000000000000000000000000000000000000016148015906111a357503360009081526020819052604090205460ff16155b156111c1576040516343d4541760e11b815260040160405180910390fd5b600082815260036020526040902060060154829060ff166111f5576040516304e94de560e31b815260040160405180910390fd5b600083815260036020526040812090805b600283015481101561130f57846001600160a01b031683600201828154811061123157611231612464565b6000918252602090912001546001600160a01b0316036113075760028301805461125d906001906124a9565b8154811061126d5761126d612464565b6000918252602090912001546002840180546001600160a01b03909216918390811061129b5761129b612464565b9060005260206000200160006101000a8154816001600160a01b0302191690836001600160a01b03160217905550826002018054806112dc576112dc6124bc565b600082815260209020810160001990810180546001600160a01b03191690550190556001915061130f565b600101611206565b508061132e576040516321bc290d60e11b815260040160405180910390fd5b60405133906001600160a01b0386169087907f57f78e75c3d7318ab69424999101d7410a199c5729cecb96f0335db789f85a8c90600090a45050505050565b600061137833610bf5565b905090565b336001600160a01b037f000000000000000000000000000000000000000000000000000000000000000016148015906113c657503360009081526020819052604090205460ff16155b156113e4576040516343d4541760e11b815260040160405180910390fd5b600081815260036020526040902060060154819060ff16611418576040516304e94de560e31b815260040160405180910390fd5b60008281526003602052604081206002810154909103611464576040517f65f8a67d00000000000000000000000000000000000000000000000000000000815260040160405180910390fd5b60068101805461ff001916610100179055604051339084907fa96b0ccdd8a64358a5c6ed66153747d2f57922e5a63e6f54967024312f70474190600090a3505050565b600081815260036020526040902060060154606090829060ff166114de576040516304e94de560e31b815260040160405180910390fd5b6000838152600360209081526040918290206002018054835181840281018401909452808452909183018282801561153f57602002820191906000526020600020905b81546001600160a01b03168152600190910190602001808311611521575b5050505050915050919050565b600081815260036020526040902060060154819060ff16611580576040516304e94de560e31b815260040160405180910390fd5b6000828152600360205260409020600601548290610100900460ff16156115ba576040516378ddaf7760e11b815260040160405180910390fd5b600083815260036020526040812090805b60028301548110156116d457336001600160a01b03168360020182815481106115f6576115f6612464565b6000918252602090912001546001600160a01b0316036116cc57600283018054611622906001906124a9565b8154811061163257611632612464565b6000918252602090912001546002840180546001600160a01b03909216918390811061166057611660612464565b9060005260206000200160006101000a8154816001600160a01b0302191690836001600160a01b03160217905550826002018054806116a1576116a16124bc565b600082815260209020810160001990810180546001600160a01b0319169055019055600191506116d4565b6001016115cb565b50806116f3576040516321bc290d60e11b815260040160405180910390fd5b604051339086907f2c3e293c72cbb1426b07190641e6a5118f7f2a3b65947a17a37be3f98c8ceb1490600090a35050505050565b600081815260036020526040812060060154829060ff1661175b576040516304e94de560e31b815260040160405180910390fd5b505060009081526003602052604090206007015490565b600081815260036020526040902060060154819060ff166117a6576040516304e94de560e31b815260040160405180910390fd5b6000828152600360205260409020600601548290610100900460ff16156117e0576040516378ddaf7760e11b815260040160405180910390fd5b604051632f0acbe160e01b81523360048201819052907f00000000000000000000000000000000000000000000000000000000000000006001600160a01b031690632f0acbe190602401602060405180830381865afa158015611847573d6000803e3d6000fd5b505050506040513d601f19601f8201168201806040525081019061186b9190612442565b611888576040516321bc290d60e11b815260040160405180910390fd5b6000848152600360205260408120905b60028201548110156118fd57336001600160a01b03168260020182815481106118c3576118c3612464565b6000918252602090912001546001600160a01b0316036118f55760405162c0a2af60e41b815260040160405180910390fd5b600101611898565b506002810180546001810182556000918252602082200180546001600160a01b03191633908117909155604051909187917faa5b0f683b0489b22595bbc91aa8fa7152fc0a12957a63686c50c2d73558927d9190a35050505050565b6000336001600160a01b037f000000000000000000000000000000000000000000000000000000000000000016148015906119a457503360009081526020819052604090205460ff16155b156119c2576040516343d4541760e11b815260040160405180910390fd5b6002546000818152600360205260409020806119de8682612555565b50600181016119ed8582612555565b5060068101805461ffff1916600190811790915560006007830181905542600884015560048054928301815581527f8a35acfbc15ff81a39ae7d344fd709f28e8600b4aa8c65c6b64bfe7fe36bd19b9091018390556002805491611a5083612490565b9190505550336001600160a01b0316827f86a3370600c4089c572e5fa1f974825253da2be6295eb9e0eef3423aebd991b087604051611a8f9190612614565b60405180910390a3509392505050565b336001600160a01b037f00000000000000000000000000000000000000000000000000000000000000001614801590611ae857503360009081526020819052604090205460ff16155b15611b06576040516343d4541760e11b815260040160405180910390fd5b600081815260036020526040902060060154819060ff16611b3a576040516304e94de560e31b815260040160405180910390fd5b60008281526003602052604081208054611b53906124d2565b80601f0160208091040260200160405190810160405280929190818152602001828054611b7f906124d2565b8015611bcc5780601f10611ba157610100808354040283529160200191611bcc565b820191906000526020600020905b815481529060010190602001808311611baf57829003601f168201915b5050506000868152600360205260408120600601805460ff1916905592935050505b600454811015611c9a578360048281548110611c0c57611c0c612464565b906000526020600020015403611c925760048054611c2c906001906124a9565b81548110611c3c57611c3c612464565b906000526020600020015460048281548110611c5a57611c5a612464565b6000918252602090912001556004805480611c7757611c776124bc565b60019003818190600052602060002001600090559055611c9a565b600101611bee565b50336001600160a01b0316837fa9bbb972085016c4cc97fc8eafa1b641d03cb5c57456f858ee28d7be1503cc4183604051611cd59190612614565b60405180910390a3505050565b336001600160a01b037f00000000000000000000000000000000000000000000000000000000000000001614801590611d2b57503360009081526020819052604090205460ff16155b15611d49576040516343d4541760e11b815260040160405180910390fd5b600083815260036020526040902060060154839060ff16611d7d576040516304e94de560e31b815260040160405180910390fd5b600084815260036020526040902080611d968582612555565b5060018101611da58482612555565b50336001600160a01b0316857fcf4a78a5af1058ca1c348d221be5c288ff69c26e521a24e2103afece1f50ceeb86604051611de09190612614565b60405180910390a35050505050565b600082815260036020526040812060060154839060ff16611e23576040516304e94de560e31b815260040160405180910390fd5b505060009182526003602081815260408085206001600160a01b0394909416855292909101905290205490565b60606004805480602002602001604051908101604052809291908181526020018280548015611e9e57602002820191906000526020600020905b815481526020019060010190808311611e8a575b5050505050905090565b60606001805480602002602001604051908101604052809291908181526020018280548015611e9e57602002820191906000526020600020905b81546001600160a01b03168152600190910190602001808311611ee2575050505050905090565b6000818152600360205260408120600601546060918291829082908190879060ff16611f48576040516304e94de560e31b815260040160405180910390fd5b600088815260036020526040902060068101546007820154600883015483548493600185019361010090910460ff169260028601928690611f88906124d2565b80601f0160208091040260200160405190810160405280929190818152602001828054611fb4906124d2565b80156120015780601f10611fd657610100808354040283529160200191612001565b820191906000526020600020905b815481529060010190602001808311611fe457829003601f168201915b50505050509550848054612014906124d2565b80601f0160208091040260200160405190810160405280929190818152602001828054612040906124d2565b801561208d5780601f106120625761010080835404028352916020019161208d565b820191906000526020600020905b81548152906001019060200180831161207057829003601f168201915b50505050509450828054806020026020016040519081016040528092919081815260200182805480156120e957602002820191906000526020600020905b81546001600160a01b031681526001909101906020018083116120cb575b50505050509250975097509750975097509750505091939550919395565b80356001600160a01b038116811461211e57600080fd5b919050565b6000806040838503121561213657600080fd5b8235915061214660208401612107565b90509250929050565b60006020828403121561216157600080fd5b5035919050565b60006020828403121561217a57600080fd5b61218382612107565b9392505050565b600081518084526020840193506020830160005b828110156121c55781516001600160a01b031686526020958601959091019060010161219e565b5093949350505050565b602081526000612183602083018461218a565b634e487b7160e01b600052604160045260246000fd5b600082601f83011261220957600080fd5b813567ffffffffffffffff811115612223576122236121e2565b604051601f8201601f19908116603f0116810167ffffffffffffffff81118282101715612252576122526121e2565b60405281815283820160200185101561226a57600080fd5b816020850160208301376000918101602001919091529392505050565b6000806040838503121561229a57600080fd5b823567ffffffffffffffff8111156122b157600080fd5b6122bd858286016121f8565b925050602083013567ffffffffffffffff8111156122da57600080fd5b6122e6858286016121f8565b9150509250929050565b60008060006060848603121561230557600080fd5b83359250602084013567ffffffffffffffff81111561232357600080fd5b61232f868287016121f8565b925050604084013567ffffffffffffffff81111561234c57600080fd5b612358868287016121f8565b9150509250925092565b602080825282518282018190526000918401906040840190835b8181101561239a57835183526020938401939092019160010161237c565b509095945050505050565b6000815180845260005b818110156123cb576020818501810151868301820152016123af565b506000602082860101526020601f19601f83011685010191505092915050565b60c0815260006123fe60c08301896123a5565b828103602084015261241081896123a5565b90508615156040840152828103606084015261242c818761218a565b6080840195909552505060a00152949350505050565b60006020828403121561245457600080fd5b8151801515811461218357600080fd5b634e487b7160e01b600052603260045260246000fd5b634e487b7160e01b600052601160045260246000fd5b6000600182016124a2576124a261247a565b5060010190565b81810381811115610c4f57610c4f61247a565b634e487b7160e01b600052603160045260246000fd5b600181811c908216806124e657607f821691505b602082108103610bef57634e487b7160e01b600052602260045260246000fd5b601f82111561255057806000526020600020601f840160051c8101602085101561252d5750805b601f840160051c820191505b8181101561254d5760008155600101612539565b50505b505050565b815167ffffffffffffffff81111561256f5761256f6121e2565b6125838161257d84546124d2565b84612506565b6020601f8211600181146125b7576000831561259f5750848201515b600019600385901b1c1916600184901b17845561254d565b600084815260208120601f198516915b828110156125e757878501518255602094850194600190920191016125c7565b50848210156126055786840151600019600387901b60f8161c191681555b50505050600190811b01905550565b60208152600061218360208301846123a556fea264697066735822122080af9cebf1618c9d7f2b2dd9ad17cb384f1ad08dd126ad19f969cbd2d927b13864736f6c634300081c0033",
  "linkReferences": {},
  "deployedLinkReferences": {}
}