{
  "_format": "hh-sol-artifact-1",
  "contractName": "VoterDatabase",
  "sourceName": "contracts/VoterDatabase.sol",
  "abi": [
    {
      "inputs": [],
      "stateMutability": "nonpayable",
      "type": "constructor"
    },
    {
      "inputs": [],
      "name": "VoterDatabase__AdminNotFound",
      "type": "error"
    },
    {
      "inputs": [],
      "name": "VoterDatabase__AlreadyAdmin",
      "type": "error"
    },
    {
      "inputs": [],
      "name": "VoterDatabase__AlreadyRegistered",
      "type": "error"
    },
    {
      "inputs": [],
      "name": "VoterDatabase__CannotUpdateAfterVoting",
      "type": "error"
    },
    {
      "inputs": [],
      "name": "VoterDatabase__ImportFailed",
      "type": "error"
    },
    {
      "inputs": [],
      "name": "VoterDatabase__InvalidAddress",
      "type": "error"
    },
    {
      "inputs": [],
      "name": "VoterDatabase__NotAdmin",
      "type": "error"
    },
    {
      "inputs": [],
      "name": "VoterDatabase__NotEligible",
      "type": "error"
    },
    {
      "inputs": [],
      "name": "VoterDatabase__NotOwner",
      "type": "error"
    },
    {
      "inputs": [],
      "name": "VoterDatabase__NotRegistered",
      "type": "error"
    },
    {
      "anonymous": false,
      "inputs": [
        {
          "indexed": true,
          "internalType": "address",
          "name": "admin",
          "type": "address"
        },
        {
          "indexed": true,
          "internalType": "address",
          "name": "owner",
          "type": "address"
        }
      ],
      "name": "AdminAdded",
      "type": "event"
    },
    {
      "anonymous": false,
      "inputs": [
        {
          "indexed": true,
          "internalType": "address",
          "name": "voter",
          "type": "address"
        },
        {
          "indexed": true,
          "internalType": "address",
          "name": "admin",
          "type": "address"
        }
      ],
      "name": "AdminAddedVoter",
      "type": "event"
    },
    {
      "anonymous": false,
      "inputs": [
        {
          "indexed": true,
          "internalType": "address",
          "name": "admin",
          "type": "address"
        },
        {
          "indexed": true,
          "internalType": "address",
          "name": "owner",
          "type": "address"
        }
      ],
      "name": "AdminRemoved",
      "type": "event"
    },
    {
      "anonymous": false,
      "inputs": [
        {
          "indexed": true,
          "internalType": "address",
          "name": "voter",
          "type": "address"
        },
        {
          "indexed": true,
          "internalType": "address",
          "name": "admin",
          "type": "address"
        }
      ],
      "name": "AdminRemovedVoter",
      "type": "event"
    },
    {
      "anonymous": false,
      "inputs": [
        {
          "indexed": true,
          "internalType": "address",
          "name": "voter",
          "type": "address"
        },
        {
          "indexed": true,
          "internalType": "address",
          "name": "admin",
          "type": "address"
        }
      ],
      "name": "AdminUpdatedVoter",
      "type": "event"
    },
    {
      "anonymous": false,
      "inputs": [
        {
          "indexed": true,
          "internalType": "address",
          "name": "voter",
          "type": "address"
        },
        {
          "indexed": true,
          "internalType": "address",
          "name": "admin",
          "type": "address"
        }
      ],
      "name": "AdminUpdatedVotingStatus",
      "type": "event"
    },
    {
      "anonymous": false,
      "inputs": [
        {
          "indexed": true,
          "internalType": "address",
          "name": "voter",
          "type": "address"
        }
      ],
      "name": "VoterDeleted",
      "type": "event"
    },
    {
      "anonymous": false,
      "inputs": [
        {
          "indexed": true,
          "internalType": "address",
          "name": "voter",
          "type": "address"
        }
      ],
      "name": "VoterRegistered",
      "type": "event"
    },
    {
      "anonymous": false,
      "inputs": [
        {
          "indexed": true,
          "internalType": "address",
          "name": "voter",
          "type": "address"
        }
      ],
      "name": "VoterUpdated",
      "type": "event"
    },
    {
      "anonymous": false,
      "inputs": [
        {
          "indexed": true,
          "internalType": "address",
          "name": "voter",
          "type": "address"
        }
      ],
      "name": "VoterVoted",
      "type": "event"
    },
    {
      "anonymous": false,
      "inputs": [
        {
          "indexed": true,
          "internalType": "address",
          "name": "sourceContract",
          "type": "address"
        },
        {
          "indexed": false,
          "internalType": "uint256",
          "name": "votersImported",
          "type": "uint256"
        }
      ],
      "name": "VotersImported",
      "type": "event"
    },
    {
      "inputs": [
        {
          "internalType": "address",
          "name": "_adminAddress",
          "type": "address"
        }
      ],
      "name": "addAdmin",
      "outputs": [],
      "stateMutability": "nonpayable",
      "type": "function"
    },
    {
      "inputs": [
        {
          "internalType": "string",
          "name": "_name",
          "type": "string"
        },
        {
          "internalType": "uint256",
          "name": "_age",
          "type": "uint256"
        },
        {
          "internalType": "enum IVoterDatabase.Gender",
          "name": "_gender",
          "type": "uint8"
        },
        {
          "internalType": "string",
          "name": "_presentAddress",
          "type": "string"
        }
      ],
      "name": "addVoter",
      "outputs": [],
      "stateMutability": "nonpayable",
      "type": "function"
    },
    {
      "inputs": [
        {
          "internalType": "address",
          "name": "_voterAddress",
          "type": "address"
        },
        {
          "internalType": "string",
          "name": "_name",
          "type": "string"
        },
        {
          "internalType": "uint256",
          "name": "_age",
          "type": "uint256"
        },
        {
          "internalType": "enum IVoterDatabase.Gender",
          "name": "_gender",
          "type": "uint8"
        },
        {
          "internalType": "string",
          "name": "_presentAddress",
          "type": "string"
        },
        {
          "internalType": "bool",
          "name": "_hasVoted",
          "type": "bool"
        }
      ],
      "name": "adminAddVoter",
      "outputs": [],
      "stateMutability": "nonpayable",
      "type": "function"
    },
    {
      "inputs": [
        {
          "internalType": "address",
          "name": "_sourceContract",
          "type": "address"
        },
        {
          "internalType": "address[]",
          "name": "_voterAddresses",
          "type": "address[]"
        }
      ],
      "name": "adminBatchImportVoters",
      "outputs": [],
      "stateMutability": "nonpayable",
      "type": "function"
    },
    {
      "inputs": [],
      "name": "adminGetAllVoters",
      "outputs": [
        {
          "internalType": "address[]",
          "name": "",
          "type": "address[]"
        }
      ],
      "stateMutability": "view",
      "type": "function"
    },
    {
      "inputs": [],
      "name": "adminGetVoterCount",
      "outputs": [
        {
          "internalType": "uint256",
          "name": "",
          "type": "uint256"
        }
      ],
      "stateMutability": "view",
      "type": "function"
    },
    {
      "inputs": [
        {
          "internalType": "address",
          "name": "_voterAddress",
          "type": "address"
        }
      ],
      "name": "adminGetVoterDetails",
      "outputs": [
        {
          "internalType": "string",
          "name": "name",
          "type": "string"
        },
        {
          "internalType": "uint256",
          "name": "age",
          "type": "uint256"
        },
        {
          "internalType": "enum IVoterDatabase.Gender",
          "name": "gender",
          "type": "uint8"
        },
        {
          "internalType": "string",
          "name": "presentAddress",
          "type": "string"
        },
        {
          "internalType": "bool",
          "name": "hasVoted",
          "type": "bool"
        }
      ],
      "stateMutability": "view",
      "type": "function"
    },
    {
      "inputs": [
        {
          "internalType": "address",
          "name": "_sourceContract",
          "type": "address"
        }
      ],
      "name": "adminImportAllVoters",
      "outputs": [],
      "stateMutability": "nonpayable",
      "type": "function"
    },
    {
      "inputs": [
        {
          "internalType": "address",
          "name": "_sourceContract",
          "type": "address"
        },
        {
          "internalType": "address",
          "name": "_voterAddress",
          "type": "address"
        }
      ],
      "name": "adminImportVoter",
      "outputs": [],
      "stateMutability": "nonpayable",
      "type": "function"
    },
    {
      "inputs": [
        {
          "internalType": "address",
          "name": "_voterAddress",
          "type": "address"
        }
      ],
      "name": "adminRemoveVoter",
      "outputs": [],
      "stateMutability": "nonpayable",
      "type": "function"
    },
    {
      "inputs": [
        {
          "internalType": "address",
          "name": "_voterAddress",
          "type": "address"
        },
        {
          "internalType": "bool",
          "name": "_hasVoted",
          "type": "bool"
        }
      ],
      "name": "adminSetVotingStatus",
      "outputs": [],
      "stateMutability": "nonpayable",
      "type": "function"
    },
    {
      "inputs": [
        {
          "internalType": "address",
          "name": "_voterAddress",
          "type": "address"
        },
        {
          "internalType": "string",
          "name": "_name",
          "type": "string"
        },
        {
          "internalType": "uint256",
          "name": "_age",
          "type": "uint256"
        },
        {
          "internalType": "enum IVoterDatabase.Gender",
          "name": "_gender",
          "type": "uint8"
        },
        {
          "internalType": "string",
          "name": "_presentAddress",
          "type": "string"
        },
        {
          "internalType": "bool",
          "name": "_hasVoted",
          "type": "bool"
        }
      ],
      "name": "adminUpdateVoter",
      "outputs": [],
      "stateMutability": "nonpayable",
      "type": "function"
    },
    {
      "inputs": [],
      "name": "amIAdmin",
      "outputs": [
        {
          "internalType": "bool",
          "name": "",
          "type": "bool"
        }
      ],
      "stateMutability": "view",
      "type": "function"
    },
    {
      "inputs": [],
      "name": "deleteVoter",
      "outputs": [],
      "stateMutability": "nonpayable",
      "type": "function"
    },
    {
      "inputs": [],
      "name": "getAdminCount",
      "outputs": [
        {
          "internalType": "uint256",
          "name": "",
          "type": "uint256"
        }
      ],
      "stateMutability": "view",
      "type": "function"
    },
    {
      "inputs": [],
      "name": "getAllAdmins",
      "outputs": [
        {
          "internalType": "address[]",
          "name": "",
          "type": "address[]"
        }
      ],
      "stateMutability": "view",
      "type": "function"
    },
    {
      "inputs": [],
      "name": "getMyDetails",
      "outputs": [
        {
          "internalType": "string",
          "name": "name",
          "type": "string"
        },
        {
          "internalType": "uint256",
          "name": "age",
          "type": "uint256"
        },
        {
          "internalType": "enum IVoterDatabase.Gender",
          "name": "gender",
          "type": "uint8"
        },
        {
          "internalType": "string",
          "name": "presentAddress",
          "type": "string"
        },
        {
          "internalType": "bool",
          "name": "hasVoted",
          "type": "bool"
        }
      ],
      "stateMutability": "view",
      "type": "function"
    },
    {
      "inputs": [],
      "name": "getMyRegistrationStatus",
      "outputs": [
        {
          "internalType": "bool",
          "name": "isRegistered",
          "type": "bool"
        }
      ],
      "stateMutability": "view",
      "type": "function"
    },
    {
      "inputs": [],
      "name": "getMyVotingStatus",
      "outputs": [
        {
          "internalType": "bool",
          "name": "hasVoted",
          "type": "bool"
        }
      ],
      "stateMutability": "view",
      "type": "function"
    },
    {
      "inputs": [],
      "name": "getOwner",
      "outputs": [
        {
          "internalType": "address",
          "name": "",
          "type": "address"
        }
      ],
      "stateMutability": "view",
      "type": "function"
    },
    {
      "inputs": [
        {
          "internalType": "address",
          "name": "_address",
          "type": "address"
        }
      ],
      "name": "isAdmin",
      "outputs": [
        {
          "internalType": "bool",
          "name": "",
          "type": "bool"
        }
      ],
      "stateMutability": "view",
      "type": "function"
    },
    {
      "inputs": [],
      "name": "markVoted",
      "outputs": [],
      "stateMutability": "nonpayable",
      "type": "function"
    },
    {
      "inputs": [
        {
          "internalType": "address",
          "name": "_adminAddress",
          "type": "address"
        }
      ],
      "name": "removeAdmin",
      "outputs": [],
      "stateMutability": "nonpayable",
      "type": "function"
    },
    {
      "inputs": [
        {
          "internalType": "string",
          "name": "_name",
          "type": "string"
        },
        {
          "internalType": "uint256",
          "name": "_age",
          "type": "uint256"
        },
        {
          "internalType": "enum IVoterDatabase.Gender",
          "name": "_gender",
          "type": "uint8"
        },
        {
          "internalType": "string",
          "name": "_presentAddress",
          "type": "string"
        }
      ],
      "name": "updateVoter",
      "outputs": [],
      "stateMutability": "nonpayable",
      "type": "function"
    }
  ],
  "bytecode": "0x60a060405234801561001057600080fd5b503373ffffffffffffffffffffffffffffffffffffffff1660808173ffffffffffffffffffffffffffffffffffffffff16815250506080516146856100bb6000396000818161060c0152818161094701528181610d000152818161116c015281816112f30152818161170101528181611aea0152818161203f015281816125c2015281816129c201528181612be401528181612f5f01528181613455015261353d01526146856000f3fe608060405234801561001057600080fd5b50600436106101575760003560e01c8063775f3f33116100c3578063ab5c354d1161007c578063ab5c354d14610356578063c12caf4d14610372578063e8d63acc146103a6578063e9523c97146103c2578063f45d42ab146103e0578063fc8e4aab146103fe57610157565b8063775f3f33146102cc578063893d20e8146102d65780638b7bf3eb146102f45780638ebd0a4c14610312578063934f1cca1461031c578063a2d0abe71461033a57610157565b806341509fe31161011557806341509fe31461021a578063431bbb7e14610238578063497e40031461025a5780634afba630146102765780635b409d091461029257806370480275146102b057610157565b80625b78ad1461015c5780631785f53c14610178578063197c0f921461019457806322edc484146101b057806324d7806c146101cc5780634040a2d5146101fc575b600080fd5b610176600480360381019061017191906139c9565b61041a565b005b610192600480360381019061018d9190613ac6565b61060a565b005b6101ae60048036038101906101a99190613b2b565b610945565b005b6101ca60048036038101906101c59190613bf0565b610cfe565b005b6101e660048036038101906101e19190613ac6565b611168565b6040516101f39190613c3f565b60405180910390f35b610204611214565b6040516102119190613c3f565b60405180910390f35b6102226112ef565b60405161022f9190613d18565b60405180910390f35b61024061145a565b604051610251959493929190613e3f565b60405180910390f35b610274600480360381019061026f9190613ac6565b6116ff565b005b610290600480360381019061028b9190613ac6565b611ae8565b005b61029a611fe7565b6040516102a79190613c3f565b60405180910390f35b6102ca60048036038101906102c59190613ac6565b61203d565b005b6102d46122c4565b005b6102de6125be565b6040516102eb9190613eaf565b60405180910390f35b6102fc6125e6565b6040516103099190613eca565b60405180910390f35b61031a6125f3565b005b610324612717565b6040516103319190613c3f565b60405180910390f35b610354600480360381019061034f91906139c9565b612727565b005b610370600480360381019061036b9190613ee5565b6129c0565b005b61038c60048036038101906103879190613ac6565b612bd9565b60405161039d959493929190613e3f565b60405180910390f35b6103c060048036038101906103bb9190613f85565b612f5d565b005b6103ca6133c3565b6040516103d79190613d18565b60405180910390f35b6103e8613451565b6040516103f59190613eca565b60405180910390f35b61041860048036038101906104139190613b2b565b61353b565b005b6000803373ffffffffffffffffffffffffffffffffffffffff1673ffffffffffffffffffffffffffffffffffffffff16815260200190815260200160002060040160019054906101000a900460ff1661049f576040517f7966098e00000000000000000000000000000000000000000000000000000000815260040160405180910390fd5b6000803373ffffffffffffffffffffffffffffffffffffffff1673ffffffffffffffffffffffffffffffffffffffff16815260200190815260200160002060040160009054906101000a900460ff1615610525576040517f8028fe5d00000000000000000000000000000000000000000000000000000000815260040160405180910390fd5b60008060003373ffffffffffffffffffffffffffffffffffffffff1673ffffffffffffffffffffffffffffffffffffffff16815260200190815260200160002090508481600001908161057891906141f1565b50838160010181905550828160020160006101000a81548160ff021916908360018111156105a9576105a8613dc8565b5b0217905550818160030190816105bf91906141f1565b503373ffffffffffffffffffffffffffffffffffffffff167f452a1bea58b8e4d443d5b0865906cc360f45aae2ee5103ee1cadec26965bc07360405160405180910390a25050505050565b7f000000000000000000000000000000000000000000000000000000000000000073ffffffffffffffffffffffffffffffffffffffff163373ffffffffffffffffffffffffffffffffffffffff161461068f576040517f47c4f8f400000000000000000000000000000000000000000000000000000000815260040160405180910390fd5b600260008273ffffffffffffffffffffffffffffffffffffffff1673ffffffffffffffffffffffffffffffffffffffff16815260200190815260200160002060009054906101000a900460ff16610712576040517f20d1b02d00000000000000000000000000000000000000000000000000000000815260040160405180910390fd5b600260008273ffffffffffffffffffffffffffffffffffffffff1673ffffffffffffffffffffffffffffffffffffffff16815260200190815260200160002060006101000a81549060ff021916905560005b6003805490508110156108e7578173ffffffffffffffffffffffffffffffffffffffff166003828154811061079c5761079b6142c3565b5b9060005260206000200160009054906101000a900473ffffffffffffffffffffffffffffffffffffffff1673ffffffffffffffffffffffffffffffffffffffff16036108da57600360016003805490506107f69190614321565b81548110610807576108066142c3565b5b9060005260206000200160009054906101000a900473ffffffffffffffffffffffffffffffffffffffff1660038281548110610846576108456142c3565b5b9060005260206000200160006101000a81548173ffffffffffffffffffffffffffffffffffffffff021916908373ffffffffffffffffffffffffffffffffffffffff16021790555060038054806108a05761089f614355565b5b6001900381819060005260206000200160006101000a81549073ffffffffffffffffffffffffffffffffffffffff021916905590556108e7565b8080600101915050610764565b503373ffffffffffffffffffffffffffffffffffffffff168173ffffffffffffffffffffffffffffffffffffffff167fdb9d5d31320daf5bc7181d565b6da4d12e30f0f4d5aa324a992426c14a1d19ce60405160405180910390a350565b7f000000000000000000000000000000000000000000000000000000000000000073ffffffffffffffffffffffffffffffffffffffff163373ffffffffffffffffffffffffffffffffffffffff16141580156109eb5750600260003373ffffffffffffffffffffffffffffffffffffffff1673ffffffffffffffffffffffffffffffffffffffff16815260200190815260200160002060009054906101000a900460ff16155b15610a22576040517ffcdf727c00000000000000000000000000000000000000000000000000000000815260040160405180910390fd5b600073ffffffffffffffffffffffffffffffffffffffff168673ffffffffffffffffffffffffffffffffffffffff1603610a88576040517ff716e87a00000000000000000000000000000000000000000000000000000000815260040160405180910390fd5b6000808773ffffffffffffffffffffffffffffffffffffffff1673ffffffffffffffffffffffffffffffffffffffff16815260200190815260200160002060040160019054906101000a900460ff1615610b0e576040517f81ab984900000000000000000000000000000000000000000000000000000000815260040160405180910390fd5b6040518060c00160405280868152602001858152602001846001811115610b3857610b37613dc8565b5b81526020018381526020018215158152602001600115158152506000808873ffffffffffffffffffffffffffffffffffffffff1673ffffffffffffffffffffffffffffffffffffffff1681526020019081526020016000206000820151816000019081610ba591906141f1565b506020820151816001015560408201518160020160006101000a81548160ff02191690836001811115610bdb57610bda613dc8565b5b02179055506060820151816003019081610bf591906141f1565b5060808201518160040160006101000a81548160ff02191690831515021790555060a08201518160040160016101000a81548160ff0219169083151502179055509050506001869080600181540180825580915050600190039060005260206000200160009091909190916101000a81548173ffffffffffffffffffffffffffffffffffffffff021916908373ffffffffffffffffffffffffffffffffffffffff1602179055503373ffffffffffffffffffffffffffffffffffffffff168673ffffffffffffffffffffffffffffffffffffffff167f1526559f7a4c30b69a62ace47df95483b2115a7ff1a1a0d7adc96114790bc60660405160405180910390a3505050505050565b7f000000000000000000000000000000000000000000000000000000000000000073ffffffffffffffffffffffffffffffffffffffff163373ffffffffffffffffffffffffffffffffffffffff1614158015610da45750600260003373ffffffffffffffffffffffffffffffffffffffff1673ffffffffffffffffffffffffffffffffffffffff16815260200190815260200160002060009054906101000a900460ff16155b15610ddb576040517ffcdf727c00000000000000000000000000000000000000000000000000000000815260040160405180910390fd5b6000808273ffffffffffffffffffffffffffffffffffffffff1673ffffffffffffffffffffffffffffffffffffffff16815260200190815260200160002060040160019054906101000a900460ff1615610e61576040517f81ab984900000000000000000000000000000000000000000000000000000000815260040160405180910390fd5b60008290508073ffffffffffffffffffffffffffffffffffffffff1663c12caf4d836040518263ffffffff1660e01b8152600401610e9f9190613eaf565b600060405180830381865afa925050508015610ede57506040513d6000823e3d601f19601f82011682018060405250810190610edb9190614433565b60015b610f14576040517fb3e1a8c100000000000000000000000000000000000000000000000000000000815260040160405180910390fd5b6040518060c00160405280868152602001858152602001846001811115610f3e57610f3d613dc8565b5b6001811115610f5057610f4f613dc8565b5b6001811115610f6257610f61613dc8565b5b81526020018381526020018215158152602001600115158152506000808973ffffffffffffffffffffffffffffffffffffffff1673ffffffffffffffffffffffffffffffffffffffff1681526020019081526020016000206000820151816000019081610fcf91906141f1565b506020820151816001015560408201518160020160006101000a81548160ff0219169083600181111561100557611004613dc8565b5b0217905550606082015181600301908161101f91906141f1565b5060808201518160040160006101000a81548160ff02191690831515021790555060a08201518160040160016101000a81548160ff0219169083151502179055509050506001879080600181540180825580915050600190039060005260206000200160009091909190916101000a81548173ffffffffffffffffffffffffffffffffffffffff021916908373ffffffffffffffffffffffffffffffffffffffff1602179055508673ffffffffffffffffffffffffffffffffffffffff167fb6be2187d059cc2a55fe29e0e503b566e1e0f8c8780096e185429350acffd3dd60405160405180910390a26000600190508873ffffffffffffffffffffffffffffffffffffffff167f75daea5c72a0008b18bdea0ab7e2c1357fdac2ad35fbc0cde3d47857fd15dbfe826040516111559190613eca565b60405180910390a2505050505050505050565b60007f000000000000000000000000000000000000000000000000000000000000000073ffffffffffffffffffffffffffffffffffffffff168273ffffffffffffffffffffffffffffffffffffffff16148061120d5750600260008373ffffffffffffffffffffffffffffffffffffffff1673ffffffffffffffffffffffffffffffffffffffff16815260200190815260200160002060009054906101000a900460ff165b9050919050565b60008060003373ffffffffffffffffffffffffffffffffffffffff1673ffffffffffffffffffffffffffffffffffffffff16815260200190815260200160002060040160019054906101000a900460ff1661129b576040517f7966098e00000000000000000000000000000000000000000000000000000000815260040160405180910390fd5b6000803373ffffffffffffffffffffffffffffffffffffffff1673ffffffffffffffffffffffffffffffffffffffff16815260200190815260200160002060040160009054906101000a900460ff16905090565b60607f000000000000000000000000000000000000000000000000000000000000000073ffffffffffffffffffffffffffffffffffffffff163373ffffffffffffffffffffffffffffffffffffffff16141580156113975750600260003373ffffffffffffffffffffffffffffffffffffffff1673ffffffffffffffffffffffffffffffffffffffff16815260200190815260200160002060009054906101000a900460ff16155b156113ce576040517ffcdf727c00000000000000000000000000000000000000000000000000000000815260040160405180910390fd5b600180548060200260200160405190810160405280929190818152602001828054801561145057602002820191906000526020600020905b8160009054906101000a900473ffffffffffffffffffffffffffffffffffffffff1673ffffffffffffffffffffffffffffffffffffffff1681526020019060010190808311611406575b5050505050905090565b6060600080606060008060003373ffffffffffffffffffffffffffffffffffffffff1673ffffffffffffffffffffffffffffffffffffffff16815260200190815260200160002060040160019054906101000a900460ff166114e8576040517f7966098e00000000000000000000000000000000000000000000000000000000815260040160405180910390fd5b60008060003373ffffffffffffffffffffffffffffffffffffffff1673ffffffffffffffffffffffffffffffffffffffff1681526020019081526020016000206040518060c001604052908160008201805461154390614014565b80601f016020809104026020016040519081016040528092919081815260200182805461156f90614014565b80156115bc5780601f10611591576101008083540402835291602001916115bc565b820191906000526020600020905b81548152906001019060200180831161159f57829003601f168201915b50505050508152602001600182015481526020016002820160009054906101000a900460ff1660018111156115f4576115f3613dc8565b5b600181111561160657611605613dc8565b5b815260200160038201805461161a90614014565b80601f016020809104026020016040519081016040528092919081815260200182805461164690614014565b80156116935780601f1061166857610100808354040283529160200191611693565b820191906000526020600020905b81548152906001019060200180831161167657829003601f168201915b505050505081526020016004820160009054906101000a900460ff161515151581526020016004820160019054906101000a900460ff16151515158152505090508060000151816020015182604001518360600151846080015195509550955095509550509091929394565b7f000000000000000000000000000000000000000000000000000000000000000073ffffffffffffffffffffffffffffffffffffffff163373ffffffffffffffffffffffffffffffffffffffff16141580156117a55750600260003373ffffffffffffffffffffffffffffffffffffffff1673ffffffffffffffffffffffffffffffffffffffff16815260200190815260200160002060009054906101000a900460ff16155b156117dc576040517ffcdf727c00000000000000000000000000000000000000000000000000000000815260040160405180910390fd5b6000808273ffffffffffffffffffffffffffffffffffffffff1673ffffffffffffffffffffffffffffffffffffffff16815260200190815260200160002060040160019054906101000a900460ff16611861576040517f7966098e00000000000000000000000000000000000000000000000000000000815260040160405180910390fd5b6000808273ffffffffffffffffffffffffffffffffffffffff1673ffffffffffffffffffffffffffffffffffffffff168152602001908152602001600020600080820160006118b091906137b7565b60018201600090556002820160006101000a81549060ff02191690556003820160006118dc91906137b7565b6004820160006101000a81549060ff02191690556004820160016101000a81549060ff0219169055505060005b600180549050811015611a8a578173ffffffffffffffffffffffffffffffffffffffff1660018281548110611941576119406142c3565b5b9060005260206000200160009054906101000a900473ffffffffffffffffffffffffffffffffffffffff1673ffffffffffffffffffffffffffffffffffffffff1603611a7d5760018080805490506119999190614321565b815481106119aa576119a96142c3565b5b9060005260206000200160009054906101000a900473ffffffffffffffffffffffffffffffffffffffff16600182815481106119e9576119e86142c3565b5b9060005260206000200160006101000a81548173ffffffffffffffffffffffffffffffffffffffff021916908373ffffffffffffffffffffffffffffffffffffffff1602179055506001805480611a4357611a42614355565b5b6001900381819060005260206000200160006101000a81549073ffffffffffffffffffffffffffffffffffffffff02191690559055611a8a565b8080600101915050611909565b503373ffffffffffffffffffffffffffffffffffffffff168173ffffffffffffffffffffffffffffffffffffffff167fb8644c8db01f390a1148d2f24cc77fd6ce3dc104da1f9b36a706197e2c85019460405160405180910390a350565b7f000000000000000000000000000000000000000000000000000000000000000073ffffffffffffffffffffffffffffffffffffffff163373ffffffffffffffffffffffffffffffffffffffff1614158015611b8e5750600260003373ffffffffffffffffffffffffffffffffffffffff1673ffffffffffffffffffffffffffffffffffffffff16815260200190815260200160002060009054906101000a900460ff16155b15611bc5576040517ffcdf727c00000000000000000000000000000000000000000000000000000000815260040160405180910390fd5b600081905060608173ffffffffffffffffffffffffffffffffffffffff166341509fe36040518163ffffffff1660e01b8152600401600060405180830381865afa925050508015611c3957506040513d6000823e3d601f19601f82011682018060405250810190611c3691906145be565b60015b611c6f576040517fb3e1a8c100000000000000000000000000000000000000000000000000000000815260040160405180910390fd5b809150506000805b8251811015611f92576000838281518110611c9557611c946142c3565b5b602002602001015190506000808273ffffffffffffffffffffffffffffffffffffffff1673ffffffffffffffffffffffffffffffffffffffff16815260200190815260200160002060040160019054906101000a900460ff1615611cf95750611f85565b8473ffffffffffffffffffffffffffffffffffffffff1663c12caf4d826040518263ffffffff1660e01b8152600401611d329190613eaf565b600060405180830381865afa925050508015611d7157506040513d6000823e3d601f19601f82011682018060405250810190611d6e9190614433565b60015b611d7b5750611f85565b6040518060c00160405280868152602001858152602001846001811115611da557611da4613dc8565b5b6001811115611db757611db6613dc8565b5b6001811115611dc957611dc8613dc8565b5b81526020018381526020018215158152602001600115158152506000808873ffffffffffffffffffffffffffffffffffffffff1673ffffffffffffffffffffffffffffffffffffffff1681526020019081526020016000206000820151816000019081611e3691906141f1565b506020820151816001015560408201518160020160006101000a81548160ff02191690836001811115611e6c57611e6b613dc8565b5b02179055506060820151816003019081611e8691906141f1565b5060808201518160040160006101000a81548160ff02191690831515021790555060a08201518160040160016101000a81548160ff0219169083151502179055509050506001869080600181540180825580915050600190039060005260206000200160009091909190916101000a81548173ffffffffffffffffffffffffffffffffffffffff021916908373ffffffffffffffffffffffffffffffffffffffff1602179055508573ffffffffffffffffffffffffffffffffffffffff167fb6be2187d059cc2a55fe29e0e503b566e1e0f8c8780096e185429350acffd3dd60405160405180910390a28780611f7b90614607565b9850505050505050505b8080600101915050611c77565b508373ffffffffffffffffffffffffffffffffffffffff167f75daea5c72a0008b18bdea0ab7e2c1357fdac2ad35fbc0cde3d47857fd15dbfe82604051611fd99190613eca565b60405180910390a250505050565b60008060003373ffffffffffffffffffffffffffffffffffffffff1673ffffffffffffffffffffffffffffffffffffffff16815260200190815260200160002060040160019054906101000a900460ff16905090565b7f000000000000000000000000000000000000000000000000000000000000000073ffffffffffffffffffffffffffffffffffffffff163373ffffffffffffffffffffffffffffffffffffffff16146120c2576040517f47c4f8f400000000000000000000000000000000000000000000000000000000815260040160405180910390fd5b600073ffffffffffffffffffffffffffffffffffffffff168173ffffffffffffffffffffffffffffffffffffffff1603612128576040517ff716e87a00000000000000000000000000000000000000000000000000000000815260040160405180910390fd5b600260008273ffffffffffffffffffffffffffffffffffffffff1673ffffffffffffffffffffffffffffffffffffffff16815260200190815260200160002060009054906101000a900460ff16156121ac576040517f3d8d732400000000000000000000000000000000000000000000000000000000815260040160405180910390fd5b6001600260008373ffffffffffffffffffffffffffffffffffffffff1673ffffffffffffffffffffffffffffffffffffffff16815260200190815260200160002060006101000a81548160ff0219169083151502179055506003819080600181540180825580915050600190039060005260206000200160009091909190916101000a81548173ffffffffffffffffffffffffffffffffffffffff021916908373ffffffffffffffffffffffffffffffffffffffff1602179055503373ffffffffffffffffffffffffffffffffffffffff168173ffffffffffffffffffffffffffffffffffffffff167fbf3f493c772c8c283fd124432c2d0f539ab343faa04258fe88e52912d36b102b60405160405180910390a350565b6000803373ffffffffffffffffffffffffffffffffffffffff1673ffffffffffffffffffffffffffffffffffffffff16815260200190815260200160002060040160019054906101000a900460ff16612349576040517f7966098e00000000000000000000000000000000000000000000000000000000815260040160405180910390fd5b60003390506000808273ffffffffffffffffffffffffffffffffffffffff1673ffffffffffffffffffffffffffffffffffffffff1681526020019081526020016000206000808201600061239d91906137b7565b60018201600090556002820160006101000a81549060ff02191690556003820160006123c991906137b7565b6004820160006101000a81549060ff02191690556004820160016101000a81549060ff0219169055505060005b600180549050811015612577578173ffffffffffffffffffffffffffffffffffffffff166001828154811061242e5761242d6142c3565b5b9060005260206000200160009054906101000a900473ffffffffffffffffffffffffffffffffffffffff1673ffffffffffffffffffffffffffffffffffffffff160361256a5760018080805490506124869190614321565b81548110612497576124966142c3565b5b9060005260206000200160009054906101000a900473ffffffffffffffffffffffffffffffffffffffff16600182815481106124d6576124d56142c3565b5b9060005260206000200160006101000a81548173ffffffffffffffffffffffffffffffffffffffff021916908373ffffffffffffffffffffffffffffffffffffffff16021790555060018054806125305761252f614355565b5b6001900381819060005260206000200160006101000a81549073ffffffffffffffffffffffffffffffffffffffff02191690559055612577565b80806001019150506123f6565b508073ffffffffffffffffffffffffffffffffffffffff167faf4c2a533fbd4d43945279bdd38298da41e7b2785811f3fe4f5233a3bd4aea0b60405160405180910390a250565b60007f0000000000000000000000000000000000000000000000000000000000000000905090565b6000600380549050905090565b6000803373ffffffffffffffffffffffffffffffffffffffff1673ffffffffffffffffffffffffffffffffffffffff16815260200190815260200160002060040160019054906101000a900460ff16612678576040517f7966098e00000000000000000000000000000000000000000000000000000000815260040160405180910390fd5b60016000803373ffffffffffffffffffffffffffffffffffffffff1673ffffffffffffffffffffffffffffffffffffffff16815260200190815260200160002060040160006101000a81548160ff0219169083151502179055503373ffffffffffffffffffffffffffffffffffffffff167f8fd1c56946dc9410415e1d70729e4a8926174655d5f0e2527301de09bae9feac60405160405180910390a2565b600061272233611168565b905090565b6012831015612762576040517f7a2e615e00000000000000000000000000000000000000000000000000000000815260040160405180910390fd5b6000803373ffffffffffffffffffffffffffffffffffffffff1673ffffffffffffffffffffffffffffffffffffffff16815260200190815260200160002060040160019054906101000a900460ff16156127e8576040517f81ab984900000000000000000000000000000000000000000000000000000000815260040160405180910390fd5b6040518060c0016040528085815260200184815260200183600181111561281257612811613dc8565b5b8152602001828152602001600015158152602001600115158152506000803373ffffffffffffffffffffffffffffffffffffffff1673ffffffffffffffffffffffffffffffffffffffff168152602001908152602001600020600082015181600001908161288091906141f1565b506020820151816001015560408201518160020160006101000a81548160ff021916908360018111156128b6576128b5613dc8565b5b021790555060608201518160030190816128d091906141f1565b5060808201518160040160006101000a81548160ff02191690831515021790555060a08201518160040160016101000a81548160ff0219169083151502179055509050506001339080600181540180825580915050600190039060005260206000200160009091909190916101000a81548173ffffffffffffffffffffffffffffffffffffffff021916908373ffffffffffffffffffffffffffffffffffffffff1602179055503373ffffffffffffffffffffffffffffffffffffffff167fb6be2187d059cc2a55fe29e0e503b566e1e0f8c8780096e185429350acffd3dd60405160405180910390a250505050565b7f000000000000000000000000000000000000000000000000000000000000000073ffffffffffffffffffffffffffffffffffffffff163373ffffffffffffffffffffffffffffffffffffffff1614158015612a665750600260003373ffffffffffffffffffffffffffffffffffffffff1673ffffffffffffffffffffffffffffffffffffffff16815260200190815260200160002060009054906101000a900460ff16155b15612a9d576040517ffcdf727c00000000000000000000000000000000000000000000000000000000815260040160405180910390fd5b6000808373ffffffffffffffffffffffffffffffffffffffff1673ffffffffffffffffffffffffffffffffffffffff16815260200190815260200160002060040160019054906101000a900460ff16612b22576040517f7966098e00000000000000000000000000000000000000000000000000000000815260040160405180910390fd5b806000808473ffffffffffffffffffffffffffffffffffffffff1673ffffffffffffffffffffffffffffffffffffffff16815260200190815260200160002060040160006101000a81548160ff0219169083151502179055503373ffffffffffffffffffffffffffffffffffffffff168273ffffffffffffffffffffffffffffffffffffffff167f021d3238501a18b85b254aafd63dac3f9cde239e23f1298b4caba4c51eb657f660405160405180910390a35050565b6060600080606060007f000000000000000000000000000000000000000000000000000000000000000073ffffffffffffffffffffffffffffffffffffffff163373ffffffffffffffffffffffffffffffffffffffff1614158015612c885750600260003373ffffffffffffffffffffffffffffffffffffffff1673ffffffffffffffffffffffffffffffffffffffff16815260200190815260200160002060009054906101000a900460ff16155b15612cbf576040517ffcdf727c00000000000000000000000000000000000000000000000000000000815260040160405180910390fd5b6000808773ffffffffffffffffffffffffffffffffffffffff1673ffffffffffffffffffffffffffffffffffffffff16815260200190815260200160002060040160019054906101000a900460ff16612d44576040517f7966098e00000000000000000000000000000000000000000000000000000000815260040160405180910390fd5b60008060008873ffffffffffffffffffffffffffffffffffffffff1673ffffffffffffffffffffffffffffffffffffffff1681526020019081526020016000206040518060c0016040529081600082018054612d9f90614014565b80601f0160208091040260200160405190810160405280929190818152602001828054612dcb90614014565b8015612e185780601f10612ded57610100808354040283529160200191612e18565b820191906000526020600020905b815481529060010190602001808311612dfb57829003601f168201915b50505050508152602001600182015481526020016002820160009054906101000a900460ff166001811115612e5057612e4f613dc8565b5b6001811115612e6257612e61613dc8565b5b8152602001600382018054612e7690614014565b80601f0160208091040260200160405190810160405280929190818152602001828054612ea290614014565b8015612eef5780601f10612ec457610100808354040283529160200191612eef565b820191906000526020600020905b815481529060010190602001808311612ed257829003601f168201915b505050505081526020016004820160009054906101000a900460ff161515151581526020016004820160019054906101000a900460ff161515151581525050905080600001518160200151826040015183606001518460800151955095509550955095505091939590929450565b7f000000000000000000000000000000000000000000000000000000000000000073ffffffffffffffffffffffffffffffffffffffff163373ffffffffffffffffffffffffffffffffffffffff16141580156130035750600260003373ffffffffffffffffffffffffffffffffffffffff1673ffffffffffffffffffffffffffffffffffffffff16815260200190815260200160002060009054906101000a900460ff16155b1561303a576040517ffcdf727c00000000000000000000000000000000000000000000000000000000815260040160405180910390fd5b60008390506000805b8484905081101561336d576000858583818110613063576130626142c3565b5b90506020020160208101906130789190613ac6565b90506000808273ffffffffffffffffffffffffffffffffffffffff1673ffffffffffffffffffffffffffffffffffffffff16815260200190815260200160002060040160019054906101000a900460ff16156130d45750613360565b8373ffffffffffffffffffffffffffffffffffffffff1663c12caf4d826040518263ffffffff1660e01b815260040161310d9190613eaf565b600060405180830381865afa92505050801561314c57506040513d6000823e3d601f19601f820116820180604052508101906131499190614433565b60015b6131565750613360565b6040518060c001604052808681526020018581526020018460018111156131805761317f613dc8565b5b600181111561319257613191613dc8565b5b60018111156131a4576131a3613dc8565b5b81526020018381526020018215158152602001600115158152506000808873ffffffffffffffffffffffffffffffffffffffff1673ffffffffffffffffffffffffffffffffffffffff168152602001908152602001600020600082015181600001908161321191906141f1565b506020820151816001015560408201518160020160006101000a81548160ff0219169083600181111561324757613246613dc8565b5b0217905550606082015181600301908161326191906141f1565b5060808201518160040160006101000a81548160ff02191690831515021790555060a08201518160040160016101000a81548160ff0219169083151502179055509050506001869080600181540180825580915050600190039060005260206000200160009091909190916101000a81548173ffffffffffffffffffffffffffffffffffffffff021916908373ffffffffffffffffffffffffffffffffffffffff1602179055508573ffffffffffffffffffffffffffffffffffffffff167fb6be2187d059cc2a55fe29e0e503b566e1e0f8c8780096e185429350acffd3dd60405160405180910390a2878061335690614607565b9850505050505050505b8080600101915050613043565b508473ffffffffffffffffffffffffffffffffffffffff167f75daea5c72a0008b18bdea0ab7e2c1357fdac2ad35fbc0cde3d47857fd15dbfe826040516133b49190613eca565b60405180910390a25050505050565b6060600380548060200260200160405190810160405280929190818152602001828054801561344757602002820191906000526020600020905b8160009054906101000a900473ffffffffffffffffffffffffffffffffffffffff1673ffffffffffffffffffffffffffffffffffffffff16815260200190600101908083116133fd575b5050505050905090565b60007f000000000000000000000000000000000000000000000000000000000000000073ffffffffffffffffffffffffffffffffffffffff163373ffffffffffffffffffffffffffffffffffffffff16141580156134f95750600260003373ffffffffffffffffffffffffffffffffffffffff1673ffffffffffffffffffffffffffffffffffffffff16815260200190815260200160002060009054906101000a900460ff16155b15613530576040517ffcdf727c00000000000000000000000000000000000000000000000000000000815260040160405180910390fd5b600180549050905090565b7f000000000000000000000000000000000000000000000000000000000000000073ffffffffffffffffffffffffffffffffffffffff163373ffffffffffffffffffffffffffffffffffffffff16141580156135e15750600260003373ffffffffffffffffffffffffffffffffffffffff1673ffffffffffffffffffffffffffffffffffffffff16815260200190815260200160002060009054906101000a900460ff16155b15613618576040517ffcdf727c00000000000000000000000000000000000000000000000000000000815260040160405180910390fd5b6000808773ffffffffffffffffffffffffffffffffffffffff1673ffffffffffffffffffffffffffffffffffffffff16815260200190815260200160002060040160019054906101000a900460ff1661369d576040517f7966098e00000000000000000000000000000000000000000000000000000000815260040160405180910390fd5b60008060008873ffffffffffffffffffffffffffffffffffffffff1673ffffffffffffffffffffffffffffffffffffffff1681526020019081526020016000209050858160000190816136f091906141f1565b50848160010181905550838160020160006101000a81548160ff0219169083600181111561372157613720613dc8565b5b02179055508281600301908161373791906141f1565b50818160040160006101000a81548160ff0219169083151502179055503373ffffffffffffffffffffffffffffffffffffffff168773ffffffffffffffffffffffffffffffffffffffff167f0d86a35f44bd7db2e20f4a249388595ad9232a2d5b8be19ebe307828eed21fa660405160405180910390a350505050505050565b5080546137c390614014565b6000825580601f106137d557506137f4565b601f0160209004906000526020600020908101906137f391906137f7565b5b50565b5b808211156138105760008160009055506001016137f8565b5090565b6000604051905090565b600080fd5b600080fd5b600080fd5b600080fd5b6000601f19601f8301169050919050565b7f4e487b7100000000000000000000000000000000000000000000000000000000600052604160045260246000fd5b61387b82613832565b810181811067ffffffffffffffff8211171561389a57613899613843565b5b80604052505050565b60006138ad613814565b90506138b98282613872565b919050565b600067ffffffffffffffff8211156138d9576138d8613843565b5b6138e282613832565b9050602081019050919050565b82818337600083830152505050565b600061391161390c846138be565b6138a3565b90508281526020810184848401111561392d5761392c61382d565b5b6139388482856138ef565b509392505050565b600082601f83011261395557613954613828565b5b81356139658482602086016138fe565b91505092915050565b6000819050919050565b6139818161396e565b811461398c57600080fd5b50565b60008135905061399e81613978565b92915050565b600281106139b157600080fd5b50565b6000813590506139c3816139a4565b92915050565b600080600080608085870312156139e3576139e261381e565b5b600085013567ffffffffffffffff811115613a0157613a00613823565b5b613a0d87828801613940565b9450506020613a1e8782880161398f565b9350506040613a2f878288016139b4565b925050606085013567ffffffffffffffff811115613a5057613a4f613823565b5b613a5c87828801613940565b91505092959194509250565b600073ffffffffffffffffffffffffffffffffffffffff82169050919050565b6000613a9382613a68565b9050919050565b613aa381613a88565b8114613aae57600080fd5b50565b600081359050613ac081613a9a565b92915050565b600060208284031215613adc57613adb61381e565b5b6000613aea84828501613ab1565b91505092915050565b60008115159050919050565b613b0881613af3565b8114613b1357600080fd5b50565b600081359050613b2581613aff565b92915050565b60008060008060008060c08789031215613b4857613b4761381e565b5b6000613b5689828a01613ab1565b965050602087013567ffffffffffffffff811115613b7757613b76613823565b5b613b8389828a01613940565b9550506040613b9489828a0161398f565b9450506060613ba589828a016139b4565b935050608087013567ffffffffffffffff811115613bc657613bc5613823565b5b613bd289828a01613940565b92505060a0613be389828a01613b16565b9150509295509295509295565b60008060408385031215613c0757613c0661381e565b5b6000613c1585828601613ab1565b9250506020613c2685828601613ab1565b9150509250929050565b613c3981613af3565b82525050565b6000602082019050613c546000830184613c30565b92915050565b600081519050919050565b600082825260208201905092915050565b6000819050602082019050919050565b613c8f81613a88565b82525050565b6000613ca18383613c86565b60208301905092915050565b6000602082019050919050565b6000613cc582613c5a565b613ccf8185613c65565b9350613cda83613c76565b8060005b83811015613d0b578151613cf28882613c95565b9750613cfd83613cad565b925050600181019050613cde565b5085935050505092915050565b60006020820190508181036000830152613d328184613cba565b905092915050565b600081519050919050565b600082825260208201905092915050565b60005b83811015613d74578082015181840152602081019050613d59565b60008484015250505050565b6000613d8b82613d3a565b613d958185613d45565b9350613da5818560208601613d56565b613dae81613832565b840191505092915050565b613dc28161396e565b82525050565b7f4e487b7100000000000000000000000000000000000000000000000000000000600052602160045260246000fd5b60028110613e0857613e07613dc8565b5b50565b6000819050613e1982613df7565b919050565b6000613e2982613e0b565b9050919050565b613e3981613e1e565b82525050565b600060a0820190508181036000830152613e598188613d80565b9050613e686020830187613db9565b613e756040830186613e30565b8181036060830152613e878185613d80565b9050613e966080830184613c30565b9695505050505050565b613ea981613a88565b82525050565b6000602082019050613ec46000830184613ea0565b92915050565b6000602082019050613edf6000830184613db9565b92915050565b60008060408385031215613efc57613efb61381e565b5b6000613f0a85828601613ab1565b9250506020613f1b85828601613b16565b9150509250929050565b600080fd5b600080fd5b60008083601f840112613f4557613f44613828565b5b8235905067ffffffffffffffff811115613f6257613f61613f25565b5b602083019150836020820283011115613f7e57613f7d613f2a565b5b9250929050565b600080600060408486031215613f9e57613f9d61381e565b5b6000613fac86828701613ab1565b935050602084013567ffffffffffffffff811115613fcd57613fcc613823565b5b613fd986828701613f2f565b92509250509250925092565b7f4e487b7100000000000000000000000000000000000000000000000000000000600052602260045260246000fd5b6000600282049050600182168061402c57607f821691505b60208210810361403f5761403e613fe5565b5b50919050565b60008190508160005260206000209050919050565b60006020601f8301049050919050565b600082821b905092915050565b6000600883026140a77fffffffffffffffffffffffffffffffffffffffffffffffffffffffffffffffff8261406a565b6140b1868361406a565b95508019841693508086168417925050509392505050565b6000819050919050565b60006140ee6140e96140e48461396e565b6140c9565b61396e565b9050919050565b6000819050919050565b614108836140d3565b61411c614114826140f5565b848454614077565b825550505050565b600090565b614131614124565b61413c8184846140ff565b505050565b5b8181101561416057614155600082614129565b600181019050614142565b5050565b601f8211156141a55761417681614045565b61417f8461405a565b8101602085101561418e578190505b6141a261419a8561405a565b830182614141565b50505b505050565b600082821c905092915050565b60006141c8600019846008026141aa565b1980831691505092915050565b60006141e183836141b7565b9150826002028217905092915050565b6141fa82613d3a565b67ffffffffffffffff81111561421357614212613843565b5b61421d8254614014565b614228828285614164565b600060209050601f83116001811461425b5760008415614249578287015190505b61425385826141d5565b8655506142bb565b601f19841661426986614045565b60005b828110156142915784890151825560018201915060208501945060208101905061426c565b868310156142ae57848901516142aa601f8916826141b7565b8355505b6001600288020188555050505b505050505050565b7f4e487b7100000000000000000000000000000000000000000000000000000000600052603260045260246000fd5b7f4e487b7100000000000000000000000000000000000000000000000000000000600052601160045260246000fd5b600061432c8261396e565b91506143378361396e565b925082820390508181111561434f5761434e6142f2565b5b92915050565b7f4e487b7100000000000000000000000000000000000000000000000000000000600052603160045260246000fd5b6000614397614392846138be565b6138a3565b9050828152602081018484840111156143b3576143b261382d565b5b6143be848285613d56565b509392505050565b600082601f8301126143db576143da613828565b5b81516143eb848260208601614384565b91505092915050565b60008151905061440381613978565b92915050565b600081519050614418816139a4565b92915050565b60008151905061442d81613aff565b92915050565b600080600080600060a0868803121561444f5761444e61381e565b5b600086015167ffffffffffffffff81111561446d5761446c613823565b5b614479888289016143c6565b955050602061448a888289016143f4565b945050604061449b88828901614409565b935050606086015167ffffffffffffffff8111156144bc576144bb613823565b5b6144c8888289016143c6565b92505060806144d98882890161441e565b9150509295509295909350565b600067ffffffffffffffff82111561450157614500613843565b5b602082029050602081019050919050565b60008151905061452181613a9a565b92915050565b600061453a614535846144e6565b6138a3565b9050808382526020820190506020840283018581111561455d5761455c613f2a565b5b835b8181101561458657806145728882614512565b84526020840193505060208101905061455f565b5050509392505050565b600082601f8301126145a5576145a4613828565b5b81516145b5848260208601614527565b91505092915050565b6000602082840312156145d4576145d361381e565b5b600082015167ffffffffffffffff8111156145f2576145f1613823565b5b6145fe84828501614590565b91505092915050565b60006146128261396e565b91507fffffffffffffffffffffffffffffffffffffffffffffffffffffffffffffffff8203614644576146436142f2565b5b60018201905091905056fea26469706673582212209ecd82eb43b645425703d33492900960e798690c66231e38fd138d537df1be7364736f6c634300081c0033",
  "linkReferences": {},
  "deployedLinkReferences": {}
}