{
  "_format": "hh-sol-artifact-1",
  "contractName": "VoterDatabase",
  "sourceName": "contracts/VoterDatabase.sol",
  "abi": [
    {
      "inputs": [],
      "name": "AdminManagement__AdminNotFound",
      "type": "error"
    },
    {
      "inputs": [],
      "name": "AdminManagement__AlreadyAdmin",
      "type": "error"
    },
    {
      "inputs": [],
      "name": "AdminManagement__InvalidAddress",
      "type": "error"
    },
    {
      "inputs": [],
      "name": "AdminManagement__NotAdmin",
      "type": "error"
    },
    {
      "inputs": [],
      "name": "AdminManagement__NotOwner",
      "type": "error"
    },
    {
      "inputs": [],
      "name": "VoterDatabase__AlreadyRegistered",
      "type": "error"
    },
    {
      "inputs": [],
      "name": "VoterDatabase__CannotUpdateAfterVoting",
      "type": "error"
    },
    {
      "inputs": [],
      "name": "VoterDatabase__ImportFailed",
      "type": "error"
    },
    {
      "inputs": [],
      "name": "VoterDatabase__InvalidAddress",
      "type": "error"
    },
    {
      "inputs": [],
      "name": "VoterDatabase__NotEligible",
      "type": "error"
    },
    {
      "inputs": [],
      "name": "VoterDatabase__NotRegistered",
      "type": "error"
    },
    {
      "anonymous": false,
      "inputs": [
        {
          "indexed": true,
          "internalType": "address",
          "name": "admin",
          "type": "address"
        },
        {
          "indexed": true,
          "internalType": "address",
          "name": "owner",
          "type": "address"
        }
      ],
      "name": "AdminAdded",
      "type": "event"
    },
    {
      "anonymous": false,
      "inputs": [
        {
          "indexed": true,
          "internalType": "address",
          "name": "voter",
          "type": "address"
        },
        {
          "indexed": true,
          "internalType": "address",
          "name": "admin",
          "type": "address"
        }
      ],
      "name": "AdminAddedVoter",
      "type": "event"
    },
    {
      "anonymous": false,
      "inputs": [
        {
          "indexed": true,
          "internalType": "address",
          "name": "admin",
          "type": "address"
        },
        {
          "indexed": true,
          "internalType": "address",
          "name": "owner",
          "type": "address"
        }
      ],
      "name": "AdminRemoved",
      "type": "event"
    },
    {
      "anonymous": false,
      "inputs": [
        {
          "indexed": true,
          "internalType": "address",
          "name": "voter",
          "type": "address"
        },
        {
          "indexed": true,
          "internalType": "address",
          "name": "admin",
          "type": "address"
        }
      ],
      "name": "AdminRemovedVoter",
      "type": "event"
    },
    {
      "anonymous": false,
      "inputs": [
        {
          "indexed": true,
          "internalType": "address",
          "name": "voter",
          "type": "address"
        },
        {
          "indexed": true,
          "internalType": "address",
          "name": "admin",
          "type": "address"
        }
      ],
      "name": "AdminUpdatedVoter",
      "type": "event"
    },
    {
      "anonymous": false,
      "inputs": [
        {
          "indexed": true,
          "internalType": "address",
          "name": "voter",
          "type": "address"
        },
        {
          "indexed": true,
          "internalType": "address",
          "name": "admin",
          "type": "address"
        }
      ],
      "name": "AdminUpdatedVotingStatus",
      "type": "event"
    },
    {
      "anonymous": false,
      "inputs": [
        {
          "indexed": true,
          "internalType": "address",
          "name": "voter",
          "type": "address"
        }
      ],
      "name": "VoterDeleted",
      "type": "event"
    },
    {
      "anonymous": false,
      "inputs": [
        {
          "indexed": true,
          "internalType": "address",
          "name": "voter",
          "type": "address"
        }
      ],
      "name": "VoterRegistered",
      "type": "event"
    },
    {
      "anonymous": false,
      "inputs": [
        {
          "indexed": true,
          "internalType": "address",
          "name": "voter",
          "type": "address"
        }
      ],
      "name": "VoterUpdated",
      "type": "event"
    },
    {
      "anonymous": false,
      "inputs": [
        {
          "indexed": true,
          "internalType": "address",
          "name": "voter",
          "type": "address"
        }
      ],
      "name": "VoterVoted",
      "type": "event"
    },
    {
      "anonymous": false,
      "inputs": [
        {
          "indexed": true,
          "internalType": "address",
          "name": "sourceContract",
          "type": "address"
        },
        {
          "indexed": false,
          "internalType": "uint256",
          "name": "votersImported",
          "type": "uint256"
        }
      ],
      "name": "VotersImported",
      "type": "event"
    },
    {
      "inputs": [
        {
          "internalType": "address",
          "name": "_adminAddress",
          "type": "address"
        }
      ],
      "name": "addAdmin",
      "outputs": [],
      "stateMutability": "nonpayable",
      "type": "function"
    },
    {
      "inputs": [
        {
          "internalType": "string",
          "name": "_name",
          "type": "string"
        },
        {
          "internalType": "uint256",
          "name": "_dateOfBirthEpoch",
          "type": "uint256"
        },
        {
          "internalType": "enum IVoterDatabase.Gender",
          "name": "_gender",
          "type": "uint8"
        },
        {
          "internalType": "string",
          "name": "_presentAddress",
          "type": "string"
        }
      ],
      "name": "addVoter",
      "outputs": [],
      "stateMutability": "nonpayable",
      "type": "function"
    },
    {
      "inputs": [
        {
          "internalType": "address",
          "name": "_voterAddress",
          "type": "address"
        },
        {
          "internalType": "string",
          "name": "_name",
          "type": "string"
        },
        {
          "internalType": "uint256",
          "name": "_dateOfBirthEpoch",
          "type": "uint256"
        },
        {
          "internalType": "enum IVoterDatabase.Gender",
          "name": "_gender",
          "type": "uint8"
        },
        {
          "internalType": "string",
          "name": "_presentAddress",
          "type": "string"
        },
        {
          "internalType": "bool",
          "name": "_hasVoted",
          "type": "bool"
        }
      ],
      "name": "adminAddVoter",
      "outputs": [],
      "stateMutability": "nonpayable",
      "type": "function"
    },
    {
      "inputs": [
        {
          "internalType": "address",
          "name": "_sourceContract",
          "type": "address"
        },
        {
          "internalType": "address[]",
          "name": "_voterAddresses",
          "type": "address[]"
        }
      ],
      "name": "adminBatchImportVoters",
      "outputs": [],
      "stateMutability": "nonpayable",
      "type": "function"
    },
    {
      "inputs": [],
      "name": "adminGetAllVoters",
      "outputs": [
        {
          "internalType": "address[]",
          "name": "",
          "type": "address[]"
        }
      ],
      "stateMutability": "view",
      "type": "function"
    },
    {
      "inputs": [],
      "name": "adminGetVoterCount",
      "outputs": [
        {
          "internalType": "uint256",
          "name": "",
          "type": "uint256"
        }
      ],
      "stateMutability": "view",
      "type": "function"
    },
    {
      "inputs": [
        {
          "internalType": "address",
          "name": "_voterAddress",
          "type": "address"
        }
      ],
      "name": "adminGetVoterDetails",
      "outputs": [
        {
          "internalType": "string",
          "name": "name",
          "type": "string"
        },
        {
          "internalType": "uint256",
          "name": "dateOfBirthEpoch",
          "type": "uint256"
        },
        {
          "internalType": "enum IVoterDatabase.Gender",
          "name": "gender",
          "type": "uint8"
        },
        {
          "internalType": "string",
          "name": "presentAddress",
          "type": "string"
        },
        {
          "internalType": "bool",
          "name": "hasVoted",
          "type": "bool"
        },
        {
          "internalType": "uint256",
          "name": "timeWhenRegisteredEpoch",
          "type": "uint256"
        }
      ],
      "stateMutability": "view",
      "type": "function"
    },
    {
      "inputs": [
        {
          "internalType": "address",
          "name": "_sourceContract",
          "type": "address"
        }
      ],
      "name": "adminImportAllVoters",
      "outputs": [],
      "stateMutability": "nonpayable",
      "type": "function"
    },
    {
      "inputs": [
        {
          "internalType": "address",
          "name": "_sourceContract",
          "type": "address"
        },
        {
          "internalType": "address",
          "name": "_voterAddress",
          "type": "address"
        }
      ],
      "name": "adminImportVoter",
      "outputs": [],
      "stateMutability": "nonpayable",
      "type": "function"
    },
    {
      "inputs": [
        {
          "internalType": "address",
          "name": "_voterAddress",
          "type": "address"
        }
      ],
      "name": "adminRemoveVoter",
      "outputs": [],
      "stateMutability": "nonpayable",
      "type": "function"
    },
    {
      "inputs": [
        {
          "internalType": "address",
          "name": "_voterAddress",
          "type": "address"
        },
        {
          "internalType": "bool",
          "name": "_hasVoted",
          "type": "bool"
        }
      ],
      "name": "adminSetVotingStatus",
      "outputs": [],
      "stateMutability": "nonpayable",
      "type": "function"
    },
    {
      "inputs": [
        {
          "internalType": "address",
          "name": "_voterAddress",
          "type": "address"
        },
        {
          "internalType": "string",
          "name": "_name",
          "type": "string"
        },
        {
          "internalType": "uint256",
          "name": "_dateOfBirthEpoch",
          "type": "uint256"
        },
        {
          "internalType": "enum IVoterDatabase.Gender",
          "name": "_gender",
          "type": "uint8"
        },
        {
          "internalType": "string",
          "name": "_presentAddress",
          "type": "string"
        },
        {
          "internalType": "bool",
          "name": "_hasVoted",
          "type": "bool"
        }
      ],
      "name": "adminUpdateVoter",
      "outputs": [],
      "stateMutability": "nonpayable",
      "type": "function"
    },
    {
      "inputs": [],
      "name": "amIAdmin",
      "outputs": [
        {
          "internalType": "bool",
          "name": "",
          "type": "bool"
        }
      ],
      "stateMutability": "view",
      "type": "function"
    },
    {
      "inputs": [
        {
          "internalType": "uint256",
          "name": "_dateOfBirthEpoch",
          "type": "uint256"
        }
      ],
      "name": "calculateAge",
      "outputs": [
        {
          "internalType": "uint256",
          "name": "",
          "type": "uint256"
        }
      ],
      "stateMutability": "view",
      "type": "function"
    },
    {
      "inputs": [],
      "name": "deleteVoter",
      "outputs": [],
      "stateMutability": "nonpayable",
      "type": "function"
    },
    {
      "inputs": [],
      "name": "getAdminCount",
      "outputs": [
        {
          "internalType": "uint256",
          "name": "",
          "type": "uint256"
        }
      ],
      "stateMutability": "view",
      "type": "function"
    },
    {
      "inputs": [],
      "name": "getAllAdmins",
      "outputs": [
        {
          "internalType": "address[]",
          "name": "",
          "type": "address[]"
        }
      ],
      "stateMutability": "view",
      "type": "function"
    },
    {
      "inputs": [],
      "name": "getMyAge",
      "outputs": [
        {
          "internalType": "uint256",
          "name": "",
          "type": "uint256"
        }
      ],
      "stateMutability": "view",
      "type": "function"
    },
    {
      "inputs": [],
      "name": "getMyDetails",
      "outputs": [
        {
          "internalType": "string",
          "name": "name",
          "type": "string"
        },
        {
          "internalType": "uint256",
          "name": "dateOfBirthEpoch",
          "type": "uint256"
        },
        {
          "internalType": "enum IVoterDatabase.Gender",
          "name": "gender",
          "type": "uint8"
        },
        {
          "internalType": "string",
          "name": "presentAddress",
          "type": "string"
        },
        {
          "internalType": "bool",
          "name": "hasVoted",
          "type": "bool"
        }
      ],
      "stateMutability": "view",
      "type": "function"
    },
    {
      "inputs": [],
      "name": "getMyRegistrationStatus",
      "outputs": [
        {
          "internalType": "bool",
          "name": "isRegistered",
          "type": "bool"
        }
      ],
      "stateMutability": "view",
      "type": "function"
    },
    {
      "inputs": [],
      "name": "getMyVotingStatus",
      "outputs": [
        {
          "internalType": "bool",
          "name": "hasVoted",
          "type": "bool"
        }
      ],
      "stateMutability": "view",
      "type": "function"
    },
    {
      "inputs": [],
      "name": "getOwner",
      "outputs": [
        {
          "internalType": "address",
          "name": "",
          "type": "address"
        }
      ],
      "stateMutability": "view",
      "type": "function"
    },
    {
      "inputs": [
        {
          "internalType": "address",
          "name": "_address",
          "type": "address"
        }
      ],
      "name": "isAdmin",
      "outputs": [
        {
          "internalType": "bool",
          "name": "",
          "type": "bool"
        }
      ],
      "stateMutability": "view",
      "type": "function"
    },
    {
      "inputs": [],
      "name": "markVoted",
      "outputs": [],
      "stateMutability": "nonpayable",
      "type": "function"
    },
    {
      "inputs": [
        {
          "internalType": "address",
          "name": "_adminAddress",
          "type": "address"
        }
      ],
      "name": "removeAdmin",
      "outputs": [],
      "stateMutability": "nonpayable",
      "type": "function"
    },
    {
      "inputs": [
        {
          "internalType": "string",
          "name": "_name",
          "type": "string"
        },
        {
          "internalType": "uint256",
          "name": "_dateOfBirthEpoch",
          "type": "uint256"
        },
        {
          "internalType": "enum IVoterDatabase.Gender",
          "name": "_gender",
          "type": "uint8"
        },
        {
          "internalType": "string",
          "name": "_presentAddress",
          "type": "string"
        }
      ],
      "name": "updateVoter",
      "outputs": [],
      "stateMutability": "nonpayable",
      "type": "function"
    }
  ],
  "bytecode": "0x60a060405234801561001057600080fd5b503373ffffffffffffffffffffffffffffffffffffffff1660808173ffffffffffffffffffffffffffffffffffffffff1681525050608051614bbe6100bb600039600081816106ef01528181610a2601528181610e4b0152818161131e015281816114a6015281816118bf01528181611cb20152818161225e015281816128e601528181612d1a01528181612f3e015281816132cb0152818161381701526138fe0152614bbe6000f3fe608060405234801561001057600080fd5b506004361061018d5760003560e01c806384699ad9116100de578063a2d0abe711610097578063e8d63acc11610071578063e8d63acc1461042b578063e9523c9714610447578063f45d42ab14610465578063fc8e4aab146104835761018d565b8063a2d0abe7146103be578063ab5c354d146103da578063c12caf4d146103f65761018d565b806384699ad91461030c57806385cc8bfb1461032a578063893d20e81461035a5780638b7bf3eb146103785780638ebd0a4c14610396578063934f1cca146103a05761018d565b806341509fe31161014b5780634afba630116101255780634afba630146102ac5780635b409d09146102c857806370480275146102e6578063775f3f33146103025761018d565b806341509fe314610250578063431bbb7e1461026e578063497e4003146102905761018d565b80625b78ad146101925780631785f53c146101ae578063197c0f92146101ca57806322edc484146101e657806324d7806c146102025780634040a2d514610232575b600080fd5b6101ac60048036038101906101a79190613de6565b61049f565b005b6101c860048036038101906101c39190613ee3565b6106ed565b005b6101e460048036038101906101df9190613f48565b610a24565b005b61020060048036038101906101fb919061400d565b610e49565b005b61021c60048036038101906102179190613ee3565b61131a565b604051610229919061405c565b60405180910390f35b61023a6113c5565b604051610247919061405c565b60405180910390f35b6102586114a2565b6040516102659190614135565b60405180910390f35b61027661160c565b60405161028795949392919061425c565b60405180910390f35b6102aa60048036038101906102a59190613ee3565b6118bd565b005b6102c660048036038101906102c19190613ee3565b611cb0565b005b6102d0612205565b6040516102dd919061405c565b60405180910390f35b61030060048036038101906102fb9190613ee3565b61225c565b005b61030a6124e1565b005b6103146127e6565b60405161032191906142bd565b60405180910390f35b610344600480360381019061033f91906142d8565b6128be565b60405161035191906142bd565b60405180910390f35b6103626128e2565b60405161036f9190614314565b60405180910390f35b61038061290a565b60405161038d91906142bd565b60405180910390f35b61039e612917565b005b6103a8612a3d565b6040516103b5919061405c565b60405180910390f35b6103d860048036038101906103d39190613de6565b612a4d565b005b6103f460048036038101906103ef919061432f565b612d18565b005b610410600480360381019061040b9190613ee3565b612f32565b6040516104229695949392919061436f565b60405180910390f35b6104456004803603810190610440919061443e565b6132c9565b005b61044f613785565b60405161045c9190614135565b60405180910390f35b61046d613813565b60405161047a91906142bd565b60405180910390f35b61049d60048036038101906104989190613f48565b6138fc565b005b600260003373ffffffffffffffffffffffffffffffffffffffff1673ffffffffffffffffffffffffffffffffffffffff16815260200190815260200160002060040160019054906101000a900460ff16610525576040517f7966098e00000000000000000000000000000000000000000000000000000000815260040160405180910390fd5b600260003373ffffffffffffffffffffffffffffffffffffffff1673ffffffffffffffffffffffffffffffffffffffff16815260200190815260200160002060040160009054906101000a900460ff16156105ac576040517f8028fe5d00000000000000000000000000000000000000000000000000000000815260040160405180910390fd5b60006301e1338084426105bf91906144cd565b6105c99190614530565b90506012811015610606576040517f7a2e615e00000000000000000000000000000000000000000000000000000000815260040160405180910390fd5b6000600260003373ffffffffffffffffffffffffffffffffffffffff1673ffffffffffffffffffffffffffffffffffffffff16815260200190815260200160002090508581600001908161065a919061476d565b50848160010181905550838160020160006101000a81548160ff0219169083600181111561068b5761068a6141e5565b5b0217905550828160030190816106a1919061476d565b503373ffffffffffffffffffffffffffffffffffffffff167f452a1bea58b8e4d443d5b0865906cc360f45aae2ee5103ee1cadec26965bc07360405160405180910390a2505050505050565b7f000000000000000000000000000000000000000000000000000000000000000073ffffffffffffffffffffffffffffffffffffffff163373ffffffffffffffffffffffffffffffffffffffff1614610772576040517fbe2ac67400000000000000000000000000000000000000000000000000000000815260040160405180910390fd5b6000808273ffffffffffffffffffffffffffffffffffffffff1673ffffffffffffffffffffffffffffffffffffffff16815260200190815260200160002060009054906101000a900460ff166107f4576040517f256d404300000000000000000000000000000000000000000000000000000000815260040160405180910390fd5b6000808273ffffffffffffffffffffffffffffffffffffffff1673ffffffffffffffffffffffffffffffffffffffff16815260200190815260200160002060006101000a81549060ff02191690556000600180549050905060005b818110156109c5578273ffffffffffffffffffffffffffffffffffffffff16600182815481106108825761088161483f565b5b9060005260206000200160009054906101000a900473ffffffffffffffffffffffffffffffffffffffff1673ffffffffffffffffffffffffffffffffffffffff16036109ba57600180836108d691906144cd565b815481106108e7576108e661483f565b5b9060005260206000200160009054906101000a900473ffffffffffffffffffffffffffffffffffffffff16600182815481106109265761092561483f565b5b9060005260206000200160006101000a81548173ffffffffffffffffffffffffffffffffffffffff021916908373ffffffffffffffffffffffffffffffffffffffff16021790555060018054806109805761097f61486e565b5b6001900381819060005260206000200160006101000a81549073ffffffffffffffffffffffffffffffffffffffff021916905590556109c5565b80600101905061084f565b503373ffffffffffffffffffffffffffffffffffffffff168273ffffffffffffffffffffffffffffffffffffffff167fdb9d5d31320daf5bc7181d565b6da4d12e30f0f4d5aa324a992426c14a1d19ce60405160405180910390a35050565b7f000000000000000000000000000000000000000000000000000000000000000073ffffffffffffffffffffffffffffffffffffffff163373ffffffffffffffffffffffffffffffffffffffff1614158015610ac957506000803373ffffffffffffffffffffffffffffffffffffffff1673ffffffffffffffffffffffffffffffffffffffff16815260200190815260200160002060009054906101000a900460ff16155b15610b00576040517f87a8a82e00000000000000000000000000000000000000000000000000000000815260040160405180910390fd5b600073ffffffffffffffffffffffffffffffffffffffff168673ffffffffffffffffffffffffffffffffffffffff1603610b66576040517ff716e87a00000000000000000000000000000000000000000000000000000000815260040160405180910390fd5b600260008773ffffffffffffffffffffffffffffffffffffffff1673ffffffffffffffffffffffffffffffffffffffff16815260200190815260200160002060040160019054906101000a900460ff1615610bed576040517f81ab984900000000000000000000000000000000000000000000000000000000815260040160405180910390fd5b60006301e133808542610c0091906144cd565b610c0a9190614530565b90506012811015610c47576040517f7a2e615e00000000000000000000000000000000000000000000000000000000815260040160405180910390fd5b6040518060e00160405280878152602001868152602001856001811115610c7157610c706141e5565b5b8152602001848152602001831515815260200160011515815260200142815250600260008973ffffffffffffffffffffffffffffffffffffffff1673ffffffffffffffffffffffffffffffffffffffff1681526020019081526020016000206000820151816000019081610ce5919061476d565b506020820151816001015560408201518160020160006101000a81548160ff02191690836001811115610d1b57610d1a6141e5565b5b02179055506060820151816003019081610d35919061476d565b5060808201518160040160006101000a81548160ff02191690831515021790555060a08201518160040160016101000a81548160ff02191690831515021790555060c082015181600501559050506003879080600181540180825580915050600190039060005260206000200160009091909190916101000a81548173ffffffffffffffffffffffffffffffffffffffff021916908373ffffffffffffffffffffffffffffffffffffffff1602179055503373ffffffffffffffffffffffffffffffffffffffff168773ffffffffffffffffffffffffffffffffffffffff167f1526559f7a4c30b69a62ace47df95483b2115a7ff1a1a0d7adc96114790bc60660405160405180910390a350505050505050565b7f000000000000000000000000000000000000000000000000000000000000000073ffffffffffffffffffffffffffffffffffffffff163373ffffffffffffffffffffffffffffffffffffffff1614158015610eee57506000803373ffffffffffffffffffffffffffffffffffffffff1673ffffffffffffffffffffffffffffffffffffffff16815260200190815260200160002060009054906101000a900460ff16155b15610f25576040517f87a8a82e00000000000000000000000000000000000000000000000000000000815260040160405180910390fd5b600260008273ffffffffffffffffffffffffffffffffffffffff1673ffffffffffffffffffffffffffffffffffffffff16815260200190815260200160002060040160019054906101000a900460ff1615610fac576040517f81ab984900000000000000000000000000000000000000000000000000000000815260040160405180910390fd5b60008290508073ffffffffffffffffffffffffffffffffffffffff1663c12caf4d836040518263ffffffff1660e01b8152600401610fea9190614314565b600060405180830381865afa92505050801561102957506040513d6000823e3d601f19601f82011682018060405250810190611026919061494c565b60015b61105f576040517fb3e1a8c100000000000000000000000000000000000000000000000000000000815260040160405180910390fd5b60006301e13380864261107291906144cd565b61107c9190614530565b905060128110156110b9576040517f7a2e615e00000000000000000000000000000000000000000000000000000000815260040160405180910390fd5b6040518060e001604052808881526020018781526020018660018111156110e3576110e26141e5565b5b60018111156110f5576110f46141e5565b5b6001811115611107576111066141e5565b5b8152602001858152602001841515815260200160011515815260200142815250600260008b73ffffffffffffffffffffffffffffffffffffffff1673ffffffffffffffffffffffffffffffffffffffff168152602001908152602001600020600082015181600001908161117b919061476d565b506020820151816001015560408201518160020160006101000a81548160ff021916908360018111156111b1576111b06141e5565b5b021790555060608201518160030190816111cb919061476d565b5060808201518160040160006101000a81548160ff02191690831515021790555060a08201518160040160016101000a81548160ff02191690831515021790555060c082015181600501559050506003899080600181540180825580915050600190039060005260206000200160009091909190916101000a81548173ffffffffffffffffffffffffffffffffffffffff021916908373ffffffffffffffffffffffffffffffffffffffff1602179055508873ffffffffffffffffffffffffffffffffffffffff167fb6be2187d059cc2a55fe29e0e503b566e1e0f8c8780096e185429350acffd3dd60405160405180910390a28973ffffffffffffffffffffffffffffffffffffffff167f75daea5c72a0008b18bdea0ab7e2c1357fdac2ad35fbc0cde3d47857fd15dbfe60016040516113069190614a4c565b60405180910390a250505050505050505050565b60007f000000000000000000000000000000000000000000000000000000000000000073ffffffffffffffffffffffffffffffffffffffff168273ffffffffffffffffffffffffffffffffffffffff1614806113be57506000808373ffffffffffffffffffffffffffffffffffffffff1673ffffffffffffffffffffffffffffffffffffffff16815260200190815260200160002060009054906101000a900460ff165b9050919050565b6000600260003373ffffffffffffffffffffffffffffffffffffffff1673ffffffffffffffffffffffffffffffffffffffff16815260200190815260200160002060040160019054906101000a900460ff1661144d576040517f7966098e00000000000000000000000000000000000000000000000000000000815260040160405180910390fd5b600260003373ffffffffffffffffffffffffffffffffffffffff1673ffffffffffffffffffffffffffffffffffffffff16815260200190815260200160002060040160009054906101000a900460ff16905090565b60607f000000000000000000000000000000000000000000000000000000000000000073ffffffffffffffffffffffffffffffffffffffff163373ffffffffffffffffffffffffffffffffffffffff161415801561154957506000803373ffffffffffffffffffffffffffffffffffffffff1673ffffffffffffffffffffffffffffffffffffffff16815260200190815260200160002060009054906101000a900460ff16155b15611580576040517f87a8a82e00000000000000000000000000000000000000000000000000000000815260040160405180910390fd5b600380548060200260200160405190810160405280929190818152602001828054801561160257602002820191906000526020600020905b8160009054906101000a900473ffffffffffffffffffffffffffffffffffffffff1673ffffffffffffffffffffffffffffffffffffffff16815260200190600101908083116115b8575b5050505050905090565b606060008060606000600260003373ffffffffffffffffffffffffffffffffffffffff1673ffffffffffffffffffffffffffffffffffffffff16815260200190815260200160002060040160019054906101000a900460ff1661169b576040517f7966098e00000000000000000000000000000000000000000000000000000000815260040160405180910390fd5b6000600260003373ffffffffffffffffffffffffffffffffffffffff1673ffffffffffffffffffffffffffffffffffffffff1681526020019081526020016000206040518060e00160405290816000820180546116f790614590565b80601f016020809104026020016040519081016040528092919081815260200182805461172390614590565b80156117705780601f1061174557610100808354040283529160200191611770565b820191906000526020600020905b81548152906001019060200180831161175357829003601f168201915b50505050508152602001600182015481526020016002820160009054906101000a900460ff1660018111156117a8576117a76141e5565b5b60018111156117ba576117b96141e5565b5b81526020016003820180546117ce90614590565b80601f01602080910402602001604051908101604052809291908181526020018280546117fa90614590565b80156118475780601f1061181c57610100808354040283529160200191611847565b820191906000526020600020905b81548152906001019060200180831161182a57829003601f168201915b505050505081526020016004820160009054906101000a900460ff161515151581526020016004820160019054906101000a900460ff1615151515815260200160058201548152505090508060000151816020015182604001518360600151846080015195509550955095509550509091929394565b7f000000000000000000000000000000000000000000000000000000000000000073ffffffffffffffffffffffffffffffffffffffff163373ffffffffffffffffffffffffffffffffffffffff161415801561196257506000803373ffffffffffffffffffffffffffffffffffffffff1673ffffffffffffffffffffffffffffffffffffffff16815260200190815260200160002060009054906101000a900460ff16155b15611999576040517f87a8a82e00000000000000000000000000000000000000000000000000000000815260040160405180910390fd5b600260008273ffffffffffffffffffffffffffffffffffffffff1673ffffffffffffffffffffffffffffffffffffffff16815260200190815260200160002060040160019054906101000a900460ff16611a1f576040517f7966098e00000000000000000000000000000000000000000000000000000000815260040160405180910390fd5b600260008273ffffffffffffffffffffffffffffffffffffffff1673ffffffffffffffffffffffffffffffffffffffff16815260200190815260200160002060008082016000611a6f9190613bd4565b60018201600090556002820160006101000a81549060ff0219169055600382016000611a9b9190613bd4565b6004820160006101000a81549060ff02191690556004820160016101000a81549060ff0219169055600582016000905550506000600380549050905060005b81811015611c51578273ffffffffffffffffffffffffffffffffffffffff1660038281548110611b0d57611b0c61483f565b5b9060005260206000200160009054906101000a900473ffffffffffffffffffffffffffffffffffffffff1673ffffffffffffffffffffffffffffffffffffffff1603611c46576003600183611b6291906144cd565b81548110611b7357611b7261483f565b5b9060005260206000200160009054906101000a900473ffffffffffffffffffffffffffffffffffffffff1660038281548110611bb257611bb161483f565b5b9060005260206000200160006101000a81548173ffffffffffffffffffffffffffffffffffffffff021916908373ffffffffffffffffffffffffffffffffffffffff1602179055506003805480611c0c57611c0b61486e565b5b6001900381819060005260206000200160006101000a81549073ffffffffffffffffffffffffffffffffffffffff02191690559055611c51565b806001019050611ada565b503373ffffffffffffffffffffffffffffffffffffffff168273ffffffffffffffffffffffffffffffffffffffff167fb8644c8db01f390a1148d2f24cc77fd6ce3dc104da1f9b36a706197e2c85019460405160405180910390a35050565b7f000000000000000000000000000000000000000000000000000000000000000073ffffffffffffffffffffffffffffffffffffffff163373ffffffffffffffffffffffffffffffffffffffff1614158015611d5557506000803373ffffffffffffffffffffffffffffffffffffffff1673ffffffffffffffffffffffffffffffffffffffff16815260200190815260200160002060009054906101000a900460ff16155b15611d8c576040517f87a8a82e00000000000000000000000000000000000000000000000000000000815260040160405180910390fd5b600081905060608173ffffffffffffffffffffffffffffffffffffffff166341509fe36040518163ffffffff1660e01b8152600401600060405180830381865afa925050508015611e0057506040513d6000823e3d601f19601f82011682018060405250810190611dfd9190614b3f565b60015b611e36576040517fb3e1a8c100000000000000000000000000000000000000000000000000000000815260040160405180910390fd5b809150506000808251905060005b818110156121af576000848281518110611e6157611e6061483f565b5b60200260200101519050600260008273ffffffffffffffffffffffffffffffffffffffff1673ffffffffffffffffffffffffffffffffffffffff16815260200190815260200160002060040160019054906101000a900460ff1615611ecc57816001019150506121aa565b8573ffffffffffffffffffffffffffffffffffffffff1663c12caf4d826040518263ffffffff1660e01b8152600401611f059190614314565b600060405180830381865afa925050508015611f4457506040513d6000823e3d601f19601f82011682018060405250810190611f41919061494c565b60015b611f5457816001019150506121aa565b60006301e133808642611f6791906144cd565b611f719190614530565b90506012811015611f8f5788600101985050505050505050506121aa565b6040518060e00160405280888152602001878152602001866001811115611fb957611fb86141e5565b5b6001811115611fcb57611fca6141e5565b5b6001811115611fdd57611fdc6141e5565b5b8152602001858152602001841515815260200160011515815260200142815250600260008a73ffffffffffffffffffffffffffffffffffffffff1673ffffffffffffffffffffffffffffffffffffffff1681526020019081526020016000206000820151816000019081612051919061476d565b506020820151816001015560408201518160020160006101000a81548160ff02191690836001811115612087576120866141e5565b5b021790555060608201518160030190816120a1919061476d565b5060808201518160040160006101000a81548160ff02191690831515021790555060a08201518160040160016101000a81548160ff02191690831515021790555060c082015181600501559050506003889080600181540180825580915050600190039060005260206000200160009091909190916101000a81548173ffffffffffffffffffffffffffffffffffffffff021916908373ffffffffffffffffffffffffffffffffffffffff1602179055508773ffffffffffffffffffffffffffffffffffffffff167fb6be2187d059cc2a55fe29e0e503b566e1e0f8c8780096e185429350acffd3dd60405160405180910390a28a6001019a5088600101985050505050505050505b611e44565b508473ffffffffffffffffffffffffffffffffffffffff167f75daea5c72a0008b18bdea0ab7e2c1357fdac2ad35fbc0cde3d47857fd15dbfe836040516121f691906142bd565b60405180910390a25050505050565b6000600260003373ffffffffffffffffffffffffffffffffffffffff1673ffffffffffffffffffffffffffffffffffffffff16815260200190815260200160002060040160019054906101000a900460ff16905090565b7f000000000000000000000000000000000000000000000000000000000000000073ffffffffffffffffffffffffffffffffffffffff163373ffffffffffffffffffffffffffffffffffffffff16146122e1576040517fbe2ac67400000000000000000000000000000000000000000000000000000000815260040160405180910390fd5b600073ffffffffffffffffffffffffffffffffffffffff168173ffffffffffffffffffffffffffffffffffffffff1603612347576040517fd9fa4b4700000000000000000000000000000000000000000000000000000000815260040160405180910390fd5b6000808273ffffffffffffffffffffffffffffffffffffffff1673ffffffffffffffffffffffffffffffffffffffff16815260200190815260200160002060009054906101000a900460ff16156123ca576040517f4e16b38200000000000000000000000000000000000000000000000000000000815260040160405180910390fd5b60016000808373ffffffffffffffffffffffffffffffffffffffff1673ffffffffffffffffffffffffffffffffffffffff16815260200190815260200160002060006101000a81548160ff0219169083151502179055506001819080600181540180825580915050600190039060005260206000200160009091909190916101000a81548173ffffffffffffffffffffffffffffffffffffffff021916908373ffffffffffffffffffffffffffffffffffffffff1602179055503373ffffffffffffffffffffffffffffffffffffffff168173ffffffffffffffffffffffffffffffffffffffff167fbf3f493c772c8c283fd124432c2d0f539ab343faa04258fe88e52912d36b102b60405160405180910390a350565b600260003373ffffffffffffffffffffffffffffffffffffffff1673ffffffffffffffffffffffffffffffffffffffff16815260200190815260200160002060040160019054906101000a900460ff16612567576040517f7966098e00000000000000000000000000000000000000000000000000000000815260040160405180910390fd5b6000339050600260008273ffffffffffffffffffffffffffffffffffffffff1673ffffffffffffffffffffffffffffffffffffffff168152602001908152602001600020600080820160006125bc9190613bd4565b60018201600090556002820160006101000a81549060ff02191690556003820160006125e89190613bd4565b6004820160006101000a81549060ff02191690556004820160016101000a81549060ff0219169055600582016000905550506000600380549050905060005b8181101561279e578273ffffffffffffffffffffffffffffffffffffffff166003828154811061265a5761265961483f565b5b9060005260206000200160009054906101000a900473ffffffffffffffffffffffffffffffffffffffff1673ffffffffffffffffffffffffffffffffffffffff16036127935760036001836126af91906144cd565b815481106126c0576126bf61483f565b5b9060005260206000200160009054906101000a900473ffffffffffffffffffffffffffffffffffffffff16600382815481106126ff576126fe61483f565b5b9060005260206000200160006101000a81548173ffffffffffffffffffffffffffffffffffffffff021916908373ffffffffffffffffffffffffffffffffffffffff16021790555060038054806127595761275861486e565b5b6001900381819060005260206000200160006101000a81549073ffffffffffffffffffffffffffffffffffffffff0219169055905561279e565b806001019050612627565b508173ffffffffffffffffffffffffffffffffffffffff167faf4c2a533fbd4d43945279bdd38298da41e7b2785811f3fe4f5233a3bd4aea0b60405160405180910390a25050565b6000600260003373ffffffffffffffffffffffffffffffffffffffff1673ffffffffffffffffffffffffffffffffffffffff16815260200190815260200160002060040160019054906101000a900460ff1661286e576040517f7966098e00000000000000000000000000000000000000000000000000000000815260040160405180910390fd5b6128b9600260003373ffffffffffffffffffffffffffffffffffffffff1673ffffffffffffffffffffffffffffffffffffffff168152602001908152602001600020600101546128be565b905090565b60006301e1338082426128d191906144cd565b6128db9190614530565b9050919050565b60007f0000000000000000000000000000000000000000000000000000000000000000905090565b6000600180549050905090565b600260003373ffffffffffffffffffffffffffffffffffffffff1673ffffffffffffffffffffffffffffffffffffffff16815260200190815260200160002060040160019054906101000a900460ff1661299d576040517f7966098e00000000000000000000000000000000000000000000000000000000815260040160405180910390fd5b6001600260003373ffffffffffffffffffffffffffffffffffffffff1673ffffffffffffffffffffffffffffffffffffffff16815260200190815260200160002060040160006101000a81548160ff0219169083151502179055503373ffffffffffffffffffffffffffffffffffffffff167f8fd1c56946dc9410415e1d70729e4a8926174655d5f0e2527301de09bae9feac60405160405180910390a2565b6000612a483361131a565b905090565b60006301e133808442612a6091906144cd565b612a6a9190614530565b90506012811015612aa7576040517f7a2e615e00000000000000000000000000000000000000000000000000000000815260040160405180910390fd5b600260003373ffffffffffffffffffffffffffffffffffffffff1673ffffffffffffffffffffffffffffffffffffffff16815260200190815260200160002060040160019054906101000a900460ff1615612b2e576040517f81ab984900000000000000000000000000000000000000000000000000000000815260040160405180910390fd5b6040518060e00160405280868152602001858152602001846001811115612b5857612b576141e5565b5b815260200183815260200160001515815260200160011515815260200142815250600260003373ffffffffffffffffffffffffffffffffffffffff1673ffffffffffffffffffffffffffffffffffffffff1681526020019081526020016000206000820151816000019081612bcd919061476d565b506020820151816001015560408201518160020160006101000a81548160ff02191690836001811115612c0357612c026141e5565b5b02179055506060820151816003019081612c1d919061476d565b5060808201518160040160006101000a81548160ff02191690831515021790555060a08201518160040160016101000a81548160ff02191690831515021790555060c082015181600501559050506003339080600181540180825580915050600190039060005260206000200160009091909190916101000a81548173ffffffffffffffffffffffffffffffffffffffff021916908373ffffffffffffffffffffffffffffffffffffffff1602179055503373ffffffffffffffffffffffffffffffffffffffff167fb6be2187d059cc2a55fe29e0e503b566e1e0f8c8780096e185429350acffd3dd60405160405180910390a25050505050565b7f000000000000000000000000000000000000000000000000000000000000000073ffffffffffffffffffffffffffffffffffffffff163373ffffffffffffffffffffffffffffffffffffffff1614158015612dbd57506000803373ffffffffffffffffffffffffffffffffffffffff1673ffffffffffffffffffffffffffffffffffffffff16815260200190815260200160002060009054906101000a900460ff16155b15612df4576040517f87a8a82e00000000000000000000000000000000000000000000000000000000815260040160405180910390fd5b600260008373ffffffffffffffffffffffffffffffffffffffff1673ffffffffffffffffffffffffffffffffffffffff16815260200190815260200160002060040160019054906101000a900460ff16612e7a576040517f7966098e00000000000000000000000000000000000000000000000000000000815260040160405180910390fd5b80600260008473ffffffffffffffffffffffffffffffffffffffff1673ffffffffffffffffffffffffffffffffffffffff16815260200190815260200160002060040160006101000a81548160ff0219169083151502179055503373ffffffffffffffffffffffffffffffffffffffff168273ffffffffffffffffffffffffffffffffffffffff167f021d3238501a18b85b254aafd63dac3f9cde239e23f1298b4caba4c51eb657f660405160405180910390a35050565b606060008060606000807f000000000000000000000000000000000000000000000000000000000000000073ffffffffffffffffffffffffffffffffffffffff163373ffffffffffffffffffffffffffffffffffffffff1614158015612fe157506000803373ffffffffffffffffffffffffffffffffffffffff1673ffffffffffffffffffffffffffffffffffffffff16815260200190815260200160002060009054906101000a900460ff16155b15613018576040517f87a8a82e00000000000000000000000000000000000000000000000000000000815260040160405180910390fd5b600260008873ffffffffffffffffffffffffffffffffffffffff1673ffffffffffffffffffffffffffffffffffffffff16815260200190815260200160002060040160019054906101000a900460ff1661309e576040517f7966098e00000000000000000000000000000000000000000000000000000000815260040160405180910390fd5b6000600260008973ffffffffffffffffffffffffffffffffffffffff1673ffffffffffffffffffffffffffffffffffffffff1681526020019081526020016000206040518060e00160405290816000820180546130fa90614590565b80601f016020809104026020016040519081016040528092919081815260200182805461312690614590565b80156131735780601f1061314857610100808354040283529160200191613173565b820191906000526020600020905b81548152906001019060200180831161315657829003601f168201915b50505050508152602001600182015481526020016002820160009054906101000a900460ff1660018111156131ab576131aa6141e5565b5b60018111156131bd576131bc6141e5565b5b81526020016003820180546131d190614590565b80601f01602080910402602001604051908101604052809291908181526020018280546131fd90614590565b801561324a5780601f1061321f5761010080835404028352916020019161324a565b820191906000526020600020905b81548152906001019060200180831161322d57829003601f168201915b505050505081526020016004820160009054906101000a900460ff161515151581526020016004820160019054906101000a900460ff161515151581526020016005820154815250509050806000015181602001518260400151836060015184608001518560c001519650965096509650965096505091939550919395565b7f000000000000000000000000000000000000000000000000000000000000000073ffffffffffffffffffffffffffffffffffffffff163373ffffffffffffffffffffffffffffffffffffffff161415801561336e57506000803373ffffffffffffffffffffffffffffffffffffffff1673ffffffffffffffffffffffffffffffffffffffff16815260200190815260200160002060009054906101000a900460ff16155b156133a5576040517f87a8a82e00000000000000000000000000000000000000000000000000000000815260040160405180910390fd5b600083905060008084849050905060005b8181101561372e5760008686838181106133d3576133d261483f565b5b90506020020160208101906133e89190613ee3565b9050600260008273ffffffffffffffffffffffffffffffffffffffff1673ffffffffffffffffffffffffffffffffffffffff16815260200190815260200160002060040160019054906101000a900460ff161561344b5781600101915050613729565b8473ffffffffffffffffffffffffffffffffffffffff1663c12caf4d826040518263ffffffff1660e01b81526004016134849190614314565b600060405180830381865afa9250505080156134c357506040513d6000823e3d601f19601f820116820180604052508101906134c0919061494c565b60015b6134d35781600101915050613729565b60006301e1338086426134e691906144cd565b6134f09190614530565b9050601281101561350e578860010198505050505050505050613729565b6040518060e00160405280888152602001878152602001866001811115613538576135376141e5565b5b600181111561354a576135496141e5565b5b600181111561355c5761355b6141e5565b5b8152602001858152602001841515815260200160011515815260200142815250600260008a73ffffffffffffffffffffffffffffffffffffffff1673ffffffffffffffffffffffffffffffffffffffff16815260200190815260200160002060008201518160000190816135d0919061476d565b506020820151816001015560408201518160020160006101000a81548160ff02191690836001811115613606576136056141e5565b5b02179055506060820151816003019081613620919061476d565b5060808201518160040160006101000a81548160ff02191690831515021790555060a08201518160040160016101000a81548160ff02191690831515021790555060c082015181600501559050506003889080600181540180825580915050600190039060005260206000200160009091909190916101000a81548173ffffffffffffffffffffffffffffffffffffffff021916908373ffffffffffffffffffffffffffffffffffffffff1602179055508773ffffffffffffffffffffffffffffffffffffffff167fb6be2187d059cc2a55fe29e0e503b566e1e0f8c8780096e185429350acffd3dd60405160405180910390a28a6001019a5088600101985050505050505050505b6133b6565b508573ffffffffffffffffffffffffffffffffffffffff167f75daea5c72a0008b18bdea0ab7e2c1357fdac2ad35fbc0cde3d47857fd15dbfe8360405161377591906142bd565b60405180910390a2505050505050565b6060600180548060200260200160405190810160405280929190818152602001828054801561380957602002820191906000526020600020905b8160009054906101000a900473ffffffffffffffffffffffffffffffffffffffff1673ffffffffffffffffffffffffffffffffffffffff16815260200190600101908083116137bf575b5050505050905090565b60007f000000000000000000000000000000000000000000000000000000000000000073ffffffffffffffffffffffffffffffffffffffff163373ffffffffffffffffffffffffffffffffffffffff16141580156138ba57506000803373ffffffffffffffffffffffffffffffffffffffff1673ffffffffffffffffffffffffffffffffffffffff16815260200190815260200160002060009054906101000a900460ff16155b156138f1576040517f87a8a82e00000000000000000000000000000000000000000000000000000000815260040160405180910390fd5b600380549050905090565b7f000000000000000000000000000000000000000000000000000000000000000073ffffffffffffffffffffffffffffffffffffffff163373ffffffffffffffffffffffffffffffffffffffff16141580156139a157506000803373ffffffffffffffffffffffffffffffffffffffff1673ffffffffffffffffffffffffffffffffffffffff16815260200190815260200160002060009054906101000a900460ff16155b156139d8576040517f87a8a82e00000000000000000000000000000000000000000000000000000000815260040160405180910390fd5b600260008773ffffffffffffffffffffffffffffffffffffffff1673ffffffffffffffffffffffffffffffffffffffff16815260200190815260200160002060040160019054906101000a900460ff16613a5e576040517f7966098e00000000000000000000000000000000000000000000000000000000815260040160405180910390fd5b60006301e133808542613a7191906144cd565b613a7b9190614530565b90506012811015613ab8576040517f7a2e615e00000000000000000000000000000000000000000000000000000000815260040160405180910390fd5b6000600260008973ffffffffffffffffffffffffffffffffffffffff1673ffffffffffffffffffffffffffffffffffffffff168152602001908152602001600020905086816000019081613b0c919061476d565b50858160010181905550848160020160006101000a81548160ff02191690836001811115613b3d57613b3c6141e5565b5b021790555083816003019081613b53919061476d565b50828160040160006101000a81548160ff0219169083151502179055503373ffffffffffffffffffffffffffffffffffffffff168873ffffffffffffffffffffffffffffffffffffffff167f0d86a35f44bd7db2e20f4a249388595ad9232a2d5b8be19ebe307828eed21fa660405160405180910390a35050505050505050565b508054613be090614590565b6000825580601f10613bf25750613c11565b601f016020900490600052602060002090810190613c109190613c14565b5b50565b5b80821115613c2d576000816000905550600101613c15565b5090565b6000604051905090565b600080fd5b600080fd5b600080fd5b600080fd5b6000601f19601f8301169050919050565b7f4e487b7100000000000000000000000000000000000000000000000000000000600052604160045260246000fd5b613c9882613c4f565b810181811067ffffffffffffffff82111715613cb757613cb6613c60565b5b80604052505050565b6000613cca613c31565b9050613cd68282613c8f565b919050565b600067ffffffffffffffff821115613cf657613cf5613c60565b5b613cff82613c4f565b9050602081019050919050565b82818337600083830152505050565b6000613d2e613d2984613cdb565b613cc0565b905082815260208101848484011115613d4a57613d49613c4a565b5b613d55848285613d0c565b509392505050565b600082601f830112613d7257613d71613c45565b5b8135613d82848260208601613d1b565b91505092915050565b6000819050919050565b613d9e81613d8b565b8114613da957600080fd5b50565b600081359050613dbb81613d95565b92915050565b60028110613dce57600080fd5b50565b600081359050613de081613dc1565b92915050565b60008060008060808587031215613e0057613dff613c3b565b5b600085013567ffffffffffffffff811115613e1e57613e1d613c40565b5b613e2a87828801613d5d565b9450506020613e3b87828801613dac565b9350506040613e4c87828801613dd1565b925050606085013567ffffffffffffffff811115613e6d57613e6c613c40565b5b613e7987828801613d5d565b91505092959194509250565b600073ffffffffffffffffffffffffffffffffffffffff82169050919050565b6000613eb082613e85565b9050919050565b613ec081613ea5565b8114613ecb57600080fd5b50565b600081359050613edd81613eb7565b92915050565b600060208284031215613ef957613ef8613c3b565b5b6000613f0784828501613ece565b91505092915050565b60008115159050919050565b613f2581613f10565b8114613f3057600080fd5b50565b600081359050613f4281613f1c565b92915050565b60008060008060008060c08789031215613f6557613f64613c3b565b5b6000613f7389828a01613ece565b965050602087013567ffffffffffffffff811115613f9457613f93613c40565b5b613fa089828a01613d5d565b9550506040613fb189828a01613dac565b9450506060613fc289828a01613dd1565b935050608087013567ffffffffffffffff811115613fe357613fe2613c40565b5b613fef89828a01613d5d565b92505060a061400089828a01613f33565b9150509295509295509295565b6000806040838503121561402457614023613c3b565b5b600061403285828601613ece565b925050602061404385828601613ece565b9150509250929050565b61405681613f10565b82525050565b6000602082019050614071600083018461404d565b92915050565b600081519050919050565b600082825260208201905092915050565b6000819050602082019050919050565b6140ac81613ea5565b82525050565b60006140be83836140a3565b60208301905092915050565b6000602082019050919050565b60006140e282614077565b6140ec8185614082565b93506140f783614093565b8060005b8381101561412857815161410f88826140b2565b975061411a836140ca565b9250506001810190506140fb565b5085935050505092915050565b6000602082019050818103600083015261414f81846140d7565b905092915050565b600081519050919050565b600082825260208201905092915050565b60005b83811015614191578082015181840152602081019050614176565b60008484015250505050565b60006141a882614157565b6141b28185614162565b93506141c2818560208601614173565b6141cb81613c4f565b840191505092915050565b6141df81613d8b565b82525050565b7f4e487b7100000000000000000000000000000000000000000000000000000000600052602160045260246000fd5b60028110614225576142246141e5565b5b50565b600081905061423682614214565b919050565b600061424682614228565b9050919050565b6142568161423b565b82525050565b600060a0820190508181036000830152614276818861419d565b905061428560208301876141d6565b614292604083018661424d565b81810360608301526142a4818561419d565b90506142b3608083018461404d565b9695505050505050565b60006020820190506142d260008301846141d6565b92915050565b6000602082840312156142ee576142ed613c3b565b5b60006142fc84828501613dac565b91505092915050565b61430e81613ea5565b82525050565b60006020820190506143296000830184614305565b92915050565b6000806040838503121561434657614345613c3b565b5b600061435485828601613ece565b925050602061436585828601613f33565b9150509250929050565b600060c0820190508181036000830152614389818961419d565b905061439860208301886141d6565b6143a5604083018761424d565b81810360608301526143b7818661419d565b90506143c6608083018561404d565b6143d360a08301846141d6565b979650505050505050565b600080fd5b600080fd5b60008083601f8401126143fe576143fd613c45565b5b8235905067ffffffffffffffff81111561441b5761441a6143de565b5b602083019150836020820283011115614437576144366143e3565b5b9250929050565b60008060006040848603121561445757614456613c3b565b5b600061446586828701613ece565b935050602084013567ffffffffffffffff81111561448657614485613c40565b5b614492868287016143e8565b92509250509250925092565b7f4e487b7100000000000000000000000000000000000000000000000000000000600052601160045260246000fd5b60006144d882613d8b565b91506144e383613d8b565b92508282039050818111156144fb576144fa61449e565b5b92915050565b7f4e487b7100000000000000000000000000000000000000000000000000000000600052601260045260246000fd5b600061453b82613d8b565b915061454683613d8b565b92508261455657614555614501565b5b828204905092915050565b7f4e487b7100000000000000000000000000000000000000000000000000000000600052602260045260246000fd5b600060028204905060018216806145a857607f821691505b6020821081036145bb576145ba614561565b5b50919050565b60008190508160005260206000209050919050565b60006020601f8301049050919050565b600082821b905092915050565b6000600883026146237fffffffffffffffffffffffffffffffffffffffffffffffffffffffffffffffff826145e6565b61462d86836145e6565b95508019841693508086168417925050509392505050565b6000819050919050565b600061466a61466561466084613d8b565b614645565b613d8b565b9050919050565b6000819050919050565b6146848361464f565b61469861469082614671565b8484546145f3565b825550505050565b600090565b6146ad6146a0565b6146b881848461467b565b505050565b5b818110156146dc576146d16000826146a5565b6001810190506146be565b5050565b601f821115614721576146f2816145c1565b6146fb846145d6565b8101602085101561470a578190505b61471e614716856145d6565b8301826146bd565b50505b505050565b600082821c905092915050565b600061474460001984600802614726565b1980831691505092915050565b600061475d8383614733565b9150826002028217905092915050565b61477682614157565b67ffffffffffffffff81111561478f5761478e613c60565b5b6147998254614590565b6147a48282856146e0565b600060209050601f8311600181146147d757600084156147c5578287015190505b6147cf8582614751565b865550614837565b601f1984166147e5866145c1565b60005b8281101561480d578489015182556001820191506020850194506020810190506147e8565b8683101561482a5784890151614826601f891682614733565b8355505b6001600288020188555050505b505050505050565b7f4e487b7100000000000000000000000000000000000000000000000000000000600052603260045260246000fd5b7f4e487b7100000000000000000000000000000000000000000000000000000000600052603160045260246000fd5b60006148b06148ab84613cdb565b613cc0565b9050828152602081018484840111156148cc576148cb613c4a565b5b6148d7848285614173565b509392505050565b600082601f8301126148f4576148f3613c45565b5b815161490484826020860161489d565b91505092915050565b60008151905061491c81613d95565b92915050565b60008151905061493181613dc1565b92915050565b60008151905061494681613f1c565b92915050565b60008060008060008060c0878903121561496957614968613c3b565b5b600087015167ffffffffffffffff81111561498757614986613c40565b5b61499389828a016148df565b96505060206149a489828a0161490d565b95505060406149b589828a01614922565b945050606087015167ffffffffffffffff8111156149d6576149d5613c40565b5b6149e289828a016148df565b93505060806149f389828a01614937565b92505060a0614a0489828a0161490d565b9150509295509295509295565b6000819050919050565b6000614a36614a31614a2c84614a11565b614645565b613d8b565b9050919050565b614a4681614a1b565b82525050565b6000602082019050614a616000830184614a3d565b92915050565b600067ffffffffffffffff821115614a8257614a81613c60565b5b602082029050602081019050919050565b600081519050614aa281613eb7565b92915050565b6000614abb614ab684614a67565b613cc0565b90508083825260208201905060208402830185811115614ade57614add6143e3565b5b835b81811015614b075780614af38882614a93565b845260208401935050602081019050614ae0565b5050509392505050565b600082601f830112614b2657614b25613c45565b5b8151614b36848260208601614aa8565b91505092915050565b600060208284031215614b5557614b54613c3b565b5b600082015167ffffffffffffffff811115614b7357614b72613c40565b5b614b7f84828501614b11565b9150509291505056fea2646970667358221220d22782e9f67044dae7217f2a417adbd597b1af7e22a8054f9e6c9c80208ca8a664736f6c634300081c0033",
  "linkReferences": {},
  "deployedLinkReferences": {}
}