{
  "_format": "hh-sol-artifact-1",
  "contractName": "VoterDatabase",
  "sourceName": "contracts/VoterDatabase.sol",
  "abi": [
    {
      "inputs": [],
      "name": "AdminManagement__AdminNotFound",
      "type": "error"
    },
    {
      "inputs": [],
      "name": "AdminManagement__AlreadyAdmin",
      "type": "error"
    },
    {
      "inputs": [],
      "name": "AdminManagement__InvalidAddress",
      "type": "error"
    },
    {
      "inputs": [],
      "name": "AdminManagement__NotAdmin",
      "type": "error"
    },
    {
      "inputs": [],
      "name": "AdminManagement__NotOwner",
      "type": "error"
    },
    {
      "inputs": [],
      "name": "VoterDatabase__AlreadyRegistered",
      "type": "error"
    },
    {
      "inputs": [],
      "name": "VoterDatabase__CannotUpdateAfterVoting",
      "type": "error"
    },
    {
      "inputs": [],
      "name": "VoterDatabase__ImportFailed",
      "type": "error"
    },
    {
      "inputs": [],
      "name": "VoterDatabase__InvalidAddress",
      "type": "error"
    },
    {
      "inputs": [],
      "name": "VoterDatabase__NotEligible",
      "type": "error"
    },
    {
      "inputs": [],
      "name": "VoterDatabase__NotRegistered",
      "type": "error"
    },
    {
      "anonymous": false,
      "inputs": [
        {
          "indexed": true,
          "internalType": "address",
          "name": "admin",
          "type": "address"
        },
        {
          "indexed": true,
          "internalType": "address",
          "name": "owner",
          "type": "address"
        }
      ],
      "name": "AdminAdded",
      "type": "event"
    },
    {
      "anonymous": false,
      "inputs": [
        {
          "indexed": true,
          "internalType": "address",
          "name": "voter",
          "type": "address"
        },
        {
          "indexed": true,
          "internalType": "address",
          "name": "admin",
          "type": "address"
        }
      ],
      "name": "AdminAddedVoter",
      "type": "event"
    },
    {
      "anonymous": false,
      "inputs": [
        {
          "indexed": true,
          "internalType": "address",
          "name": "admin",
          "type": "address"
        },
        {
          "indexed": true,
          "internalType": "address",
          "name": "owner",
          "type": "address"
        }
      ],
      "name": "AdminRemoved",
      "type": "event"
    },
    {
      "anonymous": false,
      "inputs": [
        {
          "indexed": true,
          "internalType": "address",
          "name": "voter",
          "type": "address"
        },
        {
          "indexed": true,
          "internalType": "address",
          "name": "admin",
          "type": "address"
        }
      ],
      "name": "AdminRemovedVoter",
      "type": "event"
    },
    {
      "anonymous": false,
      "inputs": [
        {
          "indexed": true,
          "internalType": "address",
          "name": "voter",
          "type": "address"
        },
        {
          "indexed": true,
          "internalType": "address",
          "name": "admin",
          "type": "address"
        }
      ],
      "name": "AdminUpdatedVoter",
      "type": "event"
    },
    {
      "anonymous": false,
      "inputs": [
        {
          "indexed": true,
          "internalType": "address",
          "name": "voter",
          "type": "address"
        },
        {
          "indexed": true,
          "internalType": "address",
          "name": "admin",
          "type": "address"
        }
      ],
      "name": "AdminUpdatedVotingStatus",
      "type": "event"
    },
    {
      "anonymous": false,
      "inputs": [
        {
          "indexed": true,
          "internalType": "address",
          "name": "voter",
          "type": "address"
        }
      ],
      "name": "VoterDeleted",
      "type": "event"
    },
    {
      "anonymous": false,
      "inputs": [
        {
          "indexed": true,
          "internalType": "address",
          "name": "voter",
          "type": "address"
        }
      ],
      "name": "VoterRegistered",
      "type": "event"
    },
    {
      "anonymous": false,
      "inputs": [
        {
          "indexed": true,
          "internalType": "address",
          "name": "voter",
          "type": "address"
        }
      ],
      "name": "VoterUpdated",
      "type": "event"
    },
    {
      "anonymous": false,
      "inputs": [
        {
          "indexed": true,
          "internalType": "address",
          "name": "voter",
          "type": "address"
        }
      ],
      "name": "VoterVoted",
      "type": "event"
    },
    {
      "anonymous": false,
      "inputs": [
        {
          "indexed": true,
          "internalType": "address",
          "name": "sourceContract",
          "type": "address"
        },
        {
          "indexed": false,
          "internalType": "uint256",
          "name": "votersImported",
          "type": "uint256"
        }
      ],
      "name": "VotersImported",
      "type": "event"
    },
    {
      "inputs": [
        {
          "internalType": "address",
          "name": "_adminAddress",
          "type": "address"
        }
      ],
      "name": "addAdmin",
      "outputs": [],
      "stateMutability": "nonpayable",
      "type": "function"
    },
    {
      "inputs": [
        {
          "internalType": "string",
          "name": "_name",
          "type": "string"
        },
        {
          "internalType": "uint256",
          "name": "_dateOfBirthEpoch",
          "type": "uint256"
        },
        {
          "internalType": "enum IVoterDatabase.Gender",
          "name": "_gender",
          "type": "uint8"
        },
        {
          "internalType": "string",
          "name": "_presentAddress",
          "type": "string"
        },
        {
          "internalType": "string",
          "name": "_email",
          "type": "string"
        }
      ],
      "name": "addVoter",
      "outputs": [],
      "stateMutability": "nonpayable",
      "type": "function"
    },
    {
      "inputs": [
        {
          "internalType": "address",
          "name": "_voterAddress",
          "type": "address"
        },
        {
          "internalType": "string",
          "name": "_name",
          "type": "string"
        },
        {
          "internalType": "uint256",
          "name": "_dateOfBirthEpoch",
          "type": "uint256"
        },
        {
          "internalType": "enum IVoterDatabase.Gender",
          "name": "_gender",
          "type": "uint8"
        },
        {
          "internalType": "string",
          "name": "_presentAddress",
          "type": "string"
        },
        {
          "internalType": "string",
          "name": "_email",
          "type": "string"
        },
        {
          "internalType": "uint256",
          "name": "_timesVoted",
          "type": "uint256"
        }
      ],
      "name": "adminAddVoter",
      "outputs": [],
      "stateMutability": "nonpayable",
      "type": "function"
    },
    {
      "inputs": [
        {
          "internalType": "address",
          "name": "_sourceContract",
          "type": "address"
        },
        {
          "internalType": "address[]",
          "name": "_voterAddresses",
          "type": "address[]"
        }
      ],
      "name": "adminBatchImportVoters",
      "outputs": [],
      "stateMutability": "nonpayable",
      "type": "function"
    },
    {
      "inputs": [],
      "name": "adminGetAllVoters",
      "outputs": [
        {
          "internalType": "address[]",
          "name": "voterAddresses",
          "type": "address[]"
        }
      ],
      "stateMutability": "view",
      "type": "function"
    },
    {
      "inputs": [
        {
          "internalType": "address",
          "name": "_voterAddress",
          "type": "address"
        }
      ],
      "name": "adminGetRegistrationStatus",
      "outputs": [
        {
          "internalType": "bool",
          "name": "isRegistered",
          "type": "bool"
        }
      ],
      "stateMutability": "view",
      "type": "function"
    },
    {
      "inputs": [],
      "name": "adminGetVoterCount",
      "outputs": [
        {
          "internalType": "uint256",
          "name": "count",
          "type": "uint256"
        }
      ],
      "stateMutability": "view",
      "type": "function"
    },
    {
      "inputs": [
        {
          "internalType": "address",
          "name": "_voterAddress",
          "type": "address"
        }
      ],
      "name": "adminGetVoterDetails",
      "outputs": [
        {
          "internalType": "string",
          "name": "name",
          "type": "string"
        },
        {
          "internalType": "uint256",
          "name": "dateOfBirthEpoch",
          "type": "uint256"
        },
        {
          "internalType": "enum IVoterDatabase.Gender",
          "name": "gender",
          "type": "uint8"
        },
        {
          "internalType": "string",
          "name": "presentAddress",
          "type": "string"
        },
        {
          "internalType": "string",
          "name": "email",
          "type": "string"
        },
        {
          "internalType": "uint256",
          "name": "timesVoted",
          "type": "uint256"
        },
        {
          "internalType": "uint256",
          "name": "registrationTimestamp",
          "type": "uint256"
        }
      ],
      "stateMutability": "view",
      "type": "function"
    },
    {
      "inputs": [
        {
          "internalType": "address",
          "name": "_sourceContract",
          "type": "address"
        }
      ],
      "name": "adminImportAllVoters",
      "outputs": [],
      "stateMutability": "nonpayable",
      "type": "function"
    },
    {
      "inputs": [
        {
          "internalType": "address",
          "name": "_sourceContract",
          "type": "address"
        },
        {
          "internalType": "address",
          "name": "_voterAddress",
          "type": "address"
        }
      ],
      "name": "adminImportVoter",
      "outputs": [],
      "stateMutability": "nonpayable",
      "type": "function"
    },
    {
      "inputs": [
        {
          "internalType": "address",
          "name": "_voterAddress",
          "type": "address"
        }
      ],
      "name": "adminMarkVoted",
      "outputs": [],
      "stateMutability": "nonpayable",
      "type": "function"
    },
    {
      "inputs": [
        {
          "internalType": "address",
          "name": "_voterAddress",
          "type": "address"
        }
      ],
      "name": "adminRemoveVoter",
      "outputs": [],
      "stateMutability": "nonpayable",
      "type": "function"
    },
    {
      "inputs": [
        {
          "internalType": "address",
          "name": "_voterAddress",
          "type": "address"
        },
        {
          "internalType": "string",
          "name": "_name",
          "type": "string"
        },
        {
          "internalType": "uint256",
          "name": "_dateOfBirthEpoch",
          "type": "uint256"
        },
        {
          "internalType": "enum IVoterDatabase.Gender",
          "name": "_gender",
          "type": "uint8"
        },
        {
          "internalType": "string",
          "name": "_presentAddress",
          "type": "string"
        },
        {
          "internalType": "string",
          "name": "_email",
          "type": "string"
        },
        {
          "internalType": "uint256",
          "name": "_timesVoted",
          "type": "uint256"
        }
      ],
      "name": "adminUpdateVoter",
      "outputs": [],
      "stateMutability": "nonpayable",
      "type": "function"
    },
    {
      "inputs": [],
      "name": "amIAdmin",
      "outputs": [
        {
          "internalType": "bool",
          "name": "",
          "type": "bool"
        }
      ],
      "stateMutability": "view",
      "type": "function"
    },
    {
      "inputs": [],
      "name": "deleteVoter",
      "outputs": [],
      "stateMutability": "nonpayable",
      "type": "function"
    },
    {
      "inputs": [],
      "name": "getAdminCount",
      "outputs": [
        {
          "internalType": "uint256",
          "name": "",
          "type": "uint256"
        }
      ],
      "stateMutability": "view",
      "type": "function"
    },
    {
      "inputs": [],
      "name": "getAllAdmins",
      "outputs": [
        {
          "internalType": "address[]",
          "name": "",
          "type": "address[]"
        }
      ],
      "stateMutability": "view",
      "type": "function"
    },
    {
      "inputs": [],
      "name": "getMyAge",
      "outputs": [
        {
          "internalType": "uint256",
          "name": "age",
          "type": "uint256"
        }
      ],
      "stateMutability": "view",
      "type": "function"
    },
    {
      "inputs": [],
      "name": "getMyDetails",
      "outputs": [
        {
          "internalType": "string",
          "name": "name",
          "type": "string"
        },
        {
          "internalType": "uint256",
          "name": "dateOfBirthEpoch",
          "type": "uint256"
        },
        {
          "internalType": "enum IVoterDatabase.Gender",
          "name": "gender",
          "type": "uint8"
        },
        {
          "internalType": "string",
          "name": "presentAddress",
          "type": "string"
        },
        {
          "internalType": "string",
          "name": "email",
          "type": "string"
        },
        {
          "internalType": "uint256",
          "name": "timesVoted",
          "type": "uint256"
        },
        {
          "internalType": "uint256",
          "name": "registrationTimestamp",
          "type": "uint256"
        }
      ],
      "stateMutability": "view",
      "type": "function"
    },
    {
      "inputs": [],
      "name": "getMyRegistrationStatus",
      "outputs": [
        {
          "internalType": "bool",
          "name": "isRegistered",
          "type": "bool"
        }
      ],
      "stateMutability": "view",
      "type": "function"
    },
    {
      "inputs": [],
      "name": "getMyVotingStatus",
      "outputs": [
        {
          "internalType": "bool",
          "name": "hasVoted",
          "type": "bool"
        }
      ],
      "stateMutability": "view",
      "type": "function"
    },
    {
      "inputs": [],
      "name": "getOwner",
      "outputs": [
        {
          "internalType": "address",
          "name": "",
          "type": "address"
        }
      ],
      "stateMutability": "view",
      "type": "function"
    },
    {
      "inputs": [
        {
          "internalType": "address",
          "name": "_address",
          "type": "address"
        }
      ],
      "name": "isAdmin",
      "outputs": [
        {
          "internalType": "bool",
          "name": "",
          "type": "bool"
        }
      ],
      "stateMutability": "view",
      "type": "function"
    },
    {
      "inputs": [],
      "name": "markVoted",
      "outputs": [],
      "stateMutability": "nonpayable",
      "type": "function"
    },
    {
      "inputs": [
        {
          "internalType": "address",
          "name": "_adminAddress",
          "type": "address"
        }
      ],
      "name": "removeAdmin",
      "outputs": [],
      "stateMutability": "nonpayable",
      "type": "function"
    },
    {
      "inputs": [
        {
          "internalType": "string",
          "name": "_name",
          "type": "string"
        },
        {
          "internalType": "uint256",
          "name": "_dateOfBirthEpoch",
          "type": "uint256"
        },
        {
          "internalType": "enum IVoterDatabase.Gender",
          "name": "_gender",
          "type": "uint8"
        },
        {
          "internalType": "string",
          "name": "_presentAddress",
          "type": "string"
        },
        {
          "internalType": "string",
          "name": "_email",
          "type": "string"
        }
      ],
      "name": "updateVoter",
      "outputs": [],
      "stateMutability": "nonpayable",
      "type": "function"
    }
  ],
  "bytecode": "0x60a060405234801561001057600080fd5b503373ffffffffffffffffffffffffffffffffffffffff1660808173ffffffffffffffffffffffffffffffffffffffff16815250506080516142556100c260003960008181610585015281816108bc01528181610b9001528181610d060152818161118f01528181611339015281816117520152818161190801528181611b8d01528181611f640152818161208f015281816121ac015281816123c8015281816127bc0152612b2601526142556000f3fe608060405234801561001057600080fd5b506004361061018e5760003560e01c80637470c9c6116100de5780638ebd0a4c11610097578063c12caf4d11610071578063c12caf4d14610415578063e8d63acc1461044b578063e9523c9714610467578063f45d42ab146104855761018e565b80638ebd0a4c146103d1578063934f1cca146103db578063b0d42fb5146103f95761018e565b80637470c9c614610321578063775f3f331461033d57806384699ad91461034757806384aa21d414610365578063893d20e8146103955780638b7bf3eb146103b35761018e565b8063431bbb7e1161014b57806357b298291161012557806357b29829146102af5780635b409d09146102cb5780636c33c7f6146102e957806370480275146103055761018e565b8063431bbb7e14610253578063497e4003146102775780634afba630146102935761018e565b806302c4e9ee146101935780631785f53c146101af57806322edc484146101cb57806324d7806c146101e75780634040a2d51461021757806341509fe314610235575b600080fd5b6101ad60048036038101906101a891906134b1565b6104a3565b005b6101c960048036038101906101c491906135de565b610583565b005b6101e560048036038101906101e0919061360b565b6108ba565b005b61020160048036038101906101fc91906135de565b610b8c565b60405161020e9190613666565b60405180910390f35b61021f610c37565b60405161022c9190613666565b60405180910390f35b61023d610d02565b60405161024a919061373f565b60405180910390f35b61025b610e6c565b60405161026e9796959493929190613866565b60405180910390f35b610291600480360381019061028c91906135de565b61118d565b005b6102ad60048036038101906102a891906135de565b611337565b005b6102c960048036038101906102c491906134b1565b6116aa565b005b6102d3611704565b6040516102e09190613666565b60405180910390f35b61030360048036038101906102fe91906138ea565b611750565b005b61031f600480360381019061031a91906135de565b611906565b005b61033b600480360381019061033691906138ea565b611b8b565b005b610345611d41565b005b61034f611e90565b60405161035c91906139e0565b60405180910390f35b61037f600480360381019061037a91906135de565b611f60565b60405161038c9190613666565b60405180910390f35b61039d61208b565b6040516103aa9190613a0a565b60405180910390f35b6103bb6120b3565b6040516103c891906139e0565b60405180910390f35b6103d96120c0565b005b6103e361219a565b6040516103f09190613666565b60405180910390f35b610413600480360381019061040e91906135de565b6121aa565b005b61042f600480360381019061042a91906135de565b6123bb565b6040516104429796959493929190613866565b60405180910390f35b61046560048036038101906104609190613a85565b6127ba565b005b61046f612a94565b60405161047c919061373f565b60405180910390f35b61048d612b22565b60405161049a91906139e0565b60405180910390f35b6000600260003373ffffffffffffffffffffffffffffffffffffffff1673ffffffffffffffffffffffffffffffffffffffff1681526020019081526020016000209050600081600401541115610525576040517f8028fe5d00000000000000000000000000000000000000000000000000000000815260040160405180910390fd5b6105383387878787878760040154612c0b565b3373ffffffffffffffffffffffffffffffffffffffff167f452a1bea58b8e4d443d5b0865906cc360f45aae2ee5103ee1cadec26965bc07360405160405180910390a2505050505050565b7f000000000000000000000000000000000000000000000000000000000000000073ffffffffffffffffffffffffffffffffffffffff163373ffffffffffffffffffffffffffffffffffffffff1614610608576040517fbe2ac67400000000000000000000000000000000000000000000000000000000815260040160405180910390fd5b6000808273ffffffffffffffffffffffffffffffffffffffff1673ffffffffffffffffffffffffffffffffffffffff16815260200190815260200160002060009054906101000a900460ff1661068a576040517f256d404300000000000000000000000000000000000000000000000000000000815260040160405180910390fd5b6000808273ffffffffffffffffffffffffffffffffffffffff1673ffffffffffffffffffffffffffffffffffffffff16815260200190815260200160002060006101000a81549060ff02191690556000600180549050905060005b8181101561085b578273ffffffffffffffffffffffffffffffffffffffff166001828154811061071857610717613ae5565b5b9060005260206000200160009054906101000a900473ffffffffffffffffffffffffffffffffffffffff1673ffffffffffffffffffffffffffffffffffffffff1603610850576001808361076c9190613b43565b8154811061077d5761077c613ae5565b5b9060005260206000200160009054906101000a900473ffffffffffffffffffffffffffffffffffffffff16600182815481106107bc576107bb613ae5565b5b9060005260206000200160006101000a81548173ffffffffffffffffffffffffffffffffffffffff021916908373ffffffffffffffffffffffffffffffffffffffff160217905550600180548061081657610815613b77565b5b6001900381819060005260206000200160006101000a81549073ffffffffffffffffffffffffffffffffffffffff0219169055905561085b565b8060010190506106e5565b503373ffffffffffffffffffffffffffffffffffffffff168273ffffffffffffffffffffffffffffffffffffffff167fdb9d5d31320daf5bc7181d565b6da4d12e30f0f4d5aa324a992426c14a1d19ce60405160405180910390a35050565b7f000000000000000000000000000000000000000000000000000000000000000073ffffffffffffffffffffffffffffffffffffffff163373ffffffffffffffffffffffffffffffffffffffff161415801561095f57506000803373ffffffffffffffffffffffffffffffffffffffff1673ffffffffffffffffffffffffffffffffffffffff16815260200190815260200160002060009054906101000a900460ff16155b15610996576040517f87a8a82e00000000000000000000000000000000000000000000000000000000815260040160405180910390fd5b806000600260008373ffffffffffffffffffffffffffffffffffffffff1673ffffffffffffffffffffffffffffffffffffffff168152602001908152602001600020600601541115610a14576040517f81ab984900000000000000000000000000000000000000000000000000000000815260040160405180910390fd5b60008390508073ffffffffffffffffffffffffffffffffffffffff1663c12caf4d846040518263ffffffff1660e01b8152600401610a529190613a0a565b600060405180830381865afa925050508015610a9157506040513d6000823e3d601f19601f82011682018060405250810190610a8e9190613c40565b60015b610ac7576040517fb3e1a8c100000000000000000000000000000000000000000000000000000000815260040160405180910390fd5b610ad68a888888888888612d8f565b3373ffffffffffffffffffffffffffffffffffffffff168a73ffffffffffffffffffffffffffffffffffffffff167f1526559f7a4c30b69a62ace47df95483b2115a7ff1a1a0d7adc96114790bc60660405160405180910390a38a73ffffffffffffffffffffffffffffffffffffffff167f75daea5c72a0008b18bdea0ab7e2c1357fdac2ad35fbc0cde3d47857fd15dbfe6001604051610b779190613d7b565b60405180910390a25050505050505050505050565b60007f000000000000000000000000000000000000000000000000000000000000000073ffffffffffffffffffffffffffffffffffffffff168273ffffffffffffffffffffffffffffffffffffffff161480610c3057506000808373ffffffffffffffffffffffffffffffffffffffff1673ffffffffffffffffffffffffffffffffffffffff16815260200190815260200160002060009054906101000a900460ff165b9050919050565b6000336000600260008373ffffffffffffffffffffffffffffffffffffffff1673ffffffffffffffffffffffffffffffffffffffff1681526020019081526020016000206006015403610cb6576040517f7966098e00000000000000000000000000000000000000000000000000000000815260040160405180910390fd5b6000600260003373ffffffffffffffffffffffffffffffffffffffff1673ffffffffffffffffffffffffffffffffffffffff168152602001908152602001600020600401541191505090565b60607f000000000000000000000000000000000000000000000000000000000000000073ffffffffffffffffffffffffffffffffffffffff163373ffffffffffffffffffffffffffffffffffffffff1614158015610da957506000803373ffffffffffffffffffffffffffffffffffffffff1673ffffffffffffffffffffffffffffffffffffffff16815260200190815260200160002060009054906101000a900460ff16155b15610de0576040517f87a8a82e00000000000000000000000000000000000000000000000000000000815260040160405180910390fd5b6003805480602002602001604051908101604052809291908181526020018280548015610e6257602002820191906000526020600020905b8160009054906101000a900473ffffffffffffffffffffffffffffffffffffffff1673ffffffffffffffffffffffffffffffffffffffff1681526020019060010190808311610e18575b5050505050905090565b6060600080606080600080336000600260008373ffffffffffffffffffffffffffffffffffffffff1673ffffffffffffffffffffffffffffffffffffffff1681526020019081526020016000206006015403610ef4576040517f7966098e00000000000000000000000000000000000000000000000000000000815260040160405180910390fd5b6000600260003373ffffffffffffffffffffffffffffffffffffffff1673ffffffffffffffffffffffffffffffffffffffff1681526020019081526020016000206040518060e0016040529081600082018054610f5090613dc5565b80601f0160208091040260200160405190810160405280929190818152602001828054610f7c90613dc5565b8015610fc95780601f10610f9e57610100808354040283529160200191610fc9565b820191906000526020600020905b815481529060010190602001808311610fac57829003601f168201915b50505050508152602001600182018054610fe290613dc5565b80601f016020809104026020016040519081016040528092919081815260200182805461100e90613dc5565b801561105b5780601f106110305761010080835404028352916020019161105b565b820191906000526020600020905b81548152906001019060200180831161103e57829003601f168201915b5050505050815260200160028201805461107490613dc5565b80601f01602080910402602001604051908101604052809291908181526020018280546110a090613dc5565b80156110ed5780601f106110c2576101008083540402835291602001916110ed565b820191906000526020600020905b8154815290600101906020018083116110d057829003601f168201915b505050505081526020016003820160009054906101000a900460ff16600181111561111b5761111a6137ef565b5b600181111561112d5761112c6137ef565b5b81526020016004820154815260200160058201548152602001600682015481525050905080600001518160a0015182606001518360200151846040015185608001518660c001519850985098509850985098509850505090919293949596565b7f000000000000000000000000000000000000000000000000000000000000000073ffffffffffffffffffffffffffffffffffffffff163373ffffffffffffffffffffffffffffffffffffffff161415801561123257506000803373ffffffffffffffffffffffffffffffffffffffff1673ffffffffffffffffffffffffffffffffffffffff16815260200190815260200160002060009054906101000a900460ff16155b15611269576040517f87a8a82e00000000000000000000000000000000000000000000000000000000815260040160405180910390fd5b80600073ffffffffffffffffffffffffffffffffffffffff168173ffffffffffffffffffffffffffffffffffffffff16036112d0576040517ff716e87a00000000000000000000000000000000000000000000000000000000815260040160405180910390fd5b6112d982612fd6565b3373ffffffffffffffffffffffffffffffffffffffff168273ffffffffffffffffffffffffffffffffffffffff167fb8644c8db01f390a1148d2f24cc77fd6ce3dc104da1f9b36a706197e2c85019460405160405180910390a35050565b7f000000000000000000000000000000000000000000000000000000000000000073ffffffffffffffffffffffffffffffffffffffff163373ffffffffffffffffffffffffffffffffffffffff16141580156113dc57506000803373ffffffffffffffffffffffffffffffffffffffff1673ffffffffffffffffffffffffffffffffffffffff16815260200190815260200160002060009054906101000a900460ff16155b15611413576040517f87a8a82e00000000000000000000000000000000000000000000000000000000815260040160405180910390fd5b600081905060608173ffffffffffffffffffffffffffffffffffffffff166341509fe36040518163ffffffff1660e01b8152600401600060405180830381865afa92505050801561148757506040513d6000823e3d601f19601f820116820180604052508101906114849190613ece565b60015b6114bd576040517fb3e1a8c100000000000000000000000000000000000000000000000000000000815260040160405180910390fd5b809150506000808251905060005b818110156116545760008482815181106114e8576114e7613ae5565b5b602002602001015190506000600260008373ffffffffffffffffffffffffffffffffffffffff1673ffffffffffffffffffffffffffffffffffffffff168152602001908152602001600020600601541115611549578160010191505061164f565b8573ffffffffffffffffffffffffffffffffffffffff1663c12caf4d826040518263ffffffff1660e01b81526004016115829190613a0a565b600060405180830381865afa9250505080156115c157506040513d6000823e3d601f19601f820116820180604052508101906115be9190613c40565b60015b6115d1578160010191505061164f565b6115e088888888888888612d8f565b3373ffffffffffffffffffffffffffffffffffffffff168873ffffffffffffffffffffffffffffffffffffffff167f1526559f7a4c30b69a62ace47df95483b2115a7ff1a1a0d7adc96114790bc60660405160405180910390a38a6001019a5088600101985050505050505050505b6114cb565b508473ffffffffffffffffffffffffffffffffffffffff167f75daea5c72a0008b18bdea0ab7e2c1357fdac2ad35fbc0cde3d47857fd15dbfe8360405161169b91906139e0565b60405180910390a25050505050565b6116ba3386868686866000612d8f565b3373ffffffffffffffffffffffffffffffffffffffff167fb6be2187d059cc2a55fe29e0e503b566e1e0f8c8780096e185429350acffd3dd60405160405180910390a25050505050565b600080600260003373ffffffffffffffffffffffffffffffffffffffff1673ffffffffffffffffffffffffffffffffffffffff1681526020019081526020016000206006015411905090565b7f000000000000000000000000000000000000000000000000000000000000000073ffffffffffffffffffffffffffffffffffffffff163373ffffffffffffffffffffffffffffffffffffffff16141580156117f557506000803373ffffffffffffffffffffffffffffffffffffffff1673ffffffffffffffffffffffffffffffffffffffff16815260200190815260200160002060009054906101000a900460ff16155b1561182c576040517f87a8a82e00000000000000000000000000000000000000000000000000000000815260040160405180910390fd5b86600073ffffffffffffffffffffffffffffffffffffffff168173ffffffffffffffffffffffffffffffffffffffff1603611893576040517ff716e87a00000000000000000000000000000000000000000000000000000000815260040160405180910390fd5b6118a288888888888888612c0b565b3373ffffffffffffffffffffffffffffffffffffffff168873ffffffffffffffffffffffffffffffffffffffff167f0d86a35f44bd7db2e20f4a249388595ad9232a2d5b8be19ebe307828eed21fa660405160405180910390a35050505050505050565b7f000000000000000000000000000000000000000000000000000000000000000073ffffffffffffffffffffffffffffffffffffffff163373ffffffffffffffffffffffffffffffffffffffff161461198b576040517fbe2ac67400000000000000000000000000000000000000000000000000000000815260040160405180910390fd5b600073ffffffffffffffffffffffffffffffffffffffff168173ffffffffffffffffffffffffffffffffffffffff16036119f1576040517fd9fa4b4700000000000000000000000000000000000000000000000000000000815260040160405180910390fd5b6000808273ffffffffffffffffffffffffffffffffffffffff1673ffffffffffffffffffffffffffffffffffffffff16815260200190815260200160002060009054906101000a900460ff1615611a74576040517f4e16b38200000000000000000000000000000000000000000000000000000000815260040160405180910390fd5b60016000808373ffffffffffffffffffffffffffffffffffffffff1673ffffffffffffffffffffffffffffffffffffffff16815260200190815260200160002060006101000a81548160ff0219169083151502179055506001819080600181540180825580915050600190039060005260206000200160009091909190916101000a81548173ffffffffffffffffffffffffffffffffffffffff021916908373ffffffffffffffffffffffffffffffffffffffff1602179055503373ffffffffffffffffffffffffffffffffffffffff168173ffffffffffffffffffffffffffffffffffffffff167fbf3f493c772c8c283fd124432c2d0f539ab343faa04258fe88e52912d36b102b60405160405180910390a350565b7f000000000000000000000000000000000000000000000000000000000000000073ffffffffffffffffffffffffffffffffffffffff163373ffffffffffffffffffffffffffffffffffffffff1614158015611c3057506000803373ffffffffffffffffffffffffffffffffffffffff1673ffffffffffffffffffffffffffffffffffffffff16815260200190815260200160002060009054906101000a900460ff16155b15611c67576040517f87a8a82e00000000000000000000000000000000000000000000000000000000815260040160405180910390fd5b86600073ffffffffffffffffffffffffffffffffffffffff168173ffffffffffffffffffffffffffffffffffffffff1603611cce576040517ff716e87a00000000000000000000000000000000000000000000000000000000815260040160405180910390fd5b611cdd88888888888888612d8f565b3373ffffffffffffffffffffffffffffffffffffffff168873ffffffffffffffffffffffffffffffffffffffff167f1526559f7a4c30b69a62ace47df95483b2115a7ff1a1a0d7adc96114790bc60660405160405180910390a35050505050505050565b336000600260008373ffffffffffffffffffffffffffffffffffffffff1673ffffffffffffffffffffffffffffffffffffffff1681526020019081526020016000206006015403611dbe576040517f7966098e00000000000000000000000000000000000000000000000000000000815260040160405180910390fd5b6000600260003373ffffffffffffffffffffffffffffffffffffffff1673ffffffffffffffffffffffffffffffffffffffff1681526020019081526020016000209050600081600401541115611e40576040517f8028fe5d00000000000000000000000000000000000000000000000000000000815260040160405180910390fd5b611e4933612fd6565b3373ffffffffffffffffffffffffffffffffffffffff167faf4c2a533fbd4d43945279bdd38298da41e7b2785811f3fe4f5233a3bd4aea0b60405160405180910390a25050565b6000336000600260008373ffffffffffffffffffffffffffffffffffffffff1673ffffffffffffffffffffffffffffffffffffffff1681526020019081526020016000206006015403611f0f576040517f7966098e00000000000000000000000000000000000000000000000000000000815260040160405180910390fd5b611f5a600260003373ffffffffffffffffffffffffffffffffffffffff1673ffffffffffffffffffffffffffffffffffffffff1681526020019081526020016000206005015461327b565b91505090565b60007f000000000000000000000000000000000000000000000000000000000000000073ffffffffffffffffffffffffffffffffffffffff163373ffffffffffffffffffffffffffffffffffffffff161415801561200757506000803373ffffffffffffffffffffffffffffffffffffffff1673ffffffffffffffffffffffffffffffffffffffff16815260200190815260200160002060009054906101000a900460ff16155b1561203e576040517f87a8a82e00000000000000000000000000000000000000000000000000000000815260040160405180910390fd5b6000600260008473ffffffffffffffffffffffffffffffffffffffff1673ffffffffffffffffffffffffffffffffffffffff16815260200190815260200160002060060154119050919050565b60007f0000000000000000000000000000000000000000000000000000000000000000905090565b6000600180549050905090565b336000600260008373ffffffffffffffffffffffffffffffffffffffff1673ffffffffffffffffffffffffffffffffffffffff168152602001908152602001600020600601540361213d576040517f7966098e00000000000000000000000000000000000000000000000000000000815260040160405180910390fd5b6001600260003373ffffffffffffffffffffffffffffffffffffffff1673ffffffffffffffffffffffffffffffffffffffff16815260200190815260200160002060040160008282546121909190613f17565b9250508190555050565b60006121a533610b8c565b905090565b7f000000000000000000000000000000000000000000000000000000000000000073ffffffffffffffffffffffffffffffffffffffff163373ffffffffffffffffffffffffffffffffffffffff161415801561224f57506000803373ffffffffffffffffffffffffffffffffffffffff1673ffffffffffffffffffffffffffffffffffffffff16815260200190815260200160002060009054906101000a900460ff16155b15612286576040517f87a8a82e00000000000000000000000000000000000000000000000000000000815260040160405180910390fd5b806000600260008373ffffffffffffffffffffffffffffffffffffffff1673ffffffffffffffffffffffffffffffffffffffff1681526020019081526020016000206006015403612303576040517f7966098e00000000000000000000000000000000000000000000000000000000815260040160405180910390fd5b6001600260008473ffffffffffffffffffffffffffffffffffffffff1673ffffffffffffffffffffffffffffffffffffffff16815260200190815260200160002060040160008282546123569190613f17565b925050819055503373ffffffffffffffffffffffffffffffffffffffff168273ffffffffffffffffffffffffffffffffffffffff167f021d3238501a18b85b254aafd63dac3f9cde239e23f1298b4caba4c51eb657f660405160405180910390a35050565b60606000806060806000807f000000000000000000000000000000000000000000000000000000000000000073ffffffffffffffffffffffffffffffffffffffff163373ffffffffffffffffffffffffffffffffffffffff161415801561246b57506000803373ffffffffffffffffffffffffffffffffffffffff1673ffffffffffffffffffffffffffffffffffffffff16815260200190815260200160002060009054906101000a900460ff16155b156124a2576040517f87a8a82e00000000000000000000000000000000000000000000000000000000815260040160405180910390fd5b876000600260008373ffffffffffffffffffffffffffffffffffffffff1673ffffffffffffffffffffffffffffffffffffffff168152602001908152602001600020600601540361251f576040517f7966098e00000000000000000000000000000000000000000000000000000000815260040160405180910390fd5b6000600260008b73ffffffffffffffffffffffffffffffffffffffff1673ffffffffffffffffffffffffffffffffffffffff1681526020019081526020016000206040518060e001604052908160008201805461257b90613dc5565b80601f01602080910402602001604051908101604052809291908181526020018280546125a790613dc5565b80156125f45780601f106125c9576101008083540402835291602001916125f4565b820191906000526020600020905b8154815290600101906020018083116125d757829003601f168201915b5050505050815260200160018201805461260d90613dc5565b80601f016020809104026020016040519081016040528092919081815260200182805461263990613dc5565b80156126865780601f1061265b57610100808354040283529160200191612686565b820191906000526020600020905b81548152906001019060200180831161266957829003601f168201915b5050505050815260200160028201805461269f90613dc5565b80601f01602080910402602001604051908101604052809291908181526020018280546126cb90613dc5565b80156127185780601f106126ed57610100808354040283529160200191612718565b820191906000526020600020905b8154815290600101906020018083116126fb57829003601f168201915b505050505081526020016003820160009054906101000a900460ff166001811115612746576127456137ef565b5b6001811115612758576127576137ef565b5b81526020016004820154815260200160058201548152602001600682015481525050905080600001518160a0015182606001518360200151846040015185608001518660c0015198509850985098509850985098505050919395979092949650565b7f000000000000000000000000000000000000000000000000000000000000000073ffffffffffffffffffffffffffffffffffffffff163373ffffffffffffffffffffffffffffffffffffffff161415801561285f57506000803373ffffffffffffffffffffffffffffffffffffffff1673ffffffffffffffffffffffffffffffffffffffff16815260200190815260200160002060009054906101000a900460ff16155b15612896576040517f87a8a82e00000000000000000000000000000000000000000000000000000000815260040160405180910390fd5b600083905060008084849050905060005b81811015612a3d5760008686838181106128c4576128c3613ae5565b5b90506020020160208101906128d991906135de565b90506000600260008373ffffffffffffffffffffffffffffffffffffffff1673ffffffffffffffffffffffffffffffffffffffff1681526020019081526020016000206006015411156129325781600101915050612a38565b8473ffffffffffffffffffffffffffffffffffffffff1663c12caf4d826040518263ffffffff1660e01b815260040161296b9190613a0a565b600060405180830381865afa9250505080156129aa57506040513d6000823e3d601f19601f820116820180604052508101906129a79190613c40565b60015b6129ba5781600101915050612a38565b6129c988888888888888612d8f565b3373ffffffffffffffffffffffffffffffffffffffff168873ffffffffffffffffffffffffffffffffffffffff167f1526559f7a4c30b69a62ace47df95483b2115a7ff1a1a0d7adc96114790bc60660405160405180910390a38a6001019a5088600101985050505050505050505b6128a7565b508573ffffffffffffffffffffffffffffffffffffffff167f75daea5c72a0008b18bdea0ab7e2c1357fdac2ad35fbc0cde3d47857fd15dbfe83604051612a8491906139e0565b60405180910390a2505050505050565b60606001805480602002602001604051908101604052809291908181526020018280548015612b1857602002820191906000526020600020905b8160009054906101000a900473ffffffffffffffffffffffffffffffffffffffff1673ffffffffffffffffffffffffffffffffffffffff1681526020019060010190808311612ace575b5050505050905090565b60007f000000000000000000000000000000000000000000000000000000000000000073ffffffffffffffffffffffffffffffffffffffff163373ffffffffffffffffffffffffffffffffffffffff1614158015612bc957506000803373ffffffffffffffffffffffffffffffffffffffff1673ffffffffffffffffffffffffffffffffffffffff16815260200190815260200160002060009054906101000a900460ff16155b15612c00576040517f87a8a82e00000000000000000000000000000000000000000000000000000000815260040160405180910390fd5b600380549050905090565b846012612c178261327b565b1015612c4f576040517f7a2e615e00000000000000000000000000000000000000000000000000000000815260040160405180910390fd5b876000600260008373ffffffffffffffffffffffffffffffffffffffff1673ffffffffffffffffffffffffffffffffffffffff1681526020019081526020016000206006015403612ccc576040517f7966098e00000000000000000000000000000000000000000000000000000000815260040160405180910390fd5b6000600260008b73ffffffffffffffffffffffffffffffffffffffff1673ffffffffffffffffffffffffffffffffffffffff168152602001908152602001600020905088816000019081612d2091906140ed565b50878160050181905550868160030160006101000a81548160ff02191690836001811115612d5157612d506137ef565b5b021790555085816001019081612d6791906140ed565b5084816002019081612d7991906140ed565b5083816004018190555050505050505050505050565b846012612d9b8261327b565b1015612dd3576040517f7a2e615e00000000000000000000000000000000000000000000000000000000815260040160405180910390fd5b876000600260008373ffffffffffffffffffffffffffffffffffffffff1673ffffffffffffffffffffffffffffffffffffffff168152602001908152602001600020600601541115612e51576040517f81ab984900000000000000000000000000000000000000000000000000000000815260040160405180910390fd5b6040518060e00160405280898152602001868152602001858152602001876001811115612e8157612e806137ef565b5b815260200184815260200188815260200142815250600260008b73ffffffffffffffffffffffffffffffffffffffff1673ffffffffffffffffffffffffffffffffffffffff1681526020019081526020016000206000820151816000019081612eea91906140ed565b506020820151816001019081612f0091906140ed565b506040820151816002019081612f1691906140ed565b5060608201518160030160006101000a81548160ff02191690836001811115612f4257612f416137ef565b5b02179055506080820151816004015560a0820151816005015560c082015181600601559050506003899080600181540180825580915050600190039060005260206000200160009091909190916101000a81548173ffffffffffffffffffffffffffffffffffffffff021916908373ffffffffffffffffffffffffffffffffffffffff160217905550505050505050505050565b806000600260008373ffffffffffffffffffffffffffffffffffffffff1673ffffffffffffffffffffffffffffffffffffffff1681526020019081526020016000206006015403613053576040517f7966098e00000000000000000000000000000000000000000000000000000000815260040160405180910390fd5b600260008373ffffffffffffffffffffffffffffffffffffffff1673ffffffffffffffffffffffffffffffffffffffff168152602001908152602001600020600080820160006130a3919061329f565b6001820160006130b3919061329f565b6002820160006130c3919061329f565b6003820160006101000a81549060ff021916905560048201600090556005820160009055600682016000905550506000600380549050905060005b81811015613275578373ffffffffffffffffffffffffffffffffffffffff166003828154811061313157613130613ae5565b5b9060005260206000200160009054906101000a900473ffffffffffffffffffffffffffffffffffffffff1673ffffffffffffffffffffffffffffffffffffffff160361326a5760036001836131869190613b43565b8154811061319757613196613ae5565b5b9060005260206000200160009054906101000a900473ffffffffffffffffffffffffffffffffffffffff16600382815481106131d6576131d5613ae5565b5b9060005260206000200160006101000a81548173ffffffffffffffffffffffffffffffffffffffff021916908373ffffffffffffffffffffffffffffffffffffffff16021790555060038054806132305761322f613b77565b5b6001900381819060005260206000200160006101000a81549073ffffffffffffffffffffffffffffffffffffffff02191690559055613275565b8060010190506130fe565b50505050565b60006301e13380824261328e9190613b43565b61329891906141ee565b9050919050565b5080546132ab90613dc5565b6000825580601f106132bd57506132dc565b601f0160209004906000526020600020908101906132db91906132df565b5b50565b5b808211156132f85760008160009055506001016132e0565b5090565b6000604051905090565b600080fd5b600080fd5b600080fd5b600080fd5b6000601f19601f8301169050919050565b7f4e487b7100000000000000000000000000000000000000000000000000000000600052604160045260246000fd5b6133638261331a565b810181811067ffffffffffffffff821117156133825761338161332b565b5b80604052505050565b60006133956132fc565b90506133a1828261335a565b919050565b600067ffffffffffffffff8211156133c1576133c061332b565b5b6133ca8261331a565b9050602081019050919050565b82818337600083830152505050565b60006133f96133f4846133a6565b61338b565b90508281526020810184848401111561341557613414613315565b5b6134208482856133d7565b509392505050565b600082601f83011261343d5761343c613310565b5b813561344d8482602086016133e6565b91505092915050565b6000819050919050565b61346981613456565b811461347457600080fd5b50565b60008135905061348681613460565b92915050565b6002811061349957600080fd5b50565b6000813590506134ab8161348c565b92915050565b600080600080600060a086880312156134cd576134cc613306565b5b600086013567ffffffffffffffff8111156134eb576134ea61330b565b5b6134f788828901613428565b955050602061350888828901613477565b94505060406135198882890161349c565b935050606086013567ffffffffffffffff81111561353a5761353961330b565b5b61354688828901613428565b925050608086013567ffffffffffffffff8111156135675761356661330b565b5b61357388828901613428565b9150509295509295909350565b600073ffffffffffffffffffffffffffffffffffffffff82169050919050565b60006135ab82613580565b9050919050565b6135bb816135a0565b81146135c657600080fd5b50565b6000813590506135d8816135b2565b92915050565b6000602082840312156135f4576135f3613306565b5b6000613602848285016135c9565b91505092915050565b6000806040838503121561362257613621613306565b5b6000613630858286016135c9565b9250506020613641858286016135c9565b9150509250929050565b60008115159050919050565b6136608161364b565b82525050565b600060208201905061367b6000830184613657565b92915050565b600081519050919050565b600082825260208201905092915050565b6000819050602082019050919050565b6136b6816135a0565b82525050565b60006136c883836136ad565b60208301905092915050565b6000602082019050919050565b60006136ec82613681565b6136f6818561368c565b93506137018361369d565b8060005b8381101561373257815161371988826136bc565b9750613724836136d4565b925050600181019050613705565b5085935050505092915050565b6000602082019050818103600083015261375981846136e1565b905092915050565b600081519050919050565b600082825260208201905092915050565b60005b8381101561379b578082015181840152602081019050613780565b60008484015250505050565b60006137b282613761565b6137bc818561376c565b93506137cc81856020860161377d565b6137d58161331a565b840191505092915050565b6137e981613456565b82525050565b7f4e487b7100000000000000000000000000000000000000000000000000000000600052602160045260246000fd5b6002811061382f5761382e6137ef565b5b50565b60008190506138408261381e565b919050565b600061385082613832565b9050919050565b61386081613845565b82525050565b600060e0820190508181036000830152613880818a6137a7565b905061388f60208301896137e0565b61389c6040830188613857565b81810360608301526138ae81876137a7565b905081810360808301526138c281866137a7565b90506138d160a08301856137e0565b6138de60c08301846137e0565b98975050505050505050565b600080600080600080600060e0888a03121561390957613908613306565b5b60006139178a828b016135c9565b975050602088013567ffffffffffffffff8111156139385761393761330b565b5b6139448a828b01613428565b96505060406139558a828b01613477565b95505060606139668a828b0161349c565b945050608088013567ffffffffffffffff8111156139875761398661330b565b5b6139938a828b01613428565b93505060a088013567ffffffffffffffff8111156139b4576139b361330b565b5b6139c08a828b01613428565b92505060c06139d18a828b01613477565b91505092959891949750929550565b60006020820190506139f560008301846137e0565b92915050565b613a04816135a0565b82525050565b6000602082019050613a1f60008301846139fb565b92915050565b600080fd5b600080fd5b60008083601f840112613a4557613a44613310565b5b8235905067ffffffffffffffff811115613a6257613a61613a25565b5b602083019150836020820283011115613a7e57613a7d613a2a565b5b9250929050565b600080600060408486031215613a9e57613a9d613306565b5b6000613aac868287016135c9565b935050602084013567ffffffffffffffff811115613acd57613acc61330b565b5b613ad986828701613a2f565b92509250509250925092565b7f4e487b7100000000000000000000000000000000000000000000000000000000600052603260045260246000fd5b7f4e487b7100000000000000000000000000000000000000000000000000000000600052601160045260246000fd5b6000613b4e82613456565b9150613b5983613456565b9250828203905081811115613b7157613b70613b14565b5b92915050565b7f4e487b7100000000000000000000000000000000000000000000000000000000600052603160045260246000fd5b6000613bb9613bb4846133a6565b61338b565b905082815260208101848484011115613bd557613bd4613315565b5b613be084828561377d565b509392505050565b600082601f830112613bfd57613bfc613310565b5b8151613c0d848260208601613ba6565b91505092915050565b600081519050613c2581613460565b92915050565b600081519050613c3a8161348c565b92915050565b600080600080600080600060e0888a031215613c5f57613c5e613306565b5b600088015167ffffffffffffffff811115613c7d57613c7c61330b565b5b613c898a828b01613be8565b9750506020613c9a8a828b01613c16565b9650506040613cab8a828b01613c2b565b955050606088015167ffffffffffffffff811115613ccc57613ccb61330b565b5b613cd88a828b01613be8565b945050608088015167ffffffffffffffff811115613cf957613cf861330b565b5b613d058a828b01613be8565b93505060a0613d168a828b01613c16565b92505060c0613d278a828b01613c16565b91505092959891949750929550565b6000819050919050565b6000819050919050565b6000613d65613d60613d5b84613d36565b613d40565b613456565b9050919050565b613d7581613d4a565b82525050565b6000602082019050613d906000830184613d6c565b92915050565b7f4e487b7100000000000000000000000000000000000000000000000000000000600052602260045260246000fd5b60006002820490506001821680613ddd57607f821691505b602082108103613df057613def613d96565b5b50919050565b600067ffffffffffffffff821115613e1157613e1061332b565b5b602082029050602081019050919050565b600081519050613e31816135b2565b92915050565b6000613e4a613e4584613df6565b61338b565b90508083825260208201905060208402830185811115613e6d57613e6c613a2a565b5b835b81811015613e965780613e828882613e22565b845260208401935050602081019050613e6f565b5050509392505050565b600082601f830112613eb557613eb4613310565b5b8151613ec5848260208601613e37565b91505092915050565b600060208284031215613ee457613ee3613306565b5b600082015167ffffffffffffffff811115613f0257613f0161330b565b5b613f0e84828501613ea0565b91505092915050565b6000613f2282613456565b9150613f2d83613456565b9250828201905080821115613f4557613f44613b14565b5b92915050565b60008190508160005260206000209050919050565b60006020601f8301049050919050565b600082821b905092915050565b600060088302613fad7fffffffffffffffffffffffffffffffffffffffffffffffffffffffffffffffff82613f70565b613fb78683613f70565b95508019841693508086168417925050509392505050565b6000613fea613fe5613fe084613456565b613d40565b613456565b9050919050565b6000819050919050565b61400483613fcf565b61401861401082613ff1565b848454613f7d565b825550505050565b600090565b61402d614020565b614038818484613ffb565b505050565b5b8181101561405c57614051600082614025565b60018101905061403e565b5050565b601f8211156140a15761407281613f4b565b61407b84613f60565b8101602085101561408a578190505b61409e61409685613f60565b83018261403d565b50505b505050565b600082821c905092915050565b60006140c4600019846008026140a6565b1980831691505092915050565b60006140dd83836140b3565b9150826002028217905092915050565b6140f682613761565b67ffffffffffffffff81111561410f5761410e61332b565b5b6141198254613dc5565b614124828285614060565b600060209050601f8311600181146141575760008415614145578287015190505b61414f85826140d1565b8655506141b7565b601f19841661416586613f4b565b60005b8281101561418d57848901518255600182019150602085019450602081019050614168565b868310156141aa57848901516141a6601f8916826140b3565b8355505b6001600288020188555050505b505050505050565b7f4e487b7100000000000000000000000000000000000000000000000000000000600052601260045260246000fd5b60006141f982613456565b915061420483613456565b925082614214576142136141bf565b5b82820490509291505056fea2646970667358221220d62d3fac6fd98a64531b7a35f487755979e6a3cc34000c22fb7fc126737ae24c64736f6c634300081c0033",
  "linkReferences": {},
  "deployedLinkReferences": {}
}