{
  "_format": "hh-sol-artifact-1",
  "contractName": "VoterDatabase",
  "sourceName": "contracts/VoterDatabase.sol",
  "abi": [
    {
      "inputs": [],
      "name": "AdminManagement__AdminNotFound",
      "type": "error"
    },
    {
      "inputs": [],
      "name": "AdminManagement__AlreadyAdmin",
      "type": "error"
    },
    {
      "inputs": [],
      "name": "AdminManagement__InvalidAddress",
      "type": "error"
    },
    {
      "inputs": [],
      "name": "AdminManagement__NotAdmin",
      "type": "error"
    },
    {
      "inputs": [],
      "name": "AdminManagement__NotOwner",
      "type": "error"
    },
    {
      "inputs": [],
      "name": "VoterDatabase__AlreadyRegistered",
      "type": "error"
    },
    {
      "inputs": [],
      "name": "VoterDatabase__CannotUpdateAfterVoting",
      "type": "error"
    },
    {
      "inputs": [],
      "name": "VoterDatabase__ImportFailed",
      "type": "error"
    },
    {
      "inputs": [],
      "name": "VoterDatabase__InvalidAddress",
      "type": "error"
    },
    {
      "inputs": [],
      "name": "VoterDatabase__NotEligible",
      "type": "error"
    },
    {
      "inputs": [],
      "name": "VoterDatabase__NotRegistered",
      "type": "error"
    },
    {
      "anonymous": false,
      "inputs": [
        {
          "indexed": true,
          "internalType": "address",
          "name": "admin",
          "type": "address"
        },
        {
          "indexed": true,
          "internalType": "address",
          "name": "owner",
          "type": "address"
        }
      ],
      "name": "AdminAdded",
      "type": "event"
    },
    {
      "anonymous": false,
      "inputs": [
        {
          "indexed": true,
          "internalType": "address",
          "name": "voter",
          "type": "address"
        },
        {
          "indexed": true,
          "internalType": "address",
          "name": "admin",
          "type": "address"
        }
      ],
      "name": "AdminAddedVoter",
      "type": "event"
    },
    {
      "anonymous": false,
      "inputs": [
        {
          "indexed": true,
          "internalType": "address",
          "name": "admin",
          "type": "address"
        },
        {
          "indexed": true,
          "internalType": "address",
          "name": "owner",
          "type": "address"
        }
      ],
      "name": "AdminRemoved",
      "type": "event"
    },
    {
      "anonymous": false,
      "inputs": [
        {
          "indexed": true,
          "internalType": "address",
          "name": "voter",
          "type": "address"
        },
        {
          "indexed": true,
          "internalType": "address",
          "name": "admin",
          "type": "address"
        }
      ],
      "name": "AdminRemovedVoter",
      "type": "event"
    },
    {
      "anonymous": false,
      "inputs": [
        {
          "indexed": true,
          "internalType": "address",
          "name": "voter",
          "type": "address"
        },
        {
          "indexed": true,
          "internalType": "address",
          "name": "admin",
          "type": "address"
        }
      ],
      "name": "AdminUpdatedVoter",
      "type": "event"
    },
    {
      "anonymous": false,
      "inputs": [
        {
          "indexed": true,
          "internalType": "address",
          "name": "voter",
          "type": "address"
        },
        {
          "indexed": true,
          "internalType": "address",
          "name": "admin",
          "type": "address"
        }
      ],
      "name": "AdminUpdatedVotingStatus",
      "type": "event"
    },
    {
      "anonymous": false,
      "inputs": [
        {
          "indexed": true,
          "internalType": "address",
          "name": "voter",
          "type": "address"
        }
      ],
      "name": "VoterDeleted",
      "type": "event"
    },
    {
      "anonymous": false,
      "inputs": [
        {
          "indexed": true,
          "internalType": "address",
          "name": "voter",
          "type": "address"
        }
      ],
      "name": "VoterRegistered",
      "type": "event"
    },
    {
      "anonymous": false,
      "inputs": [
        {
          "indexed": true,
          "internalType": "address",
          "name": "voter",
          "type": "address"
        }
      ],
      "name": "VoterUpdated",
      "type": "event"
    },
    {
      "anonymous": false,
      "inputs": [
        {
          "indexed": true,
          "internalType": "address",
          "name": "voter",
          "type": "address"
        }
      ],
      "name": "VoterVoted",
      "type": "event"
    },
    {
      "anonymous": false,
      "inputs": [
        {
          "indexed": true,
          "internalType": "address",
          "name": "sourceContract",
          "type": "address"
        },
        {
          "indexed": false,
          "internalType": "uint256",
          "name": "votersImported",
          "type": "uint256"
        }
      ],
      "name": "VotersImported",
      "type": "event"
    },
    {
      "inputs": [
        {
          "internalType": "address",
          "name": "_adminAddress",
          "type": "address"
        }
      ],
      "name": "addAdmin",
      "outputs": [],
      "stateMutability": "nonpayable",
      "type": "function"
    },
    {
      "inputs": [
        {
          "internalType": "string",
          "name": "_name",
          "type": "string"
        },
        {
          "internalType": "uint256",
          "name": "_dateOfBirthEpoch",
          "type": "uint256"
        },
        {
          "internalType": "enum IVoterDatabase.Gender",
          "name": "_gender",
          "type": "uint8"
        },
        {
          "internalType": "string",
          "name": "_presentAddress",
          "type": "string"
        }
      ],
      "name": "addVoter",
      "outputs": [],
      "stateMutability": "nonpayable",
      "type": "function"
    },
    {
      "inputs": [
        {
          "internalType": "address",
          "name": "_voterAddress",
          "type": "address"
        },
        {
          "internalType": "string",
          "name": "_name",
          "type": "string"
        },
        {
          "internalType": "uint256",
          "name": "_dateOfBirthEpoch",
          "type": "uint256"
        },
        {
          "internalType": "enum IVoterDatabase.Gender",
          "name": "_gender",
          "type": "uint8"
        },
        {
          "internalType": "string",
          "name": "_presentAddress",
          "type": "string"
        },
        {
          "internalType": "bool",
          "name": "_hasVoted",
          "type": "bool"
        }
      ],
      "name": "adminAddVoter",
      "outputs": [],
      "stateMutability": "nonpayable",
      "type": "function"
    },
    {
      "inputs": [
        {
          "internalType": "address",
          "name": "_sourceContract",
          "type": "address"
        },
        {
          "internalType": "address[]",
          "name": "_voterAddresses",
          "type": "address[]"
        }
      ],
      "name": "adminBatchImportVoters",
      "outputs": [],
      "stateMutability": "nonpayable",
      "type": "function"
    },
    {
      "inputs": [],
      "name": "adminGetAllVoters",
      "outputs": [
        {
          "internalType": "address[]",
          "name": "",
          "type": "address[]"
        }
      ],
      "stateMutability": "view",
      "type": "function"
    },
    {
      "inputs": [],
      "name": "adminGetVoterCount",
      "outputs": [
        {
          "internalType": "uint256",
          "name": "",
          "type": "uint256"
        }
      ],
      "stateMutability": "view",
      "type": "function"
    },
    {
      "inputs": [
        {
          "internalType": "address",
          "name": "_voterAddress",
          "type": "address"
        }
      ],
      "name": "adminGetVoterDetails",
      "outputs": [
        {
          "internalType": "string",
          "name": "name",
          "type": "string"
        },
        {
          "internalType": "uint256",
          "name": "dateOfBirthEpoch",
          "type": "uint256"
        },
        {
          "internalType": "enum IVoterDatabase.Gender",
          "name": "gender",
          "type": "uint8"
        },
        {
          "internalType": "string",
          "name": "presentAddress",
          "type": "string"
        },
        {
          "internalType": "bool",
          "name": "hasVoted",
          "type": "bool"
        },
        {
          "internalType": "uint256",
          "name": "timeWhenRegisteredEpoch",
          "type": "uint256"
        }
      ],
      "stateMutability": "view",
      "type": "function"
    },
    {
      "inputs": [
        {
          "internalType": "address",
          "name": "_sourceContract",
          "type": "address"
        }
      ],
      "name": "adminImportAllVoters",
      "outputs": [],
      "stateMutability": "nonpayable",
      "type": "function"
    },
    {
      "inputs": [
        {
          "internalType": "address",
          "name": "_sourceContract",
          "type": "address"
        },
        {
          "internalType": "address",
          "name": "_voterAddress",
          "type": "address"
        }
      ],
      "name": "adminImportVoter",
      "outputs": [],
      "stateMutability": "nonpayable",
      "type": "function"
    },
    {
      "inputs": [
        {
          "internalType": "address",
          "name": "_voterAddress",
          "type": "address"
        }
      ],
      "name": "adminRemoveVoter",
      "outputs": [],
      "stateMutability": "nonpayable",
      "type": "function"
    },
    {
      "inputs": [
        {
          "internalType": "address",
          "name": "_voterAddress",
          "type": "address"
        },
        {
          "internalType": "bool",
          "name": "_hasVoted",
          "type": "bool"
        }
      ],
      "name": "adminSetVotingStatus",
      "outputs": [],
      "stateMutability": "nonpayable",
      "type": "function"
    },
    {
      "inputs": [
        {
          "internalType": "address",
          "name": "_voterAddress",
          "type": "address"
        },
        {
          "internalType": "string",
          "name": "_name",
          "type": "string"
        },
        {
          "internalType": "uint256",
          "name": "_dateOfBirthEpoch",
          "type": "uint256"
        },
        {
          "internalType": "enum IVoterDatabase.Gender",
          "name": "_gender",
          "type": "uint8"
        },
        {
          "internalType": "string",
          "name": "_presentAddress",
          "type": "string"
        },
        {
          "internalType": "bool",
          "name": "_hasVoted",
          "type": "bool"
        }
      ],
      "name": "adminUpdateVoter",
      "outputs": [],
      "stateMutability": "nonpayable",
      "type": "function"
    },
    {
      "inputs": [],
      "name": "amIAdmin",
      "outputs": [
        {
          "internalType": "bool",
          "name": "",
          "type": "bool"
        }
      ],
      "stateMutability": "view",
      "type": "function"
    },
    {
      "inputs": [
        {
          "internalType": "uint256",
          "name": "_dateOfBirthEpoch",
          "type": "uint256"
        }
      ],
      "name": "calculateAge",
      "outputs": [
        {
          "internalType": "uint256",
          "name": "",
          "type": "uint256"
        }
      ],
      "stateMutability": "view",
      "type": "function"
    },
    {
      "inputs": [],
      "name": "deleteVoter",
      "outputs": [],
      "stateMutability": "nonpayable",
      "type": "function"
    },
    {
      "inputs": [],
      "name": "getAdminCount",
      "outputs": [
        {
          "internalType": "uint256",
          "name": "",
          "type": "uint256"
        }
      ],
      "stateMutability": "view",
      "type": "function"
    },
    {
      "inputs": [],
      "name": "getAllAdmins",
      "outputs": [
        {
          "internalType": "address[]",
          "name": "",
          "type": "address[]"
        }
      ],
      "stateMutability": "view",
      "type": "function"
    },
    {
      "inputs": [],
      "name": "getMyAge",
      "outputs": [
        {
          "internalType": "uint256",
          "name": "",
          "type": "uint256"
        }
      ],
      "stateMutability": "view",
      "type": "function"
    },
    {
      "inputs": [],
      "name": "getMyDetails",
      "outputs": [
        {
          "internalType": "string",
          "name": "name",
          "type": "string"
        },
        {
          "internalType": "uint256",
          "name": "dateOfBirthEpoch",
          "type": "uint256"
        },
        {
          "internalType": "enum IVoterDatabase.Gender",
          "name": "gender",
          "type": "uint8"
        },
        {
          "internalType": "string",
          "name": "presentAddress",
          "type": "string"
        },
        {
          "internalType": "bool",
          "name": "hasVoted",
          "type": "bool"
        }
      ],
      "stateMutability": "view",
      "type": "function"
    },
    {
      "inputs": [],
      "name": "getMyRegistrationStatus",
      "outputs": [
        {
          "internalType": "bool",
          "name": "isRegistered",
          "type": "bool"
        }
      ],
      "stateMutability": "view",
      "type": "function"
    },
    {
      "inputs": [],
      "name": "getMyVotingStatus",
      "outputs": [
        {
          "internalType": "bool",
          "name": "hasVoted",
          "type": "bool"
        }
      ],
      "stateMutability": "view",
      "type": "function"
    },
    {
      "inputs": [],
      "name": "getOwner",
      "outputs": [
        {
          "internalType": "address",
          "name": "",
          "type": "address"
        }
      ],
      "stateMutability": "view",
      "type": "function"
    },
    {
      "inputs": [
        {
          "internalType": "address",
          "name": "_address",
          "type": "address"
        }
      ],
      "name": "isAdmin",
      "outputs": [
        {
          "internalType": "bool",
          "name": "",
          "type": "bool"
        }
      ],
      "stateMutability": "view",
      "type": "function"
    },
    {
      "inputs": [],
      "name": "markVoted",
      "outputs": [],
      "stateMutability": "nonpayable",
      "type": "function"
    },
    {
      "inputs": [
        {
          "internalType": "address",
          "name": "_adminAddress",
          "type": "address"
        }
      ],
      "name": "removeAdmin",
      "outputs": [],
      "stateMutability": "nonpayable",
      "type": "function"
    },
    {
      "inputs": [
        {
          "internalType": "string",
          "name": "_name",
          "type": "string"
        },
        {
          "internalType": "uint256",
          "name": "_dateOfBirthEpoch",
          "type": "uint256"
        },
        {
          "internalType": "enum IVoterDatabase.Gender",
          "name": "_gender",
          "type": "uint8"
        },
        {
          "internalType": "string",
          "name": "_presentAddress",
          "type": "string"
        }
      ],
      "name": "updateVoter",
      "outputs": [],
      "stateMutability": "nonpayable",
      "type": "function"
    }
  ],
  "bytecode": "0x60a060405234801561001057600080fd5b5033608052608051612eeb61008b600039600081816102f50152818161051101528181610701015281816109a501528181610cf101528181610dac01528181611087015281816112c3015281816116bc01528181611cbc01528181611dbf0152818161204b0152818161241e015261248c0152612eeb6000f3fe608060405234801561001057600080fd5b50600436106101ad5760003560e01c806384699ad9116100ee578063a2d0abe711610097578063e8d63acc11610071578063e8d63acc14610382578063e9523c9714610395578063f45d42ab1461039d578063fc8e4aab146103a557600080fd5b8063a2d0abe714610337578063ab5c354d1461034a578063c12caf4d1461035d57600080fd5b80638b7bf3eb116100c85780638b7bf3eb1461031f5780638ebd0a4c14610327578063934f1cca1461032f57600080fd5b806384699ad9146102bf57806385cc8bfb146102d5578063893d20e8146102e857600080fd5b806341509fe31161015b5780634afba630116101355780634afba630146102715780635b409d091461028457806370480275146102a4578063775f3f33146102b757600080fd5b806341509fe314610230578063431bbb7e14610245578063497e40031461025e57600080fd5b806322edc4841161018c57806322edc484146101ed57806324d7806c146102005780634040a2d51461022857600080fd5b80625b78ad146101b25780631785f53c146101c7578063197c0f92146101da575b600080fd5b6101c56101c0366004612740565b6103b8565b005b6101c56101d53660046127da565b610506565b6101c56101e836600461280c565b6106f6565b6101c56101fb3660046128b7565b61099a565b61021361020e3660046127da565b610ced565b60405190151581526020015b60405180910390f35b610213610d4d565b610238610d9f565b60405161021f91906128f0565b61024d610e68565b60405161021f9594939291906129c4565b6101c561026c3660046127da565b61107c565b6101c561027f3660046127da565b6112b8565b33600090815260026020526040902060040154610100900460ff16610213565b6101c56102b23660046127da565b6116b1565b6101c561181a565b6102c76119db565b60405190815260200161021f565b6102c76102e3366004612a11565b611a34565b6040516001600160a01b037f000000000000000000000000000000000000000000000000000000000000000016815260200161021f565b6001546102c7565b6101c5611a4f565b610213611acc565b6101c5610345366004612740565b611ad7565b6101c5610358366004612a2a565b611cb1565b61037061036b3660046127da565b611dac565b60405161021f96959493929190612a58565b6101c5610390366004612aa6565b612040565b6102386123b1565b6102c7612411565b6101c56103b336600461280c565b612481565b33600090815260026020526040902060040154610100900460ff166103f057604051633cb304c760e11b815260040160405180910390fd5b3360009081526002602052604090206004015460ff161561043d576040517f8028fe5d00000000000000000000000000000000000000000000000000000000815260040160405180910390fd5b60006301e1338061044e8542612b46565b6104589190612b59565b9050601281101561047c57604051633d1730af60e11b815260040160405180910390fd5b336000908152600260205260409020806104968782612c03565b506001808201869055600282018054869260ff199091169083818111156104bf576104bf61298c565b0217905550600381016104d28482612c03565b5060405133907f452a1bea58b8e4d443d5b0865906cc360f45aae2ee5103ee1cadec26965bc07390600090a2505050505050565b336001600160a01b037f0000000000000000000000000000000000000000000000000000000000000000161461054f57604051632f8ab19d60e21b815260040160405180910390fd5b6001600160a01b03811660009081526020819052604090205460ff166105a1576040517f256d404300000000000000000000000000000000000000000000000000000000815260040160405180910390fd5b6001600160a01b0381166000908152602081905260408120805460ff191690555b6001548110156106bc57816001600160a01b0316600182815481106105e9576105e9612cc2565b6000918252602090912001546001600160a01b0316036106b45760018054610612908290612b46565b8154811061062257610622612cc2565b600091825260209091200154600180546001600160a01b03909216918390811061064e5761064e612cc2565b9060005260206000200160006101000a8154816001600160a01b0302191690836001600160a01b03160217905550600180548061068d5761068d612cd8565b600082815260209020810160001990810180546001600160a01b03191690550190556106bc565b6001016105c2565b5060405133906001600160a01b038316907fdb9d5d31320daf5bc7181d565b6da4d12e30f0f4d5aa324a992426c14a1d19ce90600090a350565b336001600160a01b037f0000000000000000000000000000000000000000000000000000000000000000161480159061073f57503360009081526020819052604090205460ff16155b1561075d576040516343d4541760e11b815260040160405180910390fd5b6001600160a01b03861661079d576040517ff716e87a00000000000000000000000000000000000000000000000000000000815260040160405180910390fd5b6001600160a01b038616600090815260026020526040902060040154610100900460ff16156107df576040516381ab984960e01b815260040160405180910390fd5b60006301e133806107f08642612b46565b6107fa9190612b59565b9050601281101561081e57604051633d1730af60e11b815260040160405180910390fd5b6040518060e001604052808781526020018681526020018560018111156108475761084761298c565b8152602080820186905284151560408084019190915260016060840152426080909301929092526001600160a01b038a166000908152600290915220815181906108919082612c03565b506020820151816001015560408201518160020160006101000a81548160ff021916908360018111156108c6576108c661298c565b0217905550606082015160038201906108df9082612c03565b50608082015160048201805460a085015115156101000261ff00199315159390931661ffff199091161791909117905560c0909101516005909101556003805460018101825560009182527fc2575a0e9e593c00f959f8c92f12db2869c3395a3b0502d05e2516446f71f85b0180546001600160a01b038a166001600160a01b0319909116811790915560405133927f1526559f7a4c30b69a62ace47df95483b2115a7ff1a1a0d7adc96114790bc60691a350505050505050565b336001600160a01b037f000000000000000000000000000000000000000000000000000000000000000016148015906109e357503360009081526020819052604090205460ff16155b15610a01576040516343d4541760e11b815260040160405180910390fd5b6001600160a01b038116600090815260026020526040902060040154610100900460ff1615610a43576040516381ab984960e01b815260040160405180910390fd5b60405163c12caf4d60e01b81526001600160a01b03828116600483015283919082169063c12caf4d90602401600060405180830381865afa925050508015610aad57506040513d6000823e601f3d908101601f19168201604052610aaa9190810190612d3b565b60015b610aca5760405163b3e1a8c160e01b815260040160405180910390fd5b60006301e13380610adb8742612b46565b610ae59190612b59565b90506012811015610b0957604051633d1730af60e11b815260040160405180910390fd5b6040518060e00160405280888152602001878152602001866001811115610b3257610b3261298c565b6001811115610b4357610b4361298c565b6001811115610b5457610b5461298c565b8152602080820187905285151560408084019190915260016060840152426080909301929092526001600160a01b038c16600090815260029091522081518190610b9e9082612c03565b506020820151816001015560408201518160020160006101000a81548160ff02191690836001811115610bd357610bd361298c565b021790555060608201516003820190610bec9082612c03565b50608082015160048201805460a085015115156101000261ff00199315159390931661ffff199091161791909117905560c0909101516005909101556003805460018101825560009182527fc2575a0e9e593c00f959f8c92f12db2869c3395a3b0502d05e2516446f71f85b0180546001600160a01b038c166001600160a01b0319909116811790915560405190917fb6be2187d059cc2a55fe29e0e503b566e1e0f8c8780096e185429350acffd3dd91a26040516001808252906001600160a01b038c16907f75daea5c72a0008b18bdea0ab7e2c1357fdac2ad35fbc0cde3d47857fd15dbfe9060200160405180910390a250505050505050505b505050565b60007f00000000000000000000000000000000000000000000000000000000000000006001600160a01b0316826001600160a01b03161480610d4757506001600160a01b03821660009081526020819052604090205460ff165b92915050565b33600090815260026020526040812060040154610100900460ff16610d8557604051633cb304c760e11b815260040160405180910390fd5b503360009081526002602052604090206004015460ff1690565b6060336001600160a01b037f00000000000000000000000000000000000000000000000000000000000000001614801590610dea57503360009081526020819052604090205460ff16155b15610e08576040516343d4541760e11b815260040160405180910390fd5b6003805480602002602001604051908101604052809291908181526020018280548015610e5e57602002820191906000526020600020905b81546001600160a01b03168152600190910190602001808311610e40575b5050505050905090565b3360009081526002602052604081206004015460609190819083908290610100900460ff16610eaa57604051633cb304c760e11b815260040160405180910390fd5b33600090815260026020526040808220815160e08101909252805482908290610ed290612b7b565b80601f0160208091040260200160405190810160405280929190818152602001828054610efe90612b7b565b8015610f4b5780601f10610f2057610100808354040283529160200191610f4b565b820191906000526020600020905b815481529060010190602001808311610f2e57829003601f168201915b50505091835250506001828101546020830152600283015460409092019160ff1690811115610f7c57610f7c61298c565b6001811115610f8d57610f8d61298c565b8152602001600382018054610fa190612b7b565b80601f0160208091040260200160405190810160405280929190818152602001828054610fcd90612b7b565b801561101a5780601f10610fef5761010080835404028352916020019161101a565b820191906000526020600020905b815481529060010190602001808311610ffd57829003601f168201915b5050509183525050600482015460ff80821615156020808501919091526101009092041615156040808401919091526005909301546060928301528351908401519284015191840151608090940151909a929950909750919550909350915050565b336001600160a01b037f000000000000000000000000000000000000000000000000000000000000000016148015906110c557503360009081526020819052604090205460ff16155b156110e3576040516343d4541760e11b815260040160405180910390fd5b6001600160a01b038116600090815260026020526040902060040154610100900460ff1661112457604051633cb304c760e11b815260040160405180910390fd5b6001600160a01b0381166000908152600260205260408120906111478282612618565b60006001830181905560028301805460ff1916905561116a906003840190612618565b5060048101805461ffff19169055600060059091018190555b60035481101561127e57816001600160a01b0316600382815481106111aa576111aa612cc2565b6000918252602090912001546001600160a01b03160361127657600380546111d490600190612b46565b815481106111e4576111e4612cc2565b600091825260209091200154600380546001600160a01b03909216918390811061121057611210612cc2565b9060005260206000200160006101000a8154816001600160a01b0302191690836001600160a01b03160217905550600380548061124f5761124f612cd8565b600082815260209020810160001990810180546001600160a01b031916905501905561127e565b600101611183565b5060405133906001600160a01b038316907fb8644c8db01f390a1148d2f24cc77fd6ce3dc104da1f9b36a706197e2c85019490600090a350565b336001600160a01b037f0000000000000000000000000000000000000000000000000000000000000000161480159061130157503360009081526020819052604090205460ff16155b1561131f576040516343d4541760e11b815260040160405180910390fd5b60008190506060816001600160a01b03166341509fe36040518163ffffffff1660e01b8152600401600060405180830381865afa92505050801561138557506040513d6000823e601f3d908101601f191682016040526113829190810190612de3565b60015b6113a25760405163b3e1a8c160e01b815260040160405180910390fd5b90506000805b82518110156116675760008382815181106113c5576113c5612cc2565b6020026020010151905060026000826001600160a01b03166001600160a01b0316815260200190815260200160002060040160019054906101000a900460ff1615611410575061165f565b60405163c12caf4d60e01b81526001600160a01b03828116600483015286169063c12caf4d90602401600060405180830381865afa92505050801561147757506040513d6000823e601f3d908101601f191682016040526114749190810190612d3b565b60015b611481575061165f565b60006301e133806114928742612b46565b61149c9190612b59565b905060128110156114b457505050505050505061165f565b6040518060e001604052808881526020018781526020018660018111156114dd576114dd61298c565b60018111156114ee576114ee61298c565b60018111156114ff576114ff61298c565b8152602080820187905285151560408084019190915260016060840152426080909301929092526001600160a01b038b166000908152600290915220815181906115499082612c03565b506020820151816001015560408201518160020160006101000a81548160ff0219169083600181111561157e5761157e61298c565b0217905550606082015160038201906115979082612c03565b50608082015160048201805460a085015115156101000261ff00199315159390931661ffff199091161791909117905560c0909101516005909101556003805460018101825560009182527fc2575a0e9e593c00f959f8c92f12db2869c3395a3b0502d05e2516446f71f85b0180546001600160a01b038b166001600160a01b0319909116811790915560405190917fb6be2187d059cc2a55fe29e0e503b566e1e0f8c8780096e185429350acffd3dd91a28961165381612e9c565b9a505050505050505050505b6001016113a8565b50836001600160a01b03167f75daea5c72a0008b18bdea0ab7e2c1357fdac2ad35fbc0cde3d47857fd15dbfe826040516116a391815260200190565b60405180910390a250505050565b336001600160a01b037f000000000000000000000000000000000000000000000000000000000000000016146116fa57604051632f8ab19d60e21b815260040160405180910390fd5b6001600160a01b03811661173a576040517fd9fa4b4700000000000000000000000000000000000000000000000000000000815260040160405180910390fd5b6001600160a01b03811660009081526020819052604090205460ff161561178d576040517f4e16b38200000000000000000000000000000000000000000000000000000000815260040160405180910390fd5b6001600160a01b038116600081815260208190526040808220805460ff19166001908117909155805480820182559083527fb10e2d527612073b26eecdfd717e6a320cf44b4afac2b0732d9fcbe2b7fa0cf60180546001600160a01b03191684179055513392917fbf3f493c772c8c283fd124432c2d0f539ab343faa04258fe88e52912d36b102b91a350565b33600090815260026020526040902060040154610100900460ff1661185257604051633cb304c760e11b815260040160405180910390fd5b3360008181526002602052604081209061186c8282612618565b60006001830181905560028301805460ff1916905561188f906003840190612618565b5060048101805461ffff19169055600060059091018190555b6003548110156119a357816001600160a01b0316600382815481106118cf576118cf612cc2565b6000918252602090912001546001600160a01b03160361199b57600380546118f990600190612b46565b8154811061190957611909612cc2565b600091825260209091200154600380546001600160a01b03909216918390811061193557611935612cc2565b9060005260206000200160006101000a8154816001600160a01b0302191690836001600160a01b03160217905550600380548061197457611974612cd8565b600082815260209020810160001990810180546001600160a01b03191690550190556119a3565b6001016118a8565b506040516001600160a01b038216907faf4c2a533fbd4d43945279bdd38298da41e7b2785811f3fe4f5233a3bd4aea0b90600090a250565b33600090815260026020526040812060040154610100900460ff16611a1357604051633cb304c760e11b815260040160405180910390fd5b33600090815260026020526040902060010154611a2f90611a34565b905090565b60006301e13380611a458342612b46565b610d479190612b59565b33600090815260026020526040902060040154610100900460ff16611a8757604051633cb304c760e11b815260040160405180910390fd5b33600081815260026020526040808220600401805460ff19166001179055517f8fd1c56946dc9410415e1d70729e4a8926174655d5f0e2527301de09bae9feac9190a2565b6000611a2f33610ced565b60006301e13380611ae88542612b46565b611af29190612b59565b90506012811015611b1657604051633d1730af60e11b815260040160405180910390fd5b33600090815260026020526040902060040154610100900460ff1615611b4f576040516381ab984960e01b815260040160405180910390fd5b6040518060e00160405280868152602001858152602001846001811115611b7857611b7861298c565b8152602080820185905260006040808401829052600160608501524260809094019390935233815260029091522081518190611bb49082612c03565b506020820151816001015560408201518160020160006101000a81548160ff02191690836001811115611be957611be961298c565b021790555060608201516003820190611c029082612c03565b50608082015160048201805460a085015115156101000261ff00199315159390931661ffff199091161791909117905560c0909101516005909101556003805460018101825560009182527fc2575a0e9e593c00f959f8c92f12db2869c3395a3b0502d05e2516446f71f85b0180546001600160a01b0319163390811790915560405190917fb6be2187d059cc2a55fe29e0e503b566e1e0f8c8780096e185429350acffd3dd91a25050505050565b336001600160a01b037f00000000000000000000000000000000000000000000000000000000000000001614801590611cfa57503360009081526020819052604090205460ff16155b15611d18576040516343d4541760e11b815260040160405180910390fd5b6001600160a01b038216600090815260026020526040902060040154610100900460ff16611d5957604051633cb304c760e11b815260040160405180910390fd5b6001600160a01b038216600081815260026020526040808220600401805460ff1916851515179055513392917f021d3238501a18b85b254aafd63dac3f9cde239e23f1298b4caba4c51eb657f691a35050565b6060600080828180336001600160a01b037f00000000000000000000000000000000000000000000000000000000000000001614801590611dfd57503360009081526020819052604090205460ff16155b15611e1b576040516343d4541760e11b815260040160405180910390fd5b6001600160a01b038716600090815260026020526040902060040154610100900460ff16611e5c57604051633cb304c760e11b815260040160405180910390fd5b6001600160a01b038716600090815260026020526040808220815160e08101909252805482908290611e8d90612b7b565b80601f0160208091040260200160405190810160405280929190818152602001828054611eb990612b7b565b8015611f065780601f10611edb57610100808354040283529160200191611f06565b820191906000526020600020905b815481529060010190602001808311611ee957829003601f168201915b50505091835250506001828101546020830152600283015460409092019160ff1690811115611f3757611f3761298c565b6001811115611f4857611f4861298c565b8152602001600382018054611f5c90612b7b565b80601f0160208091040260200160405190810160405280929190818152602001828054611f8890612b7b565b8015611fd55780601f10611faa57610100808354040283529160200191611fd5565b820191906000526020600020905b815481529060010190602001808311611fb857829003601f168201915b5050509183525050600482015460ff80821615156020808501919091526101009092041615156040808401919091526005909301546060928301528351908401519284015191840151608085015160c090950151919d939c50919a5090985091965090945092505050565b336001600160a01b037f0000000000000000000000000000000000000000000000000000000000000000161480159061208957503360009081526020819052604090205460ff16155b156120a7576040516343d4541760e11b815260040160405180910390fd5b826000805b838110156123665760008585838181106120c8576120c8612cc2565b90506020020160208101906120dd91906127da565b6001600160a01b038116600090815260026020526040902060040154909150610100900460ff161561210f575061235e565b60405163c12caf4d60e01b81526001600160a01b03828116600483015285169063c12caf4d90602401600060405180830381865afa92505050801561217657506040513d6000823e601f3d908101601f191682016040526121739190810190612d3b565b60015b612180575061235e565b60006301e133806121918742612b46565b61219b9190612b59565b905060128110156121b357505050505050505061235e565b6040518060e001604052808881526020018781526020018660018111156121dc576121dc61298c565b60018111156121ed576121ed61298c565b60018111156121fe576121fe61298c565b8152602080820187905285151560408084019190915260016060840152426080909301929092526001600160a01b038b166000908152600290915220815181906122489082612c03565b506020820151816001015560408201518160020160006101000a81548160ff0219169083600181111561227d5761227d61298c565b0217905550606082015160038201906122969082612c03565b50608082015160048201805460a085015115156101000261ff00199315159390931661ffff199091161791909117905560c0909101516005909101556003805460018101825560009182527fc2575a0e9e593c00f959f8c92f12db2869c3395a3b0502d05e2516446f71f85b0180546001600160a01b038b166001600160a01b0319909116811790915560405190917fb6be2187d059cc2a55fe29e0e503b566e1e0f8c8780096e185429350acffd3dd91a28961235281612e9c565b9a505050505050505050505b6001016120ac565b50846001600160a01b03167f75daea5c72a0008b18bdea0ab7e2c1357fdac2ad35fbc0cde3d47857fd15dbfe826040516123a291815260200190565b60405180910390a25050505050565b60606001805480602002602001604051908101604052809291908181526020018280548015610e5e576020028201919060005260206000209081546001600160a01b03168152600190910190602001808311610e40575050505050905090565b6000336001600160a01b037f0000000000000000000000000000000000000000000000000000000000000000161480159061245c57503360009081526020819052604090205460ff16155b1561247a576040516343d4541760e11b815260040160405180910390fd5b5060035490565b336001600160a01b037f000000000000000000000000000000000000000000000000000000000000000016148015906124ca57503360009081526020819052604090205460ff16155b156124e8576040516343d4541760e11b815260040160405180910390fd5b6001600160a01b038616600090815260026020526040902060040154610100900460ff1661252957604051633cb304c760e11b815260040160405180910390fd5b60006301e1338061253a8642612b46565b6125449190612b59565b9050601281101561256857604051633d1730af60e11b815260040160405180910390fd5b6001600160a01b03871660009081526002602052604090208061258b8882612c03565b506001808201879055600282018054879260ff199091169083818111156125b4576125b461298c565b0217905550600381016125c78582612c03565b5060048101805460ff191684151517905560405133906001600160a01b038a16907f0d86a35f44bd7db2e20f4a249388595ad9232a2d5b8be19ebe307828eed21fa690600090a35050505050505050565b50805461262490612b7b565b6000825580601f10612634575050565b601f0160209004906000526020600020908101906126529190612655565b50565b5b8082111561266a5760008155600101612656565b5090565b634e487b7160e01b600052604160045260246000fd5b604051601f8201601f1916810167ffffffffffffffff811182821017156126ad576126ad61266e565b604052919050565b600067ffffffffffffffff8211156126cf576126cf61266e565b50601f01601f191660200190565b600082601f8301126126ee57600080fd5b81356127016126fc826126b5565b612684565b81815284602083860101111561271657600080fd5b816020850160208301376000918101602001919091529392505050565b6002811061265257600080fd5b6000806000806080858703121561275657600080fd5b843567ffffffffffffffff81111561276d57600080fd5b612779878288016126dd565b94505060208501359250604085013561279181612733565b9150606085013567ffffffffffffffff8111156127ad57600080fd5b6127b9878288016126dd565b91505092959194509250565b6001600160a01b038116811461265257600080fd5b6000602082840312156127ec57600080fd5b81356127f7816127c5565b9392505050565b801515811461265257600080fd5b60008060008060008060c0878903121561282557600080fd5b8635612830816127c5565b9550602087013567ffffffffffffffff81111561284c57600080fd5b61285889828a016126dd565b95505060408701359350606087013561287081612733565b9250608087013567ffffffffffffffff81111561288c57600080fd5b61289889828a016126dd565b92505060a08701356128a9816127fe565b809150509295509295509295565b600080604083850312156128ca57600080fd5b82356128d5816127c5565b915060208301356128e5816127c5565b809150509250929050565b602080825282518282018190526000918401906040840190835b818110156129315783516001600160a01b031683526020938401939092019160010161290a565b509095945050505050565b60005b8381101561295757818101518382015260200161293f565b50506000910152565b6000815180845261297881602086016020860161293c565b601f01601f19169290920160200192915050565b634e487b7160e01b600052602160045260246000fd5b600281106129c057634e487b7160e01b600052602160045260246000fd5b9052565b60a0815260006129d760a0830188612960565b8660208401526129ea60408401876129a2565b82810360608401526129fc8186612960565b91505082151560808301529695505050505050565b600060208284031215612a2357600080fd5b5035919050565b60008060408385031215612a3d57600080fd5b8235612a48816127c5565b915060208301356128e5816127fe565b60c081526000612a6b60c0830189612960565b876020840152612a7e60408401886129a2565b8281036060840152612a908187612960565b9415156080840152505060a00152949350505050565b600080600060408486031215612abb57600080fd5b8335612ac6816127c5565b9250602084013567ffffffffffffffff811115612ae257600080fd5b8401601f81018613612af357600080fd5b803567ffffffffffffffff811115612b0a57600080fd5b8660208260051b8401011115612b1f57600080fd5b939660209190910195509293505050565b634e487b7160e01b600052601160045260246000fd5b81810381811115610d4757610d47612b30565b600082612b7657634e487b7160e01b600052601260045260246000fd5b500490565b600181811c90821680612b8f57607f821691505b602082108103612baf57634e487b7160e01b600052602260045260246000fd5b50919050565b601f821115610ce857806000526020600020601f840160051c81016020851015612bdc5750805b601f840160051c820191505b81811015612bfc5760008155600101612be8565b5050505050565b815167ffffffffffffffff811115612c1d57612c1d61266e565b612c3181612c2b8454612b7b565b84612bb5565b6020601f821160018114612c655760008315612c4d5750848201515b600019600385901b1c1916600184901b178455612bfc565b600084815260208120601f198516915b82811015612c955787850151825560209485019460019092019101612c75565b5084821015612cb35786840151600019600387901b60f8161c191681555b50505050600190811b01905550565b634e487b7160e01b600052603260045260246000fd5b634e487b7160e01b600052603160045260246000fd5b600082601f830112612cff57600080fd5b8151612d0d6126fc826126b5565b818152846020838601011115612d2257600080fd5b612d3382602083016020870161293c565b949350505050565b60008060008060008060c08789031215612d5457600080fd5b865167ffffffffffffffff811115612d6b57600080fd5b612d7789828a01612cee565b602089015160408a015191985096509050612d9181612733565b606088015190945067ffffffffffffffff811115612dae57600080fd5b612dba89828a01612cee565b9350506080870151612dcb816127fe565b60a09790970151959894975092959194919391925050565b600060208284031215612df557600080fd5b815167ffffffffffffffff811115612e0c57600080fd5b8201601f81018413612e1d57600080fd5b805167ffffffffffffffff811115612e3757612e3761266e565b8060051b612e4760208201612684565b91825260208184018101929081019087841115612e6357600080fd5b6020850194505b83851015612e915784519250612e7f836127c5565b82825260209485019490910190612e6a565b979650505050505050565b600060018201612eae57612eae612b30565b506001019056fea264697066735822122078577abe87db6488a2f2c0e88944b547e0a40adef10331a27f8d39cfc27f440d64736f6c634300081c0033",
  "linkReferences": {},
  "deployedLinkReferences": {}
}